{
  "address": "0xe880fe143dc62aab47aba54e2165ee982b5bce3e",
  "abi": [
    {
      "inputs": [],
      "name": "FailedWithdrawal",
      "type": "error"
    },
    {
      "inputs": [],
      "name": "IncorrectDistribution",
      "type": "error"
    },
    {
      "inputs": [],
      "name": "IncorrectListLength",
      "type": "error"
    },
    {
      "inputs": [],
      "name": "InvalidShares",
      "type": "error"
    },
    {
      "inputs": [],
      "name": "InvalidToken",
      "type": "error"
    },
    {
      "inputs": [],
      "name": "LenderAlreadyAdded",
      "type": "error"
    },
    {
      "inputs": [],
      "name": "NonExistentLender",
      "type": "error"
    },
    {
      "inputs": [],
      "name": "UndockedLender",
      "type": "error"
    },
    {
      "inputs": [],
      "name": "ZeroAddress",
      "type": "error"
    },
    {
      "anonymous": false,
      "inputs": [
        {
          "indexed": true,
          "internalType": "address",
          "name": "lender",
          "type": "address"
        }
      ],
      "name": "AddLender",
      "type": "event"
    },
    {
      "anonymous": false,
      "inputs": [],
      "name": "EmergencyExitActivated",
      "type": "event"
    },
    {
      "anonymous": false,
      "inputs": [
        {
          "indexed": false,
          "internalType": "uint256",
          "name": "profit",
          "type": "uint256"
        },
        {
          "indexed": false,
          "internalType": "uint256",
          "name": "loss",
          "type": "uint256"
        },
        {
          "indexed": false,
          "internalType": "uint256",
          "name": "debtPayment",
          "type": "uint256"
        },
        {
          "indexed": false,
          "internalType": "uint256",
          "name": "debtOutstanding",
          "type": "uint256"
        }
      ],
      "name": "Harvested",
      "type": "event"
    },
    {
      "anonymous": false,
      "inputs": [
        {
          "indexed": true,
          "internalType": "address",
          "name": "lender",
          "type": "address"
        }
      ],
      "name": "RemoveLender",
      "type": "event"
    },
    {
      "anonymous": false,
      "inputs": [
        {
          "indexed": true,
          "internalType": "bytes32",
          "name": "role",
          "type": "bytes32"
        },
        {
          "indexed": true,
          "internalType": "bytes32",
          "name": "previousAdminRole",
          "type": "bytes32"
        },
        {
          "indexed": true,
          "internalType": "bytes32",
          "name": "newAdminRole",
          "type": "bytes32"
        }
      ],
      "name": "RoleAdminChanged",
      "type": "event"
    },
    {
      "anonymous": false,
      "inputs": [
        {
          "indexed": true,
          "internalType": "bytes32",
          "name": "role",
          "type": "bytes32"
        },
        {
          "indexed": true,
          "internalType": "address",
          "name": "account",
          "type": "address"
        },
        {
          "indexed": true,
          "internalType": "address",
          "name": "sender",
          "type": "address"
        }
      ],
      "name": "RoleGranted",
      "type": "event"
    },
    {
      "anonymous": false,
      "inputs": [
        {
          "indexed": true,
          "internalType": "bytes32",
          "name": "role",
          "type": "bytes32"
        },
        {
          "indexed": true,
          "internalType": "address",
          "name": "account",
          "type": "address"
        },
        {
          "indexed": true,
          "internalType": "address",
          "name": "sender",
          "type": "address"
        }
      ],
      "name": "RoleRevoked",
      "type": "event"
    },
    {
      "anonymous": false,
      "inputs": [
        {
          "indexed": false,
          "internalType": "uint256",
          "name": "debtThreshold",
          "type": "uint256"
        }
      ],
      "name": "UpdatedDebtThreshold",
      "type": "event"
    },
    {
      "anonymous": false,
      "inputs": [
        {
          "indexed": false,
          "internalType": "bool",
          "name": "activated",
          "type": "bool"
        }
      ],
      "name": "UpdatedIsRewardActivated",
      "type": "event"
    },
    {
      "anonymous": false,
      "inputs": [
        {
          "indexed": false,
          "internalType": "uint256",
          "name": "delay",
          "type": "uint256"
        }
      ],
      "name": "UpdatedMaxReportDelayed",
      "type": "event"
    },
    {
      "anonymous": false,
      "inputs": [
        {
          "indexed": false,
          "internalType": "uint256",
          "name": "delay",
          "type": "uint256"
        }
      ],
      "name": "UpdatedMinReportDelayed",
      "type": "event"
    },
    {
      "anonymous": false,
      "inputs": [
        {
          "indexed": false,
          "internalType": "uint256",
          "name": "_rewardAmount",
          "type": "uint256"
        },
        {
          "indexed": false,
          "internalType": "uint256",
          "name": "_minimumAmountMoved",
          "type": "uint256"
        }
      ],
      "name": "UpdatedRewardAmountAndMinimumAmountMoved",
      "type": "event"
    },
    {
      "anonymous": false,
      "inputs": [
        {
          "indexed": false,
          "internalType": "address",
          "name": "rewards",
          "type": "address"
        }
      ],
      "name": "UpdatedRewards",
      "type": "event"
    },
    {
      "inputs": [],
      "name": "BASE",
      "outputs": [
        {
          "internalType": "uint256",
          "name": "",
          "type": "uint256"
        }
      ],
      "stateMutability": "view",
      "type": "function"
    },
    {
      "inputs": [],
      "name": "DEFAULT_ADMIN_ROLE",
      "outputs": [
        {
          "internalType": "bytes32",
          "name": "",
          "type": "bytes32"
        }
      ],
      "stateMutability": "view",
      "type": "function"
    },
    {
      "inputs": [],
      "name": "GUARDIAN_ROLE",
      "outputs": [
        {
          "internalType": "bytes32",
          "name": "",
          "type": "bytes32"
        }
      ],
      "stateMutability": "view",
      "type": "function"
    },
    {
      "inputs": [],
      "name": "KEEPER_ROLE",
      "outputs": [
        {
          "internalType": "bytes32",
          "name": "",
          "type": "bytes32"
        }
      ],
      "stateMutability": "view",
      "type": "function"
    },
    {
      "inputs": [],
      "name": "POOLMANAGER_ROLE",
      "outputs": [
        {
          "internalType": "bytes32",
          "name": "",
          "type": "bytes32"
        }
      ],
      "stateMutability": "view",
      "type": "function"
    },
    {
      "inputs": [],
      "name": "SECONDS_PER_YEAR",
      "outputs": [
        {
          "internalType": "uint256",
          "name": "",
          "type": "uint256"
        }
      ],
      "stateMutability": "view",
      "type": "function"
    },
    {
      "inputs": [
        {
          "internalType": "address",
          "name": "_guardian",
          "type": "address"
        }
      ],
      "name": "addGuardian",
      "outputs": [],
      "stateMutability": "nonpayable",
      "type": "function"
    },
    {
      "inputs": [
        {
          "internalType": "contract IGenericLender",
          "name": "newLender",
          "type": "address"
        }
      ],
      "name": "addLender",
      "outputs": [],
      "stateMutability": "nonpayable",
      "type": "function"
    },
    {
      "inputs": [],
      "name": "debtThreshold",
      "outputs": [
        {
          "internalType": "uint256",
          "name": "",
          "type": "uint256"
        }
      ],
      "stateMutability": "view",
      "type": "function"
    },
    {
      "inputs": [],
      "name": "emergencyExit",
      "outputs": [
        {
          "internalType": "bool",
          "name": "",
          "type": "bool"
        }
      ],
      "stateMutability": "view",
      "type": "function"
    },
    {
      "inputs": [],
      "name": "estimatedAPR",
      "outputs": [
        {
          "internalType": "uint256",
          "name": "",
          "type": "uint256"
        }
      ],
      "stateMutability": "view",
      "type": "function"
    },
    {
      "inputs": [
        {
          "internalType": "uint64[]",
          "name": "shares",
          "type": "uint64[]"
        }
      ],
      "name": "estimatedAPR",
      "outputs": [
        {
          "internalType": "uint256",
          "name": "weightedAPR",
          "type": "uint256"
        },
        {
          "internalType": "int256[]",
          "name": "lenderAdjustedAmounts",
          "type": "int256[]"
        }
      ],
      "stateMutability": "view",
      "type": "function"
    },
    {
      "inputs": [],
      "name": "estimatedTotalAssets",
      "outputs": [
        {
          "internalType": "uint256",
          "name": "nav",
          "type": "uint256"
        }
      ],
      "stateMutability": "view",
      "type": "function"
    },
    {
      "inputs": [
        {
          "internalType": "address",
          "name": "lender",
          "type": "address"
        }
      ],
      "name": "forceRemoveLender",
      "outputs": [],
      "stateMutability": "nonpayable",
      "type": "function"
    },
    {
      "inputs": [
        {
          "internalType": "bytes32",
          "name": "role",
          "type": "bytes32"
        }
      ],
      "name": "getRoleAdmin",
      "outputs": [
        {
          "internalType": "bytes32",
          "name": "",
          "type": "bytes32"
        }
      ],
      "stateMutability": "view",
      "type": "function"
    },
    {
      "inputs": [
        {
          "internalType": "bytes32",
          "name": "role",
          "type": "bytes32"
        },
        {
          "internalType": "address",
          "name": "account",
          "type": "address"
        }
      ],
      "name": "grantRole",
      "outputs": [],
      "stateMutability": "nonpayable",
      "type": "function"
    },
    {
      "inputs": [],
      "name": "harvest",
      "outputs": [],
      "stateMutability": "nonpayable",
      "type": "function"
    },
    {
      "inputs": [
        {
          "internalType": "bytes",
          "name": "data",
          "type": "bytes"
        }
      ],
      "name": "harvest",
      "outputs": [],
      "stateMutability": "nonpayable",
      "type": "function"
    },
    {
      "inputs": [
        {
          "internalType": "uint256",
          "name": "borrowInit",
          "type": "uint256"
        }
      ],
      "name": "harvest",
      "outputs": [],
      "stateMutability": "nonpayable",
      "type": "function"
    },
    {
      "inputs": [
        {
          "internalType": "bytes32",
          "name": "role",
          "type": "bytes32"
        },
        {
          "internalType": "address",
          "name": "account",
          "type": "address"
        }
      ],
      "name": "hasRole",
      "outputs": [
        {
          "internalType": "bool",
          "name": "",
          "type": "bool"
        }
      ],
      "stateMutability": "view",
      "type": "function"
    },
    {
      "inputs": [
        {
          "internalType": "address",
          "name": "_poolManager",
          "type": "address"
        },
        {
          "internalType": "address",
          "name": "governor",
          "type": "address"
        },
        {
          "internalType": "address",
          "name": "guardian",
          "type": "address"
        },
        {
          "internalType": "address[]",
          "name": "keepers",
          "type": "address[]"
        }
      ],
      "name": "initialize",
      "outputs": [],
      "stateMutability": "nonpayable",
      "type": "function"
    },
    {
      "inputs": [],
      "name": "isActive",
      "outputs": [
        {
          "internalType": "bool",
          "name": "",
          "type": "bool"
        }
      ],
      "stateMutability": "view",
      "type": "function"
    },
    {
      "inputs": [],
      "name": "lendStatuses",
      "outputs": [
        {
          "components": [
            {
              "internalType": "string",
              "name": "name",
              "type": "string"
            },
            {
              "internalType": "uint256",
              "name": "assets",
              "type": "uint256"
            },
            {
              "internalType": "uint256",
              "name": "rate",
              "type": "uint256"
            },
            {
              "internalType": "address",
              "name": "add",
              "type": "address"
            }
          ],
          "internalType": "struct LendStatus[]",
          "name": "",
          "type": "tuple[]"
        }
      ],
      "stateMutability": "view",
      "type": "function"
    },
    {
      "inputs": [
        {
          "internalType": "uint256",
          "name": "",
          "type": "uint256"
        }
      ],
      "name": "lenders",
      "outputs": [
        {
          "internalType": "contract IGenericLender",
          "name": "",
          "type": "address"
        }
      ],
      "stateMutability": "view",
      "type": "function"
    },
    {
      "inputs": [],
      "name": "lentTotalAssets",
      "outputs": [
        {
          "internalType": "uint256",
          "name": "",
          "type": "uint256"
        }
      ],
      "stateMutability": "view",
      "type": "function"
    },
    {
      "inputs": [],
      "name": "numLenders",
      "outputs": [
        {
          "internalType": "uint256",
          "name": "",
          "type": "uint256"
        }
      ],
      "stateMutability": "view",
      "type": "function"
    },
    {
      "inputs": [],
      "name": "poolManager",
      "outputs": [
        {
          "internalType": "contract IPoolManager",
          "name": "",
          "type": "address"
        }
      ],
      "stateMutability": "view",
      "type": "function"
    },
    {
      "inputs": [
        {
          "internalType": "bytes32",
          "name": "role",
          "type": "bytes32"
        },
        {
          "internalType": "address",
          "name": "account",
          "type": "address"
        }
      ],
      "name": "renounceRole",
      "outputs": [],
      "stateMutability": "nonpayable",
      "type": "function"
    },
    {
      "inputs": [
        {
          "internalType": "address",
          "name": "guardian",
          "type": "address"
        }
      ],
      "name": "revokeGuardian",
      "outputs": [],
      "stateMutability": "nonpayable",
      "type": "function"
    },
    {
      "inputs": [
        {
          "internalType": "bytes32",
          "name": "role",
          "type": "bytes32"
        },
        {
          "internalType": "address",
          "name": "account",
          "type": "address"
        }
      ],
      "name": "revokeRole",
      "outputs": [],
      "stateMutability": "nonpayable",
      "type": "function"
    },
    {
      "inputs": [
        {
          "internalType": "address",
          "name": "lender",
          "type": "address"
        }
      ],
      "name": "safeRemoveLender",
      "outputs": [],
      "stateMutability": "nonpayable",
      "type": "function"
    },
    {
      "inputs": [
        {
          "internalType": "uint256",
          "name": "_debtThreshold",
          "type": "uint256"
        }
      ],
      "name": "setDebtThreshold",
      "outputs": [],
      "stateMutability": "nonpayable",
      "type": "function"
    },
    {
      "inputs": [],
      "name": "setEmergencyExit",
      "outputs": [],
      "stateMutability": "nonpayable",
      "type": "function"
    },
    {
      "inputs": [
        {
          "internalType": "uint256",
          "name": "_threshold",
          "type": "uint256"
        }
      ],
      "name": "setWithdrawalThreshold",
      "outputs": [],
      "stateMutability": "nonpayable",
      "type": "function"
    },
    {
      "inputs": [
        {
          "internalType": "address",
          "name": "_token",
          "type": "address"
        },
        {
          "internalType": "address",
          "name": "to",
          "type": "address"
        }
      ],
      "name": "sweep",
      "outputs": [],
      "stateMutability": "nonpayable",
      "type": "function"
    },
    {
      "inputs": [],
      "name": "want",
      "outputs": [
        {
          "internalType": "contract IERC20",
          "name": "",
          "type": "address"
        }
      ],
      "stateMutability": "view",
      "type": "function"
    },
    {
      "inputs": [],
      "name": "wantBase",
      "outputs": [
        {
          "internalType": "uint256",
          "name": "",
          "type": "uint256"
        }
      ],
      "stateMutability": "view",
      "type": "function"
    },
    {
      "inputs": [
        {
          "internalType": "uint256",
          "name": "_amountNeeded",
          "type": "uint256"
        }
      ],
      "name": "withdraw",
      "outputs": [
        {
          "internalType": "uint256",
          "name": "amountFreed",
          "type": "uint256"
        },
        {
          "internalType": "uint256",
          "name": "_loss",
          "type": "uint256"
        }
      ],
      "stateMutability": "nonpayable",
      "type": "function"
    },
    {
      "inputs": [],
      "name": "withdrawalThreshold",
      "outputs": [
        {
          "internalType": "uint256",
          "name": "",
          "type": "uint256"
        }
      ],
      "stateMutability": "view",
      "type": "function"
    }
  ],
  "transactionHash": "0xa07a64f5a2d7b0e5c657ef1b3e674b8b0068acd04a32a68825bdb771b3dbf5fd",
  "args": [],
  "numDeployments": 1,
  "solcInputHash": "0d3705635a12f691c993e4b380cb5060",
  "bytecode": "0x60808060405234620000d3576000549060ff8260081c169081600014620000c857303b155b156200006f57501590816200005c575b506200004b575b60405161508c9081620000d98239f35b61ff0019600054166000556200003b565b61ffff1916610101176000553862000034565b62461bcd60e51b815260206004820152602e60248201527f496e697469616c697a61626c653a20636f6e747261637420697320616c72656160448201526d191e481a5b9a5d1a585b1a5e995960921b6064820152608490fd5b60ff83161562000024565b600080fdfe6101006040908082526004918236101561001857600080fd5b600092833560e01c9283630b6d1d1714612087575082630c016dc01461202e5782630e6e15f014611ff35782630f969b8714611f855782631d12f28b14611f485782631f1fcd5114611ef557826322f3e2d414611eb1578263248a9ca314611e6857826324ea54f414611e0f5782632e1a7d4d14611d9c5782632f2ff15d14611ca5578263364bc15a14611c4c57826336568abe14611b8e5782634641257d14611b575782634786b0cb14611b165782635641ec0314611ad45782635a5cd45e14611a99578263708ba9bd1461199a57826376ee75d8146119515782637985fd51146119145782638baf2957146118cb57826391d1485414611859578263929eea21146117d557826393084b34146115db578263a217fddf146115a2578263a526d83b1461148b578263af648c3d146112eb578263b8dc491b14611120578263bb927c46146110e3578263ce5c7f611461104c578263d547741f14610ff2578263dc4c90d314610f9c578263ddc6326214610f50578263e6a69ab814610f13578263e6bfbfd8146106a3578263ec342ad014610662578263efbb5cb014610620578263fcc5f59a1461026157505063fcf2d0ad146101d557600080fd5b3461025e57807ffffffffffffffffffffffffffffffffffffffffffffffffffffffffffffffffc36011261025e5761020c336125d8565b60017fffffffffffffffffffffffffffffffffffffffffffffffffffffffffffffff0060335416176033557f17fa25a1c2ac074f71f0cf4f6af525c06fab7d83eff5ffcf6df5277f2919ae248180a180f35b80fd5b83903461061c57817ffffffffffffffffffffffffffffffffffffffffffffffffffffffffffffffffc36011261061c5760655461029d816121c8565b916102aa85519384612187565b8183527fffffffffffffffffffffffffffffffffffffffffffffffffffffffffffffffe06102d7836121c8565b01845b818110610605575050835b8281106103a557505050825191602080840190808552835180925285850181878460051b880101950193965b83881061031e5786860387f35b90919293948380827fffffffffffffffffffffffffffffffffffffffffffffffffffffffffffffffc08a60019503018652885190610364825160808084528301906122a3565b918381015184830152868101518783015273ffffffffffffffffffffffffffffffffffffffff60608092015116910152970193019701969093929193610311565b6103ad6146e9565b6103b6826121e0565b905488517f8b2021760000000000000000000000000000000000000000000000000000000081528881878173ffffffffffffffffffffffffffffffffffffffff8096600398891b1c165afa9081156105fb578991610576575b5083528061041c856121e0565b905490841b1c16606084015280610432856121e0565b905490841b1c1691895180937fc1590cd7000000000000000000000000000000000000000000000000000000008252818860209687935afa90811561056c579187939185938c91610534575b508387015261048c876121e0565b9054911b1c168a51928380927f57ded9c90000000000000000000000000000000000000000000000000000000082525afa91821561052a5788926104f6575b5050878201526104f191906104e0828761324f565b526104eb818661324f565b50613222565b6102e5565b90809250813d8311610523575b61050d8183612187565b8101031261051f57516104f1896104cb565b8680fd5b503d610503565b89513d8a823e3d90fd5b929450509181813d8311610565575b61054d8183612187565b81010312610561579183918793518d61047e565b8980fd5b503d610543565b8b513d8c823e3d90fd5b90503d808a833e6105878183612187565b81019060209081818403126105f75780519067ffffffffffffffff82116105f357019082601f830112156105f757908b92918151926105d16105c885612246565b95519586612187565b8385528184840101116105f3576105ed92918482019101612280565b8a61040f565b8b80fd5b8a80fd5b8a513d8b823e3d90fd5b6020906106106146e9565b828288010152016102da565b5080fd5b83823461061c57817ffffffffffffffffffffffffffffffffffffffffffffffffffffffffffffffffc36011261061c5760209061065b6147eb565b9051908152f35b83823461061c57817ffffffffffffffffffffffffffffffffffffffffffffffffffffffffffffffffc36011261061c5760209051670de0b6b3a76400008152f35b915034610f0f5760807ffffffffffffffffffffffffffffffffffffffffffffffffffffffffffffffffc360112610f0f576106dc6120e9565b6106e46120c1565b916044359173ffffffffffffffffffffffffffffffffffffffff9182841691828503610f0b576064359267ffffffffffffffff8411610bcc5736602385011215610bcc578388013596610736886121c8565b9061074385519283612187565b8882526020958683016024809b60051b83010191368311610dea578b01905b828210610eef575050508a549760ff93848a60081c1680600014610ee657303b155b15610e655789898f928f90159d8e610e37575b506033547fffffffffffffffffffffff0000000000000000000000000000000000000000ff74ffffffffffffffffffffffffffffffffffffffff008c60081b1691161790816033558b51809481937ffc0c546a00000000000000000000000000000000000000000000000000000000835260081c165afa908115610e2d578b8f928c928591610e00575b5016807fffffffffffffffffffffffff000000000000000000000000000000000000000060345416176034558a51928380927f313ce5670000000000000000000000000000000000000000000000000000000082525afa918215610df557908792610db7575b5016604d8111610d8c57600a0a6035558015908115610d81575b8115610d75575b50610d4d578b949392916108be6108c392612c34565b612c34565b7f5916f72c85af4ac6f7e34636ecc97619c4b2085da099a5d28f3e58436cfbe5629182855260019384885288878720911690818752885281878720541615610ce7575b50908291859387965284885284868520015492807fbd79b86ffe0ab8e8776151514217cd7cacd52c909f66475c3af44e129f0b00ff9481868880a480868887200155857f55435dd261a4b9b3364963f7738a7a662ad9c84396d64be3365284bb7f0a50419786898098528383838320015489898480a42001558151908d5b828110610be157505050507ffc8737ab85eb45125971625a9ebdb75cc78e01d5c1fa80c4c6e5203f47bc4fab808c5283875283868d200154918c80a4828920015568056bc75e2d63100000603655603354927fffffffffffffffffffffffffffffffffffffffffffffffffffffffffffffff00841660335580603454169360081c168151917fdd62ed3e000000000000000000000000000000000000000000000000000000008352308884015281878401528383604481885afa928315610bd7578993610ba4575b507fffffffffffffffffffffffffffffffffffffffffffffffffffffffffffffffff8301809311610b7957517f095ea7b3000000000000000000000000000000000000000000000000000000009381019390935273ffffffffffffffffffffffffffffffffffffffff168583019081526020810191909152610b049290610aff9083906040015b037fffffffffffffffffffffffffffffffffffffffffffffffffffffffffffffffe08101845283612187565b612e2b565b610b4e575b603554916103e89280840293840403610b2457505060665580f35b601184917f4e487b7100000000000000000000000000000000000000000000000000000000835252fd5b7fffffffffffffffffffffffffffffffffffffffffffffffffffffffffffff00ff8354168355610b09565b868960118a7f4e487b7100000000000000000000000000000000000000000000000000000000835252fd5b9092508381813d8311610bd0575b610bbc8183612187565b81010312610bcc57519138610a4c565b8880fd5b503d610bb2565b81513d8b823e3d90fd5b90919293945089610bf2828661324f565b511615610cbf57808e8b610c09610c4e948861324f565b51167ffc8737ab85eb45125971625a9ebdb75cc78e01d5c1fa80c4c6e5203f47bc4fab808352898d528b83208284528d52858c8420541615610c59575b505050613222565b908694939291610984565b808352898d528b83208284528d528b83208a7fffffffffffffffffffffffffffffffffffffffffffffffffffffffffffffff008254161790557f2f8788117e7eff1d82e926ec794901d17c78024a50270940304540a733656f0d339380a48e3880610c46565b8c88517fd92e233d000000000000000000000000000000000000000000000000000000008152fd5b8386528488528686208187528852868620857fffffffffffffffffffffffffffffffffffffffffffffffffffffffffffffff008254161790553390847f2f8788117e7eff1d82e926ec794901d17c78024a50270940304540a733656f0d8880a438610906565b8a86517fd92e233d000000000000000000000000000000000000000000000000000000008152fd5b905088831614386108a8565b838a161591506108a1565b8b8e60118f7f4e487b7100000000000000000000000000000000000000000000000000000000835252fd5b8092508a8092503d8311610dee575b610dd08183612187565b81010312610dea57518581168103610dea57859038610887565b8d80fd5b503d610dc6565b8951903d90823e3d90fd5b610e209150833d8511610e26575b610e188183612187565b810190613263565b38610821565b503d610e0e565b89513d84823e3d90fd5b7fffffffffffffffffffffffffffffffffffffffffffffffffffffffffffff00001661010117845538610797565b60848d602e8e8c8c51937f08c379a00000000000000000000000000000000000000000000000000000000085528401528201527f496e697469616c697a61626c653a20636f6e747261637420697320616c72656160448201527f647920696e697469616c697a65640000000000000000000000000000000000006064820152fd5b858b1615610784565b81358a81168103610f07578152908801908801610762565b8e80fd5b8780fd5b8280fd5b83823461061c57817ffffffffffffffffffffffffffffffffffffffffffffffffffffffffffffffffc36011261061c57602090516301e185588152f35b833461025e5760207ffffffffffffffffffffffffffffffffffffffffffffffffffffffffffffffffc36011261025e57610f8933612769565b610f9161303b565b610f99614255565b80f35b83823461061c57817ffffffffffffffffffffffffffffffffffffffffffffffffffffffffffffffffc36011261061c5760209073ffffffffffffffffffffffffffffffffffffffff60335460081c169051908152f35b915034610f0f57807ffffffffffffffffffffffffffffffffffffffffffffffffffffffffffffffffc360112610f0f57610f99913561104760016110346120c1565b93838752816020528620015433906128fa565b612d10565b915034610f0f5760207ffffffffffffffffffffffffffffffffffffffffffffffffffffffffffffffffc360112610f0f578282359267ffffffffffffffff841161061c573660238501121561061c57830135926110b46110ab85612246565b93519384612187565b838352366024858301011161061c5783610f999460246020930183860137830101526110de61303b565b6136f8565b83823461061c57817ffffffffffffffffffffffffffffffffffffffffffffffffffffffffffffffffc36011261061c576020906065549051908152f35b915034610f0f57807ffffffffffffffffffffffffffffffffffffffffffffffffffffffffffffffffc360112610f0f576111586120e9565b6111606120c1565b9061116a336122e6565b73ffffffffffffffffffffffffffffffffffffffff908180603454169116918183146112c35784519061119c8261214f565b60018252602092838301843682378351156112975752815191885b83811061124e57505050508351947f70a0823100000000000000000000000000000000000000000000000000000000865230908601528085602481855afa9384156112455750859361120f575b50610f999350612db2565b90925083813d831161123e575b6112268183612187565b8101031261123a57610f9992519138611204565b8380fd5b503d61121c565b513d87823e3d90fd5b82611259828461324f565b5116861461126f5761126a90613222565b6111b7565b8888517fc1ab6dc1000000000000000000000000000000000000000000000000000000008152fd5b60248a60328b7f4e487b7100000000000000000000000000000000000000000000000000000000835252fd5b8585517fc1ab6dc1000000000000000000000000000000000000000000000000000000008152fd5b90915034610f0f5760207ffffffffffffffffffffffffffffffffffffffffffffffffffffffffffffffffc360112610f0f576113256120e9565b9161132f336125d8565b837f55435dd261a4b9b3364963f7738a7a662ad9c84396d64be3365284bb7f0a504180825260016020528282209373ffffffffffffffffffffffffffffffffffffffff8096169485845260205260ff8484205416611425575b60655495835b878110611399578480f35b816113a3826121e0565b90549060031b1c16803b156114215785809160448951809481937fd547741f0000000000000000000000000000000000000000000000000000000083528a8a8401528d60248401525af18015611417579061140392916114085750613222565b61138e565b6114119061210c565b386104eb565b87513d88823e3d90fd5b8580fd5b81835260016020528383208584526020528383207fffffffffffffffffffffffffffffffffffffffffffffffffffffffffffffff0081541690553385837ff6391f5c32d9c69d2a47ea670b442974b53935d1edc7fd64eb21e047a839171b8680a4611388565b90915034610f0f5760207ffffffffffffffffffffffffffffffffffffffffffffffffffffffffffffffffc360112610f0f57906114c66120e9565b906114d0336125d8565b6114d982612c34565b8360655493819373ffffffffffffffffffffffffffffffffffffffff809116945b868110611505578380f35b8161150f826121e0565b90549060031b1c16803b1561159e5784809160448851809481937f2f2ff15d0000000000000000000000000000000000000000000000000000000083527f55435dd261a4b9b3364963f7738a7a662ad9c84396d64be3365284bb7f0a50418a8401528c60248401525af18015611594579061158f92916114085750613222565b6114fa565b86513d87823e3d90fd5b8480fd5b83823461061c57817ffffffffffffffffffffffffffffffffffffffffffffffffffffffffffffffffc36011261061c5751908152602090f35b83823461061c5760207ffffffffffffffffffffffffffffffffffffffffffffffffffffffffffffffffc36011261061c57823573ffffffffffffffffffffffffffffffffffffffff918282169283830361159e57611638336122e6565b81517fa8c62e760000000000000000000000000000000000000000000000000000000081526020818881885afa9081156117cb5786916117ad575b5081309116036117855760655491855b838110611737575050506801000000000000000081101561170b57906116b28260016116e494016065556121e0565b90919082549060031b9173ffffffffffffffffffffffffffffffffffffffff9283811b93849216901b16911916179055565b7f1e7b117a6591133f0b36fc2c24d59f8465d806fdcad63aa33246b45fd62c89ff8280a280f35b6024846041877f4e487b7100000000000000000000000000000000000000000000000000000000835252fd5b82611741826121e0565b90549060031b1c16861461175d5761175890613222565b611683565b8782517f7cc7731c000000000000000000000000000000000000000000000000000000008152fd5b8582517feeacc72d000000000000000000000000000000000000000000000000000000008152fd5b6117c5915060203d8111610e2657610e188183612187565b87611673565b83513d88823e3d90fd5b90915034610f0f5760207ffffffffffffffffffffffffffffffffffffffffffffffffffffffffffffffffc360112610f0f5735606554811015610f0f5773ffffffffffffffffffffffffffffffffffffffff906065602094527f8ff97419363ffd7000167f130ef7168fbea05faf9251824ca5043f113cc6a7c70154169051908152f35b90915034610f0f57817ffffffffffffffffffffffffffffffffffffffffffffffffffffffffffffffffc360112610f0f578160209360ff926118996120c1565b903582526001865273ffffffffffffffffffffffffffffffffffffffff83832091168252855220541690519015158152f35b833461025e5760207ffffffffffffffffffffffffffffffffffffffffffffffffffffffffffffffffc36011261025e57610f996119066120e9565b61190f33612769565b614edd565b83823461061c57817ffffffffffffffffffffffffffffffffffffffffffffffffffffffffffffffffc36011261061c576020906066549051908152f35b833461025e5760207ffffffffffffffffffffffffffffffffffffffffffffffffffffffffffffffffc36011261025e57610f9961198c6120e9565b611995336122e6565b614c3a565b833461025e57602091827ffffffffffffffffffffffffffffffffffffffffffffffffffffffffffffffffc36011261061c57803567ffffffffffffffff9182821161123a573660238301121561123a578101356119f6816121c8565b92611a0387519485612187565b81845260248685019260051b8401019236841161142157959695602401915b838310611a7b5750505050611a369061497e565b9190835194848695860192865281860152835180925280606086019401925b828110611a6457505050500390f35b835185528695509381019392810192600101611a55565b8297969735828116810361051f578152959695918701918701611a22565b83823461061c57817ffffffffffffffffffffffffffffffffffffffffffffffffffffffffffffffffc36011261061c5760209061065b614894565b83823461061c57817ffffffffffffffffffffffffffffffffffffffffffffffffffffffffffffffffc36011261061c5760209060ff6033541690519015158152f35b83903461061c5760207ffffffffffffffffffffffffffffffffffffffffffffffffffffffffffffffffc36011261061c57611b50336122e6565b3560665580f35b833461025e57807ffffffffffffffffffffffffffffffffffffffffffffffffffffffffffffffffc36011261025e57610f9161303b565b83903461061c57827ffffffffffffffffffffffffffffffffffffffffffffffffffffffffffffffffc36011261061c57611bc66120c1565b903373ffffffffffffffffffffffffffffffffffffffff831603611bef5790610f999135612d10565b60649060208551917f08c379a0000000000000000000000000000000000000000000000000000000008352820152600260248201527f37310000000000000000000000000000000000000000000000000000000000006044820152fd5b83823461061c57817ffffffffffffffffffffffffffffffffffffffffffffffffffffffffffffffffc36011261061c57602090517ffc8737ab85eb45125971625a9ebdb75cc78e01d5c1fa80c4c6e5203f47bc4fab8152f35b90915034610f0f57817ffffffffffffffffffffffffffffffffffffffffffffffffffffffffffffffffc360112610f0f573590611ce06120c1565b908284526001602052611cfa6001828620015433906128fa565b828452600160205273ffffffffffffffffffffffffffffffffffffffff81852092169182855260205260ff818520541615611d33578380f35b8284526001602052808420828552602052832060017fffffffffffffffffffffffffffffffffffffffffffffffffffffffffffffff0082541617905533917f2f8788117e7eff1d82e926ec794901d17c78024a50270940304540a733656f0d8480a43880808380f35b833461025e5760207ffffffffffffffffffffffffffffffffffffffffffffffffffffffffffffffffc36011261025e5750611de090611dda336125d8565b35614625565b611e03823373ffffffffffffffffffffffffffffffffffffffff60345416612db2565b82519182526020820152f35b83823461061c57817ffffffffffffffffffffffffffffffffffffffffffffffffffffffffffffffffc36011261061c57602090517f55435dd261a4b9b3364963f7738a7a662ad9c84396d64be3365284bb7f0a50418152f35b90915034610f0f5760207ffffffffffffffffffffffffffffffffffffffffffffffffffffffffffffffffc360112610f0f57816020936001923581528285522001549051908152f35b83823461061c57817ffffffffffffffffffffffffffffffffffffffffffffffffffffffffffffffffc36011261061c57602090611eec6147eb565b15159051908152f35b83823461061c57817ffffffffffffffffffffffffffffffffffffffffffffffffffffffffffffffffc36011261061c5760209073ffffffffffffffffffffffffffffffffffffffff603454169051908152f35b83823461061c57817ffffffffffffffffffffffffffffffffffffffffffffffffffffffffffffffffc36011261061c576020906036549051908152f35b90915034610f0f5760207ffffffffffffffffffffffffffffffffffffffffffffffffffffffffffffffffc360112610f0f577fa68ba126373d04c004c5748c300c9fca12bd444b3d4332e261f3bd2bac4a8600916020913590611fe7336122e6565b8160365551908152a180f35b83823461061c57817ffffffffffffffffffffffffffffffffffffffffffffffffffffffffffffffffc36011261061c5760209061065b61471f565b83823461061c57817ffffffffffffffffffffffffffffffffffffffffffffffffffffffffffffffffc36011261061c57602090517f5916f72c85af4ac6f7e34636ecc97619c4b2085da099a5d28f3e58436cfbe5628152f35b84903461061c57817ffffffffffffffffffffffffffffffffffffffffffffffffffffffffffffffffc36011261061c576020906035548152f35b6024359073ffffffffffffffffffffffffffffffffffffffff821682036120e457565b600080fd5b6004359073ffffffffffffffffffffffffffffffffffffffff821682036120e457565b67ffffffffffffffff811161212057604052565b7f4e487b7100000000000000000000000000000000000000000000000000000000600052604160045260246000fd5b6040810190811067ffffffffffffffff82111761212057604052565b6080810190811067ffffffffffffffff82111761212057604052565b90601f7fffffffffffffffffffffffffffffffffffffffffffffffffffffffffffffffe0910116810190811067ffffffffffffffff82111761212057604052565b67ffffffffffffffff81116121205760051b60200190565b6065548110156122175760656000527f8ff97419363ffd7000167f130ef7168fbea05faf9251824ca5043f113cc6a7c70190600090565b7f4e487b7100000000000000000000000000000000000000000000000000000000600052603260045260246000fd5b67ffffffffffffffff811161212057601f017fffffffffffffffffffffffffffffffffffffffffffffffffffffffffffffffe01660200190565b60005b8381106122935750506000910152565b8181015183820152602001612283565b907fffffffffffffffffffffffffffffffffffffffffffffffffffffffffffffffe0601f6020936122df81518092818752878088019101612280565b0116010190565b73ffffffffffffffffffffffffffffffffffffffff1660008181527fe8fad4b49f5ba25b2c682cfec2ac50a7a40bbd1e12ab51733ec3e9c2f6f1c5db6020908152604080832054909391927f55435dd261a4b9b3364963f7738a7a662ad9c84396d64be3365284bb7f0a50419290916001919060ff161561236957505050505050565b61237290612aae565b9285519161237f8361216b565b604283528583019360603686378351156125ab576030855383518210156125ab5790607860218501536041915b8183116124e05750505061248457604861248093869361244a9361243b98519889937f416363657373436f6e74726f6c3a206163636f756e74200000000000000000008a860152612406815180928c603789019101612280565b8401917f206973206d697373696e6720726f6c6520000000000000000000000000000000603784015251809386840190612280565b01036028810187520185612187565b519283927f08c379a0000000000000000000000000000000000000000000000000000000008452600484015260248301906122a3565b0390fd5b6064848651907f08c379a000000000000000000000000000000000000000000000000000000000825280600483015260248201527f537472696e67733a20686578206c656e67746820696e73756666696369656e746044820152fd5b909192600f8116601081101561257e577f3031323334353637383961626364656600000000000000000000000000000000901a61251d8587612a9d565b5360041c928015612551577fffffffffffffffffffffffffffffffffffffffffffffffffffffffffffffffff0191906123ac565b6024827f4e487b710000000000000000000000000000000000000000000000000000000081526011600452fd5b6024837f4e487b710000000000000000000000000000000000000000000000000000000081526032600452fd5b807f4e487b7100000000000000000000000000000000000000000000000000000000602492526032600452fd5b73ffffffffffffffffffffffffffffffffffffffff1660008181527f015260285f12fe1d77221203cd7e5aa67b79d47399b4bedd98b8730e56d911bf6020908152604080832054909391927f5916f72c85af4ac6f7e34636ecc97619c4b2085da099a5d28f3e58436cfbe5629290916001919060ff161561265b57505050505050565b61266490612aae565b928551916126718361216b565b604283528583019360603686378351156125ab576030855383518210156125ab5790607860218501536041915b8183116126f85750505061248457604861248093869361244a9361243b98519889937f416363657373436f6e74726f6c3a206163636f756e74200000000000000000008a860152612406815180928c603789019101612280565b909192600f8116601081101561257e577f3031323334353637383961626364656600000000000000000000000000000000901a6127358587612a9d565b5360041c928015612551577fffffffffffffffffffffffffffffffffffffffffffffffffffffffffffffffff01919061269e565b73ffffffffffffffffffffffffffffffffffffffff1660008181527f10c15aae13326e9b33c92ffbb94efb7492c500f0cca324caca9bd1aca194ed186020908152604080832054909391927ffc8737ab85eb45125971625a9ebdb75cc78e01d5c1fa80c4c6e5203f47bc4fab9290916001919060ff16156127ec57505050505050565b6127f590612aae565b928551916128028361216b565b604283528583019360603686378351156125ab576030855383518210156125ab5790607860218501536041915b8183116128895750505061248457604861248093869361244a9361243b98519889937f416363657373436f6e74726f6c3a206163636f756e74200000000000000000008a860152612406815180928c603789019101612280565b909192600f8116601081101561257e577f3031323334353637383961626364656600000000000000000000000000000000901a6128c68587612a9d565b5360041c928015612551577fffffffffffffffffffffffffffffffffffffffffffffffffffffffffffffffff01919061282f565b60009080825260019160209280845260409473ffffffffffffffffffffffffffffffffffffffff868420911690818452855260ff86842054161561294057505050505050565b61294990612aae565b928551916129568361216b565b604283528583019360603686378351156125ab576030855383518210156125ab5790607860218501536041915b8183116129dd5750505061248457604861248093869361244a9361243b98519889937f416363657373436f6e74726f6c3a206163636f756e74200000000000000000008a860152612406815180928c603789019101612280565b909192600f8116601081101561257e577f3031323334353637383961626364656600000000000000000000000000000000901a612a1a8587612a9d565b5360041c928015612551577fffffffffffffffffffffffffffffffffffffffffffffffffffffffffffffffff019190612983565b81810292918115918404141715612a6157565b7f4e487b7100000000000000000000000000000000000000000000000000000000600052601160045260246000fd5b91908201809211612a6157565b908151811015612217570160200190565b604051906060820182811067ffffffffffffffff82111761212057604052602a82526020820160403682378251156122175760309053815160019081101561221757607860218401536029905b808211612b69575050612b0b5790565b60646040517f08c379a000000000000000000000000000000000000000000000000000000000815260206004820152602060248201527f537472696e67733a20686578206c656e67746820696e73756666696369656e746044820152fd5b9091600f81166010811015612c06577f3031323334353637383961626364656600000000000000000000000000000000901a612ba58486612a9d565b5360041c918015612bd8577fffffffffffffffffffffffffffffffffffffffffffffffffffffffffffffffff0190612afb565b602460007f4e487b710000000000000000000000000000000000000000000000000000000081526011600452fd5b602460007f4e487b710000000000000000000000000000000000000000000000000000000081526032600452fd5b73ffffffffffffffffffffffffffffffffffffffff1660008181527fe8fad4b49f5ba25b2c682cfec2ac50a7a40bbd1e12ab51733ec3e9c2f6f1c5db60205260408120549091907f55435dd261a4b9b3364963f7738a7a662ad9c84396d64be3365284bb7f0a50419060ff1615612caa57505050565b8083526001602052604083208284526020526040832060017fffffffffffffffffffffffffffffffffffffffffffffffffffffffffffffff008254161790557f2f8788117e7eff1d82e926ec794901d17c78024a50270940304540a733656f0d339380a4565b90600091808352600160205273ffffffffffffffffffffffffffffffffffffffff6040842092169182845260205260ff604084205416612d4f57505050565b808352600160205260408320828452602052604083207fffffffffffffffffffffffffffffffffffffffffffffffffffffffffffffff0081541690557ff6391f5c32d9c69d2a47ea670b442974b53935d1edc7fd64eb21e047a839171b339380a4565b6040517fa9059cbb00000000000000000000000000000000000000000000000000000000602082015273ffffffffffffffffffffffffffffffffffffffff90921660248301526044820192909252612e1191610aff8260648101610ad3565b565b908160209103126120e4575180151581036120e45790565b604051612eb59173ffffffffffffffffffffffffffffffffffffffff16612e518261214f565b6000806020958685527f5361666545524332303a206c6f772d6c6576656c2063616c6c206661696c656487860152868151910182855af13d15612f5e573d91612e9983612246565b92612ea76040519485612187565b83523d60008785013e612f62565b80519081612ec257505050565b8280612ed2938301019101612e13565b15612eda5750565b608490604051907f08c379a00000000000000000000000000000000000000000000000000000000082526004820152602a60248201527f5361666545524332303a204552433230206f7065726174696f6e20646964206e60448201527f6f742073756363656564000000000000000000000000000000000000000000006064820152fd5b6060915b91929015612fdd5750815115612f76575090565b3b15612f7f5790565b60646040517f08c379a000000000000000000000000000000000000000000000000000000000815260206004820152601d60248201527f416464726573733a2063616c6c20746f206e6f6e2d636f6e74726163740000006044820152fd5b825190915015612ff05750805190602001fd5b612480906040519182917f08c379a00000000000000000000000000000000000000000000000000000000083526020600484015260248301906122a3565b91908203918211612a6157565b600080603354916040918251937fbf3759b500000000000000000000000000000000000000000000000000000000855273ffffffffffffffffffffffffffffffffffffffff90602086600481858560081c165afa9586156132185784966131e4575b5060ff16156131a8576130b66130b16147eb565b614625565b508580821015613185576130cb92935061302e565b905b7f4c0f499ffe6befa0ca7c826b0916cf87bea98de658013e76938489368d60d50960806130fa848861302e565b965b86519086825285602083015288888301526060820152a160335460081c16803b156120e45760009283606492865197889586947fa1d9bafc0000000000000000000000000000000000000000000000000000000086526004860152602485015260448401525af190811561317b57506131725750565b612e119061210c565b513d6000823e3d90fd5b90818111613195575b50506130cd565b6131a092945061302e565b91843861318e565b849250608091506131d97f4c0f499ffe6befa0ca7c826b0916cf87bea98de658013e76938489368d60d5099561328f565b9691939093946130fc565b9095506020813d8211613210575b816131ff60209383612187565b8101031261123a57519460ff61309d565b3d91506131f2565b85513d86823e3d90fd5b7fffffffffffffffffffffffffffffffffffffffffffffffffffffffffffffffff8114612a615760010190565b80518210156122175760209160051b010190565b908160209103126120e4575173ffffffffffffffffffffffffffffffffffffffff811681036120e45790565b906000809182849261329f61471f565b9573ffffffffffffffffffffffffffffffffffffffff908160345416906040938451998a927f70a08231000000000000000000000000000000000000000000000000000000009485855230600486015284602460209687935afa9b8c156135d357889c613600575b50613312828d612a90565b91156135dd5750602460608660335460081c168851928380927f39ebf8230000000000000000000000000000000000000000000000000000000082523060048301525afa9081156135d3579084918991613544575b500151918282111561347057509061337e9161302e565b98613389888b612a90565b9384151580613467575b6133a1575b50505050505050565b6133b46133af84938761302e565b6142f4565b506034541692602486518095819382523060048301525afa93841561345e5750849361342e575b505081106133ee575b8080808080613398565b9192828692961160001461340857505092905b38806133e4565b909491856134159161302e565b91508082101561342757505b90613401565b9050613421565b9080929350813d8311613457575b6134468183612187565b81010312610f0f57519038806133db565b503d61343c565b513d86823e3d90fd5b50848210613393565b9a995061347c9161302e565b97613487888a612a90565b938415158061353b575b61349e5750505050505050565b6134ac6133af84938761302e565b506034541692602486518095819382523060048301525afa93841561345e5750849361350b575b505081106134e5578080808080613398565b919282859295116000146134fe575050919038806133e4565b909391846134159161302e565b9080929350813d8311613534575b6135238183612187565b81010312610f0f57519038806134d3565b503d613519565b50848210613491565b9150506060813d82116135cb575b8161355f60609383612187565b81010312610f0b578651906060820182811067ffffffffffffffff82111761359e57885280518252808501518286015287015187820152839038613367565b60248a7f4e487b710000000000000000000000000000000000000000000000000000000081526041600452fd5b3d9150613552565b87513d8a823e3d90fd5b955050505050508592939450949094116135f8575b50829190565b9150386135f2565b909b508381813d8311613628575b6136188183612187565b81010312610f0b57519a38613307565b503d61360e565b60405190606554808352826020918282019060656000527f8ff97419363ffd7000167f130ef7168fbea05faf9251824ca5043f113cc6a7c7936000905b82821061368257505050612e1192500383612187565b855473ffffffffffffffffffffffffffffffffffffffff168452600195860195889550938101939091019061366c565b7f80000000000000000000000000000000000000000000000000000000000000008114612a615760000390565b81810392916000138015828513169184121617612a6157565b60ff60335416613c735761370a61362f565b8060c052518060a05215613c735780518101906020818184019303126120e457602081015167ffffffffffffffff918282116120e457019180603f840112156120e45760208301519161375c836121c8565b9361376a6040519586612187565b8385526040602086019460051b8201019283116120e457604001925b8284106142035750505050600090606060e05280516141f0575b506000906000608052600090816024602073ffffffffffffffffffffffffffffffffffffffff60345416604051928380927f70a082310000000000000000000000000000000000000000000000000000000082523060048301525afa9081156141e357608051916141ab575b50608051908182908260c05151917fffffffffffffffffffffffffffffffffffffffffffffffffffffffffffffffe061385d613847856121c8565b946138556040519687612187565b8086526121c8565b0136602085013760c05151937fffffffffffffffffffffffffffffffffffffffffffffffffffffffffffffffff60805190603554915b878110613f1b5750505085613d37575b5050505050505010600014613b6e575050600090815b60a0518110156139d75760006138d18260e05161324f565b51126138e6575b6138e190613222565b6138b9565b9160006138fe6138f88560e05161324f565b516136b2565b602073ffffffffffffffffffffffffffffffffffffffff6139218760c05161324f565b511660246139346138f88960e05161324f565b60405195869384927f2e1a7d4d00000000000000000000000000000000000000000000000000000000845260048401525af19182156139cb57600092613995575b509161398761398d926138e19461302e565b90612a90565b9290506138d8565b90916020823d6020116139c3575b816139b060209383612187565b8101031261025e57505190613987613975565b3d91506139a3565b6040513d6000823e3d90fd5b50906066548111613b44576000905b60a051821015613b4057806139fd8360e05161324f565b511315613afe57613a1a90613a148360e05161324f565b516136df565b613a268260e05161324f565b52600090613a7c73ffffffffffffffffffffffffffffffffffffffff6034541673ffffffffffffffffffffffffffffffffffffffff613a678460c05161324f565b5116613a758460e05161324f565b5191612db2565b73ffffffffffffffffffffffffffffffffffffffff613a9d8260c05161324f565b5116803b15610f0f578280916004604051809481937fd0e30db00000000000000000000000000000000000000000000000000000000083525af18015613af35790613aed92916114085750613222565b906139e6565b6040513d85823e3d90fd5b906000613b0d8260e05161324f565b5113613b1d575b613aed90613222565b90613b38613aed91613b318460e05161324f565b519061302e565b919050613b14565b5050565b60046040517f5c3810af000000000000000000000000000000000000000000000000000000008152fd5b613ca8575b5073ffffffffffffffffffffffffffffffffffffffff603454166040517f70a08231000000000000000000000000000000000000000000000000000000008152306004820152602081602481855afa9081156139cb57600091613c76575b5080613bdb575050565b613c0a9173ffffffffffffffffffffffffffffffffffffffff613c0260805160c05161324f565b511690612db2565b73ffffffffffffffffffffffffffffffffffffffff613c2d60805160c05161324f565b5116803b156120e457600080916004604051809481937fd0e30db00000000000000000000000000000000000000000000000000000000083525af180156139cb57613172575b50565b906020823d602011613ca0575b81613c9060209383612187565b8101031261025e57505138613bd1565b3d9150613c83565b602073ffffffffffffffffffffffffffffffffffffffff613ccd60009360c05161324f565b51166004604051809481937f853828b60000000000000000000000000000000000000000000000000000000083525af180156139cb5715613b7357613d299060203d602011613d30575b613d218183612187565b810190612e13565b5038613b73565b503d613d17565b94965088958695869590915b818710613d97575050505050505080851180613d8a575b15613d79575050613d6d9060019361421c565b388080808080806138a3565b613d859291945061421c565b613d6d565b50600160c0515111613d5a565b909192939495966080518814600014613ed057613dc19061398783613dbc8988612a90565b612a4e565b9684151580613ec6575b613de4575b613dd990613222565b959493929190613d43565b9a613df885613df38887612a90565b612a90565b73ffffffffffffffffffffffffffffffffffffffff613e1b60805160c05161324f565b5116906020613e2a8989612a90565b6024604051809581937fa7d385e200000000000000000000000000000000000000000000000000000000835260048301525afa918215613ebb578b92613e85575b5091613987613e7d92613dd994612a4e565b9b9050613dd0565b9091506020813d602011613eb3575b81613ea160209383612187565b810103126105f7575190613987613e6b565b3d9150613e94565b6040513d8d823e3d90fd5b5060018311613dcb565b878d03613ef557613eef613dd991613ee88a8a61324f565b5190612a90565b97613222565b613f15889c613ee8613f0e613dd994613ee88d8d61324f565b9a8a61324f565b9b613222565b602498602073ffffffffffffffffffffffffffffffffffffffff613f418460c05161324f565b51166040519b8c80927fa7d385e20000000000000000000000000000000000000000000000000000000082528b60048301525afa998a1561419e578e9a614169575b50600490602073ffffffffffffffffffffffffffffffffffffffff613faa8560c05161324f565b5116604051938480927fc1590cd70000000000000000000000000000000000000000000000000000000082525afa9182156140e9578f92614133575b5081613ff191612a90565b998b8111614123575b50600a8481020484036140f65783600a028111614021575b5061401c90613222565b613893565b6004602073ffffffffffffffffffffffffffffffffffffffff6140468560c05161324f565b5116604051928380927f57ded9c90000000000000000000000000000000000000000000000000000000082525afa9081156140e9578f916140b7575b5061408d8282612a4e565b614097848b61324f565b528381106140a6575b50614012565b925094509c5061401c8d90386140a0565b90506020813d6020116140e1575b816140d260209383612187565b81010312610f07575138614082565b3d91506140c5565b8f604051903d90823e3d90fd5b60248e7f4e487b710000000000000000000000000000000000000000000000000000000081526011600452fd5b60808390529a5093508338613ffa565b9091506020813d602011614161575b8161414f60209383612187565b81010312610f07575190613ff1613fe6565b3d9150614142565b9099506020813d602011614196575b8161418560209383612187565b81010312610dea5751986004613f83565b3d9150614178565b8e604051903d90823e3d90fd5b90506020813d6020116141db575b816141c660209383612187565b810103126141d557513861380c565b60805180fd5b3d91506141b9565b6040513d608051823e3d90fd5b6141fa915061497e565b60e052386137a0565b835182811681036120e457815260209384019301613786565b8115614226570490565b7f4e487b7100000000000000000000000000000000000000000000000000000000600052601260045260246000fd5b6040516020908181019067ffffffffffffffff928183108484111761212057929082604052600081526040519360408501918180870152518092526060850193926000905b8382106142db575050505050906110de81612e1193037fffffffffffffffffffffffffffffffffffffffffffffffffffffffffffffffe08101835282612187565b845181168652948201949382019360019091019061429a565b6000806142ff61362f565b92835192831561461d57606654948583106146145781959395935b614324818561302e565b87101561460b577fffffffffffffffffffffffffffffffffffffffffffffffffffffffffffffffff968397845b8881106144c457505073ffffffffffffffffffffffffffffffffffffffff978861437b828661324f565b51166040998a51928380937f5be9b2d3000000000000000000000000000000000000000000000000000000008252602094859160049788915afa9081156144ba57899161449d575b501561448e57602483926143d88e938a61324f565b511694896143e6888d61302e565b935196879485937f2e1a7d4d0000000000000000000000000000000000000000000000000000000085528401525af1998a156112455750859961445a575b50506144338861443992612a90565b95613222565b96156144505760068710156144505795939561431a565b5050505091505090565b9080929950813d8311614487575b6144728183612187565b8101031261123a575196614433614439614424565b503d614468565b50505050965050505050505090565b6144b49150843d8611613d3057613d218183612187565b386143c3565b8d513d8b823e3d90fd5b73ffffffffffffffffffffffffffffffffffffffff806144e4838861324f565b5116906040918251918280927f5be9b2d3000000000000000000000000000000000000000000000000000000008252602093849160049687915afa908115614601578b916145e4575b50614545575b5050505061454090613222565b614351565b8190614551868b61324f565b51168451938480927f57ded9c90000000000000000000000000000000000000000000000000000000082525afa9283156145db575088926145ad575b505082811061459f575b808080614533565b915098506145408990614597565b90809250813d83116145d4575b6145c48183612187565b8101031261051f5751388061458d565b503d6145ba565b513d8a823e3d90fd5b6145fb9150833d8511613d3057613d218183612187565b3861452d565b85513d8d823e3d90fd5b50505050505090565b50935050505090565b935050505090565b6024602073ffffffffffffffffffffffffffffffffffffffff60345416604051928380927f70a082310000000000000000000000000000000000000000000000000000000082523060048301525afa9081156139cb576000916146b8575b50818110614692575090600090565b80613df36133af6146a3938561302e565b8181106146b1575090600090565b9160009150565b906020823d82116146e1575b816146d160209383612187565b8101031261025e57505138614683565b3d91506146c4565b604051906080820182811067ffffffffffffffff8211176121205760405260006060838181528260208201528260408201520152565b600060655481905b80821061473357505090565b909161473e836121e0565b9054906040918251917fc1590cd70000000000000000000000000000000000000000000000000000000083528260048173ffffffffffffffffffffffffffffffffffffffff602095869560031b1c165afa92831561317b57506000926147ba575b50506147ae906147b492612a90565b92613222565b90614727565b81819392933d83116147e4575b6147d18183612187565b8101031261025e575051816147ae61479f565b503d6147c7565b6024906147f661471f565b602073ffffffffffffffffffffffffffffffffffffffff60345416604051948580927f70a082310000000000000000000000000000000000000000000000000000000082523060048301525afa9283156139cb57600093614861575b509161485e9192612a90565b90565b6020813d821161488c575b8161487960209383612187565b8101031261123a5751925061485e614852565b3d915061486c565b61489c6147eb565b908115614978576000916065549280935b8085106148c0575061485e92935061421c565b906148ca856121e0565b9054906040918251917f116ac4a30000000000000000000000000000000000000000000000000000000083528260048173ffffffffffffffffffffffffffffffffffffffff602095869560031b1c165afa92831561317b5750600092614947575b505061493a9061494092612a90565b94613222565b93906148ad565b81819392933d8311614971575b61495e8183612187565b8101031261025e5750518161493a61492b565b503d614954565b60009150565b600090600091606554614990816121c8565b926040916149a083519586612187565b8085527fffffffffffffffffffffffffffffffffffffffffffffffffffffffffffffffe06149cd826121c8565b016020903682880137859683518303614c11576149e86147eb565b968715614c0357509291908380935b838510614a4257505050505061271003614a19575090614a169161421c565b91565b600490517f6edcc523000000000000000000000000000000000000000000000000000000008152fd5b9091929396612710614a80614a6d67ffffffffffffffff9889614a658d8861324f565b511690612a90565b97614a788b8661324f565b51168b612a4e565b04614a8a896121e0565b9190548951927fc1590cd70000000000000000000000000000000000000000000000000000000084526004938881868173ffffffffffffffffffffffffffffffffffffffff8097600397881b1c165afa908115614bf957918f8a94928f948b91614bae575b50846024949392614b0e614b06614b14948b6136df565b97889261324f565b526121e0565b9054911b1c16948c5195869384927fa7d385e20000000000000000000000000000000000000000000000000000000084528301525afa918215614ba4578592614b73575b5091613987613eef92614b6a94612a4e565b939291906149f7565b9091508581813d8311614b9d575b614b8b8183612187565b8101031261159e575190613987614b58565b503d614b81565b89513d87823e3d90fd5b9395929450505081813d8311614bf2575b614bc98183612187565b81010312610f0b5788928f92614b148f8095614b0e614b06602497519450505092939450614aef565b503d614bbf565b8c513d8a823e3d90fd5b989750955050505050509190565b600485517fcdeedcbd000000000000000000000000000000000000000000000000000000008152fd5b614c4261362f565b9081519160005b838110614c7a5760046040517f30990b67000000000000000000000000000000000000000000000000000000008152fd5b73ffffffffffffffffffffffffffffffffffffffff80614c9a838561324f565b511690808516918214614cb7575050614cb290613222565b614c49565b90946000945081614cca8486959661324f565b511692604094855180957f853828b600000000000000000000000000000000000000000000000000000000825260209687918160049b8c925af18015614ed257614eb5575b507fffffffffffffffffffffffffffffffffffffffffffffffffffffffffffffffff92838101908111614e875784818303614e66575b5050505060659081548015614e3857849392910190614d88614d66836121e0565b73ffffffffffffffffffffffffffffffffffffffff82549160031b1b19169055565b55603454169360248451809681937f70a0823100000000000000000000000000000000000000000000000000000000835230908301525afa91821561317b5750600091614e0c575b509050614dff575b7f95c84dbc5fd872c46b0e4290775a1a4ea1c8d760f9e4d38f48ba71b6f9a667db600080a2565b614e07614255565b614dd8565b82813d8311614e31575b614e208183612187565b8101031261025e5750518038614dd0565b503d614e16565b6031877f4e487b71000000000000000000000000000000000000000000000000000000006000525260246000fd5b614e766116b292614e7e9561324f565b5116916121e0565b38808084614d45565b6011887f4e487b71000000000000000000000000000000000000000000000000000000006000525260246000fd5b614ecb90863d8811613d3057613d218183612187565b5038614d0f565b87513d6000823e3d90fd5b614ee561362f565b9081519160005b838110614f1d5760046040517f30990b67000000000000000000000000000000000000000000000000000000008152fd5b73ffffffffffffffffffffffffffffffffffffffff80614f3d838561324f565b511690808516918214614f5a575050614f5590613222565b614eec565b90946000945081614f6d8486959661324f565b511692604094855180957f853828b600000000000000000000000000000000000000000000000000000000825260209687918160049b8c925af1908115614ed257600091615039575b5015615011577fffffffffffffffffffffffffffffffffffffffffffffffffffffffffffffffff92838101908111614e875784818303614e66575050505060659081548015614e3857849392910190614d88614d66836121e0565b8686517fa1248235000000000000000000000000000000000000000000000000000000008152fd5b6150509150863d8811613d3057613d218183612187565b38614fb656fea2646970667358221220253f687410d062e3d20cc43e53ef42861f85e0c45153a61314a7003d37c12c3d64736f6c63430008110033",
  "devdoc": {
    "author": "Angle Labs, Inc.",
    "details": "This strategy works by taking plugins designed for standard lending platforms and automatically chooses to invest its funds in the best platforms to generate yield. The allocation is greedy and may be sub-optimal so there is an additional option to manually set positions",
    "kind": "dev",
    "methods": {
      "addGuardian(address)": {
        "details": "This internal function has to be put in this file because `AccessControl` is not defined in `PoolManagerInternal`",
        "params": {
          "_guardian": "New guardian address"
        }
      },
      "addLender(address)": {
        "details": "Governor, guardian or `PoolManager` only",
        "params": {
          "newLender": "The adapter to the added lending platform"
        }
      },
      "estimatedAPR()": {
        "details": "It's computed by doing: `sum(nav * apr) / totalNav`"
      },
      "estimatedAPR(uint64[])": {
        "params": {
          "shares": "List of shares (in bps of the nav) that should be allocated to each lender"
        }
      },
      "forceRemoveLender(address)": {
        "params": {
          "lender": "The address of the adapter to the lending platform to remove"
        }
      },
      "getRoleAdmin(bytes32)": {
        "details": "Returns the admin role that controls `role`. See {grantRole} and {revokeRole}. To change a role's admin, use {_setRoleAdmin}."
      },
      "grantRole(bytes32,address)": {
        "details": "Grants `role` to `account`. If `account` had not been already granted `role`, emits a {RoleGranted} event. Requirements: - the caller must have ``role``'s admin role."
      },
      "harvest(bytes)": {
        "details": "Since this function is permissionless, strategy implementations should be made to remain safe regardless of the data that is passed in the call"
      },
      "hasRole(bytes32,address)": {
        "details": "Returns `true` if `account` has been granted `role`."
      },
      "initialize(address,address,address,address[])": {
        "params": {
          "_poolManager": "Address of the `PoolManager` lending to this strategy",
          "governor": "Address with governor privilege",
          "guardian": "Address of the guardian"
        }
      },
      "isActive()": {
        "returns": {
          "_0": "True if the strategy is actively managing a position."
        }
      },
      "lendStatuses()": {
        "returns": {
          "_0": "Returns the status of all lenders attached the strategy"
        }
      },
      "renounceRole(bytes32,address)": {
        "details": "Revokes `role` from the calling account. Roles are often managed via {grantRole} and {revokeRole}: this function's purpose is to provide a mechanism for accounts to lose their privileges if they are compromised (such as when a trusted device is misplaced). If the calling account had been granted `role`, emits a {RoleRevoked} event. Requirements: - the caller must be `account`."
      },
      "revokeGuardian(address)": {
        "params": {
          "guardian": "Old guardian address to revoke"
        }
      },
      "revokeRole(bytes32,address)": {
        "details": "Revokes `role` from `account`. If `account` had been granted `role`, emits a {RoleRevoked} event. Requirements: - the caller must have ``role``'s admin role."
      },
      "safeRemoveLender(address)": {
        "params": {
          "lender": "The address of the adapter to the lending platform to remove"
        }
      },
      "setDebtThreshold(uint256)": {
        "details": "By default this is 0, meaning any losses would cause a harvest which will subsequently report the loss to the Manager for tracking.",
        "params": {
          "_debtThreshold": "How big of a loss this Strategy may carry without"
        }
      },
      "setEmergencyExit()": {
        "details": "This may only be called by the `PoolManager`, because when calling this the `PoolManager` should at the same time update the debt ratioThis function can only be called once by the `PoolManager` contractSee `poolManager.setEmergencyExit()` and `harvest()` for further details."
      },
      "setWithdrawalThreshold(uint256)": {
        "details": "governor, guardian or `PoolManager` only",
        "params": {
          "_threshold": "New withdrawal threshold"
        }
      },
      "sweep(address,address)": {
        "details": "Implement `_protectedTokens()` to specify any additional tokens that should be protected from sweeping in addition to `want`.",
        "params": {
          "_token": "The token to transfer out of this `PoolManager`.",
          "to": "Address to send the tokens to."
        }
      },
      "withdraw(uint256)": {
        "details": "This may only be called by the `PoolManager`",
        "params": {
          "_amountNeeded": "How much `want` to withdraw."
        },
        "returns": {
          "_loss": "Any realized losses",
          "amountFreed": "How much `want` withdrawn."
        }
      }
    },
    "title": "OptimizerAPRStrategy",
    "version": 1
  },
  "userdoc": {
    "kind": "user",
    "methods": {
      "GUARDIAN_ROLE()": {
        "notice": "Role for guardians and governors - keccak256(\"GUARDIAN_ROLE\")"
      },
      "KEEPER_ROLE()": {
        "notice": "Role for keepers - keccak256(\"KEEPER_ROLE\")"
      },
      "POOLMANAGER_ROLE()": {
        "notice": "Role for `PoolManager` only - keccak256(\"POOLMANAGER_ROLE\")"
      },
      "addGuardian(address)": {
        "notice": "Adds a new guardian address and echoes the change to the contracts that interact with this collateral `PoolManager`"
      },
      "addLender(address)": {
        "notice": "Add lenders for the strategy to choose between"
      },
      "debtThreshold()": {
        "notice": "Use this to adjust the threshold at which running a debt causes a harvest trigger. See `setDebtThreshold()` for more details"
      },
      "emergencyExit()": {
        "notice": "See note on `setEmergencyExit()`"
      },
      "estimatedAPR()": {
        "notice": "Returns the weighted apr of all lenders"
      },
      "estimatedAPR(uint64[])": {
        "notice": "Returns the weighted apr in an hypothetical world where the strategy splits its nav in respect to shares"
      },
      "estimatedTotalAssets()": {
        "notice": "View function to check the total assets managed by the strategy"
      },
      "forceRemoveLender(address)": {
        "notice": "Removes a lending platform even if total withdrawal is impossible"
      },
      "harvest()": {
        "notice": "Harvests the Strategy, recognizing any profits or losses and adjusting the Strategy's position."
      },
      "harvest(bytes)": {
        "notice": "Same as the function above with a `data` parameter to help adjust the position"
      },
      "harvest(uint256)": {
        "notice": "Same as above with a `borrowInit` parameter to help in case of the convergence of the `adjustPosition` method"
      },
      "initialize(address,address,address,address[])": {
        "notice": "Constructor of the `Strategy`"
      },
      "isActive()": {
        "notice": "Provides an indication of whether this strategy is currently \"active\" in that it is managing an active position, or will manage a position in the future. This should correlate to `harvest()` activity, so that Harvest events can be tracked externally by indexing agents."
      },
      "lendStatuses()": {
        "notice": "View function to check the current state of the strategy"
      },
      "lentTotalAssets()": {
        "notice": "View function to check the total assets lent"
      },
      "numLenders()": {
        "notice": "View function to check the number of lending platforms"
      },
      "poolManager()": {
        "notice": "Reference to the protocol's collateral `PoolManager`"
      },
      "revokeGuardian(address)": {
        "notice": "Revokes the guardian role and propagates the change to other contracts"
      },
      "safeRemoveLender(address)": {
        "notice": "Removes a lending platform and fails if total withdrawal is impossible"
      },
      "setDebtThreshold(uint256)": {
        "notice": "Sets how far the Strategy can go into loss without a harvest and report being required."
      },
      "setEmergencyExit()": {
        "notice": "Activates emergency exit. Once activated, the Strategy will exit its position upon the next harvest, depositing all funds into the Manager as quickly as is reasonable given on-chain conditions."
      },
      "setWithdrawalThreshold(uint256)": {
        "notice": "Changes the withdrawal threshold"
      },
      "sweep(address,address)": {
        "notice": "Removes tokens from this Strategy that are not the type of tokens managed by this Strategy. This may be used in case of accidentally sending the wrong kind of token to this Strategy. Tokens will be sent to `governance()`. This will fail if an attempt is made to sweep `want`, or any tokens that are protected by this Strategy. This may only be called by governance."
      },
      "want()": {
        "notice": "Reference to the ERC20 farmed by this strategy"
      },
      "wantBase()": {
        "notice": "Base of the ERC20 token farmed by this strategy"
      },
      "withdraw(uint256)": {
        "notice": "Withdraws `_amountNeeded` to `poolManager`."
      }
    },
    "notice": "A lender optimisation strategy for any ERC20 asset, leveraging multiple lenders at once",
    "version": 1
  },
  "storageLayout": {
    "storage": [
      {
        "astId": 52,
        "contract": "contracts/strategies/OptimizerAPR/OptimizerAPRStrategy.sol:OptimizerAPRStrategy",
        "label": "_initialized",
        "offset": 0,
        "slot": "0",
        "type": "t_bool"
      },
      {
        "astId": 55,
        "contract": "contracts/strategies/OptimizerAPR/OptimizerAPRStrategy.sol:OptimizerAPRStrategy",
        "label": "_initializing",
        "offset": 1,
        "slot": "0",
        "type": "t_bool"
      },
      {
        "astId": 4391,
        "contract": "contracts/strategies/OptimizerAPR/OptimizerAPRStrategy.sol:OptimizerAPRStrategy",
        "label": "_roles",
        "offset": 0,
        "slot": "1",
        "type": "t_mapping(t_bytes32,t_struct(RoleData)4386_storage)"
      },
      {
        "astId": 4677,
        "contract": "contracts/strategies/OptimizerAPR/OptimizerAPRStrategy.sol:OptimizerAPRStrategy",
        "label": "__gap",
        "offset": 0,
        "slot": "2",
        "type": "t_array(t_uint256)49_storage"
      },
      {
        "astId": 14545,
        "contract": "contracts/strategies/OptimizerAPR/OptimizerAPRStrategy.sol:OptimizerAPRStrategy",
        "label": "emergencyExit",
        "offset": 0,
        "slot": "51",
        "type": "t_bool"
      },
      {
        "astId": 14549,
        "contract": "contracts/strategies/OptimizerAPR/OptimizerAPRStrategy.sol:OptimizerAPRStrategy",
        "label": "poolManager",
        "offset": 1,
        "slot": "51",
        "type": "t_contract(IPoolManager)5511"
      },
      {
        "astId": 14553,
        "contract": "contracts/strategies/OptimizerAPR/OptimizerAPRStrategy.sol:OptimizerAPRStrategy",
        "label": "want",
        "offset": 0,
        "slot": "52",
        "type": "t_contract(IERC20)2219"
      },
      {
        "astId": 14556,
        "contract": "contracts/strategies/OptimizerAPR/OptimizerAPRStrategy.sol:OptimizerAPRStrategy",
        "label": "wantBase",
        "offset": 0,
        "slot": "53",
        "type": "t_uint256"
      },
      {
        "astId": 14559,
        "contract": "contracts/strategies/OptimizerAPR/OptimizerAPRStrategy.sol:OptimizerAPRStrategy",
        "label": "debtThreshold",
        "offset": 0,
        "slot": "54",
        "type": "t_uint256"
      },
      {
        "astId": 14563,
        "contract": "contracts/strategies/OptimizerAPR/OptimizerAPRStrategy.sol:OptimizerAPRStrategy",
        "label": "__gapBaseStrategy",
        "offset": 0,
        "slot": "55",
        "type": "t_array(t_uint256)46_storage"
      },
      {
        "astId": 16496,
        "contract": "contracts/strategies/OptimizerAPR/OptimizerAPRStrategy.sol:OptimizerAPRStrategy",
        "label": "lenders",
        "offset": 0,
        "slot": "101",
        "type": "t_array(t_contract(IGenericLender)5439)dyn_storage"
      },
      {
        "astId": 16498,
        "contract": "contracts/strategies/OptimizerAPR/OptimizerAPRStrategy.sol:OptimizerAPRStrategy",
        "label": "withdrawalThreshold",
        "offset": 0,
        "slot": "102",
        "type": "t_uint256"
      }
    ],
    "types": {
      "t_address": {
        "encoding": "inplace",
        "label": "address",
        "numberOfBytes": "20"
      },
      "t_array(t_contract(IGenericLender)5439)dyn_storage": {
        "base": "t_contract(IGenericLender)5439",
        "encoding": "dynamic_array",
        "label": "contract IGenericLender[]",
        "numberOfBytes": "32"
      },
      "t_array(t_uint256)46_storage": {
        "base": "t_uint256",
        "encoding": "inplace",
        "label": "uint256[46]",
        "numberOfBytes": "1472"
      },
      "t_array(t_uint256)49_storage": {
        "base": "t_uint256",
        "encoding": "inplace",
        "label": "uint256[49]",
        "numberOfBytes": "1568"
      },
      "t_bool": {
        "encoding": "inplace",
        "label": "bool",
        "numberOfBytes": "1"
      },
      "t_bytes32": {
        "encoding": "inplace",
        "label": "bytes32",
        "numberOfBytes": "32"
      },
      "t_contract(IERC20)2219": {
        "encoding": "inplace",
        "label": "contract IERC20",
        "numberOfBytes": "20"
      },
      "t_contract(IGenericLender)5439": {
        "encoding": "inplace",
        "label": "contract IGenericLender",
        "numberOfBytes": "20"
      },
      "t_contract(IPoolManager)5511": {
        "encoding": "inplace",
        "label": "contract IPoolManager",
        "numberOfBytes": "20"
      },
      "t_mapping(t_address,t_bool)": {
        "encoding": "mapping",
        "key": "t_address",
        "label": "mapping(address => bool)",
        "numberOfBytes": "32",
        "value": "t_bool"
      },
      "t_mapping(t_bytes32,t_struct(RoleData)4386_storage)": {
        "encoding": "mapping",
        "key": "t_bytes32",
        "label": "mapping(bytes32 => struct AccessControlAngleUpgradeable.RoleData)",
        "numberOfBytes": "32",
        "value": "t_struct(RoleData)4386_storage"
      },
      "t_struct(RoleData)4386_storage": {
        "encoding": "inplace",
        "label": "struct AccessControlAngleUpgradeable.RoleData",
        "members": [
          {
            "astId": 4383,
            "contract": "contracts/strategies/OptimizerAPR/OptimizerAPRStrategy.sol:OptimizerAPRStrategy",
            "label": "members",
            "offset": 0,
            "slot": "0",
            "type": "t_mapping(t_address,t_bool)"
          },
          {
            "astId": 4385,
            "contract": "contracts/strategies/OptimizerAPR/OptimizerAPRStrategy.sol:OptimizerAPRStrategy",
            "label": "adminRole",
            "offset": 0,
            "slot": "1",
            "type": "t_bytes32"
          }
        ],
        "numberOfBytes": "64"
      },
      "t_uint256": {
        "encoding": "inplace",
        "label": "uint256",
        "numberOfBytes": "32"
      }
    }
  }
}