{
  "address": "0xcDA39B74054EFFB230156f21b334E50295Ca8df4",
  "abi": [
    {
      "anonymous": false,
      "inputs": [],
      "name": "EmergencyExitActivated",
      "type": "event"
    },
    {
      "anonymous": false,
      "inputs": [
        {
          "indexed": false,
          "internalType": "uint256",
          "name": "profit",
          "type": "uint256"
        },
        {
          "indexed": false,
          "internalType": "uint256",
          "name": "loss",
          "type": "uint256"
        },
        {
          "indexed": false,
          "internalType": "uint256",
          "name": "debtPayment",
          "type": "uint256"
        },
        {
          "indexed": false,
          "internalType": "uint256",
          "name": "debtOutstanding",
          "type": "uint256"
        }
      ],
      "name": "Harvested",
      "type": "event"
    },
    {
      "anonymous": false,
      "inputs": [
        {
          "indexed": true,
          "internalType": "bytes32",
          "name": "role",
          "type": "bytes32"
        },
        {
          "indexed": true,
          "internalType": "bytes32",
          "name": "previousAdminRole",
          "type": "bytes32"
        },
        {
          "indexed": true,
          "internalType": "bytes32",
          "name": "newAdminRole",
          "type": "bytes32"
        }
      ],
      "name": "RoleAdminChanged",
      "type": "event"
    },
    {
      "anonymous": false,
      "inputs": [
        {
          "indexed": true,
          "internalType": "bytes32",
          "name": "role",
          "type": "bytes32"
        },
        {
          "indexed": true,
          "internalType": "address",
          "name": "account",
          "type": "address"
        },
        {
          "indexed": true,
          "internalType": "address",
          "name": "sender",
          "type": "address"
        }
      ],
      "name": "RoleGranted",
      "type": "event"
    },
    {
      "anonymous": false,
      "inputs": [
        {
          "indexed": true,
          "internalType": "bytes32",
          "name": "role",
          "type": "bytes32"
        },
        {
          "indexed": true,
          "internalType": "address",
          "name": "account",
          "type": "address"
        },
        {
          "indexed": true,
          "internalType": "address",
          "name": "sender",
          "type": "address"
        }
      ],
      "name": "RoleRevoked",
      "type": "event"
    },
    {
      "anonymous": false,
      "inputs": [
        {
          "indexed": false,
          "internalType": "uint256",
          "name": "debtThreshold",
          "type": "uint256"
        }
      ],
      "name": "UpdatedDebtThreshold",
      "type": "event"
    },
    {
      "anonymous": false,
      "inputs": [
        {
          "indexed": false,
          "internalType": "bool",
          "name": "activated",
          "type": "bool"
        }
      ],
      "name": "UpdatedIsRewardActivated",
      "type": "event"
    },
    {
      "anonymous": false,
      "inputs": [
        {
          "indexed": false,
          "internalType": "uint256",
          "name": "delay",
          "type": "uint256"
        }
      ],
      "name": "UpdatedMaxReportDelayed",
      "type": "event"
    },
    {
      "anonymous": false,
      "inputs": [
        {
          "indexed": false,
          "internalType": "uint256",
          "name": "delay",
          "type": "uint256"
        }
      ],
      "name": "UpdatedMinReportDelayed",
      "type": "event"
    },
    {
      "anonymous": false,
      "inputs": [
        {
          "indexed": false,
          "internalType": "uint256",
          "name": "_rewardAmount",
          "type": "uint256"
        },
        {
          "indexed": false,
          "internalType": "uint256",
          "name": "_minimumAmountMoved",
          "type": "uint256"
        }
      ],
      "name": "UpdatedRewardAmountAndMinimumAmountMoved",
      "type": "event"
    },
    {
      "anonymous": false,
      "inputs": [
        {
          "indexed": false,
          "internalType": "address",
          "name": "rewards",
          "type": "address"
        }
      ],
      "name": "UpdatedRewards",
      "type": "event"
    },
    {
      "inputs": [],
      "name": "BASE",
      "outputs": [
        {
          "internalType": "uint256",
          "name": "",
          "type": "uint256"
        }
      ],
      "stateMutability": "view",
      "type": "function"
    },
    {
      "inputs": [],
      "name": "DEFAULT_ADMIN_ROLE",
      "outputs": [
        {
          "internalType": "bytes32",
          "name": "",
          "type": "bytes32"
        }
      ],
      "stateMutability": "view",
      "type": "function"
    },
    {
      "inputs": [],
      "name": "GUARDIAN_ROLE",
      "outputs": [
        {
          "internalType": "bytes32",
          "name": "",
          "type": "bytes32"
        }
      ],
      "stateMutability": "view",
      "type": "function"
    },
    {
      "inputs": [],
      "name": "KEEPER_ROLE",
      "outputs": [
        {
          "internalType": "bytes32",
          "name": "",
          "type": "bytes32"
        }
      ],
      "stateMutability": "view",
      "type": "function"
    },
    {
      "inputs": [],
      "name": "POOLMANAGER_ROLE",
      "outputs": [
        {
          "internalType": "bytes32",
          "name": "",
          "type": "bytes32"
        }
      ],
      "stateMutability": "view",
      "type": "function"
    },
    {
      "inputs": [],
      "name": "SECONDSPERYEAR",
      "outputs": [
        {
          "internalType": "uint256",
          "name": "",
          "type": "uint256"
        }
      ],
      "stateMutability": "view",
      "type": "function"
    },
    {
      "inputs": [
        {
          "internalType": "address",
          "name": "_guardian",
          "type": "address"
        }
      ],
      "name": "addGuardian",
      "outputs": [],
      "stateMutability": "nonpayable",
      "type": "function"
    },
    {
      "inputs": [],
      "name": "boolParams",
      "outputs": [
        {
          "internalType": "bool",
          "name": "automaticallyComputeCollatRatio",
          "type": "bool"
        },
        {
          "internalType": "bool",
          "name": "isFlashMintActive",
          "type": "bool"
        },
        {
          "internalType": "bool",
          "name": "withdrawCheck",
          "type": "bool"
        },
        {
          "internalType": "bool",
          "name": "cooldownStkAave",
          "type": "bool"
        }
      ],
      "stateMutability": "view",
      "type": "function"
    },
    {
      "inputs": [],
      "name": "claimRewards",
      "outputs": [],
      "stateMutability": "nonpayable",
      "type": "function"
    },
    {
      "inputs": [],
      "name": "cooldownSeconds",
      "outputs": [
        {
          "internalType": "uint256",
          "name": "",
          "type": "uint256"
        }
      ],
      "stateMutability": "view",
      "type": "function"
    },
    {
      "inputs": [],
      "name": "daiBorrowCollatRatio",
      "outputs": [
        {
          "internalType": "uint256",
          "name": "",
          "type": "uint256"
        }
      ],
      "stateMutability": "view",
      "type": "function"
    },
    {
      "inputs": [],
      "name": "debtThreshold",
      "outputs": [
        {
          "internalType": "uint256",
          "name": "",
          "type": "uint256"
        }
      ],
      "stateMutability": "view",
      "type": "function"
    },
    {
      "inputs": [],
      "name": "discountFactor",
      "outputs": [
        {
          "internalType": "uint256",
          "name": "",
          "type": "uint256"
        }
      ],
      "stateMutability": "view",
      "type": "function"
    },
    {
      "inputs": [],
      "name": "emergencyExit",
      "outputs": [
        {
          "internalType": "bool",
          "name": "",
          "type": "bool"
        }
      ],
      "stateMutability": "view",
      "type": "function"
    },
    {
      "inputs": [],
      "name": "estimatedAPR",
      "outputs": [
        {
          "internalType": "uint256",
          "name": "",
          "type": "uint256"
        }
      ],
      "stateMutability": "view",
      "type": "function"
    },
    {
      "inputs": [],
      "name": "estimatedTotalAssets",
      "outputs": [
        {
          "internalType": "uint256",
          "name": "",
          "type": "uint256"
        }
      ],
      "stateMutability": "view",
      "type": "function"
    },
    {
      "inputs": [],
      "name": "getCurrentPosition",
      "outputs": [
        {
          "internalType": "uint256",
          "name": "deposits",
          "type": "uint256"
        },
        {
          "internalType": "uint256",
          "name": "borrows",
          "type": "uint256"
        }
      ],
      "stateMutability": "view",
      "type": "function"
    },
    {
      "inputs": [
        {
          "internalType": "bytes32",
          "name": "role",
          "type": "bytes32"
        }
      ],
      "name": "getRoleAdmin",
      "outputs": [
        {
          "internalType": "bytes32",
          "name": "",
          "type": "bytes32"
        }
      ],
      "stateMutability": "view",
      "type": "function"
    },
    {
      "inputs": [
        {
          "internalType": "bytes32",
          "name": "role",
          "type": "bytes32"
        },
        {
          "internalType": "address",
          "name": "account",
          "type": "address"
        }
      ],
      "name": "grantRole",
      "outputs": [],
      "stateMutability": "nonpayable",
      "type": "function"
    },
    {
      "inputs": [],
      "name": "harvest",
      "outputs": [],
      "stateMutability": "nonpayable",
      "type": "function"
    },
    {
      "inputs": [
        {
          "internalType": "uint256",
          "name": "borrowInit",
          "type": "uint256"
        }
      ],
      "name": "harvest",
      "outputs": [],
      "stateMutability": "nonpayable",
      "type": "function"
    },
    {
      "inputs": [
        {
          "internalType": "bytes32",
          "name": "role",
          "type": "bytes32"
        },
        {
          "internalType": "address",
          "name": "account",
          "type": "address"
        }
      ],
      "name": "hasRole",
      "outputs": [
        {
          "internalType": "bool",
          "name": "",
          "type": "bool"
        }
      ],
      "stateMutability": "view",
      "type": "function"
    },
    {
      "inputs": [
        {
          "internalType": "address",
          "name": "_poolManager",
          "type": "address"
        },
        {
          "internalType": "contract IReserveInterestRateStrategy",
          "name": "interestRateStrategyAddress_",
          "type": "address"
        },
        {
          "internalType": "address",
          "name": "governor",
          "type": "address"
        },
        {
          "internalType": "address",
          "name": "guardian",
          "type": "address"
        },
        {
          "internalType": "address[]",
          "name": "keepers",
          "type": "address[]"
        }
      ],
      "name": "initialize",
      "outputs": [],
      "stateMutability": "nonpayable",
      "type": "function"
    },
    {
      "inputs": [],
      "name": "isActive",
      "outputs": [
        {
          "internalType": "bool",
          "name": "",
          "type": "bool"
        }
      ],
      "stateMutability": "view",
      "type": "function"
    },
    {
      "inputs": [
        {
          "internalType": "uint256",
          "name": "amount",
          "type": "uint256"
        }
      ],
      "name": "manualDeleverage",
      "outputs": [],
      "stateMutability": "nonpayable",
      "type": "function"
    },
    {
      "inputs": [
        {
          "internalType": "uint256",
          "name": "amount",
          "type": "uint256"
        }
      ],
      "name": "manualReleaseWant",
      "outputs": [],
      "stateMutability": "nonpayable",
      "type": "function"
    },
    {
      "inputs": [],
      "name": "maxBorrowCollatRatio",
      "outputs": [
        {
          "internalType": "uint256",
          "name": "",
          "type": "uint256"
        }
      ],
      "stateMutability": "view",
      "type": "function"
    },
    {
      "inputs": [],
      "name": "maxCollatRatio",
      "outputs": [
        {
          "internalType": "uint256",
          "name": "",
          "type": "uint256"
        }
      ],
      "stateMutability": "view",
      "type": "function"
    },
    {
      "inputs": [],
      "name": "maxIterations",
      "outputs": [
        {
          "internalType": "uint8",
          "name": "",
          "type": "uint8"
        }
      ],
      "stateMutability": "view",
      "type": "function"
    },
    {
      "inputs": [],
      "name": "minRatio",
      "outputs": [
        {
          "internalType": "uint256",
          "name": "",
          "type": "uint256"
        }
      ],
      "stateMutability": "view",
      "type": "function"
    },
    {
      "inputs": [],
      "name": "minWant",
      "outputs": [
        {
          "internalType": "uint256",
          "name": "",
          "type": "uint256"
        }
      ],
      "stateMutability": "view",
      "type": "function"
    },
    {
      "inputs": [
        {
          "internalType": "address",
          "name": "initiator",
          "type": "address"
        },
        {
          "internalType": "address",
          "name": "",
          "type": "address"
        },
        {
          "internalType": "uint256",
          "name": "amount",
          "type": "uint256"
        },
        {
          "internalType": "uint256",
          "name": "",
          "type": "uint256"
        },
        {
          "internalType": "bytes",
          "name": "data",
          "type": "bytes"
        }
      ],
      "name": "onFlashLoan",
      "outputs": [
        {
          "internalType": "bytes32",
          "name": "",
          "type": "bytes32"
        }
      ],
      "stateMutability": "nonpayable",
      "type": "function"
    },
    {
      "inputs": [],
      "name": "poolManager",
      "outputs": [
        {
          "internalType": "contract IPoolManager",
          "name": "",
          "type": "address"
        }
      ],
      "stateMutability": "view",
      "type": "function"
    },
    {
      "inputs": [],
      "name": "r0",
      "outputs": [
        {
          "internalType": "int256",
          "name": "",
          "type": "int256"
        }
      ],
      "stateMutability": "view",
      "type": "function"
    },
    {
      "inputs": [
        {
          "internalType": "bytes32",
          "name": "role",
          "type": "bytes32"
        },
        {
          "internalType": "address",
          "name": "account",
          "type": "address"
        }
      ],
      "name": "renounceRole",
      "outputs": [],
      "stateMutability": "nonpayable",
      "type": "function"
    },
    {
      "inputs": [],
      "name": "reserveFactor",
      "outputs": [
        {
          "internalType": "int256",
          "name": "",
          "type": "int256"
        }
      ],
      "stateMutability": "view",
      "type": "function"
    },
    {
      "inputs": [
        {
          "internalType": "address",
          "name": "guardian",
          "type": "address"
        }
      ],
      "name": "revokeGuardian",
      "outputs": [],
      "stateMutability": "nonpayable",
      "type": "function"
    },
    {
      "inputs": [
        {
          "internalType": "bytes32",
          "name": "role",
          "type": "bytes32"
        },
        {
          "internalType": "address",
          "name": "account",
          "type": "address"
        }
      ],
      "name": "revokeRole",
      "outputs": [],
      "stateMutability": "nonpayable",
      "type": "function"
    },
    {
      "inputs": [
        {
          "internalType": "uint256",
          "name": "minAmountOut",
          "type": "uint256"
        },
        {
          "internalType": "bytes",
          "name": "payload",
          "type": "bytes"
        }
      ],
      "name": "sellRewards",
      "outputs": [],
      "stateMutability": "nonpayable",
      "type": "function"
    },
    {
      "inputs": [],
      "name": "setAavePoolVariables",
      "outputs": [],
      "stateMutability": "nonpayable",
      "type": "function"
    },
    {
      "inputs": [
        {
          "components": [
            {
              "internalType": "bool",
              "name": "automaticallyComputeCollatRatio",
              "type": "bool"
            },
            {
              "internalType": "bool",
              "name": "isFlashMintActive",
              "type": "bool"
            },
            {
              "internalType": "bool",
              "name": "withdrawCheck",
              "type": "bool"
            },
            {
              "internalType": "bool",
              "name": "cooldownStkAave",
              "type": "bool"
            }
          ],
          "internalType": "struct AaveFlashloanStrategy.BoolParams",
          "name": "_boolParams",
          "type": "tuple"
        }
      ],
      "name": "setBoolParams",
      "outputs": [],
      "stateMutability": "nonpayable",
      "type": "function"
    },
    {
      "inputs": [
        {
          "internalType": "uint256",
          "name": "_targetCollatRatio",
          "type": "uint256"
        },
        {
          "internalType": "uint256",
          "name": "_maxCollatRatio",
          "type": "uint256"
        },
        {
          "internalType": "uint256",
          "name": "_maxBorrowCollatRatio",
          "type": "uint256"
        },
        {
          "internalType": "uint256",
          "name": "_daiBorrowCollatRatio",
          "type": "uint256"
        }
      ],
      "name": "setCollateralTargets",
      "outputs": [],
      "stateMutability": "nonpayable",
      "type": "function"
    },
    {
      "inputs": [
        {
          "internalType": "uint256",
          "name": "_debtThreshold",
          "type": "uint256"
        }
      ],
      "name": "setDebtThreshold",
      "outputs": [],
      "stateMutability": "nonpayable",
      "type": "function"
    },
    {
      "inputs": [
        {
          "internalType": "uint256",
          "name": "_discountFactor",
          "type": "uint256"
        }
      ],
      "name": "setDiscountFactor",
      "outputs": [],
      "stateMutability": "nonpayable",
      "type": "function"
    },
    {
      "inputs": [],
      "name": "setEmergencyExit",
      "outputs": [],
      "stateMutability": "nonpayable",
      "type": "function"
    },
    {
      "inputs": [
        {
          "internalType": "uint256",
          "name": "_minWant",
          "type": "uint256"
        },
        {
          "internalType": "uint256",
          "name": "_minRatio",
          "type": "uint256"
        },
        {
          "internalType": "uint8",
          "name": "_maxIterations",
          "type": "uint8"
        }
      ],
      "name": "setMinsAndMaxs",
      "outputs": [],
      "stateMutability": "nonpayable",
      "type": "function"
    },
    {
      "inputs": [],
      "name": "slope1",
      "outputs": [
        {
          "internalType": "int256",
          "name": "",
          "type": "int256"
        }
      ],
      "stateMutability": "view",
      "type": "function"
    },
    {
      "inputs": [],
      "name": "slope2",
      "outputs": [
        {
          "internalType": "int256",
          "name": "",
          "type": "int256"
        }
      ],
      "stateMutability": "view",
      "type": "function"
    },
    {
      "inputs": [
        {
          "internalType": "address",
          "name": "_token",
          "type": "address"
        },
        {
          "internalType": "address",
          "name": "to",
          "type": "address"
        }
      ],
      "name": "sweep",
      "outputs": [],
      "stateMutability": "nonpayable",
      "type": "function"
    },
    {
      "inputs": [],
      "name": "targetCollatRatio",
      "outputs": [
        {
          "internalType": "uint256",
          "name": "",
          "type": "uint256"
        }
      ],
      "stateMutability": "view",
      "type": "function"
    },
    {
      "inputs": [],
      "name": "uOptimal",
      "outputs": [
        {
          "internalType": "int256",
          "name": "",
          "type": "int256"
        }
      ],
      "stateMutability": "view",
      "type": "function"
    },
    {
      "inputs": [],
      "name": "unstakeWindow",
      "outputs": [
        {
          "internalType": "uint256",
          "name": "",
          "type": "uint256"
        }
      ],
      "stateMutability": "view",
      "type": "function"
    },
    {
      "inputs": [],
      "name": "want",
      "outputs": [
        {
          "internalType": "contract IERC20",
          "name": "",
          "type": "address"
        }
      ],
      "stateMutability": "view",
      "type": "function"
    },
    {
      "inputs": [],
      "name": "wantBase",
      "outputs": [
        {
          "internalType": "uint256",
          "name": "",
          "type": "uint256"
        }
      ],
      "stateMutability": "view",
      "type": "function"
    },
    {
      "inputs": [
        {
          "internalType": "uint256",
          "name": "_amountNeeded",
          "type": "uint256"
        }
      ],
      "name": "withdraw",
      "outputs": [
        {
          "internalType": "uint256",
          "name": "amountFreed",
          "type": "uint256"
        },
        {
          "internalType": "uint256",
          "name": "_loss",
          "type": "uint256"
        }
      ],
      "stateMutability": "nonpayable",
      "type": "function"
    }
  ],
  "transactionHash": "0x4db154e22a28ecb1be5de61d8f3b5efcaeb3e32b13c5ba84a02a40ab5cb9c9e6",
  "args": [],
  "numDeployments": 1,
  "solcInputHash": "cca16ad1f0f505ca7a8330fb58e463cc",
  "bytecode": "0x60806040523480156200001157600080fd5b50600054610100900460ff166200002f5760005460ff161562000039565b62000039620000de565b620000a15760405162461bcd60e51b815260206004820152602e60248201527f496e697469616c697a61626c653a20636f6e747261637420697320616c72656160448201526d191e481a5b9a5d1a585b1a5e995960921b606482015260840160405180910390fd5b600054610100900460ff16158015620000c4576000805461ffff19166101011790555b8015620000d7576000805461ff00191690555b506200010b565b6000620000f630620000fc60201b62001bf51760201c565b15905090565b6001600160a01b03163b151590565b615fe9806200011b6000396000f3fe608060405234801561001057600080fd5b506004361061036d5760003560e01c80634c3f425f116101d3578063abac6e1111610104578063d94fa4af116100a2578063ec342ad01161007c578063ec342ad01461072b578063efbb5cb01461073a578063f8453e7c14610742578063fcf2d0ad1461075557600080fd5b8063d94fa4af146106fc578063dc4c90d314610705578063ddc632621461071857600080fd5b8063b8221bc4116100de578063b8221bc4146106c4578063b8dc491b146106cd578063d0134cb7146106e0578063d547741f146106e957600080fd5b8063abac6e1114610693578063af306e16146106a6578063af648c3d146106b157600080fd5b80638e5b14b011610171578063a34a42231161014b578063a34a42231461065b578063a526d83b1461066e578063a62b75a814610681578063a8f9c0d81461068a57600080fd5b80638e5b14b01461063757806391d1485414610640578063a217fddf1461065357600080fd5b80635e4a1e01116101ad5780635e4a1e01146106135780636314e8841461061c578063659621b51461062557806386d8745b1461062e57600080fd5b80634c3f425f146105f65780635641ec03146105fe5780635a5cd45e1461060b57600080fd5b80632e1a7d4d116102ad578063372500ab1161024b578063418f35cc11610225578063418f35cc146105d45780634322b714146105dc5780634641257d146105e55780634c32e270146105ed57600080fd5b8063372500ab1461059a578063387f504a146105a2578063396794cd146105c157600080fd5b80633042087c116102875780633042087c146104fa578063364bc15a1461050d57806336568abe14610534578063368a9d6d1461054757600080fd5b80632e1a7d4d146104b65780632e4debb3146104de5780632f2ff15d146104e757600080fd5b80631f1fcd511161031a57806323cf978f116102f457806323cf978f1461044557806323e30c8b14610458578063248a9ca31461046b57806324ea54f41461048f57600080fd5b80631f1fcd51146103f9578063205409d31461042457806322f3e2d41461042d57600080fd5b80630c016dc01161034b5780630c016dc0146103b65780630f969b87146103dd5780631d12f28b146103f057600080fd5b806305b4193414610372578063060ca2ba146103875780630b6d1d171461039a575b600080fd5b61038561038036600461570b565b61075d565b005b6103856103953660046157d8565b610881565b6103a360355481565b6040519081526020015b60405180910390f35b6103a37f5916f72c85af4ac6f7e34636ecc97619c4b2085da099a5d28f3e58436cfbe56281565b6103856103eb3660046155d3565b61097f565b6103a360365481565b60345461040c906001600160a01b031681565b6040516001600160a01b0390911681526020016103ad565b6103a360435481565b6104356109e6565b60405190151581526020016103ad565b6103856104533660046155d3565b6109f7565b6103a36104663660046153da565b610a79565b6103a36104793660046155d3565b6000908152600160208190526040909120015490565b6103a37f55435dd261a4b9b3364963f7738a7a662ad9c84396d64be3365284bb7f0a504181565b6104c96104c43660046155d3565b610bd1565b604080519283526020830191909152016103ad565b6103a3603e5481565b6103856104f5366004615605565b610c2a565b6103856105083660046155d3565b610c56565b6103a37ffc8737ab85eb45125971625a9ebdb75cc78e01d5c1fa80c4c6e5203f47bc4fab81565b610385610542366004615605565b610c94565b6047546105709060ff808216916101008104821691620100008204811691630100000090041684565b604080519415158552921515602085015290151591830191909152151560608201526080016103ad565b610385610cfa565b6046546105af9060ff1681565b60405160ff90911681526020016103ad565b6103856105cf3660046155d3565b610d2d565b6104c9610d61565b6103a3603a5481565b610385610d7c565b6103a360405481565b610385610d8e565b6037546104359060ff1681565b6103a3610d96565b6103a360455481565b6103a360395481565b6103a3603d5481565b6103a360445481565b6103a360415481565b61043561064e366004615605565b61129b565b6103a3600081565b61038561066936600461562a565b6112c8565b61038561067c36600461531a565b61138f565b6103a3603b5481565b6103a3603f5481565b6103856106a1366004615927565b6113e4565b6103a36301e1855881565b6103856106bf36600461531a565b61149d565b6103a360385481565b6103856106db366004615354565b6114f2565b6103a3603c5481565b6103856106f7366004615605565b6116ab565b6103a360425481565b60335461040c906001600160a01b031681565b6103856107263660046155d3565b6116d2565b6103a3670de0b6b3a764000081565b6103a361170e565b610385610750366004615484565b61180b565b610385611b91565b7ffc8737ab85eb45125971625a9ebdb75cc78e01d5c1fa80c4c6e5203f47bc4fab6107888133611c04565b600080731111111254fb6c44bac0bed2854e76f90643097d6001600160a01b0316846040516107b791906159fb565b6000604051808303816000865af19150503d80600081146107f4576040519150601f19603f3d011682016040523d82523d6000602084013e6107f9565b606091505b50915091508161080c5761080c81611c68565b60008180602001905181019061082291906155ec565b9050858110156108795760405162461bcd60e51b815260206004820152600260248201527f313500000000000000000000000000000000000000000000000000000000000060448201526064015b60405180910390fd5b505050505050565b7f55435dd261a4b9b3364963f7738a7a662ad9c84396d64be3365284bb7f0a50416108ac8133611c04565b60345460009081906108c6906001600160a01b0316611cbf565b9150915060006108e9736b175474e89094c44da98b954eedeac495271d0f611cbf565b50905081881080156108fa57508187105b801561090557508688105b801561091057508286105b801561091b57508085105b6109675760405162461bcd60e51b815260206004820152600160248201527f38000000000000000000000000000000000000000000000000000000000000006044820152606401610870565b505050604094909455604192909255603f5560425550565b7f55435dd261a4b9b3364963f7738a7a662ad9c84396d64be3365284bb7f0a50416109aa8133611c04565b60368290556040518281527fa68ba126373d04c004c5748c300c9fca12bd444b3d4332e261f3bd2bac4a86009060200160405180910390a15050565b6000806109f161170e565b11905090565b7f55435dd261a4b9b3364963f7738a7a662ad9c84396d64be3365284bb7f0a5041610a228133611c04565b6127108210610a735760405162461bcd60e51b815260206004820152600160248201527f34000000000000000000000000000000000000000000000000000000000000006044820152606401610870565b50604555565b600033731eb4cf3a948e7d72a198fe073ccb8c7a948cd853148015610aa657506001600160a01b03871630145b610af25760405162461bcd60e51b815260206004820152600160248201527f31000000000000000000000000000000000000000000000000000000000000006044820152606401610870565b600080610b01848601866155a7565b6034546040517fbf04d6e8000000000000000000000000000000000000000000000000000000008152831515600482015260248101839052604481018b90526001600160a01b039091166064820152919350915073169487a55de79476125a56b07c36ca8dbf37a3739063bf04d6e89060840160206040518083038186803b158015610b8c57600080fd5b505af4158015610ba0573d6000803e3d6000fd5b505050506040513d601f19601f82011682018060405250810190610bc491906155ec565b9998505050505050505050565b6000807f5916f72c85af4ac6f7e34636ecc97619c4b2085da099a5d28f3e58436cfbe562610bff8133611c04565b610c0884611da4565b6034549194509250610c24906001600160a01b03163385611dd4565b50915091565b60008281526001602081905260409091200154610c478133611c04565b610c518383611e7d565b505050565b7f55435dd261a4b9b3364963f7738a7a662ad9c84396d64be3365284bb7f0a5041610c818133611c04565b610c8a82611ee8565b50610c5182611fb5565b6001600160a01b0381163314610cec5760405162461bcd60e51b815260206004820152600260248201527f37310000000000000000000000000000000000000000000000000000000000006044820152606401610870565b610cf68282612082565b5050565b7ffc8737ab85eb45125971625a9ebdb75cc78e01d5c1fa80c4c6e5203f47bc4fab610d258133611c04565b610cf66120e9565b7f55435dd261a4b9b3364963f7738a7a662ad9c84396d64be3365284bb7f0a5041610d588133611c04565b610c5182611ee8565b600080610d6c61235d565b9150610d766123df565b90509091565b610d84612410565b610d8c6125dc565b565b610d8c6125e7565b6034546040517f35ea6a750000000000000000000000000000000000000000000000000000000081526001600160a01b03909116600482015260009081908190819073057835ad21a177dbdd3090bb1cae03eacf78fc6d906335ea6a75906024016101406040518083038186803b158015610e1057600080fd5b505afa158015610e24573d6000803e3d6000fd5b505050506040513d601f19601f82011682018060405250810190610e4891906158b1565b50505050509450945094505050600080610e60610d61565b915091506000806000610e7a670de0b6b3a76400006129fb565b90506000604860009054906101000a90046001600160a01b03166001600160a01b03166375d264136040518163ffffffff1660e01b815260040160206040518083038186803b158015610ecc57600080fd5b505afa158015610ee0573d6000803e3d6000fd5b505050506040513d601f19601f82011682018060405250810190610f049190615337565b6048546040517ff11b81880000000000000000000000000000000000000000000000000000000081526001600160a01b03918216600482015291169063f11b81889060240160606040518083038186803b158015610f6157600080fd5b505afa158015610f75573d6000803e3d6000fd5b505050506040513d601f19601f82011682018060405250810190610f9991906157aa565b505090506000604960009054906101000a90046001600160a01b03166001600160a01b03166375d264136040518163ffffffff1660e01b815260040160206040518083038186803b158015610fed57600080fd5b505afa158015611001573d6000803e3d6000fd5b505050506040513d601f19601f820116820180604052508101906110259190615337565b6049546040517ff11b81880000000000000000000000000000000000000000000000000000000081526001600160a01b03918216600482015291169063f11b81889060240160606040518083038186803b15801561108257600080fd5b505afa158015611096573d6000803e3d6000fd5b505050506040513d601f19601f820116820180604052508101906110ba91906157aa565b50509050600082603c6110cd9190615d99565b6110d890603c615d99565b6110e3906018615d99565b6110ef9061016d615d99565b905060006110fe83603c615d99565b61110990603c615d99565b611114906018615d99565b6111209061016d615d99565b9050604860009054906101000a90046001600160a01b03166001600160a01b03166318160ddd6040518163ffffffff1660e01b815260040160206040518083038186803b15801561117057600080fd5b505afa158015611184573d6000803e3d6000fd5b505050506040513d601f19601f820116820180604052508101906111a891906155ec565b856111b3848c615d99565b6111bd9190615d99565b6111cb90633b9aca00615d99565b6111d59190615bf7565b96508b856111e3838b615d99565b6111ed9190615d99565b6111fb90633b9aca00615d99565b6112059190615bf7565b9550505050505060006112166123df565b61121e61235d565b611226612ace565b6112309190615bb1565b61123a9190615e10565b9050670de0b6b3a7640000816112508689615d99565b848661125c8a8d615d99565b6112669190615bb1565b6112709190615bb1565b61127a9190615e10565b6112849190615bf7565b61128e9190615bf7565b9850505050505050505090565b60008281526001602090815260408083206001600160a01b038516845290915290205460ff165b92915050565b7f55435dd261a4b9b3364963f7738a7a662ad9c84396d64be3365284bb7f0a50416112f38133611c04565b508051604780546020840151604085015160609095015161ffff1990921693151561ff0019169390931761010093151593909302929092177fffffffffffffffffffffffffffffffffffffffffffffffffffffffff0000ffff1662010000931515939093027fffffffffffffffffffffffffffffffffffffffffffffffffffffffff00ffffff1692909217630100000091151591909102179055565b7f5916f72c85af4ac6f7e34636ecc97619c4b2085da099a5d28f3e58436cfbe5626113ba8133611c04565b610cf67f55435dd261a4b9b3364963f7738a7a662ad9c84396d64be3365284bb7f0a504183611e7d565b7f55435dd261a4b9b3364963f7738a7a662ad9c84396d64be3365284bb7f0a504161140f8133611c04565b603f5483108015611423575060008260ff16115b8015611432575060108260ff16105b61147e5760405162461bcd60e51b815260206004820152600160248201527f38000000000000000000000000000000000000000000000000000000000000006044820152606401610870565b506043929092556044556046805460ff191660ff909216919091179055565b7f5916f72c85af4ac6f7e34636ecc97619c4b2085da099a5d28f3e58436cfbe5626114c88133611c04565b610cf67f55435dd261a4b9b3364963f7738a7a662ad9c84396d64be3365284bb7f0a504183612082565b7f55435dd261a4b9b3364963f7738a7a662ad9c84396d64be3365284bb7f0a504161151d8133611c04565b6034546001600160a01b038481169116141561157b5760405162461bcd60e51b815260206004820152600260248201527f39330000000000000000000000000000000000000000000000000000000000006044820152606401610870565b606060005b81518110156116165781818151811061159b5761159b615f20565b60200260200101516001600160a01b0316856001600160a01b031614156116045760405162461bcd60e51b815260206004820152600260248201527f39330000000000000000000000000000000000000000000000000000000000006044820152606401610870565b8061160e81615e6a565b915050611580565b506040516370a0823160e01b81523060048201526116a59084906001600160a01b038716906370a082319060240160206040518083038186803b15801561165c57600080fd5b505afa158015611670573d6000803e3d6000fd5b505050506040513d601f19601f8201168201806040525081019061169491906155ec565b6001600160a01b0387169190611dd4565b50505050565b600082815260016020819052604090912001546116c88133611c04565b610c518383612082565b7ffc8737ab85eb45125971625a9ebdb75cc78e01d5c1fa80c4c6e5203f47bc4fab6116fd8133611c04565b611705612410565b610cf682612aff565b600080600061171b610d61565b90925090506117dc73d784927ff2f95ba542bfc824c8a8a98f3495f6b5638b599f26611745612ce2565b306040518363ffffffff1660e01b8152600401611763929190615a98565b60206040518083038186803b15801561177b57600080fd5b505afa15801561178f573d6000803e3d6000fd5b505050506040513d601f19601f820116820180604052508101906117b391906155ec565b6117bb612d76565b6117c3612db0565b6117cd9190615bb1565b6117d79190615bb1565b6129fb565b81836117e6612ace565b6117f09190615bb1565b6117fa9190615e10565b6118049190615bb1565b9250505090565b61181785848484612dea565b60468054600660ff1990911617905560646043556611c37937e080006044556123286045556040805160808101825260018082526020820181905260009282019290925260600152604780547fffffffffffffffffffffffffffffffffffffffffffffffffffffffff00000000166301000101179055603780547fffffffffffffffffffffff0000000000000000000000000000000000000000ff166101006001600160a01b038716021790556118cc6125e7565b6034546040517fd2493b6c0000000000000000000000000000000000000000000000000000000081526001600160a01b039091166004820152600090819073057835ad21a177dbdd3090bb1cae03eacf78fc6d9063d2493b6c9060240160606040518083038186803b15801561194157600080fd5b505afa158015611955573d6000803e3d6000fd5b505050506040513d601f19601f82011682018060405250810190611979919061538d565b604880546001600160a01b038086167fffffffffffffffffffffffff0000000000000000000000000000000000000000928316179092556049805483851692169190911790556034549395509093506000928392506119d89116611cbf565b90925090506119ee66470de4df82000082615e10565b604055611a026611c37937e0800082615e10565b604155611a166611c37937e0800083615e10565b603f556000611a38736b175474e89094c44da98b954eedeac495271d0f611cbf565b509050611a4c6611c37937e0800082615e10565b604255603454611a79906001600160a01b0316737d2768de32b0b80b7a3454c06bdac94a69ddc7a9613322565b611a9785737d2768de32b0b80b7a3454c06bdac94a69ddc7a9613322565b611ac9736b175474e89094c44da98b954eedeac495271d0f731eb4cf3a948e7d72a198fe073ccb8c7a948cd853613322565b611afb734da27a545c0c5b758a6ba100e3a049001de870f5731111111254fb6c44bac0bed2854e76f90643097d613322565b611b2d737fc66500c84a76ad7e9c93437bfc5ac33e2ddae9731111111254fb6c44bac0bed2854e76f90643097d613322565b6034546001600160a01b0316736b175474e89094c44da98b954eedeac495271d0f14611b8557611b85736b175474e89094c44da98b954eedeac495271d0f737d2768de32b0b80b7a3454c06bdac94a69ddc7a9613322565b50505050505050505050565b7f5916f72c85af4ac6f7e34636ecc97619c4b2085da099a5d28f3e58436cfbe562611bbc8133611c04565b6037805460ff191660011790556040517f17fa25a1c2ac074f71f0cf4f6af525c06fab7d83eff5ffcf6df5277f2919ae2490600090a150565b6001600160a01b03163b151590565b611c0e828261129b565b610cf657611c26816001600160a01b03166014613338565b611c31836020613338565b604051602001611c42929190615a17565b60408051601f198184030181529082905262461bcd60e51b825261087091600401615af5565b805115611c7757805181602001fd5b60405162461bcd60e51b815260206004820152600360248201527f31313700000000000000000000000000000000000000000000000000000000006044820152606401610870565b6040517f3e1501410000000000000000000000000000000000000000000000000000000081526001600160a01b0382166004820152600090819073057835ad21a177dbdd3090bb1cae03eacf78fc6d90633e150141906024016101406040518083038186803b158015611d3157600080fd5b505afa158015611d45573d6000803e3d6000fd5b505050506040513d601f19601f82011682018060405250810190611d69919061580a565b50969950949750611d8b9650655af3107a40009550889450615d999350505050565b9150611d9d655af3107a400082615d99565b9050915091565b600080600080611db2610d61565b91509150611dc985611dc2612ace565b8484613561565b935093505050915091565b6040516001600160a01b038316602482015260448101829052610c519084907fa9059cbb00000000000000000000000000000000000000000000000000000000906064015b60408051601f198184030181529190526020810180517bffffffffffffffffffffffffffffffffffffffffffffffffffffffff167fffffffff000000000000000000000000000000000000000000000000000000009093169290921790915261363f565b611e87828261129b565b610cf65760008281526001602081815260408084206001600160a01b0386168086529252808420805460ff19169093179092559051339285917f2f8788117e7eff1d82e926ec794901d17c78024a50270940304540a733656f0d9190a45050565b600081611ef757506000919050565b6034546040517f69328dec0000000000000000000000000000000000000000000000000000000081526001600160a01b03909116600482015260248101839052306044820152737d2768de32b0b80b7a3454c06bdac94a69ddc7a9906369328dec90606401602060405180830381600087803b158015611f7657600080fd5b505af1158015611f8a573d6000803e3d6000fd5b505050506040513d601f19601f82011682018060405250810190611fae91906155ec565b5090919050565b600081611fc457506000919050565b6034546040517f573ade810000000000000000000000000000000000000000000000000000000081526001600160a01b0390911660048201526024810183905260026044820152306064820152737d2768de32b0b80b7a3454c06bdac94a69ddc7a99063573ade8190608401602060405180830381600087803b15801561204a57600080fd5b505af115801561205e573d6000803e3d6000fd5b505050506040513d601f19601f820116820180604052508101906112c291906155ec565b61208c828261129b565b15610cf65760008281526001602090815260408083206001600160a01b0385168085529252808320805460ff1916905551339285917ff6391f5c32d9c69d2a47ea670b442974b53935d1edc7fd64eb21e047a839171b9190a45050565b60006120f3612db0565b90506000811561210857612105613724565b90505b6000821180156121185750806001145b15612227576040517f9a99b4f00000000000000000000000000000000000000000000000000000000081523060048201526000196024820152734da27a545c0c5b758a6ba100e3a049001de870f590639a99b4f090604401600060405180830381600087803b15801561218a57600080fd5b505af115801561219e573d6000803e3d6000fd5b50506040517f1e9a695000000000000000000000000000000000000000000000000000000000815230600482015260248101859052734da27a545c0c5b758a6ba100e3a049001de870f59250631e9a69509150604401600060405180830381600087803b15801561220e57600080fd5b505af1158015612222573d6000803e3d6000fd5b505050505b73d784927ff2f95ba542bfc824c8a8a98f3495f6b5633111e7b3612249612ce2565b600019306040518463ffffffff1660e01b815260040161226b93929190615ac3565b602060405180830381600087803b15801561228557600080fd5b505af1158015612299573d6000803e3d6000fd5b505050506040513d601f19601f820116820180604052508101906122bd91906155ec565b506122c6612db0565b6047549092506301000000900460ff1680156122e25750600082115b80156122ec575080155b1561235957734da27a545c0c5b758a6ba100e3a049001de870f56001600160a01b031663787a08a66040518163ffffffff1660e01b8152600401600060405180830381600087803b15801561234057600080fd5b505af1158015612354573d6000803e3d6000fd5b505050505b5090565b6048546040516370a0823160e01b81523060048201526000916001600160a01b0316906370a08231906024015b60206040518083038186803b1580156123a257600080fd5b505afa1580156123b6573d6000803e3d6000fd5b505050506040513d601f19601f820116820180604052508101906123da91906155ec565b905090565b6049546040516370a0823160e01b81523060048201526000916001600160a01b0316906370a082319060240161238a565b6000806000603360009054906101000a90046001600160a01b03166001600160a01b031663bf3759b56040518163ffffffff1660e01b815260040160206040518083038186803b15801561246357600080fd5b505afa158015612477573d6000803e3d6000fd5b505050506040513d601f19601f8201168201806040525081019061249b91906155ec565b60375490915060009060ff16156124f85760006124b6613825565b9050828110156124d1576124ca8184615e10565b93506124e6565b828111156124e6576124e38382615e10565b94505b6124f08484615e10565b915050612509565b61250182613838565b919550935090505b6040805185815260208101859052908101829052606081018390527f4c0f499ffe6befa0ca7c826b0916cf87bea98de658013e76938489368d60d5099060800160405180910390a16033546040517fa1d9bafc0000000000000000000000000000000000000000000000000000000081526004810186905260248101859052604481018390526001600160a01b039091169063a1d9bafc90606401600060405180830381600087803b1580156125be57600080fd5b505af11580156125d2573d6000803e3d6000fd5b5050505050505050565b610d8c600019612aff565b6034546040517f3e1501410000000000000000000000000000000000000000000000000000000081526001600160a01b03909116600482015260009073057835ad21a177dbdd3090bb1cae03eacf78fc6d90633e150141906024016101406040518083038186803b15801561265b57600080fd5b505afa15801561266f573d6000803e3d6000fd5b505050506040513d601f19601f82011682018060405250810190612693919061580a565b5050505050945050505050734da27a545c0c5b758a6ba100e3a049001de870f56001600160a01b03166372b49d636040518163ffffffff1660e01b815260040160206040518083038186803b1580156126eb57600080fd5b505afa1580156126ff573d6000803e3d6000fd5b505050506040513d601f19601f8201168201806040525081019061272391906155ec565b603881905550734da27a545c0c5b758a6ba100e3a049001de870f56001600160a01b031663359c4a966040518163ffffffff1660e01b815260040160206040518083038186803b15801561277657600080fd5b505afa15801561278a573d6000803e3d6000fd5b505050506040513d601f19601f820116820180604052508101906127ae91906155ec565b6039556127c58169152d02c7e14af6800000615d99565b603a81905550603760019054906101000a90046001600160a01b03166001600160a01b0316637b832f586040518163ffffffff1660e01b815260040160206040518083038186803b15801561281957600080fd5b505afa15801561282d573d6000803e3d6000fd5b505050506040513d601f19601f8201168201806040525081019061285191906155ec565b603b81905550603760019054906101000a90046001600160a01b03166001600160a01b03166365614f816040518163ffffffff1660e01b815260040160206040518083038186803b1580156128a557600080fd5b505afa1580156128b9573d6000803e3d6000fd5b505050506040513d601f19601f820116820180604052508101906128dd91906155ec565b603c81905550603760019054906101000a90046001600160a01b03166001600160a01b031663b25895446040518163ffffffff1660e01b815260040160206040518083038186803b15801561293157600080fd5b505afa158015612945573d6000803e3d6000fd5b505050506040513d601f19601f8201168201806040525081019061296991906155ec565b603d81905550603760019054906101000a90046001600160a01b03166001600160a01b031663a15f30ac6040518163ffffffff1660e01b815260040160206040518083038186803b1580156129bd57600080fd5b505afa1580156129d1573d6000803e3d6000fd5b505050506040513d601f19601f820116820180604052508101906129f591906155ec565b603e5550565b60008073547a514d5e3769680ce22b2361c10ea13619e8a96001600160a01b031663feaf968c6040518163ffffffff1660e01b815260040160a06040518083038186803b158015612a4b57600080fd5b505afa158015612a5f573d6000803e3d6000fd5b505050506040513d601f19601f82011682018060405250810190612a839190615955565b5050509150506c0c9f2c9cd04674edea400000006045546035548584612aa99190615d99565b612ab39190615d99565b612abd9190615d99565b612ac79190615bf7565b9392505050565b6034546040516370a0823160e01b81523060048201526000916001600160a01b0316906370a082319060240161238a565b603354604080517fbf3759b500000000000000000000000000000000000000000000000000000000815290516000926001600160a01b03169163bf3759b5916004808301926020929190829003018186803b158015612b5d57600080fd5b505afa158015612b71573d6000803e3d6000fd5b505050506040513d601f19601f82011682018060405250810190612b9591906155ec565b90506000612ba1612ace565b90508181118015612bbc5750604354612bba8383615e10565b115b15612bdf57612bd3612bce8383615e10565b6139d7565b50612bdc612ace565b90505b600080612bea610d61565b915091506000198514612bfd5784612bff565b805b60475490955060009060ff1615612c3757612c3082612c1e8587615bb1565b612c289190615e10565b848489613a8b565b9050612c3c565b506040545b6000612c488484613ad3565b905084861115612c72576000612c5e8688615e10565b9050612c6b818686613aee565b5050612cd9565b81811015612c9c57604454612c878284615e10565b1115612c9757612c978484613b4b565b612cd9565b81811115612cd957604454612cb18383615e10565b1115612cd9576000612ccc612cc68587615e10565b84613bfd565b90506125d2818686613c1b565b50505050505050565b6040805160028082526060808301845292602083019080368337505060485482519293506001600160a01b031691839150600090612d2257612d22615f20565b6001600160a01b039283166020918202929092010152604954825191169082906001908110612d5357612d53615f20565b60200260200101906001600160a01b031690816001600160a01b03168152505090565b6040516370a0823160e01b8152306004820152600090737fc66500c84a76ad7e9c93437bfc5ac33e2ddae9906370a082319060240161238a565b6040516370a0823160e01b8152306004820152600090734da27a545c0c5b758a6ba100e3a049001de870f5906370a082319060240161238a565b600054610100900460ff16612e055760005460ff1615612e09565b303b155b612e7b5760405162461bcd60e51b815260206004820152602e60248201527f496e697469616c697a61626c653a20636f6e747261637420697320616c72656160448201527f647920696e697469616c697a65640000000000000000000000000000000000006064820152608401610870565b600054610100900460ff16158015612e9d576000805461ffff19166101011790555b603380547fffffffffffffffffffffffff0000000000000000000000000000000000000000166001600160a01b038716908117909155604080517ffc0c546a000000000000000000000000000000000000000000000000000000008152905163fc0c546a91600480820192602092909190829003018186803b158015612f2257600080fd5b505afa158015612f36573d6000803e3d6000fd5b505050506040513d601f19601f82011682018060405250810190612f5a9190615337565b603480547fffffffffffffffffffffffff0000000000000000000000000000000000000000166001600160a01b03929092169182179055604080517f313ce567000000000000000000000000000000000000000000000000000000008152905163313ce56791600480820192602092909190829003018186803b158015612fe057600080fd5b505afa158015612ff4573d6000803e3d6000fd5b505050506040513d601f19601f8201168201806040525081019061301891906159a5565b61302390600a615c4e565b6035556001600160a01b0383161580159061304657506001600160a01b03841615155b80156130645750826001600160a01b0316846001600160a01b031614155b6130b05760405162461bcd60e51b815260206004820152600160248201527f30000000000000000000000000000000000000000000000000000000000000006044820152606401610870565b6130da7f55435dd261a4b9b3364963f7738a7a662ad9c84396d64be3365284bb7f0a504184613d4f565b6131047f55435dd261a4b9b3364963f7738a7a662ad9c84396d64be3365284bb7f0a504185613d4f565b61312e7f5916f72c85af4ac6f7e34636ecc97619c4b2085da099a5d28f3e58436cfbe56286613d4f565b6131587f5916f72c85af4ac6f7e34636ecc97619c4b2085da099a5d28f3e58436cfbe56280613d59565b6131a27f55435dd261a4b9b3364963f7738a7a662ad9c84396d64be3365284bb7f0a50417f5916f72c85af4ac6f7e34636ecc97619c4b2085da099a5d28f3e58436cfbe562613d59565b60005b825181101561327f5760006001600160a01b03168382815181106131cb576131cb615f20565b60200260200101516001600160a01b0316141561322a5760405162461bcd60e51b815260206004820152600160248201527f30000000000000000000000000000000000000000000000000000000000000006044820152606401610870565b61326d7ffc8737ab85eb45125971625a9ebdb75cc78e01d5c1fa80c4c6e5203f47bc4fab84838151811061326057613260615f20565b6020026020010151613d4f565b8061327781615e6a565b9150506131a5565b506132ca7ffc8737ab85eb45125971625a9ebdb75cc78e01d5c1fa80c4c6e5203f47bc4fab7f55435dd261a4b9b3364963f7738a7a662ad9c84396d64be3365284bb7f0a5041613d59565b6132dd670de0b6b3a76400006064615d99565b6036556037805460ff19169055603354603454613309916001600160a01b039182169116600019613db0565b801561331b576000805461ff00191690555b5050505050565b610cf66001600160a01b03831682600019613ea3565b60606000613347836002615d99565b613352906002615bb1565b67ffffffffffffffff81111561336a5761336a615f4f565b6040519080825280601f01601f191660200182016040528015613394576020820181803683370190505b5090507f3000000000000000000000000000000000000000000000000000000000000000816000815181106133cb576133cb615f20565b60200101907effffffffffffffffffffffffffffffffffffffffffffffffffffffffffffff1916908160001a9053507f78000000000000000000000000000000000000000000000000000000000000008160018151811061342e5761342e615f20565b60200101907effffffffffffffffffffffffffffffffffffffffffffffffffffffffffffff1916908160001a905350600061346a846002615d99565b613475906001615bb1565b90505b6001811115613512577f303132333435363738396162636465660000000000000000000000000000000085600f16601081106134b6576134b6615f20565b1a60f81b8282815181106134cc576134cc615f20565b60200101907effffffffffffffffffffffffffffffffffffffffffffffffffffffffffffff1916908160001a90535060049490941c9361350b81615e53565b9050613478565b508315612ac75760405162461bcd60e51b815260206004820181905260248201527f537472696e67733a20686578206c656e67746820696e73756666696369656e746044820152606401610870565b6000808585111561357757508490506000613636565b60006135838688615e10565b9050613590818686613aee565b50613599612ace565b9550858711156135c75785925060006135b28489615e10565b905060435481116135c1578092505b506135cb565b8692505b60475462010000900460ff1615613634576135e68284615bb1565b87146136345760405162461bcd60e51b815260206004820152600260248201527f35340000000000000000000000000000000000000000000000000000000000006044820152606401610870565b505b94509492505050565b6000613694826040518060400160405280602081526020017f5361666545524332303a206c6f772d6c6576656c2063616c6c206661696c6564815250856001600160a01b03166140009092919063ffffffff16565b805190915015610c5157808060200190518101906136b2919061558a565b610c515760405162461bcd60e51b815260206004820152602a60248201527f5361666545524332303a204552433230206f7065726174696f6e20646964206e60448201527f6f742073756363656564000000000000000000000000000000000000000000006064820152608401610870565b6040517f091030c30000000000000000000000000000000000000000000000000000000081523060048201526000908190734da27a545c0c5b758a6ba100e3a049001de870f59063091030c39060240160206040518083038186803b15801561378c57600080fd5b505afa1580156137a0573d6000803e3d6000fd5b505050506040513d601f19601f820116820180604052508101906137c491906155ec565b90506000603854826137d69190615bb1565b9050816137e65760009250505090565b804211801561380157506039546137fd9082615bb1565b4211155b1561380f5760019250505090565b804210156138205760029250505090565b505090565b6000613832600019611da4565b50919050565b6033546040517f39ebf8230000000000000000000000000000000000000000000000000000000081523060048201526000918291829182916001600160a01b03909116906339ebf8239060240160606040518083038186803b15801561389d57600080fd5b505afa1580156138b1573d6000803e3d6000fd5b505050506040513d601f19601f820116820180604052508101906138d591906156af565b60200151905060006138e5612ace565b90506000806138f2610d61565b90925090506000816139048486615bb1565b61390e9190615e10565b905080851115613929576139228186615e10565b9650613936565b6139338582615e10565b97505b6000613942898b615bb1565b9050848111156139a95761395881868686613561565b50945080851061398857899650886139708883615e10565b1015613983576139808782615e10565b98505b6139ca565b8985101561399c57600098508496506139ca565b8996506139808786615e10565b899650886139b78883615e10565b10156139ca576139c78782615e10565b98505b5050505050509193909250565b6000816139e657506000919050565b6034546040517fe8eda9df0000000000000000000000000000000000000000000000000000000081526001600160a01b0390911660048201526024810183905230604482015260006064820152737d2768de32b0b80b7a3454c06bdac94a69ddc7a99063e8eda9df906084015b600060405180830381600087803b158015613a6d57600080fd5b505af1158015613a81573d6000803e3d6000fd5b5093949350505050565b600080613a9a86868686614017565b90506000613ab1613aab8389615bb1565b83613ad3565b60415490915080821115613ac3578091505b5060408190559695505050505050565b600082156112c25782612abd670de0b6b3a764000084615d99565b600083613afd57506000612ac7565b6000613b098385615e10565b90506000613b2c613b1a8784614455565b613b249084615e10565b604054613bfd565b9050613b39818686613c1b565b613b41612ace565b9695505050505050565b600081613b5b613b248286615e10565b613b659190615e10565b604754909150610100900460ff1615613bac57613b83818484614464565b613b8d9082615e10565b9050604354811115610c5157613ba2816144fc565b6116a59082615e10565b60005b60465460ff908116908216108015613bc8575060435482115b156116a557613bd8828585614464565b613be29083615e10565b60009450849350915080613bf581615e85565b915050613baf565b6000613c1182670de0b6b3a7640000615e10565b612abd8385615d99565b82811115613ce3576000613c2f8483615e10565b604754909150610100900460ff1615613c5957613c4c81836145fa565b613c569082615e10565b90505b60415460005b60465460ff908116908216108015613c78575060435483115b15613cd257613c89826000806146de565b50826000613c95612ace565b905080821115613ca3578091505b6000613cae83611fb5565b9050613cba8187615e10565b95505050508080613cca90615e85565b915050613c5f565b50613cdb610d61565b909450925050505b6040546000613cf383838661473e565b905083811115613d31576000613d098583615e10565b9050604354811115613d2b57613d29612bce82613d24612ace565b614455565b505b5061331b565b604354613d3e8286615e10565b111561331b576108798285856146de565b610cf68282611e7d565b60008281526001602081905260409091200154819060405184907fbd79b86ffe0ab8e8776151514217cd7cacd52c909f66475c3af44e129f0b00ff90600090a4600091825260016020819052604090922090910155565b6040517fdd62ed3e0000000000000000000000000000000000000000000000000000000081523060048201526001600160a01b038381166024830152600091839186169063dd62ed3e9060440160206040518083038186803b158015613e1557600080fd5b505afa158015613e29573d6000803e3d6000fd5b505050506040513d601f19601f82011682018060405250810190613e4d91906155ec565b613e579190615bb1565b6040516001600160a01b0385166024820152604481018290529091506116a59085907f095ea7b30000000000000000000000000000000000000000000000000000000090606401611e19565b801580613f4557506040517fdd62ed3e0000000000000000000000000000000000000000000000000000000081523060048201526001600160a01b03838116602483015284169063dd62ed3e9060440160206040518083038186803b158015613f0b57600080fd5b505afa158015613f1f573d6000803e3d6000fd5b505050506040513d601f19601f82011682018060405250810190613f4391906155ec565b155b613fb75760405162461bcd60e51b815260206004820152603660248201527f5361666545524332303a20617070726f76652066726f6d206e6f6e2d7a65726f60448201527f20746f206e6f6e2d7a65726f20616c6c6f77616e6365000000000000000000006064820152608401610870565b6040516001600160a01b038316602482015260448101829052610c519084907f095ea7b30000000000000000000000000000000000000000000000000000000090606401611e19565b606061400f8484600085614771565b949350505050565b6000806035546b033b2e3c9fd0803ce80000006140349190615bf7565b90506140a1604051806101a00160405280600081526020016000815260200160008152602001600081526020016000815260200160008152602001600081526020016000815260200160008152602001600081526020016000815260200160008152602001600081525090565b6034546040517f35ea6a750000000000000000000000000000000000000000000000000000000081526001600160a01b03909116600482015260009081908190819073057835ad21a177dbdd3090bb1cae03eacf78fc6d906335ea6a75906024016101406040518083038186803b15801561411b57600080fd5b505afa15801561412f573d6000803e3d6000fd5b505050506040513d601f19601f8201168201806040525081019061415391906158b1565b5050509650505050935093509350604051806101a00160405280603a54815260200187856141819190615d99565b8152602001876141918c86615e10565b61419b9190615d99565b8152602001878c8e866141ae898b615bb1565b6141b89190615bb1565b6141c29190615bb1565b6141cc9190615e10565b6141d69190615d99565b81526020018281526020016000815260200160008152602001878d6141fb9190615d99565b815260200161420a888b615d99565b8152602001603b548152602001603c548152602001603d548152602001603e548152509450505050506000614246670de0b6b3a76400006129fb565b6048546040517ff11b81880000000000000000000000000000000000000000000000000000000081526001600160a01b03909116600482015290915060009073d784927ff2f95ba542bfc824c8a8a98f3495f6b59063f11b81889060240160606040518083038186803b1580156142bc57600080fd5b505afa1580156142d0573d6000803e3d6000fd5b505050506040513d601f19601f820116820180604052508101906142f491906157aa565b50506049546040517ff11b81880000000000000000000000000000000000000000000000000000000081526001600160a01b03909116600482015290915060009073d784927ff2f95ba542bfc824c8a8a98f3495f6b59063f11b81889060240160606040518083038186803b15801561436c57600080fd5b505afa158015614380573d6000803e3d6000fd5b505050506040513d601f19601f820116820180604052508101906143a491906157aa565b5050603554909150836143ba8462015180615d99565b6143c69061016d615d99565b6143d09190615d99565b6143de90633b9aca00615d99565b6143e89190615bf7565b60a0850152603554836143fe8362015180615d99565b61440a9061016d615d99565b6144149190615d99565b61442290633b9aca00615d99565b61442c9190615bf7565b60c0850152508391506144409050826148ae565b61444a9190615bf7565b979650505050505050565b6000818310611fae5781612ac7565b600082158015614472575081155b156144855761447f610d61565b90935091505b600061448f612ace565b905060006144a86144a08387615bb1565b603f546149b7565b90508381116144bc57600092505050612ac7565b6144c68482615e10565b9050858110156144d4578095505b6144dd826139d7565b506144e7866149cc565b506144f1866139d7565b509495945050505050565b6000806000614509610d61565b91509150600061451c82603f548561473e565b9050600083821115614535576145328483615e10565b90505b6034546042546040517fbf5061df00000000000000000000000000000000000000000000000000000000815260006004820152602481018990526001600160a01b03909216604483015260648201526084810182905273169487a55de79476125a56b07c36ca8dbf37a3739063bf5061df9060a40160206040518083038186803b1580156145c257600080fd5b505af41580156145d6573d6000803e3d6000fd5b505050506040513d601f19601f82011682018060405250810190613b4191906155ec565b6000604354831161460d575060006112c2565b81831115614619578192505b6034546042546040517fbf5061df00000000000000000000000000000000000000000000000000000000815260016004820152602481018690526001600160a01b03909216604483015260648201526000608482015273169487a55de79476125a56b07c36ca8dbf37a3739063bf5061df9060a40160206040518083038186803b1580156146a657600080fd5b505af41580156146ba573d6000803e3d6000fd5b505050506040513d601f19601f82011682018060405250810190612ac791906155ec565b6000821580156146ec575081155b156146ff576146f9610d61565b90935091505b600061470c83868661473e565b9050808411156147365760006147228286615e10565b905061472d81611ee8565b92505050612ac7565b509392505050565b6000821561476a5782614759670de0b6b3a764000086615d99565b6147639190615bf7565b9050612ac7565b5080612ac7565b6060824710156147e95760405162461bcd60e51b815260206004820152602660248201527f416464726573733a20696e73756666696369656e742062616c616e636520666f60448201527f722063616c6c00000000000000000000000000000000000000000000000000006064820152608401610870565b6001600160a01b0385163b6148405760405162461bcd60e51b815260206004820152601d60248201527f416464726573733a2063616c6c20746f206e6f6e2d636f6e74726163740000006044820152606401610870565b600080866001600160a01b0316858760405161485c91906159fb565b60006040518083038185875af1925050503d8060008114614899576040519150601f19603f3d011682016040523d82523d6000602084013e61489e565b606091505b509150915061444a828286614a47565b6000806148be6000846001614a80565b5050905060006148dc6b033b2e3c9fd0803ce8000000856001614a80565b505090508181136148f1575060009392505050565b60008060008087610100015196505b600a8410801561493357508315806149335750826149266149218983615db8565b615052565b614931906014615cf9565b135b1561498d5761494487896000614a80565b89955090935091508190506149656b033b2e3c9fd0803ce800000084615cf9565b61496f9190615bc9565b6149799084615db8565b9650614986600185615bb1565b9350614900565b600061499b888a6001614a80565b505090508681136149ab57600097505b50505050505050919050565b6000670de0b6b3a7640000612abd8385615d99565b6034546040517fa415bcad0000000000000000000000000000000000000000000000000000000081526001600160a01b039091166004820152602481018290526002604482015260006064820181905230608483015290737d2768de32b0b80b7a3454c06bdac94a69ddc7a99063a415bcad9060a401613a53565b60608315614a56575081612ac7565b825115614a665782518084602001fd5b8160405162461bcd60e51b81526004016108709190615af5565b600080600080600080614a93898961506a565b925092509250600088606001518a614aab9190615b59565b8951614ac3906b033b2e3c9fd0803ce8000000615db8565b60e08b0151614ad2908d615b59565b614adc9190615cf9565b614ae69190615bc9565b905060006b033b2e3c9fd0803ce8000000858b604001518d614b089190615b59565b614b129190615cf9565b8b608001518c60200151614b269190615cf9565b614b309190615b59565b614b3a9190615bc9565b90506b033b2e3c9fd0803ce8000000614b53868d615cf9565b614b5d9190615bc9565b60608b0151614b6c908d615b59565b60a08c015160e08d0151614b80908f615b59565b614b8a9190615cf9565b614b949190615bc9565b60408c0151614ba3908e615b59565b60c08d0151614bb2908f615cf9565b614bbc9190615bc9565b6b033b2e3c9fd0803ce8000000614bd38587615cf9565b614bdd9190615bc9565b614be79190615b59565b614bf19190615b59565b614bfb9190615db8565b9750886150445760008a606001518c614c149190615b59565b8b51614c2c906b033b2e3c9fd0803ce8000000615db8565b8c60e001518d60600151614c409190615db8565b614c4a9190615cf9565b614c549190615bc9565b90508a606001518c614c669190615b59565b614c7c6b033b2e3c9fd0803ce800000083615cf9565b614c869190615bc9565b905060006b033b2e3c9fd0803ce8000000868d604001518f614ca89190615b59565b614cb29190615cf9565b614cc86b033b2e3c9fd0803ce80000008a615cf9565b614cd29190615b59565b614cdc9190615bc9565b90506b033b2e3c9fd0803ce8000000614cf58583615cf9565b614cff8585615cf9565b614d099190615b59565b614d139190615bc9565b985060008c606001518e614d279190615b59565b614d3d6b033b2e3c9fd0803ce800000085615cf9565b614d4990600119615cf9565b614d539190615bc9565b9050614d5f8482615cf9565b82614d6b856002615cf9565b614d759190615cf9565b614d7f9190615b59565b9850506b033b2e3c9fd0803ce8000000858d604001518f614da09190615b59565b614daa9190615cf9565b6b033b2e3c9fd0803ce8000000614dc2896002615cf9565b614dcc9190615cf9565b614dd69190615b59565b614de09190615bc9565b90506b033b2e3c9fd0803ce8000000614df98583615cf9565b614e03908a615b59565b614e0d9190615bc9565b9750505060006b033b2e3c9fd0803ce8000000858d614e2c9190615cf9565b614e426b033b2e3c9fd0803ce800000089615cf9565b614e4c9190615b59565b614e569190615bc9565b905060008b604001518d614e6a9190615b59565b8c604001518d60c00151614e7e9190615cf9565b614e889190615bc9565b90508b604001518d614e9a9190615b59565b614eb06b033b2e3c9fd0803ce800000083615cf9565b614eba9190615bc9565b905060008c606001518e614ece9190615b59565b8d60e001518e60600151614ee29190615db8565b8e60a00151614ef19190615cf9565b614efb9190615bc9565b90508c606001518e614f0d9190615b59565b614f236b033b2e3c9fd0803ce800000083615cf9565b614f2d9190615bc9565b905082614f3a8284615b59565b614f449190615db8565b614f4e908b615b59565b99506b033b2e3c9fd0803ce8000000868f614f699190615cf9565b6b033b2e3c9fd0803ce8000000614f818a6002615cf9565b614f8b9190615cf9565b614f959190615b59565b614f9f9190615bc9565b92508c604001518e614fb19190615b59565b6b033b2e3c9fd0803ce8000000614fca84600119615cf9565b614fd49190615cf9565b614fde9190615bc9565b91508c606001518e614ff09190615b59565b6b033b2e3c9fd0803ce800000061500983600119615cf9565b6150139190615cf9565b61501d9190615bc9565b90508261502a8284615b59565b6150349190615db8565b61503e908a615b59565b98505050505b505050505093509350939050565b6000808212156123595761506582615ea5565b6112c2565b60008060008061507a8686615267565b9050600086866060015161508e9190615b59565b9050600061509c88886152b9565b9050816150b56b033b2e3c9fd0803ce800000083615cf9565b6150bf9190615bc9565b905060006150cf82600119615cf9565b9050826150e86b033b2e3c9fd0803ce800000083615cf9565b6150f29190615bc9565b905087610180015184121561517f57876101800151848961012001516151189190615cf9565b6151229190615bc9565b8861016001516151329190615b59565b96508761018001518289610120015161514b9190615cf9565b6151559190615bc9565b95508761018001518189610120015161516e9190615cf9565b6151789190615bc9565b945061525c565b61018088015161519b906b033b2e3c9fd0803ce8000000615db8565b6101808901516151ab9086615db8565b8961014001516151bb9190615cf9565b6151c59190615bc9565b8861012001518961016001516151db9190615b59565b6151e59190615b59565b96508761018001516b033b2e3c9fd0803ce80000006152049190615db8565b828961014001516152159190615cf9565b61521f9190615bc9565b95508761018001516b033b2e3c9fd0803ce800000061523e9190615db8565b8189610140015161524f9190615cf9565b6152599190615bc9565b94505b505050509250925092565b60008282606001516152799190615b59565b6b033b2e3c9fd0803ce8000000848460400151856020015161529b9190615b59565b6152a59190615b59565b6152af9190615cf9565b612ac79190615bc9565b60008282606001516152cb9190615b59565b6b033b2e3c9fd0803ce80000008360400151846020015185606001516152f19190615db8565b6152a59190615db8565b805169ffffffffffffffffffff8116811461531557600080fd5b919050565b60006020828403121561532c57600080fd5b8135612ac781615f7e565b60006020828403121561534957600080fd5b8151612ac781615f7e565b6000806040838503121561536757600080fd5b823561537281615f7e565b9150602083013561538281615f7e565b809150509250929050565b6000806000606084860312156153a257600080fd5b83516153ad81615f7e565b60208501519093506153be81615f7e565b60408501519092506153cf81615f7e565b809150509250925092565b60008060008060008060a087890312156153f357600080fd5b86356153fe81615f7e565b9550602087013561540e81615f7e565b94506040870135935060608701359250608087013567ffffffffffffffff8082111561543957600080fd5b818901915089601f83011261544d57600080fd5b81358181111561545c57600080fd5b8a602082850101111561546e57600080fd5b6020830194508093505050509295509295509295565b600080600080600060a0868803121561549c57600080fd5b85356154a781615f7e565b94506020868101356154b881615f7e565b945060408701356154c881615f7e565b935060608701356154d881615f7e565b9250608087013567ffffffffffffffff808211156154f557600080fd5b818901915089601f83011261550957600080fd5b81358181111561551b5761551b615f4f565b8060051b915061552c848301615b28565b8181528481019084860184860187018e101561554757600080fd5b600095505b83861015615576578035945061556185615f7e565b8483526001959095019491860191860161554c565b508096505050505050509295509295909350565b60006020828403121561559c57600080fd5b8151612ac781615f96565b600080604083850312156155ba57600080fd5b82356155c581615f96565b946020939093013593505050565b6000602082840312156155e557600080fd5b5035919050565b6000602082840312156155fe57600080fd5b5051919050565b6000806040838503121561561857600080fd5b82359150602083013561538281615f7e565b60006080828403121561563c57600080fd5b6040516080810181811067ffffffffffffffff8211171561565f5761565f615f4f565b604052823561566d81615f96565b8152602083013561567d81615f96565b6020820152604083013561569081615f96565b604082015260608301356156a381615f96565b60608201529392505050565b6000606082840312156156c157600080fd5b6040516060810181811067ffffffffffffffff821117156156e4576156e4615f4f565b80604052508251815260208301516020820152604083015160408201528091505092915050565b6000806040838503121561571e57600080fd5b8235915060208084013567ffffffffffffffff8082111561573e57600080fd5b818601915086601f83011261575257600080fd5b81358181111561576457615764615f4f565b61577684601f19601f84011601615b28565b9150808252878482850101111561578c57600080fd5b80848401858401376000848284010152508093505050509250929050565b6000806000606084860312156157bf57600080fd5b8351925060208401519150604084015190509250925092565b600080600080608085870312156157ee57600080fd5b5050823594602084013594506040840135936060013592509050565b6000806000806000806000806000806101408b8d03121561582a57600080fd5b8a51995060208b0151985060408b0151975060608b0151965060808b0151955060a08b015161585881615f96565b60c08c015190955061586981615f96565b60e08c015190945061587a81615f96565b6101008c015190935061588c81615f96565b6101208c015190925061589e81615f96565b809150509295989b9194979a5092959850565b6000806000806000806000806000806101408b8d0312156158d157600080fd5b8a51995060208b0151985060408b0151975060608b0151965060808b0151955060a08b0151945060c08b0151935060e08b015192506101008b015191506101208b015164ffffffffff8116811461589e57600080fd5b60008060006060848603121561593c57600080fd5b833592506020840135915060408401356153cf81615fa4565b600080600080600060a0868803121561596d57600080fd5b615976866152fb565b9450602086015193506040860151925060608601519150615999608087016152fb565b90509295509295909350565b6000602082840312156159b757600080fd5b8151612ac781615fa4565b600081518084526020808501945080840160005b838110156144f15781516001600160a01b0316875295820195908201906001016159d6565b60008251615a0d818460208701615e27565b9190910192915050565b7f416363657373436f6e74726f6c3a206163636f756e7420000000000000000000815260008351615a4f816017850160208801615e27565b7f206973206d697373696e6720726f6c65200000000000000000000000000000006017918401918201528351615a8c816028840160208801615e27565b01602801949350505050565b604081526000615aab60408301856159c2565b90506001600160a01b03831660208301529392505050565b606081526000615ad660608301866159c2565b90508360208301526001600160a01b0383166040830152949350505050565b6020815260008251806020840152615b14816040850160208701615e27565b601f01601f19169190910160400192915050565b604051601f8201601f1916810167ffffffffffffffff81118282101715615b5157615b51615f4f565b604052919050565b6000808212827f7fffffffffffffffffffffffffffffffffffffffffffffffffffffffffffffff03841381151615615b9357615b93615ec2565b82600160ff1b038412811615615bab57615bab615ec2565b50500190565b60008219821115615bc457615bc4615ec2565b500190565b600082615bd857615bd8615ef1565b6000198314600160ff1b83141615615bf257615bf2615ec2565b500590565b600082615c0657615c06615ef1565b500490565b600181815b80851115615c46578160001904821115615c2c57615c2c615ec2565b80851615615c3957918102915b93841c9390800290615c10565b509250929050565b6000612ac760ff841683600082615c67575060016112c2565b81615c74575060006112c2565b8160018114615c8a5760028114615c9457615cb0565b60019150506112c2565b60ff841115615ca557615ca5615ec2565b50506001821b6112c2565b5060208310610133831016604e8410600b8410161715615cd3575081810a6112c2565b615cdd8383615c0b565b8060001904821115615cf157615cf1615ec2565b029392505050565b60007f7fffffffffffffffffffffffffffffffffffffffffffffffffffffffffffffff600084136000841385830485118282161615615d3a57615d3a615ec2565b600160ff1b6000871286820588128184161615615d5957615d59615ec2565b60008712925087820587128484161615615d7557615d75615ec2565b87850587128184161615615d8b57615d8b615ec2565b505050929093029392505050565b6000816000190483118215151615615db357615db3615ec2565b500290565b600080831283600160ff1b01831281151615615dd657615dd6615ec2565b837f7fffffffffffffffffffffffffffffffffffffffffffffffffffffffffffffff018313811615615e0a57615e0a615ec2565b50500390565b600082821015615e2257615e22615ec2565b500390565b60005b83811015615e42578181015183820152602001615e2a565b838111156116a55750506000910152565b600081615e6257615e62615ec2565b506000190190565b6000600019821415615e7e57615e7e615ec2565b5060010190565b600060ff821660ff811415615e9c57615e9c615ec2565b60010192915050565b6000600160ff1b821415615ebb57615ebb615ec2565b5060000390565b7f4e487b7100000000000000000000000000000000000000000000000000000000600052601160045260246000fd5b7f4e487b7100000000000000000000000000000000000000000000000000000000600052601260045260246000fd5b7f4e487b7100000000000000000000000000000000000000000000000000000000600052603260045260246000fd5b7f4e487b7100000000000000000000000000000000000000000000000000000000600052604160045260246000fd5b6001600160a01b0381168114615f9357600080fd5b50565b8015158114615f9357600080fd5b60ff81168114615f9357600080fdfea26469706673582212203e12c5fad3dc4c7106028ae10a2d8d3d16954abde5a2cabf5a82e92475f77c7b64736f6c63430008070033",
  "deployedBytecode": "0x608060405234801561001057600080fd5b506004361061036d5760003560e01c80634c3f425f116101d3578063abac6e1111610104578063d94fa4af116100a2578063ec342ad01161007c578063ec342ad01461072b578063efbb5cb01461073a578063f8453e7c14610742578063fcf2d0ad1461075557600080fd5b8063d94fa4af146106fc578063dc4c90d314610705578063ddc632621461071857600080fd5b8063b8221bc4116100de578063b8221bc4146106c4578063b8dc491b146106cd578063d0134cb7146106e0578063d547741f146106e957600080fd5b8063abac6e1114610693578063af306e16146106a6578063af648c3d146106b157600080fd5b80638e5b14b011610171578063a34a42231161014b578063a34a42231461065b578063a526d83b1461066e578063a62b75a814610681578063a8f9c0d81461068a57600080fd5b80638e5b14b01461063757806391d1485414610640578063a217fddf1461065357600080fd5b80635e4a1e01116101ad5780635e4a1e01146106135780636314e8841461061c578063659621b51461062557806386d8745b1461062e57600080fd5b80634c3f425f146105f65780635641ec03146105fe5780635a5cd45e1461060b57600080fd5b80632e1a7d4d116102ad578063372500ab1161024b578063418f35cc11610225578063418f35cc146105d45780634322b714146105dc5780634641257d146105e55780634c32e270146105ed57600080fd5b8063372500ab1461059a578063387f504a146105a2578063396794cd146105c157600080fd5b80633042087c116102875780633042087c146104fa578063364bc15a1461050d57806336568abe14610534578063368a9d6d1461054757600080fd5b80632e1a7d4d146104b65780632e4debb3146104de5780632f2ff15d146104e757600080fd5b80631f1fcd511161031a57806323cf978f116102f457806323cf978f1461044557806323e30c8b14610458578063248a9ca31461046b57806324ea54f41461048f57600080fd5b80631f1fcd51146103f9578063205409d31461042457806322f3e2d41461042d57600080fd5b80630c016dc01161034b5780630c016dc0146103b65780630f969b87146103dd5780631d12f28b146103f057600080fd5b806305b4193414610372578063060ca2ba146103875780630b6d1d171461039a575b600080fd5b61038561038036600461570b565b61075d565b005b6103856103953660046157d8565b610881565b6103a360355481565b6040519081526020015b60405180910390f35b6103a37f5916f72c85af4ac6f7e34636ecc97619c4b2085da099a5d28f3e58436cfbe56281565b6103856103eb3660046155d3565b61097f565b6103a360365481565b60345461040c906001600160a01b031681565b6040516001600160a01b0390911681526020016103ad565b6103a360435481565b6104356109e6565b60405190151581526020016103ad565b6103856104533660046155d3565b6109f7565b6103a36104663660046153da565b610a79565b6103a36104793660046155d3565b6000908152600160208190526040909120015490565b6103a37f55435dd261a4b9b3364963f7738a7a662ad9c84396d64be3365284bb7f0a504181565b6104c96104c43660046155d3565b610bd1565b604080519283526020830191909152016103ad565b6103a3603e5481565b6103856104f5366004615605565b610c2a565b6103856105083660046155d3565b610c56565b6103a37ffc8737ab85eb45125971625a9ebdb75cc78e01d5c1fa80c4c6e5203f47bc4fab81565b610385610542366004615605565b610c94565b6047546105709060ff808216916101008104821691620100008204811691630100000090041684565b604080519415158552921515602085015290151591830191909152151560608201526080016103ad565b610385610cfa565b6046546105af9060ff1681565b60405160ff90911681526020016103ad565b6103856105cf3660046155d3565b610d2d565b6104c9610d61565b6103a3603a5481565b610385610d7c565b6103a360405481565b610385610d8e565b6037546104359060ff1681565b6103a3610d96565b6103a360455481565b6103a360395481565b6103a3603d5481565b6103a360445481565b6103a360415481565b61043561064e366004615605565b61129b565b6103a3600081565b61038561066936600461562a565b6112c8565b61038561067c36600461531a565b61138f565b6103a3603b5481565b6103a3603f5481565b6103856106a1366004615927565b6113e4565b6103a36301e1855881565b6103856106bf36600461531a565b61149d565b6103a360385481565b6103856106db366004615354565b6114f2565b6103a3603c5481565b6103856106f7366004615605565b6116ab565b6103a360425481565b60335461040c906001600160a01b031681565b6103856107263660046155d3565b6116d2565b6103a3670de0b6b3a764000081565b6103a361170e565b610385610750366004615484565b61180b565b610385611b91565b7ffc8737ab85eb45125971625a9ebdb75cc78e01d5c1fa80c4c6e5203f47bc4fab6107888133611c04565b600080731111111254fb6c44bac0bed2854e76f90643097d6001600160a01b0316846040516107b791906159fb565b6000604051808303816000865af19150503d80600081146107f4576040519150601f19603f3d011682016040523d82523d6000602084013e6107f9565b606091505b50915091508161080c5761080c81611c68565b60008180602001905181019061082291906155ec565b9050858110156108795760405162461bcd60e51b815260206004820152600260248201527f313500000000000000000000000000000000000000000000000000000000000060448201526064015b60405180910390fd5b505050505050565b7f55435dd261a4b9b3364963f7738a7a662ad9c84396d64be3365284bb7f0a50416108ac8133611c04565b60345460009081906108c6906001600160a01b0316611cbf565b9150915060006108e9736b175474e89094c44da98b954eedeac495271d0f611cbf565b50905081881080156108fa57508187105b801561090557508688105b801561091057508286105b801561091b57508085105b6109675760405162461bcd60e51b815260206004820152600160248201527f38000000000000000000000000000000000000000000000000000000000000006044820152606401610870565b505050604094909455604192909255603f5560425550565b7f55435dd261a4b9b3364963f7738a7a662ad9c84396d64be3365284bb7f0a50416109aa8133611c04565b60368290556040518281527fa68ba126373d04c004c5748c300c9fca12bd444b3d4332e261f3bd2bac4a86009060200160405180910390a15050565b6000806109f161170e565b11905090565b7f55435dd261a4b9b3364963f7738a7a662ad9c84396d64be3365284bb7f0a5041610a228133611c04565b6127108210610a735760405162461bcd60e51b815260206004820152600160248201527f34000000000000000000000000000000000000000000000000000000000000006044820152606401610870565b50604555565b600033731eb4cf3a948e7d72a198fe073ccb8c7a948cd853148015610aa657506001600160a01b03871630145b610af25760405162461bcd60e51b815260206004820152600160248201527f31000000000000000000000000000000000000000000000000000000000000006044820152606401610870565b600080610b01848601866155a7565b6034546040517fbf04d6e8000000000000000000000000000000000000000000000000000000008152831515600482015260248101839052604481018b90526001600160a01b039091166064820152919350915073__$769b0789f1f3504b29e5e16055ef62b17c$__9063bf04d6e89060840160206040518083038186803b158015610b8c57600080fd5b505af4158015610ba0573d6000803e3d6000fd5b505050506040513d601f19601f82011682018060405250810190610bc491906155ec565b9998505050505050505050565b6000807f5916f72c85af4ac6f7e34636ecc97619c4b2085da099a5d28f3e58436cfbe562610bff8133611c04565b610c0884611da4565b6034549194509250610c24906001600160a01b03163385611dd4565b50915091565b60008281526001602081905260409091200154610c478133611c04565b610c518383611e7d565b505050565b7f55435dd261a4b9b3364963f7738a7a662ad9c84396d64be3365284bb7f0a5041610c818133611c04565b610c8a82611ee8565b50610c5182611fb5565b6001600160a01b0381163314610cec5760405162461bcd60e51b815260206004820152600260248201527f37310000000000000000000000000000000000000000000000000000000000006044820152606401610870565b610cf68282612082565b5050565b7ffc8737ab85eb45125971625a9ebdb75cc78e01d5c1fa80c4c6e5203f47bc4fab610d258133611c04565b610cf66120e9565b7f55435dd261a4b9b3364963f7738a7a662ad9c84396d64be3365284bb7f0a5041610d588133611c04565b610c5182611ee8565b600080610d6c61235d565b9150610d766123df565b90509091565b610d84612410565b610d8c6125dc565b565b610d8c6125e7565b6034546040517f35ea6a750000000000000000000000000000000000000000000000000000000081526001600160a01b03909116600482015260009081908190819073057835ad21a177dbdd3090bb1cae03eacf78fc6d906335ea6a75906024016101406040518083038186803b158015610e1057600080fd5b505afa158015610e24573d6000803e3d6000fd5b505050506040513d601f19601f82011682018060405250810190610e4891906158b1565b50505050509450945094505050600080610e60610d61565b915091506000806000610e7a670de0b6b3a76400006129fb565b90506000604860009054906101000a90046001600160a01b03166001600160a01b03166375d264136040518163ffffffff1660e01b815260040160206040518083038186803b158015610ecc57600080fd5b505afa158015610ee0573d6000803e3d6000fd5b505050506040513d601f19601f82011682018060405250810190610f049190615337565b6048546040517ff11b81880000000000000000000000000000000000000000000000000000000081526001600160a01b03918216600482015291169063f11b81889060240160606040518083038186803b158015610f6157600080fd5b505afa158015610f75573d6000803e3d6000fd5b505050506040513d601f19601f82011682018060405250810190610f9991906157aa565b505090506000604960009054906101000a90046001600160a01b03166001600160a01b03166375d264136040518163ffffffff1660e01b815260040160206040518083038186803b158015610fed57600080fd5b505afa158015611001573d6000803e3d6000fd5b505050506040513d601f19601f820116820180604052508101906110259190615337565b6049546040517ff11b81880000000000000000000000000000000000000000000000000000000081526001600160a01b03918216600482015291169063f11b81889060240160606040518083038186803b15801561108257600080fd5b505afa158015611096573d6000803e3d6000fd5b505050506040513d601f19601f820116820180604052508101906110ba91906157aa565b50509050600082603c6110cd9190615d99565b6110d890603c615d99565b6110e3906018615d99565b6110ef9061016d615d99565b905060006110fe83603c615d99565b61110990603c615d99565b611114906018615d99565b6111209061016d615d99565b9050604860009054906101000a90046001600160a01b03166001600160a01b03166318160ddd6040518163ffffffff1660e01b815260040160206040518083038186803b15801561117057600080fd5b505afa158015611184573d6000803e3d6000fd5b505050506040513d601f19601f820116820180604052508101906111a891906155ec565b856111b3848c615d99565b6111bd9190615d99565b6111cb90633b9aca00615d99565b6111d59190615bf7565b96508b856111e3838b615d99565b6111ed9190615d99565b6111fb90633b9aca00615d99565b6112059190615bf7565b9550505050505060006112166123df565b61121e61235d565b611226612ace565b6112309190615bb1565b61123a9190615e10565b9050670de0b6b3a7640000816112508689615d99565b848661125c8a8d615d99565b6112669190615bb1565b6112709190615bb1565b61127a9190615e10565b6112849190615bf7565b61128e9190615bf7565b9850505050505050505090565b60008281526001602090815260408083206001600160a01b038516845290915290205460ff165b92915050565b7f55435dd261a4b9b3364963f7738a7a662ad9c84396d64be3365284bb7f0a50416112f38133611c04565b508051604780546020840151604085015160609095015161ffff1990921693151561ff0019169390931761010093151593909302929092177fffffffffffffffffffffffffffffffffffffffffffffffffffffffff0000ffff1662010000931515939093027fffffffffffffffffffffffffffffffffffffffffffffffffffffffff00ffffff1692909217630100000091151591909102179055565b7f5916f72c85af4ac6f7e34636ecc97619c4b2085da099a5d28f3e58436cfbe5626113ba8133611c04565b610cf67f55435dd261a4b9b3364963f7738a7a662ad9c84396d64be3365284bb7f0a504183611e7d565b7f55435dd261a4b9b3364963f7738a7a662ad9c84396d64be3365284bb7f0a504161140f8133611c04565b603f5483108015611423575060008260ff16115b8015611432575060108260ff16105b61147e5760405162461bcd60e51b815260206004820152600160248201527f38000000000000000000000000000000000000000000000000000000000000006044820152606401610870565b506043929092556044556046805460ff191660ff909216919091179055565b7f5916f72c85af4ac6f7e34636ecc97619c4b2085da099a5d28f3e58436cfbe5626114c88133611c04565b610cf67f55435dd261a4b9b3364963f7738a7a662ad9c84396d64be3365284bb7f0a504183612082565b7f55435dd261a4b9b3364963f7738a7a662ad9c84396d64be3365284bb7f0a504161151d8133611c04565b6034546001600160a01b038481169116141561157b5760405162461bcd60e51b815260206004820152600260248201527f39330000000000000000000000000000000000000000000000000000000000006044820152606401610870565b606060005b81518110156116165781818151811061159b5761159b615f20565b60200260200101516001600160a01b0316856001600160a01b031614156116045760405162461bcd60e51b815260206004820152600260248201527f39330000000000000000000000000000000000000000000000000000000000006044820152606401610870565b8061160e81615e6a565b915050611580565b506040516370a0823160e01b81523060048201526116a59084906001600160a01b038716906370a082319060240160206040518083038186803b15801561165c57600080fd5b505afa158015611670573d6000803e3d6000fd5b505050506040513d601f19601f8201168201806040525081019061169491906155ec565b6001600160a01b0387169190611dd4565b50505050565b600082815260016020819052604090912001546116c88133611c04565b610c518383612082565b7ffc8737ab85eb45125971625a9ebdb75cc78e01d5c1fa80c4c6e5203f47bc4fab6116fd8133611c04565b611705612410565b610cf682612aff565b600080600061171b610d61565b90925090506117dc73d784927ff2f95ba542bfc824c8a8a98f3495f6b5638b599f26611745612ce2565b306040518363ffffffff1660e01b8152600401611763929190615a98565b60206040518083038186803b15801561177b57600080fd5b505afa15801561178f573d6000803e3d6000fd5b505050506040513d601f19601f820116820180604052508101906117b391906155ec565b6117bb612d76565b6117c3612db0565b6117cd9190615bb1565b6117d79190615bb1565b6129fb565b81836117e6612ace565b6117f09190615bb1565b6117fa9190615e10565b6118049190615bb1565b9250505090565b61181785848484612dea565b60468054600660ff1990911617905560646043556611c37937e080006044556123286045556040805160808101825260018082526020820181905260009282019290925260600152604780547fffffffffffffffffffffffffffffffffffffffffffffffffffffffff00000000166301000101179055603780547fffffffffffffffffffffff0000000000000000000000000000000000000000ff166101006001600160a01b038716021790556118cc6125e7565b6034546040517fd2493b6c0000000000000000000000000000000000000000000000000000000081526001600160a01b039091166004820152600090819073057835ad21a177dbdd3090bb1cae03eacf78fc6d9063d2493b6c9060240160606040518083038186803b15801561194157600080fd5b505afa158015611955573d6000803e3d6000fd5b505050506040513d601f19601f82011682018060405250810190611979919061538d565b604880546001600160a01b038086167fffffffffffffffffffffffff0000000000000000000000000000000000000000928316179092556049805483851692169190911790556034549395509093506000928392506119d89116611cbf565b90925090506119ee66470de4df82000082615e10565b604055611a026611c37937e0800082615e10565b604155611a166611c37937e0800083615e10565b603f556000611a38736b175474e89094c44da98b954eedeac495271d0f611cbf565b509050611a4c6611c37937e0800082615e10565b604255603454611a79906001600160a01b0316737d2768de32b0b80b7a3454c06bdac94a69ddc7a9613322565b611a9785737d2768de32b0b80b7a3454c06bdac94a69ddc7a9613322565b611ac9736b175474e89094c44da98b954eedeac495271d0f731eb4cf3a948e7d72a198fe073ccb8c7a948cd853613322565b611afb734da27a545c0c5b758a6ba100e3a049001de870f5731111111254fb6c44bac0bed2854e76f90643097d613322565b611b2d737fc66500c84a76ad7e9c93437bfc5ac33e2ddae9731111111254fb6c44bac0bed2854e76f90643097d613322565b6034546001600160a01b0316736b175474e89094c44da98b954eedeac495271d0f14611b8557611b85736b175474e89094c44da98b954eedeac495271d0f737d2768de32b0b80b7a3454c06bdac94a69ddc7a9613322565b50505050505050505050565b7f5916f72c85af4ac6f7e34636ecc97619c4b2085da099a5d28f3e58436cfbe562611bbc8133611c04565b6037805460ff191660011790556040517f17fa25a1c2ac074f71f0cf4f6af525c06fab7d83eff5ffcf6df5277f2919ae2490600090a150565b6001600160a01b03163b151590565b611c0e828261129b565b610cf657611c26816001600160a01b03166014613338565b611c31836020613338565b604051602001611c42929190615a17565b60408051601f198184030181529082905262461bcd60e51b825261087091600401615af5565b805115611c7757805181602001fd5b60405162461bcd60e51b815260206004820152600360248201527f31313700000000000000000000000000000000000000000000000000000000006044820152606401610870565b6040517f3e1501410000000000000000000000000000000000000000000000000000000081526001600160a01b0382166004820152600090819073057835ad21a177dbdd3090bb1cae03eacf78fc6d90633e150141906024016101406040518083038186803b158015611d3157600080fd5b505afa158015611d45573d6000803e3d6000fd5b505050506040513d601f19601f82011682018060405250810190611d69919061580a565b50969950949750611d8b9650655af3107a40009550889450615d999350505050565b9150611d9d655af3107a400082615d99565b9050915091565b600080600080611db2610d61565b91509150611dc985611dc2612ace565b8484613561565b935093505050915091565b6040516001600160a01b038316602482015260448101829052610c519084907fa9059cbb00000000000000000000000000000000000000000000000000000000906064015b60408051601f198184030181529190526020810180517bffffffffffffffffffffffffffffffffffffffffffffffffffffffff167fffffffff000000000000000000000000000000000000000000000000000000009093169290921790915261363f565b611e87828261129b565b610cf65760008281526001602081815260408084206001600160a01b0386168086529252808420805460ff19169093179092559051339285917f2f8788117e7eff1d82e926ec794901d17c78024a50270940304540a733656f0d9190a45050565b600081611ef757506000919050565b6034546040517f69328dec0000000000000000000000000000000000000000000000000000000081526001600160a01b03909116600482015260248101839052306044820152737d2768de32b0b80b7a3454c06bdac94a69ddc7a9906369328dec90606401602060405180830381600087803b158015611f7657600080fd5b505af1158015611f8a573d6000803e3d6000fd5b505050506040513d601f19601f82011682018060405250810190611fae91906155ec565b5090919050565b600081611fc457506000919050565b6034546040517f573ade810000000000000000000000000000000000000000000000000000000081526001600160a01b0390911660048201526024810183905260026044820152306064820152737d2768de32b0b80b7a3454c06bdac94a69ddc7a99063573ade8190608401602060405180830381600087803b15801561204a57600080fd5b505af115801561205e573d6000803e3d6000fd5b505050506040513d601f19601f820116820180604052508101906112c291906155ec565b61208c828261129b565b15610cf65760008281526001602090815260408083206001600160a01b0385168085529252808320805460ff1916905551339285917ff6391f5c32d9c69d2a47ea670b442974b53935d1edc7fd64eb21e047a839171b9190a45050565b60006120f3612db0565b90506000811561210857612105613724565b90505b6000821180156121185750806001145b15612227576040517f9a99b4f00000000000000000000000000000000000000000000000000000000081523060048201526000196024820152734da27a545c0c5b758a6ba100e3a049001de870f590639a99b4f090604401600060405180830381600087803b15801561218a57600080fd5b505af115801561219e573d6000803e3d6000fd5b50506040517f1e9a695000000000000000000000000000000000000000000000000000000000815230600482015260248101859052734da27a545c0c5b758a6ba100e3a049001de870f59250631e9a69509150604401600060405180830381600087803b15801561220e57600080fd5b505af1158015612222573d6000803e3d6000fd5b505050505b73d784927ff2f95ba542bfc824c8a8a98f3495f6b5633111e7b3612249612ce2565b600019306040518463ffffffff1660e01b815260040161226b93929190615ac3565b602060405180830381600087803b15801561228557600080fd5b505af1158015612299573d6000803e3d6000fd5b505050506040513d601f19601f820116820180604052508101906122bd91906155ec565b506122c6612db0565b6047549092506301000000900460ff1680156122e25750600082115b80156122ec575080155b1561235957734da27a545c0c5b758a6ba100e3a049001de870f56001600160a01b031663787a08a66040518163ffffffff1660e01b8152600401600060405180830381600087803b15801561234057600080fd5b505af1158015612354573d6000803e3d6000fd5b505050505b5090565b6048546040516370a0823160e01b81523060048201526000916001600160a01b0316906370a08231906024015b60206040518083038186803b1580156123a257600080fd5b505afa1580156123b6573d6000803e3d6000fd5b505050506040513d601f19601f820116820180604052508101906123da91906155ec565b905090565b6049546040516370a0823160e01b81523060048201526000916001600160a01b0316906370a082319060240161238a565b6000806000603360009054906101000a90046001600160a01b03166001600160a01b031663bf3759b56040518163ffffffff1660e01b815260040160206040518083038186803b15801561246357600080fd5b505afa158015612477573d6000803e3d6000fd5b505050506040513d601f19601f8201168201806040525081019061249b91906155ec565b60375490915060009060ff16156124f85760006124b6613825565b9050828110156124d1576124ca8184615e10565b93506124e6565b828111156124e6576124e38382615e10565b94505b6124f08484615e10565b915050612509565b61250182613838565b919550935090505b6040805185815260208101859052908101829052606081018390527f4c0f499ffe6befa0ca7c826b0916cf87bea98de658013e76938489368d60d5099060800160405180910390a16033546040517fa1d9bafc0000000000000000000000000000000000000000000000000000000081526004810186905260248101859052604481018390526001600160a01b039091169063a1d9bafc90606401600060405180830381600087803b1580156125be57600080fd5b505af11580156125d2573d6000803e3d6000fd5b5050505050505050565b610d8c600019612aff565b6034546040517f3e1501410000000000000000000000000000000000000000000000000000000081526001600160a01b03909116600482015260009073057835ad21a177dbdd3090bb1cae03eacf78fc6d90633e150141906024016101406040518083038186803b15801561265b57600080fd5b505afa15801561266f573d6000803e3d6000fd5b505050506040513d601f19601f82011682018060405250810190612693919061580a565b5050505050945050505050734da27a545c0c5b758a6ba100e3a049001de870f56001600160a01b03166372b49d636040518163ffffffff1660e01b815260040160206040518083038186803b1580156126eb57600080fd5b505afa1580156126ff573d6000803e3d6000fd5b505050506040513d601f19601f8201168201806040525081019061272391906155ec565b603881905550734da27a545c0c5b758a6ba100e3a049001de870f56001600160a01b031663359c4a966040518163ffffffff1660e01b815260040160206040518083038186803b15801561277657600080fd5b505afa15801561278a573d6000803e3d6000fd5b505050506040513d601f19601f820116820180604052508101906127ae91906155ec565b6039556127c58169152d02c7e14af6800000615d99565b603a81905550603760019054906101000a90046001600160a01b03166001600160a01b0316637b832f586040518163ffffffff1660e01b815260040160206040518083038186803b15801561281957600080fd5b505afa15801561282d573d6000803e3d6000fd5b505050506040513d601f19601f8201168201806040525081019061285191906155ec565b603b81905550603760019054906101000a90046001600160a01b03166001600160a01b03166365614f816040518163ffffffff1660e01b815260040160206040518083038186803b1580156128a557600080fd5b505afa1580156128b9573d6000803e3d6000fd5b505050506040513d601f19601f820116820180604052508101906128dd91906155ec565b603c81905550603760019054906101000a90046001600160a01b03166001600160a01b031663b25895446040518163ffffffff1660e01b815260040160206040518083038186803b15801561293157600080fd5b505afa158015612945573d6000803e3d6000fd5b505050506040513d601f19601f8201168201806040525081019061296991906155ec565b603d81905550603760019054906101000a90046001600160a01b03166001600160a01b031663a15f30ac6040518163ffffffff1660e01b815260040160206040518083038186803b1580156129bd57600080fd5b505afa1580156129d1573d6000803e3d6000fd5b505050506040513d601f19601f820116820180604052508101906129f591906155ec565b603e5550565b60008073547a514d5e3769680ce22b2361c10ea13619e8a96001600160a01b031663feaf968c6040518163ffffffff1660e01b815260040160a06040518083038186803b158015612a4b57600080fd5b505afa158015612a5f573d6000803e3d6000fd5b505050506040513d601f19601f82011682018060405250810190612a839190615955565b5050509150506c0c9f2c9cd04674edea400000006045546035548584612aa99190615d99565b612ab39190615d99565b612abd9190615d99565b612ac79190615bf7565b9392505050565b6034546040516370a0823160e01b81523060048201526000916001600160a01b0316906370a082319060240161238a565b603354604080517fbf3759b500000000000000000000000000000000000000000000000000000000815290516000926001600160a01b03169163bf3759b5916004808301926020929190829003018186803b158015612b5d57600080fd5b505afa158015612b71573d6000803e3d6000fd5b505050506040513d601f19601f82011682018060405250810190612b9591906155ec565b90506000612ba1612ace565b90508181118015612bbc5750604354612bba8383615e10565b115b15612bdf57612bd3612bce8383615e10565b6139d7565b50612bdc612ace565b90505b600080612bea610d61565b915091506000198514612bfd5784612bff565b805b60475490955060009060ff1615612c3757612c3082612c1e8587615bb1565b612c289190615e10565b848489613a8b565b9050612c3c565b506040545b6000612c488484613ad3565b905084861115612c72576000612c5e8688615e10565b9050612c6b818686613aee565b5050612cd9565b81811015612c9c57604454612c878284615e10565b1115612c9757612c978484613b4b565b612cd9565b81811115612cd957604454612cb18383615e10565b1115612cd9576000612ccc612cc68587615e10565b84613bfd565b90506125d2818686613c1b565b50505050505050565b6040805160028082526060808301845292602083019080368337505060485482519293506001600160a01b031691839150600090612d2257612d22615f20565b6001600160a01b039283166020918202929092010152604954825191169082906001908110612d5357612d53615f20565b60200260200101906001600160a01b031690816001600160a01b03168152505090565b6040516370a0823160e01b8152306004820152600090737fc66500c84a76ad7e9c93437bfc5ac33e2ddae9906370a082319060240161238a565b6040516370a0823160e01b8152306004820152600090734da27a545c0c5b758a6ba100e3a049001de870f5906370a082319060240161238a565b600054610100900460ff16612e055760005460ff1615612e09565b303b155b612e7b5760405162461bcd60e51b815260206004820152602e60248201527f496e697469616c697a61626c653a20636f6e747261637420697320616c72656160448201527f647920696e697469616c697a65640000000000000000000000000000000000006064820152608401610870565b600054610100900460ff16158015612e9d576000805461ffff19166101011790555b603380547fffffffffffffffffffffffff0000000000000000000000000000000000000000166001600160a01b038716908117909155604080517ffc0c546a000000000000000000000000000000000000000000000000000000008152905163fc0c546a91600480820192602092909190829003018186803b158015612f2257600080fd5b505afa158015612f36573d6000803e3d6000fd5b505050506040513d601f19601f82011682018060405250810190612f5a9190615337565b603480547fffffffffffffffffffffffff0000000000000000000000000000000000000000166001600160a01b03929092169182179055604080517f313ce567000000000000000000000000000000000000000000000000000000008152905163313ce56791600480820192602092909190829003018186803b158015612fe057600080fd5b505afa158015612ff4573d6000803e3d6000fd5b505050506040513d601f19601f8201168201806040525081019061301891906159a5565b61302390600a615c4e565b6035556001600160a01b0383161580159061304657506001600160a01b03841615155b80156130645750826001600160a01b0316846001600160a01b031614155b6130b05760405162461bcd60e51b815260206004820152600160248201527f30000000000000000000000000000000000000000000000000000000000000006044820152606401610870565b6130da7f55435dd261a4b9b3364963f7738a7a662ad9c84396d64be3365284bb7f0a504184613d4f565b6131047f55435dd261a4b9b3364963f7738a7a662ad9c84396d64be3365284bb7f0a504185613d4f565b61312e7f5916f72c85af4ac6f7e34636ecc97619c4b2085da099a5d28f3e58436cfbe56286613d4f565b6131587f5916f72c85af4ac6f7e34636ecc97619c4b2085da099a5d28f3e58436cfbe56280613d59565b6131a27f55435dd261a4b9b3364963f7738a7a662ad9c84396d64be3365284bb7f0a50417f5916f72c85af4ac6f7e34636ecc97619c4b2085da099a5d28f3e58436cfbe562613d59565b60005b825181101561327f5760006001600160a01b03168382815181106131cb576131cb615f20565b60200260200101516001600160a01b0316141561322a5760405162461bcd60e51b815260206004820152600160248201527f30000000000000000000000000000000000000000000000000000000000000006044820152606401610870565b61326d7ffc8737ab85eb45125971625a9ebdb75cc78e01d5c1fa80c4c6e5203f47bc4fab84838151811061326057613260615f20565b6020026020010151613d4f565b8061327781615e6a565b9150506131a5565b506132ca7ffc8737ab85eb45125971625a9ebdb75cc78e01d5c1fa80c4c6e5203f47bc4fab7f55435dd261a4b9b3364963f7738a7a662ad9c84396d64be3365284bb7f0a5041613d59565b6132dd670de0b6b3a76400006064615d99565b6036556037805460ff19169055603354603454613309916001600160a01b039182169116600019613db0565b801561331b576000805461ff00191690555b5050505050565b610cf66001600160a01b03831682600019613ea3565b60606000613347836002615d99565b613352906002615bb1565b67ffffffffffffffff81111561336a5761336a615f4f565b6040519080825280601f01601f191660200182016040528015613394576020820181803683370190505b5090507f3000000000000000000000000000000000000000000000000000000000000000816000815181106133cb576133cb615f20565b60200101907effffffffffffffffffffffffffffffffffffffffffffffffffffffffffffff1916908160001a9053507f78000000000000000000000000000000000000000000000000000000000000008160018151811061342e5761342e615f20565b60200101907effffffffffffffffffffffffffffffffffffffffffffffffffffffffffffff1916908160001a905350600061346a846002615d99565b613475906001615bb1565b90505b6001811115613512577f303132333435363738396162636465660000000000000000000000000000000085600f16601081106134b6576134b6615f20565b1a60f81b8282815181106134cc576134cc615f20565b60200101907effffffffffffffffffffffffffffffffffffffffffffffffffffffffffffff1916908160001a90535060049490941c9361350b81615e53565b9050613478565b508315612ac75760405162461bcd60e51b815260206004820181905260248201527f537472696e67733a20686578206c656e67746820696e73756666696369656e746044820152606401610870565b6000808585111561357757508490506000613636565b60006135838688615e10565b9050613590818686613aee565b50613599612ace565b9550858711156135c75785925060006135b28489615e10565b905060435481116135c1578092505b506135cb565b8692505b60475462010000900460ff1615613634576135e68284615bb1565b87146136345760405162461bcd60e51b815260206004820152600260248201527f35340000000000000000000000000000000000000000000000000000000000006044820152606401610870565b505b94509492505050565b6000613694826040518060400160405280602081526020017f5361666545524332303a206c6f772d6c6576656c2063616c6c206661696c6564815250856001600160a01b03166140009092919063ffffffff16565b805190915015610c5157808060200190518101906136b2919061558a565b610c515760405162461bcd60e51b815260206004820152602a60248201527f5361666545524332303a204552433230206f7065726174696f6e20646964206e60448201527f6f742073756363656564000000000000000000000000000000000000000000006064820152608401610870565b6040517f091030c30000000000000000000000000000000000000000000000000000000081523060048201526000908190734da27a545c0c5b758a6ba100e3a049001de870f59063091030c39060240160206040518083038186803b15801561378c57600080fd5b505afa1580156137a0573d6000803e3d6000fd5b505050506040513d601f19601f820116820180604052508101906137c491906155ec565b90506000603854826137d69190615bb1565b9050816137e65760009250505090565b804211801561380157506039546137fd9082615bb1565b4211155b1561380f5760019250505090565b804210156138205760029250505090565b505090565b6000613832600019611da4565b50919050565b6033546040517f39ebf8230000000000000000000000000000000000000000000000000000000081523060048201526000918291829182916001600160a01b03909116906339ebf8239060240160606040518083038186803b15801561389d57600080fd5b505afa1580156138b1573d6000803e3d6000fd5b505050506040513d601f19601f820116820180604052508101906138d591906156af565b60200151905060006138e5612ace565b90506000806138f2610d61565b90925090506000816139048486615bb1565b61390e9190615e10565b905080851115613929576139228186615e10565b9650613936565b6139338582615e10565b97505b6000613942898b615bb1565b9050848111156139a95761395881868686613561565b50945080851061398857899650886139708883615e10565b1015613983576139808782615e10565b98505b6139ca565b8985101561399c57600098508496506139ca565b8996506139808786615e10565b899650886139b78883615e10565b10156139ca576139c78782615e10565b98505b5050505050509193909250565b6000816139e657506000919050565b6034546040517fe8eda9df0000000000000000000000000000000000000000000000000000000081526001600160a01b0390911660048201526024810183905230604482015260006064820152737d2768de32b0b80b7a3454c06bdac94a69ddc7a99063e8eda9df906084015b600060405180830381600087803b158015613a6d57600080fd5b505af1158015613a81573d6000803e3d6000fd5b5093949350505050565b600080613a9a86868686614017565b90506000613ab1613aab8389615bb1565b83613ad3565b60415490915080821115613ac3578091505b5060408190559695505050505050565b600082156112c25782612abd670de0b6b3a764000084615d99565b600083613afd57506000612ac7565b6000613b098385615e10565b90506000613b2c613b1a8784614455565b613b249084615e10565b604054613bfd565b9050613b39818686613c1b565b613b41612ace565b9695505050505050565b600081613b5b613b248286615e10565b613b659190615e10565b604754909150610100900460ff1615613bac57613b83818484614464565b613b8d9082615e10565b9050604354811115610c5157613ba2816144fc565b6116a59082615e10565b60005b60465460ff908116908216108015613bc8575060435482115b156116a557613bd8828585614464565b613be29083615e10565b60009450849350915080613bf581615e85565b915050613baf565b6000613c1182670de0b6b3a7640000615e10565b612abd8385615d99565b82811115613ce3576000613c2f8483615e10565b604754909150610100900460ff1615613c5957613c4c81836145fa565b613c569082615e10565b90505b60415460005b60465460ff908116908216108015613c78575060435483115b15613cd257613c89826000806146de565b50826000613c95612ace565b905080821115613ca3578091505b6000613cae83611fb5565b9050613cba8187615e10565b95505050508080613cca90615e85565b915050613c5f565b50613cdb610d61565b909450925050505b6040546000613cf383838661473e565b905083811115613d31576000613d098583615e10565b9050604354811115613d2b57613d29612bce82613d24612ace565b614455565b505b5061331b565b604354613d3e8286615e10565b111561331b576108798285856146de565b610cf68282611e7d565b60008281526001602081905260409091200154819060405184907fbd79b86ffe0ab8e8776151514217cd7cacd52c909f66475c3af44e129f0b00ff90600090a4600091825260016020819052604090922090910155565b6040517fdd62ed3e0000000000000000000000000000000000000000000000000000000081523060048201526001600160a01b038381166024830152600091839186169063dd62ed3e9060440160206040518083038186803b158015613e1557600080fd5b505afa158015613e29573d6000803e3d6000fd5b505050506040513d601f19601f82011682018060405250810190613e4d91906155ec565b613e579190615bb1565b6040516001600160a01b0385166024820152604481018290529091506116a59085907f095ea7b30000000000000000000000000000000000000000000000000000000090606401611e19565b801580613f4557506040517fdd62ed3e0000000000000000000000000000000000000000000000000000000081523060048201526001600160a01b03838116602483015284169063dd62ed3e9060440160206040518083038186803b158015613f0b57600080fd5b505afa158015613f1f573d6000803e3d6000fd5b505050506040513d601f19601f82011682018060405250810190613f4391906155ec565b155b613fb75760405162461bcd60e51b815260206004820152603660248201527f5361666545524332303a20617070726f76652066726f6d206e6f6e2d7a65726f60448201527f20746f206e6f6e2d7a65726f20616c6c6f77616e6365000000000000000000006064820152608401610870565b6040516001600160a01b038316602482015260448101829052610c519084907f095ea7b30000000000000000000000000000000000000000000000000000000090606401611e19565b606061400f8484600085614771565b949350505050565b6000806035546b033b2e3c9fd0803ce80000006140349190615bf7565b90506140a1604051806101a00160405280600081526020016000815260200160008152602001600081526020016000815260200160008152602001600081526020016000815260200160008152602001600081526020016000815260200160008152602001600081525090565b6034546040517f35ea6a750000000000000000000000000000000000000000000000000000000081526001600160a01b03909116600482015260009081908190819073057835ad21a177dbdd3090bb1cae03eacf78fc6d906335ea6a75906024016101406040518083038186803b15801561411b57600080fd5b505afa15801561412f573d6000803e3d6000fd5b505050506040513d601f19601f8201168201806040525081019061415391906158b1565b5050509650505050935093509350604051806101a00160405280603a54815260200187856141819190615d99565b8152602001876141918c86615e10565b61419b9190615d99565b8152602001878c8e866141ae898b615bb1565b6141b89190615bb1565b6141c29190615bb1565b6141cc9190615e10565b6141d69190615d99565b81526020018281526020016000815260200160008152602001878d6141fb9190615d99565b815260200161420a888b615d99565b8152602001603b548152602001603c548152602001603d548152602001603e548152509450505050506000614246670de0b6b3a76400006129fb565b6048546040517ff11b81880000000000000000000000000000000000000000000000000000000081526001600160a01b03909116600482015290915060009073d784927ff2f95ba542bfc824c8a8a98f3495f6b59063f11b81889060240160606040518083038186803b1580156142bc57600080fd5b505afa1580156142d0573d6000803e3d6000fd5b505050506040513d601f19601f820116820180604052508101906142f491906157aa565b50506049546040517ff11b81880000000000000000000000000000000000000000000000000000000081526001600160a01b03909116600482015290915060009073d784927ff2f95ba542bfc824c8a8a98f3495f6b59063f11b81889060240160606040518083038186803b15801561436c57600080fd5b505afa158015614380573d6000803e3d6000fd5b505050506040513d601f19601f820116820180604052508101906143a491906157aa565b5050603554909150836143ba8462015180615d99565b6143c69061016d615d99565b6143d09190615d99565b6143de90633b9aca00615d99565b6143e89190615bf7565b60a0850152603554836143fe8362015180615d99565b61440a9061016d615d99565b6144149190615d99565b61442290633b9aca00615d99565b61442c9190615bf7565b60c0850152508391506144409050826148ae565b61444a9190615bf7565b979650505050505050565b6000818310611fae5781612ac7565b600082158015614472575081155b156144855761447f610d61565b90935091505b600061448f612ace565b905060006144a86144a08387615bb1565b603f546149b7565b90508381116144bc57600092505050612ac7565b6144c68482615e10565b9050858110156144d4578095505b6144dd826139d7565b506144e7866149cc565b506144f1866139d7565b509495945050505050565b6000806000614509610d61565b91509150600061451c82603f548561473e565b9050600083821115614535576145328483615e10565b90505b6034546042546040517fbf5061df00000000000000000000000000000000000000000000000000000000815260006004820152602481018990526001600160a01b03909216604483015260648201526084810182905273__$769b0789f1f3504b29e5e16055ef62b17c$__9063bf5061df9060a40160206040518083038186803b1580156145c257600080fd5b505af41580156145d6573d6000803e3d6000fd5b505050506040513d601f19601f82011682018060405250810190613b4191906155ec565b6000604354831161460d575060006112c2565b81831115614619578192505b6034546042546040517fbf5061df00000000000000000000000000000000000000000000000000000000815260016004820152602481018690526001600160a01b03909216604483015260648201526000608482015273__$769b0789f1f3504b29e5e16055ef62b17c$__9063bf5061df9060a40160206040518083038186803b1580156146a657600080fd5b505af41580156146ba573d6000803e3d6000fd5b505050506040513d601f19601f82011682018060405250810190612ac791906155ec565b6000821580156146ec575081155b156146ff576146f9610d61565b90935091505b600061470c83868661473e565b9050808411156147365760006147228286615e10565b905061472d81611ee8565b92505050612ac7565b509392505050565b6000821561476a5782614759670de0b6b3a764000086615d99565b6147639190615bf7565b9050612ac7565b5080612ac7565b6060824710156147e95760405162461bcd60e51b815260206004820152602660248201527f416464726573733a20696e73756666696369656e742062616c616e636520666f60448201527f722063616c6c00000000000000000000000000000000000000000000000000006064820152608401610870565b6001600160a01b0385163b6148405760405162461bcd60e51b815260206004820152601d60248201527f416464726573733a2063616c6c20746f206e6f6e2d636f6e74726163740000006044820152606401610870565b600080866001600160a01b0316858760405161485c91906159fb565b60006040518083038185875af1925050503d8060008114614899576040519150601f19603f3d011682016040523d82523d6000602084013e61489e565b606091505b509150915061444a828286614a47565b6000806148be6000846001614a80565b5050905060006148dc6b033b2e3c9fd0803ce8000000856001614a80565b505090508181136148f1575060009392505050565b60008060008087610100015196505b600a8410801561493357508315806149335750826149266149218983615db8565b615052565b614931906014615cf9565b135b1561498d5761494487896000614a80565b89955090935091508190506149656b033b2e3c9fd0803ce800000084615cf9565b61496f9190615bc9565b6149799084615db8565b9650614986600185615bb1565b9350614900565b600061499b888a6001614a80565b505090508681136149ab57600097505b50505050505050919050565b6000670de0b6b3a7640000612abd8385615d99565b6034546040517fa415bcad0000000000000000000000000000000000000000000000000000000081526001600160a01b039091166004820152602481018290526002604482015260006064820181905230608483015290737d2768de32b0b80b7a3454c06bdac94a69ddc7a99063a415bcad9060a401613a53565b60608315614a56575081612ac7565b825115614a665782518084602001fd5b8160405162461bcd60e51b81526004016108709190615af5565b600080600080600080614a93898961506a565b925092509250600088606001518a614aab9190615b59565b8951614ac3906b033b2e3c9fd0803ce8000000615db8565b60e08b0151614ad2908d615b59565b614adc9190615cf9565b614ae69190615bc9565b905060006b033b2e3c9fd0803ce8000000858b604001518d614b089190615b59565b614b129190615cf9565b8b608001518c60200151614b269190615cf9565b614b309190615b59565b614b3a9190615bc9565b90506b033b2e3c9fd0803ce8000000614b53868d615cf9565b614b5d9190615bc9565b60608b0151614b6c908d615b59565b60a08c015160e08d0151614b80908f615b59565b614b8a9190615cf9565b614b949190615bc9565b60408c0151614ba3908e615b59565b60c08d0151614bb2908f615cf9565b614bbc9190615bc9565b6b033b2e3c9fd0803ce8000000614bd38587615cf9565b614bdd9190615bc9565b614be79190615b59565b614bf19190615b59565b614bfb9190615db8565b9750886150445760008a606001518c614c149190615b59565b8b51614c2c906b033b2e3c9fd0803ce8000000615db8565b8c60e001518d60600151614c409190615db8565b614c4a9190615cf9565b614c549190615bc9565b90508a606001518c614c669190615b59565b614c7c6b033b2e3c9fd0803ce800000083615cf9565b614c869190615bc9565b905060006b033b2e3c9fd0803ce8000000868d604001518f614ca89190615b59565b614cb29190615cf9565b614cc86b033b2e3c9fd0803ce80000008a615cf9565b614cd29190615b59565b614cdc9190615bc9565b90506b033b2e3c9fd0803ce8000000614cf58583615cf9565b614cff8585615cf9565b614d099190615b59565b614d139190615bc9565b985060008c606001518e614d279190615b59565b614d3d6b033b2e3c9fd0803ce800000085615cf9565b614d4990600119615cf9565b614d539190615bc9565b9050614d5f8482615cf9565b82614d6b856002615cf9565b614d759190615cf9565b614d7f9190615b59565b9850506b033b2e3c9fd0803ce8000000858d604001518f614da09190615b59565b614daa9190615cf9565b6b033b2e3c9fd0803ce8000000614dc2896002615cf9565b614dcc9190615cf9565b614dd69190615b59565b614de09190615bc9565b90506b033b2e3c9fd0803ce8000000614df98583615cf9565b614e03908a615b59565b614e0d9190615bc9565b9750505060006b033b2e3c9fd0803ce8000000858d614e2c9190615cf9565b614e426b033b2e3c9fd0803ce800000089615cf9565b614e4c9190615b59565b614e569190615bc9565b905060008b604001518d614e6a9190615b59565b8c604001518d60c00151614e7e9190615cf9565b614e889190615bc9565b90508b604001518d614e9a9190615b59565b614eb06b033b2e3c9fd0803ce800000083615cf9565b614eba9190615bc9565b905060008c606001518e614ece9190615b59565b8d60e001518e60600151614ee29190615db8565b8e60a00151614ef19190615cf9565b614efb9190615bc9565b90508c606001518e614f0d9190615b59565b614f236b033b2e3c9fd0803ce800000083615cf9565b614f2d9190615bc9565b905082614f3a8284615b59565b614f449190615db8565b614f4e908b615b59565b99506b033b2e3c9fd0803ce8000000868f614f699190615cf9565b6b033b2e3c9fd0803ce8000000614f818a6002615cf9565b614f8b9190615cf9565b614f959190615b59565b614f9f9190615bc9565b92508c604001518e614fb19190615b59565b6b033b2e3c9fd0803ce8000000614fca84600119615cf9565b614fd49190615cf9565b614fde9190615bc9565b91508c606001518e614ff09190615b59565b6b033b2e3c9fd0803ce800000061500983600119615cf9565b6150139190615cf9565b61501d9190615bc9565b90508261502a8284615b59565b6150349190615db8565b61503e908a615b59565b98505050505b505050505093509350939050565b6000808212156123595761506582615ea5565b6112c2565b60008060008061507a8686615267565b9050600086866060015161508e9190615b59565b9050600061509c88886152b9565b9050816150b56b033b2e3c9fd0803ce800000083615cf9565b6150bf9190615bc9565b905060006150cf82600119615cf9565b9050826150e86b033b2e3c9fd0803ce800000083615cf9565b6150f29190615bc9565b905087610180015184121561517f57876101800151848961012001516151189190615cf9565b6151229190615bc9565b8861016001516151329190615b59565b96508761018001518289610120015161514b9190615cf9565b6151559190615bc9565b95508761018001518189610120015161516e9190615cf9565b6151789190615bc9565b945061525c565b61018088015161519b906b033b2e3c9fd0803ce8000000615db8565b6101808901516151ab9086615db8565b8961014001516151bb9190615cf9565b6151c59190615bc9565b8861012001518961016001516151db9190615b59565b6151e59190615b59565b96508761018001516b033b2e3c9fd0803ce80000006152049190615db8565b828961014001516152159190615cf9565b61521f9190615bc9565b95508761018001516b033b2e3c9fd0803ce800000061523e9190615db8565b8189610140015161524f9190615cf9565b6152599190615bc9565b94505b505050509250925092565b60008282606001516152799190615b59565b6b033b2e3c9fd0803ce8000000848460400151856020015161529b9190615b59565b6152a59190615b59565b6152af9190615cf9565b612ac79190615bc9565b60008282606001516152cb9190615b59565b6b033b2e3c9fd0803ce80000008360400151846020015185606001516152f19190615db8565b6152a59190615db8565b805169ffffffffffffffffffff8116811461531557600080fd5b919050565b60006020828403121561532c57600080fd5b8135612ac781615f7e565b60006020828403121561534957600080fd5b8151612ac781615f7e565b6000806040838503121561536757600080fd5b823561537281615f7e565b9150602083013561538281615f7e565b809150509250929050565b6000806000606084860312156153a257600080fd5b83516153ad81615f7e565b60208501519093506153be81615f7e565b60408501519092506153cf81615f7e565b809150509250925092565b60008060008060008060a087890312156153f357600080fd5b86356153fe81615f7e565b9550602087013561540e81615f7e565b94506040870135935060608701359250608087013567ffffffffffffffff8082111561543957600080fd5b818901915089601f83011261544d57600080fd5b81358181111561545c57600080fd5b8a602082850101111561546e57600080fd5b6020830194508093505050509295509295509295565b600080600080600060a0868803121561549c57600080fd5b85356154a781615f7e565b94506020868101356154b881615f7e565b945060408701356154c881615f7e565b935060608701356154d881615f7e565b9250608087013567ffffffffffffffff808211156154f557600080fd5b818901915089601f83011261550957600080fd5b81358181111561551b5761551b615f4f565b8060051b915061552c848301615b28565b8181528481019084860184860187018e101561554757600080fd5b600095505b83861015615576578035945061556185615f7e565b8483526001959095019491860191860161554c565b508096505050505050509295509295909350565b60006020828403121561559c57600080fd5b8151612ac781615f96565b600080604083850312156155ba57600080fd5b82356155c581615f96565b946020939093013593505050565b6000602082840312156155e557600080fd5b5035919050565b6000602082840312156155fe57600080fd5b5051919050565b6000806040838503121561561857600080fd5b82359150602083013561538281615f7e565b60006080828403121561563c57600080fd5b6040516080810181811067ffffffffffffffff8211171561565f5761565f615f4f565b604052823561566d81615f96565b8152602083013561567d81615f96565b6020820152604083013561569081615f96565b604082015260608301356156a381615f96565b60608201529392505050565b6000606082840312156156c157600080fd5b6040516060810181811067ffffffffffffffff821117156156e4576156e4615f4f565b80604052508251815260208301516020820152604083015160408201528091505092915050565b6000806040838503121561571e57600080fd5b8235915060208084013567ffffffffffffffff8082111561573e57600080fd5b818601915086601f83011261575257600080fd5b81358181111561576457615764615f4f565b61577684601f19601f84011601615b28565b9150808252878482850101111561578c57600080fd5b80848401858401376000848284010152508093505050509250929050565b6000806000606084860312156157bf57600080fd5b8351925060208401519150604084015190509250925092565b600080600080608085870312156157ee57600080fd5b5050823594602084013594506040840135936060013592509050565b6000806000806000806000806000806101408b8d03121561582a57600080fd5b8a51995060208b0151985060408b0151975060608b0151965060808b0151955060a08b015161585881615f96565b60c08c015190955061586981615f96565b60e08c015190945061587a81615f96565b6101008c015190935061588c81615f96565b6101208c015190925061589e81615f96565b809150509295989b9194979a5092959850565b6000806000806000806000806000806101408b8d0312156158d157600080fd5b8a51995060208b0151985060408b0151975060608b0151965060808b0151955060a08b0151945060c08b0151935060e08b015192506101008b015191506101208b015164ffffffffff8116811461589e57600080fd5b60008060006060848603121561593c57600080fd5b833592506020840135915060408401356153cf81615fa4565b600080600080600060a0868803121561596d57600080fd5b615976866152fb565b9450602086015193506040860151925060608601519150615999608087016152fb565b90509295509295909350565b6000602082840312156159b757600080fd5b8151612ac781615fa4565b600081518084526020808501945080840160005b838110156144f15781516001600160a01b0316875295820195908201906001016159d6565b60008251615a0d818460208701615e27565b9190910192915050565b7f416363657373436f6e74726f6c3a206163636f756e7420000000000000000000815260008351615a4f816017850160208801615e27565b7f206973206d697373696e6720726f6c65200000000000000000000000000000006017918401918201528351615a8c816028840160208801615e27565b01602801949350505050565b604081526000615aab60408301856159c2565b90506001600160a01b03831660208301529392505050565b606081526000615ad660608301866159c2565b90508360208301526001600160a01b0383166040830152949350505050565b6020815260008251806020840152615b14816040850160208701615e27565b601f01601f19169190910160400192915050565b604051601f8201601f1916810167ffffffffffffffff81118282101715615b5157615b51615f4f565b604052919050565b6000808212827f7fffffffffffffffffffffffffffffffffffffffffffffffffffffffffffffff03841381151615615b9357615b93615ec2565b82600160ff1b038412811615615bab57615bab615ec2565b50500190565b60008219821115615bc457615bc4615ec2565b500190565b600082615bd857615bd8615ef1565b6000198314600160ff1b83141615615bf257615bf2615ec2565b500590565b600082615c0657615c06615ef1565b500490565b600181815b80851115615c46578160001904821115615c2c57615c2c615ec2565b80851615615c3957918102915b93841c9390800290615c10565b509250929050565b6000612ac760ff841683600082615c67575060016112c2565b81615c74575060006112c2565b8160018114615c8a5760028114615c9457615cb0565b60019150506112c2565b60ff841115615ca557615ca5615ec2565b50506001821b6112c2565b5060208310610133831016604e8410600b8410161715615cd3575081810a6112c2565b615cdd8383615c0b565b8060001904821115615cf157615cf1615ec2565b029392505050565b60007f7fffffffffffffffffffffffffffffffffffffffffffffffffffffffffffffff600084136000841385830485118282161615615d3a57615d3a615ec2565b600160ff1b6000871286820588128184161615615d5957615d59615ec2565b60008712925087820587128484161615615d7557615d75615ec2565b87850587128184161615615d8b57615d8b615ec2565b505050929093029392505050565b6000816000190483118215151615615db357615db3615ec2565b500290565b600080831283600160ff1b01831281151615615dd657615dd6615ec2565b837f7fffffffffffffffffffffffffffffffffffffffffffffffffffffffffffffff018313811615615e0a57615e0a615ec2565b50500390565b600082821015615e2257615e22615ec2565b500390565b60005b83811015615e42578181015183820152602001615e2a565b838111156116a55750506000910152565b600081615e6257615e62615ec2565b506000190190565b6000600019821415615e7e57615e7e615ec2565b5060010190565b600060ff821660ff811415615e9c57615e9c615ec2565b60010192915050565b6000600160ff1b821415615ebb57615ebb615ec2565b5060000390565b7f4e487b7100000000000000000000000000000000000000000000000000000000600052601160045260246000fd5b7f4e487b7100000000000000000000000000000000000000000000000000000000600052601260045260246000fd5b7f4e487b7100000000000000000000000000000000000000000000000000000000600052603260045260246000fd5b7f4e487b7100000000000000000000000000000000000000000000000000000000600052604160045260246000fd5b6001600160a01b0381168114615f9357600080fd5b50565b8015158114615f9357600080fd5b60ff81168114615f9357600080fdfea26469706673582212203e12c5fad3dc4c7106028ae10a2d8d3d16954abde5a2cabf5a82e92475f77c7b64736f6c63430008070033",
  "libraries": {
    "FlashMintLib": "0x169487a55de79476125a56b07c36ca8dbf37a373"
  },
  "devdoc": {
    "author": "Yearn Finance (https://etherscan.io/address/0xd4E94061183b2DBF24473F28A3559cf4dE4459Db#code) but heavily reviewed and modified by Angle Core Team",
    "details": "Angle strategies computes the optimal collateral ratio based on AAVE rewards for deposits and borrows",
    "kind": "dev",
    "methods": {
      "addGuardian(address)": {
        "params": {
          "_guardian": "New guardian address"
        }
      },
      "estimatedTotalAssets()": {
        "details": "It sums the effective deposit amount to the rewards accumulated"
      },
      "getCurrentPosition()": {
        "details": "The actual amount brought is `deposits - borrows`"
      },
      "getRoleAdmin(bytes32)": {
        "details": "Returns the admin role that controls `role`. See {grantRole} and {revokeRole}. To change a role's admin, use {_setRoleAdmin}."
      },
      "grantRole(bytes32,address)": {
        "details": "Grants `role` to `account`. If `account` had not been already granted `role`, emits a {RoleGranted} event. Requirements: - the caller must have ``role``'s admin role."
      },
      "harvest(uint256)": {
        "params": {
          "borrowInit": "Approximate optimal borrows to have faster convergence on the NR method"
        }
      },
      "hasRole(bytes32,address)": {
        "details": "Returns `true` if `account` has been granted `role`."
      },
      "initialize(address,address,address,address,address[])": {
        "params": {
          "_poolManager": "Address of the `PoolManager` lending to this strategy",
          "governor": "Governor address of the protocol",
          "guardian": "Address of the guardian",
          "interestRateStrategyAddress_": "Address of the `InterestRateStrategy` defining borrow rates for the collateral",
          "keepers": "List of the addresses with keeper privilege"
        }
      },
      "isActive()": {
        "returns": {
          "_0": "True if the strategy is actively managing a position."
        }
      },
      "manualDeleverage(uint256)": {
        "params": {
          "amount": "Amount of `want` to withdraw/repay"
        }
      },
      "manualReleaseWant(uint256)": {
        "params": {
          "amount": "Amount of `want` to withdraw"
        }
      },
      "onFlashLoan(address,address,uint256,uint256,bytes)": {
        "details": "If everything went smoothly, will return `keccak256(\"ERC3156FlashBorrower.onFlashLoan\")`"
      },
      "renounceRole(bytes32,address)": {
        "details": "Revokes `role` from the calling account. Roles are often managed via {grantRole} and {revokeRole}: this function's purpose is to provide a mechanism for accounts to lose their privileges if they are compromised (such as when a trusted device is misplaced). If the calling account had been granted `role`, emits a {RoleRevoked} event. Requirements: - the caller must be `account`."
      },
      "revokeGuardian(address)": {
        "params": {
          "guardian": "Old guardian address to revoke"
        }
      },
      "revokeRole(bytes32,address)": {
        "details": "Revokes `role` from `account`. If `account` had been granted `role`, emits a {RoleRevoked} event. Requirements: - the caller must have ``role``'s admin role."
      },
      "sellRewards(uint256,bytes)": {
        "params": {
          "minAmountOut": "Minimum amount of `want` to receive for the swap to happen",
          "payload": "Bytes needed for 1Inch API. Tokens swapped should be: stkAave -> `want` or Aave -> `want`"
        }
      },
      "setAavePoolVariables()": {
        "details": "No access control needed because they fetch the values from Aave directly. If it changes there, it will need to be updated here tooWe expect the values concerned not to be often modified"
      },
      "setDebtThreshold(uint256)": {
        "details": "By default this is 0, meaning any losses would cause a harvest which will subsequently report the loss to the Manager for tracking.",
        "params": {
          "_debtThreshold": "How big of a loss this Strategy may carry without"
        }
      },
      "setEmergencyExit()": {
        "details": "This may only be called by the `PoolManager`, because when calling this the `PoolManager` should at the same time update the debt ratioThis function can only be called once by the `PoolManager` contractSee `poolManager.setEmergencyExit()` and `harvest()` for further details."
      },
      "sweep(address,address)": {
        "details": "Implement `_protectedTokens()` to specify any additional tokens that should be protected from sweeping in addition to `want`.",
        "params": {
          "_token": "The token to transfer out of this `PoolManager`.",
          "to": "Address to send the tokens to."
        }
      },
      "withdraw(uint256)": {
        "details": "This may only be called by the `PoolManager`",
        "params": {
          "_amountNeeded": "How much `want` to withdraw."
        },
        "returns": {
          "_loss": "Any realized losses",
          "amountFreed": "How much `want` withdrawn."
        }
      }
    },
    "title": "AaveFlashloanStrategy",
    "version": 1
  },
  "userdoc": {
    "kind": "user",
    "methods": {
      "GUARDIAN_ROLE()": {
        "notice": "Role for guardians and governors"
      },
      "KEEPER_ROLE()": {
        "notice": "Role for keepers"
      },
      "POOLMANAGER_ROLE()": {
        "notice": "Role for `PoolManager` only"
      },
      "addGuardian(address)": {
        "notice": "Adds a new guardian address"
      },
      "boolParams()": {
        "notice": "Struct with some boolean parameters of the contract These parameters are packed in a struct for efficiency of SLOAD operations"
      },
      "daiBorrowCollatRatio()": {
        "notice": "Parameter used for flash mints"
      },
      "debtThreshold()": {
        "notice": "Use this to adjust the threshold at which running a debt causes a harvest trigger. See `setDebtThreshold()` for more details"
      },
      "discountFactor()": {
        "notice": "Discount factor applied to the StkAAVE price"
      },
      "emergencyExit()": {
        "notice": "See note on `setEmergencyExit()`"
      },
      "estimatedTotalAssets()": {
        "notice": "Estimates the total assets controlled by the strategy"
      },
      "getCurrentPosition()": {
        "notice": "Get the current position of the strategy: that is to say the amount deposited and the amount borrowed on Aave"
      },
      "harvest()": {
        "notice": "Harvests the Strategy, recognizing any profits or losses and adjusting the Strategy's position."
      },
      "harvest(uint256)": {
        "notice": "Harvests the Strategy, recognizing any profits or losses and adjusting the Strategy's position."
      },
      "initialize(address,address,address,address,address[])": {
        "notice": "Constructor of the `Strategy`"
      },
      "isActive()": {
        "notice": "Provides an indication of whether this strategy is currently \"active\" in that it is managing an active position, or will manage a position in the future. This should correlate to `harvest()` activity, so that Harvest events can be tracked externally by indexing agents."
      },
      "manualDeleverage(uint256)": {
        "notice": "Emergency function that we can use to deleverage manually if something is broken"
      },
      "manualReleaseWant(uint256)": {
        "notice": "Emergency function that we can use to deleverage manually if something is broken"
      },
      "maxBorrowCollatRatio()": {
        "notice": "Maximum the Aave protocol will let us borrow"
      },
      "maxCollatRatio()": {
        "notice": "Closest to liquidation we'll risk"
      },
      "maxIterations()": {
        "notice": "Max number of iterations possible for the computation of the optimal lever"
      },
      "minRatio()": {
        "notice": "Minimum gap between the collat ratio and the target collat ratio before rectifying it"
      },
      "minWant()": {
        "notice": "Minimum amount to be moved before a deposit or a borrow"
      },
      "onFlashLoan(address,address,uint256,uint256,bytes)": {
        "notice": "Flashload callback, as defined by EIP-3156We check that the call is coming from the DAI lender and then execute the load logic"
      },
      "poolManager()": {
        "notice": "Reference to the protocol's collateral `PoolManager`"
      },
      "revokeGuardian(address)": {
        "notice": "Revokes the guardian role"
      },
      "sellRewards(uint256,bytes)": {
        "notice": "Swap earned stkAave or Aave for `want` through 1Inch"
      },
      "setAavePoolVariables()": {
        "notice": "Retrieves lending pool variables for `want`. Those variables are mostly used in the function to compute the optimal borrow amount"
      },
      "setBoolParams((bool,bool,bool,bool))": {
        "notice": "Sets all boolean parameters related to cooldown, withdraw check, flash loan and so on"
      },
      "setCollateralTargets(uint256,uint256,uint256,uint256)": {
        "notice": "Sets collateral targets and value for collateral ratio"
      },
      "setDebtThreshold(uint256)": {
        "notice": "Sets how far the Strategy can go into loss without a harvest and report being required."
      },
      "setDiscountFactor(uint256)": {
        "notice": "Sets the discount factor for the StkAAVE price"
      },
      "setEmergencyExit()": {
        "notice": "Activates emergency exit. Once activated, the Strategy will exit its position upon the next harvest, depositing all funds into the Manager as quickly as is reasonable given on-chain conditions."
      },
      "setMinsAndMaxs(uint256,uint256,uint8)": {
        "notice": "Sets `minWant`, `minRatio` and `maxItrations` values"
      },
      "sweep(address,address)": {
        "notice": "Removes tokens from this Strategy that are not the type of tokens managed by this Strategy. This may be used in case of accidentally sending the wrong kind of token to this Strategy. Tokens will be sent to `governance()`. This will fail if an attempt is made to sweep `want`, or any tokens that are protected by this Strategy. This may only be called by governance."
      },
      "targetCollatRatio()": {
        "notice": "LTV the strategy is going to lever up to"
      },
      "want()": {
        "notice": "Reference to the ERC20 farmed by this strategy"
      },
      "wantBase()": {
        "notice": "Base of the ERC20 token farmed by this strategy"
      },
      "withdraw(uint256)": {
        "notice": "Withdraws `_amountNeeded` to `poolManager`."
      }
    },
    "notice": "This strategy is used to optimize lending yield on Aave by taking some form or recursivity that is to say by borrowing to maximize Aave rewards",
    "version": 1
  },
  "storageLayout": {
    "storage": [
      {
        "astId": 52,
        "contract": "contracts/strategies/AaveFlashloanStrategy/AaveFlashloanStrategy.sol:AaveFlashloanStrategy",
        "label": "_initialized",
        "offset": 0,
        "slot": "0",
        "type": "t_bool"
      },
      {
        "astId": 55,
        "contract": "contracts/strategies/AaveFlashloanStrategy/AaveFlashloanStrategy.sol:AaveFlashloanStrategy",
        "label": "_initializing",
        "offset": 1,
        "slot": "0",
        "type": "t_bool"
      },
      {
        "astId": 3409,
        "contract": "contracts/strategies/AaveFlashloanStrategy/AaveFlashloanStrategy.sol:AaveFlashloanStrategy",
        "label": "_roles",
        "offset": 0,
        "slot": "1",
        "type": "t_mapping(t_bytes32,t_struct(RoleData)3404_storage)"
      },
      {
        "astId": 3695,
        "contract": "contracts/strategies/AaveFlashloanStrategy/AaveFlashloanStrategy.sol:AaveFlashloanStrategy",
        "label": "__gap",
        "offset": 0,
        "slot": "2",
        "type": "t_array(t_uint256)49_storage"
      },
      {
        "astId": 12950,
        "contract": "contracts/strategies/AaveFlashloanStrategy/AaveFlashloanStrategy.sol:AaveFlashloanStrategy",
        "label": "poolManager",
        "offset": 0,
        "slot": "51",
        "type": "t_contract(IPoolManager)3973"
      },
      {
        "astId": 12954,
        "contract": "contracts/strategies/AaveFlashloanStrategy/AaveFlashloanStrategy.sol:AaveFlashloanStrategy",
        "label": "want",
        "offset": 0,
        "slot": "52",
        "type": "t_contract(IERC20)2114"
      },
      {
        "astId": 12957,
        "contract": "contracts/strategies/AaveFlashloanStrategy/AaveFlashloanStrategy.sol:AaveFlashloanStrategy",
        "label": "wantBase",
        "offset": 0,
        "slot": "53",
        "type": "t_uint256"
      },
      {
        "astId": 12960,
        "contract": "contracts/strategies/AaveFlashloanStrategy/AaveFlashloanStrategy.sol:AaveFlashloanStrategy",
        "label": "debtThreshold",
        "offset": 0,
        "slot": "54",
        "type": "t_uint256"
      },
      {
        "astId": 12963,
        "contract": "contracts/strategies/AaveFlashloanStrategy/AaveFlashloanStrategy.sol:AaveFlashloanStrategy",
        "label": "emergencyExit",
        "offset": 0,
        "slot": "55",
        "type": "t_bool"
      },
      {
        "astId": 7375,
        "contract": "contracts/strategies/AaveFlashloanStrategy/AaveFlashloanStrategy.sol:AaveFlashloanStrategy",
        "label": "_interestRateStrategyAddress",
        "offset": 1,
        "slot": "55",
        "type": "t_contract(IReserveInterestRateStrategy)11137"
      },
      {
        "astId": 7377,
        "contract": "contracts/strategies/AaveFlashloanStrategy/AaveFlashloanStrategy.sol:AaveFlashloanStrategy",
        "label": "cooldownSeconds",
        "offset": 0,
        "slot": "56",
        "type": "t_uint256"
      },
      {
        "astId": 7379,
        "contract": "contracts/strategies/AaveFlashloanStrategy/AaveFlashloanStrategy.sol:AaveFlashloanStrategy",
        "label": "unstakeWindow",
        "offset": 0,
        "slot": "57",
        "type": "t_uint256"
      },
      {
        "astId": 7381,
        "contract": "contracts/strategies/AaveFlashloanStrategy/AaveFlashloanStrategy.sol:AaveFlashloanStrategy",
        "label": "reserveFactor",
        "offset": 0,
        "slot": "58",
        "type": "t_int256"
      },
      {
        "astId": 7383,
        "contract": "contracts/strategies/AaveFlashloanStrategy/AaveFlashloanStrategy.sol:AaveFlashloanStrategy",
        "label": "slope1",
        "offset": 0,
        "slot": "59",
        "type": "t_int256"
      },
      {
        "astId": 7385,
        "contract": "contracts/strategies/AaveFlashloanStrategy/AaveFlashloanStrategy.sol:AaveFlashloanStrategy",
        "label": "slope2",
        "offset": 0,
        "slot": "60",
        "type": "t_int256"
      },
      {
        "astId": 7387,
        "contract": "contracts/strategies/AaveFlashloanStrategy/AaveFlashloanStrategy.sol:AaveFlashloanStrategy",
        "label": "r0",
        "offset": 0,
        "slot": "61",
        "type": "t_int256"
      },
      {
        "astId": 7389,
        "contract": "contracts/strategies/AaveFlashloanStrategy/AaveFlashloanStrategy.sol:AaveFlashloanStrategy",
        "label": "uOptimal",
        "offset": 0,
        "slot": "62",
        "type": "t_int256"
      },
      {
        "astId": 7392,
        "contract": "contracts/strategies/AaveFlashloanStrategy/AaveFlashloanStrategy.sol:AaveFlashloanStrategy",
        "label": "maxBorrowCollatRatio",
        "offset": 0,
        "slot": "63",
        "type": "t_uint256"
      },
      {
        "astId": 7395,
        "contract": "contracts/strategies/AaveFlashloanStrategy/AaveFlashloanStrategy.sol:AaveFlashloanStrategy",
        "label": "targetCollatRatio",
        "offset": 0,
        "slot": "64",
        "type": "t_uint256"
      },
      {
        "astId": 7398,
        "contract": "contracts/strategies/AaveFlashloanStrategy/AaveFlashloanStrategy.sol:AaveFlashloanStrategy",
        "label": "maxCollatRatio",
        "offset": 0,
        "slot": "65",
        "type": "t_uint256"
      },
      {
        "astId": 7401,
        "contract": "contracts/strategies/AaveFlashloanStrategy/AaveFlashloanStrategy.sol:AaveFlashloanStrategy",
        "label": "daiBorrowCollatRatio",
        "offset": 0,
        "slot": "66",
        "type": "t_uint256"
      },
      {
        "astId": 7404,
        "contract": "contracts/strategies/AaveFlashloanStrategy/AaveFlashloanStrategy.sol:AaveFlashloanStrategy",
        "label": "minWant",
        "offset": 0,
        "slot": "67",
        "type": "t_uint256"
      },
      {
        "astId": 7407,
        "contract": "contracts/strategies/AaveFlashloanStrategy/AaveFlashloanStrategy.sol:AaveFlashloanStrategy",
        "label": "minRatio",
        "offset": 0,
        "slot": "68",
        "type": "t_uint256"
      },
      {
        "astId": 7410,
        "contract": "contracts/strategies/AaveFlashloanStrategy/AaveFlashloanStrategy.sol:AaveFlashloanStrategy",
        "label": "discountFactor",
        "offset": 0,
        "slot": "69",
        "type": "t_uint256"
      },
      {
        "astId": 7413,
        "contract": "contracts/strategies/AaveFlashloanStrategy/AaveFlashloanStrategy.sol:AaveFlashloanStrategy",
        "label": "maxIterations",
        "offset": 0,
        "slot": "70",
        "type": "t_uint8"
      },
      {
        "astId": 7426,
        "contract": "contracts/strategies/AaveFlashloanStrategy/AaveFlashloanStrategy.sol:AaveFlashloanStrategy",
        "label": "boolParams",
        "offset": 0,
        "slot": "71",
        "type": "t_struct(BoolParams)7422_storage"
      },
      {
        "astId": 7429,
        "contract": "contracts/strategies/AaveFlashloanStrategy/AaveFlashloanStrategy.sol:AaveFlashloanStrategy",
        "label": "_aToken",
        "offset": 0,
        "slot": "72",
        "type": "t_contract(IAToken)11054"
      },
      {
        "astId": 7432,
        "contract": "contracts/strategies/AaveFlashloanStrategy/AaveFlashloanStrategy.sol:AaveFlashloanStrategy",
        "label": "_debtToken",
        "offset": 0,
        "slot": "73",
        "type": "t_contract(IVariableDebtToken)10665"
      }
    ],
    "types": {
      "t_address": {
        "encoding": "inplace",
        "label": "address",
        "numberOfBytes": "20"
      },
      "t_array(t_uint256)49_storage": {
        "base": "t_uint256",
        "encoding": "inplace",
        "label": "uint256[49]",
        "numberOfBytes": "1568"
      },
      "t_bool": {
        "encoding": "inplace",
        "label": "bool",
        "numberOfBytes": "1"
      },
      "t_bytes32": {
        "encoding": "inplace",
        "label": "bytes32",
        "numberOfBytes": "32"
      },
      "t_contract(IAToken)11054": {
        "encoding": "inplace",
        "label": "contract IAToken",
        "numberOfBytes": "20"
      },
      "t_contract(IERC20)2114": {
        "encoding": "inplace",
        "label": "contract IERC20",
        "numberOfBytes": "20"
      },
      "t_contract(IPoolManager)3973": {
        "encoding": "inplace",
        "label": "contract IPoolManager",
        "numberOfBytes": "20"
      },
      "t_contract(IReserveInterestRateStrategy)11137": {
        "encoding": "inplace",
        "label": "contract IReserveInterestRateStrategy",
        "numberOfBytes": "20"
      },
      "t_contract(IVariableDebtToken)10665": {
        "encoding": "inplace",
        "label": "contract IVariableDebtToken",
        "numberOfBytes": "20"
      },
      "t_int256": {
        "encoding": "inplace",
        "label": "int256",
        "numberOfBytes": "32"
      },
      "t_mapping(t_address,t_bool)": {
        "encoding": "mapping",
        "key": "t_address",
        "label": "mapping(address => bool)",
        "numberOfBytes": "32",
        "value": "t_bool"
      },
      "t_mapping(t_bytes32,t_struct(RoleData)3404_storage)": {
        "encoding": "mapping",
        "key": "t_bytes32",
        "label": "mapping(bytes32 => struct AccessControlUpgradeable.RoleData)",
        "numberOfBytes": "32",
        "value": "t_struct(RoleData)3404_storage"
      },
      "t_struct(BoolParams)7422_storage": {
        "encoding": "inplace",
        "label": "struct AaveFlashloanStrategy.BoolParams",
        "members": [
          {
            "astId": 7415,
            "contract": "contracts/strategies/AaveFlashloanStrategy/AaveFlashloanStrategy.sol:AaveFlashloanStrategy",
            "label": "automaticallyComputeCollatRatio",
            "offset": 0,
            "slot": "0",
            "type": "t_bool"
          },
          {
            "astId": 7417,
            "contract": "contracts/strategies/AaveFlashloanStrategy/AaveFlashloanStrategy.sol:AaveFlashloanStrategy",
            "label": "isFlashMintActive",
            "offset": 1,
            "slot": "0",
            "type": "t_bool"
          },
          {
            "astId": 7419,
            "contract": "contracts/strategies/AaveFlashloanStrategy/AaveFlashloanStrategy.sol:AaveFlashloanStrategy",
            "label": "withdrawCheck",
            "offset": 2,
            "slot": "0",
            "type": "t_bool"
          },
          {
            "astId": 7421,
            "contract": "contracts/strategies/AaveFlashloanStrategy/AaveFlashloanStrategy.sol:AaveFlashloanStrategy",
            "label": "cooldownStkAave",
            "offset": 3,
            "slot": "0",
            "type": "t_bool"
          }
        ],
        "numberOfBytes": "32"
      },
      "t_struct(RoleData)3404_storage": {
        "encoding": "inplace",
        "label": "struct AccessControlUpgradeable.RoleData",
        "members": [
          {
            "astId": 3401,
            "contract": "contracts/strategies/AaveFlashloanStrategy/AaveFlashloanStrategy.sol:AaveFlashloanStrategy",
            "label": "members",
            "offset": 0,
            "slot": "0",
            "type": "t_mapping(t_address,t_bool)"
          },
          {
            "astId": 3403,
            "contract": "contracts/strategies/AaveFlashloanStrategy/AaveFlashloanStrategy.sol:AaveFlashloanStrategy",
            "label": "adminRole",
            "offset": 0,
            "slot": "1",
            "type": "t_bytes32"
          }
        ],
        "numberOfBytes": "64"
      },
      "t_uint256": {
        "encoding": "inplace",
        "label": "uint256",
        "numberOfBytes": "32"
      },
      "t_uint8": {
        "encoding": "inplace",
        "label": "uint8",
        "numberOfBytes": "1"
      }
    }
  }
}