{
  "address": "0x796dE0Fe0De2adA9208A3CA9870A8c512271D7C1",
  "abi": [
    {
      "anonymous": false,
      "inputs": [],
      "name": "EmergencyExitActivated",
      "type": "event"
    },
    {
      "anonymous": false,
      "inputs": [
        {
          "indexed": false,
          "internalType": "uint256",
          "name": "profit",
          "type": "uint256"
        },
        {
          "indexed": false,
          "internalType": "uint256",
          "name": "loss",
          "type": "uint256"
        },
        {
          "indexed": false,
          "internalType": "uint256",
          "name": "debtPayment",
          "type": "uint256"
        },
        {
          "indexed": false,
          "internalType": "uint256",
          "name": "debtOutstanding",
          "type": "uint256"
        }
      ],
      "name": "Harvested",
      "type": "event"
    },
    {
      "anonymous": false,
      "inputs": [
        {
          "indexed": true,
          "internalType": "bytes32",
          "name": "role",
          "type": "bytes32"
        },
        {
          "indexed": true,
          "internalType": "bytes32",
          "name": "previousAdminRole",
          "type": "bytes32"
        },
        {
          "indexed": true,
          "internalType": "bytes32",
          "name": "newAdminRole",
          "type": "bytes32"
        }
      ],
      "name": "RoleAdminChanged",
      "type": "event"
    },
    {
      "anonymous": false,
      "inputs": [
        {
          "indexed": true,
          "internalType": "bytes32",
          "name": "role",
          "type": "bytes32"
        },
        {
          "indexed": true,
          "internalType": "address",
          "name": "account",
          "type": "address"
        },
        {
          "indexed": true,
          "internalType": "address",
          "name": "sender",
          "type": "address"
        }
      ],
      "name": "RoleGranted",
      "type": "event"
    },
    {
      "anonymous": false,
      "inputs": [
        {
          "indexed": true,
          "internalType": "bytes32",
          "name": "role",
          "type": "bytes32"
        },
        {
          "indexed": true,
          "internalType": "address",
          "name": "account",
          "type": "address"
        },
        {
          "indexed": true,
          "internalType": "address",
          "name": "sender",
          "type": "address"
        }
      ],
      "name": "RoleRevoked",
      "type": "event"
    },
    {
      "anonymous": false,
      "inputs": [
        {
          "indexed": false,
          "internalType": "uint256",
          "name": "debtThreshold",
          "type": "uint256"
        }
      ],
      "name": "UpdatedDebtThreshold",
      "type": "event"
    },
    {
      "anonymous": false,
      "inputs": [
        {
          "indexed": false,
          "internalType": "bool",
          "name": "activated",
          "type": "bool"
        }
      ],
      "name": "UpdatedIsRewardActivated",
      "type": "event"
    },
    {
      "anonymous": false,
      "inputs": [
        {
          "indexed": false,
          "internalType": "uint256",
          "name": "delay",
          "type": "uint256"
        }
      ],
      "name": "UpdatedMaxReportDelayed",
      "type": "event"
    },
    {
      "anonymous": false,
      "inputs": [
        {
          "indexed": false,
          "internalType": "uint256",
          "name": "delay",
          "type": "uint256"
        }
      ],
      "name": "UpdatedMinReportDelayed",
      "type": "event"
    },
    {
      "anonymous": false,
      "inputs": [
        {
          "indexed": false,
          "internalType": "uint256",
          "name": "_rewardAmount",
          "type": "uint256"
        },
        {
          "indexed": false,
          "internalType": "uint256",
          "name": "_minimumAmountMoved",
          "type": "uint256"
        }
      ],
      "name": "UpdatedRewardAmountAndMinimumAmountMoved",
      "type": "event"
    },
    {
      "anonymous": false,
      "inputs": [
        {
          "indexed": false,
          "internalType": "address",
          "name": "rewards",
          "type": "address"
        }
      ],
      "name": "UpdatedRewards",
      "type": "event"
    },
    {
      "inputs": [],
      "name": "BASE",
      "outputs": [
        {
          "internalType": "uint256",
          "name": "",
          "type": "uint256"
        }
      ],
      "stateMutability": "view",
      "type": "function"
    },
    {
      "inputs": [],
      "name": "DEFAULT_ADMIN_ROLE",
      "outputs": [
        {
          "internalType": "bytes32",
          "name": "",
          "type": "bytes32"
        }
      ],
      "stateMutability": "view",
      "type": "function"
    },
    {
      "inputs": [],
      "name": "GUARDIAN_ROLE",
      "outputs": [
        {
          "internalType": "bytes32",
          "name": "",
          "type": "bytes32"
        }
      ],
      "stateMutability": "view",
      "type": "function"
    },
    {
      "inputs": [],
      "name": "KEEPER_ROLE",
      "outputs": [
        {
          "internalType": "bytes32",
          "name": "",
          "type": "bytes32"
        }
      ],
      "stateMutability": "view",
      "type": "function"
    },
    {
      "inputs": [],
      "name": "POOLMANAGER_ROLE",
      "outputs": [
        {
          "internalType": "bytes32",
          "name": "",
          "type": "bytes32"
        }
      ],
      "stateMutability": "view",
      "type": "function"
    },
    {
      "inputs": [],
      "name": "SECONDSPERYEAR",
      "outputs": [
        {
          "internalType": "uint256",
          "name": "",
          "type": "uint256"
        }
      ],
      "stateMutability": "view",
      "type": "function"
    },
    {
      "inputs": [
        {
          "internalType": "address",
          "name": "_guardian",
          "type": "address"
        }
      ],
      "name": "addGuardian",
      "outputs": [],
      "stateMutability": "nonpayable",
      "type": "function"
    },
    {
      "inputs": [],
      "name": "boolParams",
      "outputs": [
        {
          "internalType": "bool",
          "name": "automaticallyComputeCollatRatio",
          "type": "bool"
        },
        {
          "internalType": "bool",
          "name": "isFlashMintActive",
          "type": "bool"
        },
        {
          "internalType": "bool",
          "name": "withdrawCheck",
          "type": "bool"
        },
        {
          "internalType": "bool",
          "name": "cooldownStkAave",
          "type": "bool"
        }
      ],
      "stateMutability": "view",
      "type": "function"
    },
    {
      "inputs": [],
      "name": "claimRewards",
      "outputs": [],
      "stateMutability": "nonpayable",
      "type": "function"
    },
    {
      "inputs": [],
      "name": "cooldownSeconds",
      "outputs": [
        {
          "internalType": "uint256",
          "name": "",
          "type": "uint256"
        }
      ],
      "stateMutability": "view",
      "type": "function"
    },
    {
      "inputs": [],
      "name": "daiBorrowCollatRatio",
      "outputs": [
        {
          "internalType": "uint256",
          "name": "",
          "type": "uint256"
        }
      ],
      "stateMutability": "view",
      "type": "function"
    },
    {
      "inputs": [],
      "name": "debtThreshold",
      "outputs": [
        {
          "internalType": "uint256",
          "name": "",
          "type": "uint256"
        }
      ],
      "stateMutability": "view",
      "type": "function"
    },
    {
      "inputs": [],
      "name": "discountFactor",
      "outputs": [
        {
          "internalType": "uint256",
          "name": "",
          "type": "uint256"
        }
      ],
      "stateMutability": "view",
      "type": "function"
    },
    {
      "inputs": [],
      "name": "emergencyExit",
      "outputs": [
        {
          "internalType": "bool",
          "name": "",
          "type": "bool"
        }
      ],
      "stateMutability": "view",
      "type": "function"
    },
    {
      "inputs": [],
      "name": "estimatedAPR",
      "outputs": [
        {
          "internalType": "uint256",
          "name": "",
          "type": "uint256"
        }
      ],
      "stateMutability": "view",
      "type": "function"
    },
    {
      "inputs": [],
      "name": "estimatedTotalAssets",
      "outputs": [
        {
          "internalType": "uint256",
          "name": "",
          "type": "uint256"
        }
      ],
      "stateMutability": "view",
      "type": "function"
    },
    {
      "inputs": [],
      "name": "getCurrentPosition",
      "outputs": [
        {
          "internalType": "uint256",
          "name": "deposits",
          "type": "uint256"
        },
        {
          "internalType": "uint256",
          "name": "borrows",
          "type": "uint256"
        }
      ],
      "stateMutability": "view",
      "type": "function"
    },
    {
      "inputs": [
        {
          "internalType": "bytes32",
          "name": "role",
          "type": "bytes32"
        }
      ],
      "name": "getRoleAdmin",
      "outputs": [
        {
          "internalType": "bytes32",
          "name": "",
          "type": "bytes32"
        }
      ],
      "stateMutability": "view",
      "type": "function"
    },
    {
      "inputs": [
        {
          "internalType": "bytes32",
          "name": "role",
          "type": "bytes32"
        },
        {
          "internalType": "address",
          "name": "account",
          "type": "address"
        }
      ],
      "name": "grantRole",
      "outputs": [],
      "stateMutability": "nonpayable",
      "type": "function"
    },
    {
      "inputs": [],
      "name": "harvest",
      "outputs": [],
      "stateMutability": "nonpayable",
      "type": "function"
    },
    {
      "inputs": [
        {
          "internalType": "uint256",
          "name": "borrowInit",
          "type": "uint256"
        }
      ],
      "name": "harvest",
      "outputs": [],
      "stateMutability": "nonpayable",
      "type": "function"
    },
    {
      "inputs": [
        {
          "internalType": "bytes32",
          "name": "role",
          "type": "bytes32"
        },
        {
          "internalType": "address",
          "name": "account",
          "type": "address"
        }
      ],
      "name": "hasRole",
      "outputs": [
        {
          "internalType": "bool",
          "name": "",
          "type": "bool"
        }
      ],
      "stateMutability": "view",
      "type": "function"
    },
    {
      "inputs": [
        {
          "internalType": "address",
          "name": "_poolManager",
          "type": "address"
        },
        {
          "internalType": "contract IReserveInterestRateStrategy",
          "name": "interestRateStrategyAddress_",
          "type": "address"
        },
        {
          "internalType": "address",
          "name": "governor",
          "type": "address"
        },
        {
          "internalType": "address",
          "name": "guardian",
          "type": "address"
        },
        {
          "internalType": "address[]",
          "name": "keepers",
          "type": "address[]"
        }
      ],
      "name": "initialize",
      "outputs": [],
      "stateMutability": "nonpayable",
      "type": "function"
    },
    {
      "inputs": [],
      "name": "isActive",
      "outputs": [
        {
          "internalType": "bool",
          "name": "",
          "type": "bool"
        }
      ],
      "stateMutability": "view",
      "type": "function"
    },
    {
      "inputs": [
        {
          "internalType": "uint256",
          "name": "amount",
          "type": "uint256"
        }
      ],
      "name": "manualDeleverage",
      "outputs": [],
      "stateMutability": "nonpayable",
      "type": "function"
    },
    {
      "inputs": [
        {
          "internalType": "uint256",
          "name": "amount",
          "type": "uint256"
        }
      ],
      "name": "manualReleaseWant",
      "outputs": [],
      "stateMutability": "nonpayable",
      "type": "function"
    },
    {
      "inputs": [],
      "name": "maxBorrowCollatRatio",
      "outputs": [
        {
          "internalType": "uint256",
          "name": "",
          "type": "uint256"
        }
      ],
      "stateMutability": "view",
      "type": "function"
    },
    {
      "inputs": [],
      "name": "maxCollatRatio",
      "outputs": [
        {
          "internalType": "uint256",
          "name": "",
          "type": "uint256"
        }
      ],
      "stateMutability": "view",
      "type": "function"
    },
    {
      "inputs": [],
      "name": "maxIterations",
      "outputs": [
        {
          "internalType": "uint8",
          "name": "",
          "type": "uint8"
        }
      ],
      "stateMutability": "view",
      "type": "function"
    },
    {
      "inputs": [],
      "name": "minRatio",
      "outputs": [
        {
          "internalType": "uint256",
          "name": "",
          "type": "uint256"
        }
      ],
      "stateMutability": "view",
      "type": "function"
    },
    {
      "inputs": [],
      "name": "minWant",
      "outputs": [
        {
          "internalType": "uint256",
          "name": "",
          "type": "uint256"
        }
      ],
      "stateMutability": "view",
      "type": "function"
    },
    {
      "inputs": [
        {
          "internalType": "address",
          "name": "initiator",
          "type": "address"
        },
        {
          "internalType": "address",
          "name": "",
          "type": "address"
        },
        {
          "internalType": "uint256",
          "name": "amount",
          "type": "uint256"
        },
        {
          "internalType": "uint256",
          "name": "",
          "type": "uint256"
        },
        {
          "internalType": "bytes",
          "name": "data",
          "type": "bytes"
        }
      ],
      "name": "onFlashLoan",
      "outputs": [
        {
          "internalType": "bytes32",
          "name": "",
          "type": "bytes32"
        }
      ],
      "stateMutability": "nonpayable",
      "type": "function"
    },
    {
      "inputs": [],
      "name": "poolManager",
      "outputs": [
        {
          "internalType": "contract IPoolManager",
          "name": "",
          "type": "address"
        }
      ],
      "stateMutability": "view",
      "type": "function"
    },
    {
      "inputs": [],
      "name": "r0",
      "outputs": [
        {
          "internalType": "int256",
          "name": "",
          "type": "int256"
        }
      ],
      "stateMutability": "view",
      "type": "function"
    },
    {
      "inputs": [
        {
          "internalType": "bytes32",
          "name": "role",
          "type": "bytes32"
        },
        {
          "internalType": "address",
          "name": "account",
          "type": "address"
        }
      ],
      "name": "renounceRole",
      "outputs": [],
      "stateMutability": "nonpayable",
      "type": "function"
    },
    {
      "inputs": [],
      "name": "reserveFactor",
      "outputs": [
        {
          "internalType": "int256",
          "name": "",
          "type": "int256"
        }
      ],
      "stateMutability": "view",
      "type": "function"
    },
    {
      "inputs": [
        {
          "internalType": "address",
          "name": "guardian",
          "type": "address"
        }
      ],
      "name": "revokeGuardian",
      "outputs": [],
      "stateMutability": "nonpayable",
      "type": "function"
    },
    {
      "inputs": [
        {
          "internalType": "bytes32",
          "name": "role",
          "type": "bytes32"
        },
        {
          "internalType": "address",
          "name": "account",
          "type": "address"
        }
      ],
      "name": "revokeRole",
      "outputs": [],
      "stateMutability": "nonpayable",
      "type": "function"
    },
    {
      "inputs": [
        {
          "internalType": "uint256",
          "name": "minAmountOut",
          "type": "uint256"
        },
        {
          "internalType": "bytes",
          "name": "payload",
          "type": "bytes"
        }
      ],
      "name": "sellRewards",
      "outputs": [],
      "stateMutability": "nonpayable",
      "type": "function"
    },
    {
      "inputs": [],
      "name": "setAavePoolVariables",
      "outputs": [],
      "stateMutability": "nonpayable",
      "type": "function"
    },
    {
      "inputs": [
        {
          "components": [
            {
              "internalType": "bool",
              "name": "automaticallyComputeCollatRatio",
              "type": "bool"
            },
            {
              "internalType": "bool",
              "name": "isFlashMintActive",
              "type": "bool"
            },
            {
              "internalType": "bool",
              "name": "withdrawCheck",
              "type": "bool"
            },
            {
              "internalType": "bool",
              "name": "cooldownStkAave",
              "type": "bool"
            }
          ],
          "internalType": "struct AaveFlashloanStrategy.BoolParams",
          "name": "_boolParams",
          "type": "tuple"
        }
      ],
      "name": "setBoolParams",
      "outputs": [],
      "stateMutability": "nonpayable",
      "type": "function"
    },
    {
      "inputs": [
        {
          "internalType": "uint256",
          "name": "_targetCollatRatio",
          "type": "uint256"
        },
        {
          "internalType": "uint256",
          "name": "_maxCollatRatio",
          "type": "uint256"
        },
        {
          "internalType": "uint256",
          "name": "_maxBorrowCollatRatio",
          "type": "uint256"
        },
        {
          "internalType": "uint256",
          "name": "_daiBorrowCollatRatio",
          "type": "uint256"
        }
      ],
      "name": "setCollateralTargets",
      "outputs": [],
      "stateMutability": "nonpayable",
      "type": "function"
    },
    {
      "inputs": [
        {
          "internalType": "uint256",
          "name": "_debtThreshold",
          "type": "uint256"
        }
      ],
      "name": "setDebtThreshold",
      "outputs": [],
      "stateMutability": "nonpayable",
      "type": "function"
    },
    {
      "inputs": [
        {
          "internalType": "uint256",
          "name": "_discountFactor",
          "type": "uint256"
        }
      ],
      "name": "setDiscountFactor",
      "outputs": [],
      "stateMutability": "nonpayable",
      "type": "function"
    },
    {
      "inputs": [],
      "name": "setEmergencyExit",
      "outputs": [],
      "stateMutability": "nonpayable",
      "type": "function"
    },
    {
      "inputs": [
        {
          "internalType": "uint256",
          "name": "_minWant",
          "type": "uint256"
        },
        {
          "internalType": "uint256",
          "name": "_minRatio",
          "type": "uint256"
        },
        {
          "internalType": "uint8",
          "name": "_maxIterations",
          "type": "uint8"
        }
      ],
      "name": "setMinsAndMaxs",
      "outputs": [],
      "stateMutability": "nonpayable",
      "type": "function"
    },
    {
      "inputs": [],
      "name": "slope1",
      "outputs": [
        {
          "internalType": "int256",
          "name": "",
          "type": "int256"
        }
      ],
      "stateMutability": "view",
      "type": "function"
    },
    {
      "inputs": [],
      "name": "slope2",
      "outputs": [
        {
          "internalType": "int256",
          "name": "",
          "type": "int256"
        }
      ],
      "stateMutability": "view",
      "type": "function"
    },
    {
      "inputs": [
        {
          "internalType": "address",
          "name": "_token",
          "type": "address"
        },
        {
          "internalType": "address",
          "name": "to",
          "type": "address"
        }
      ],
      "name": "sweep",
      "outputs": [],
      "stateMutability": "nonpayable",
      "type": "function"
    },
    {
      "inputs": [],
      "name": "targetCollatRatio",
      "outputs": [
        {
          "internalType": "uint256",
          "name": "",
          "type": "uint256"
        }
      ],
      "stateMutability": "view",
      "type": "function"
    },
    {
      "inputs": [],
      "name": "uOptimal",
      "outputs": [
        {
          "internalType": "int256",
          "name": "",
          "type": "int256"
        }
      ],
      "stateMutability": "view",
      "type": "function"
    },
    {
      "inputs": [],
      "name": "unstakeWindow",
      "outputs": [
        {
          "internalType": "uint256",
          "name": "",
          "type": "uint256"
        }
      ],
      "stateMutability": "view",
      "type": "function"
    },
    {
      "inputs": [],
      "name": "want",
      "outputs": [
        {
          "internalType": "contract IERC20",
          "name": "",
          "type": "address"
        }
      ],
      "stateMutability": "view",
      "type": "function"
    },
    {
      "inputs": [],
      "name": "wantBase",
      "outputs": [
        {
          "internalType": "uint256",
          "name": "",
          "type": "uint256"
        }
      ],
      "stateMutability": "view",
      "type": "function"
    },
    {
      "inputs": [
        {
          "internalType": "uint256",
          "name": "_amountNeeded",
          "type": "uint256"
        }
      ],
      "name": "withdraw",
      "outputs": [
        {
          "internalType": "uint256",
          "name": "amountFreed",
          "type": "uint256"
        },
        {
          "internalType": "uint256",
          "name": "_loss",
          "type": "uint256"
        }
      ],
      "stateMutability": "nonpayable",
      "type": "function"
    }
  ],
  "transactionHash": "0x0a2808ca04cfbb06630c491cd29c6fa1f5f86cb4feed8795aaadbea28b59008f",
  "args": [],
  "numDeployments": 1,
  "solcInputHash": "86501938685860d1d6f1fd864874f17f",
  "bytecode": "0x60806040523480156200001157600080fd5b50600054610100900460ff166200002f5760005460ff161562000039565b62000039620000de565b620000a15760405162461bcd60e51b815260206004820152602e60248201527f496e697469616c697a61626c653a20636f6e747261637420697320616c72656160448201526d191e481a5b9a5d1a585b1a5e995960921b606482015260840160405180910390fd5b600054610100900460ff16158015620000c4576000805461ffff19166101011790555b8015620000d7576000805461ff00191690555b506200010b565b6000620000f630620000fc60201b62001c6a1760201c565b15905090565b6001600160a01b03163b151590565b615fc8806200011b6000396000f3fe608060405234801561001057600080fd5b506004361061036d5760003560e01c80634c3f425f116101d3578063abac6e1111610104578063d94fa4af116100a2578063ec342ad01161007c578063ec342ad01461072b578063efbb5cb01461073a578063f8453e7c14610742578063fcf2d0ad1461075557600080fd5b8063d94fa4af146106fc578063dc4c90d314610705578063ddc632621461071857600080fd5b8063b8221bc4116100de578063b8221bc4146106c4578063b8dc491b146106cd578063d0134cb7146106e0578063d547741f146106e957600080fd5b8063abac6e1114610693578063af306e16146106a6578063af648c3d146106b157600080fd5b80638e5b14b011610171578063a34a42231161014b578063a34a42231461065b578063a526d83b1461066e578063a62b75a814610681578063a8f9c0d81461068a57600080fd5b80638e5b14b01461063757806391d1485414610640578063a217fddf1461065357600080fd5b80635e4a1e01116101ad5780635e4a1e01146106135780636314e8841461061c578063659621b51461062557806386d8745b1461062e57600080fd5b80634c3f425f146105f65780635641ec03146105fe5780635a5cd45e1461060b57600080fd5b80632e1a7d4d116102ad578063372500ab1161024b578063418f35cc11610225578063418f35cc146105d45780634322b714146105dc5780634641257d146105e55780634c32e270146105ed57600080fd5b8063372500ab1461059a578063387f504a146105a2578063396794cd146105c157600080fd5b80633042087c116102875780633042087c146104fa578063364bc15a1461050d57806336568abe14610534578063368a9d6d1461054757600080fd5b80632e1a7d4d146104b65780632e4debb3146104de5780632f2ff15d146104e757600080fd5b80631f1fcd511161031a57806323cf978f116102f457806323cf978f1461044557806323e30c8b14610458578063248a9ca31461046b57806324ea54f41461048f57600080fd5b80631f1fcd51146103f9578063205409d31461042457806322f3e2d41461042d57600080fd5b80630c016dc01161034b5780630c016dc0146103b65780630f969b87146103dd5780631d12f28b146103f057600080fd5b806305b4193414610372578063060ca2ba146103875780630b6d1d171461039a575b600080fd5b61038561038036600461574e565b61075d565b005b61038561039536600461581b565b610881565b6103a360355481565b6040519081526020015b60405180910390f35b6103a37f5916f72c85af4ac6f7e34636ecc97619c4b2085da099a5d28f3e58436cfbe56281565b6103856103eb366004615616565b61097f565b6103a360365481565b60345461040c906001600160a01b031681565b6040516001600160a01b0390911681526020016103ad565b6103a360435481565b6104356109e6565b60405190151581526020016103ad565b610385610453366004615616565b6109f7565b6103a361046636600461541d565b610a79565b6103a3610479366004615616565b6000908152600160208190526040909120015490565b6103a37f55435dd261a4b9b3364963f7738a7a662ad9c84396d64be3365284bb7f0a504181565b6104c96104c4366004615616565b610bd1565b604080519283526020830191909152016103ad565b6103a3603e5481565b6103856104f5366004615648565b610c2a565b610385610508366004615616565b610c56565b6103a37ffc8737ab85eb45125971625a9ebdb75cc78e01d5c1fa80c4c6e5203f47bc4fab81565b610385610542366004615648565b610c94565b6047546105709060ff808216916101008104821691620100008204811691630100000090041684565b604080519415158552921515602085015290151591830191909152151560608201526080016103ad565b610385610cfa565b6046546105af9060ff1681565b60405160ff90911681526020016103ad565b6103856105cf366004615616565b610d2d565b6104c9610d61565b6103a3603a5481565b610385610d7c565b6103a360405481565b610385610d8e565b6037546104359060ff1681565b6103a3610d96565b6103a360455481565b6103a360395481565b6103a3603d5481565b6103a360445481565b6103a360415481565b61043561064e366004615648565b611310565b6103a3600081565b61038561066936600461566d565b61133d565b61038561067c36600461535d565b611404565b6103a3603b5481565b6103a3603f5481565b6103856106a136600461596a565b611459565b6103a36301e1855881565b6103856106bf36600461535d565b611512565b6103a360385481565b6103856106db366004615397565b611567565b6103a3603c5481565b6103856106f7366004615648565b611720565b6103a360425481565b60335461040c906001600160a01b031681565b610385610726366004615616565b611747565b6103a3670de0b6b3a764000081565b6103a3611783565b6103856107503660046154c7565b611880565b610385611c06565b7ffc8737ab85eb45125971625a9ebdb75cc78e01d5c1fa80c4c6e5203f47bc4fab6107888133611c79565b600080731111111254fb6c44bac0bed2854e76f90643097d6001600160a01b0316846040516107b79190615a3e565b6000604051808303816000865af19150503d80600081146107f4576040519150601f19603f3d011682016040523d82523d6000602084013e6107f9565b606091505b50915091508161080c5761080c81611cdd565b600081806020019051810190610822919061562f565b9050858110156108795760405162461bcd60e51b815260206004820152600260248201527f313500000000000000000000000000000000000000000000000000000000000060448201526064015b60405180910390fd5b505050505050565b7f55435dd261a4b9b3364963f7738a7a662ad9c84396d64be3365284bb7f0a50416108ac8133611c79565b60345460009081906108c6906001600160a01b0316611d34565b9150915060006108e9736b175474e89094c44da98b954eedeac495271d0f611d34565b50905081881080156108fa57508187105b801561090557508688105b801561091057508286105b801561091b57508085105b6109675760405162461bcd60e51b815260206004820152600160248201527f38000000000000000000000000000000000000000000000000000000000000006044820152606401610870565b505050604094909455604192909255603f5560425550565b7f55435dd261a4b9b3364963f7738a7a662ad9c84396d64be3365284bb7f0a50416109aa8133611c79565b60368290556040518281527fa68ba126373d04c004c5748c300c9fca12bd444b3d4332e261f3bd2bac4a86009060200160405180910390a15050565b6000806109f1611783565b11905090565b7f55435dd261a4b9b3364963f7738a7a662ad9c84396d64be3365284bb7f0a5041610a228133611c79565b6127108210610a735760405162461bcd60e51b815260206004820152600160248201527f34000000000000000000000000000000000000000000000000000000000000006044820152606401610870565b50604555565b600033731eb4cf3a948e7d72a198fe073ccb8c7a948cd853148015610aa657506001600160a01b03871630145b610af25760405162461bcd60e51b815260206004820152600160248201527f31000000000000000000000000000000000000000000000000000000000000006044820152606401610870565b600080610b01848601866155ea565b6034546040517fbf04d6e8000000000000000000000000000000000000000000000000000000008152831515600482015260248101839052604481018b90526001600160a01b039091166064820152919350915073169487a55dE79476125A56B07C36cA8dbF37a3739063bf04d6e89060840160206040518083038186803b158015610b8c57600080fd5b505af4158015610ba0573d6000803e3d6000fd5b505050506040513d601f19601f82011682018060405250810190610bc4919061562f565b9998505050505050505050565b6000807f5916f72c85af4ac6f7e34636ecc97619c4b2085da099a5d28f3e58436cfbe562610bff8133611c79565b610c0884611e19565b6034549194509250610c24906001600160a01b03163385611e49565b50915091565b60008281526001602081905260409091200154610c478133611c79565b610c518383611ef2565b505050565b7f55435dd261a4b9b3364963f7738a7a662ad9c84396d64be3365284bb7f0a5041610c818133611c79565b610c8a82611f5d565b50610c518261202a565b6001600160a01b0381163314610cec5760405162461bcd60e51b815260206004820152600260248201527f37310000000000000000000000000000000000000000000000000000000000006044820152606401610870565b610cf682826120f7565b5050565b7ffc8737ab85eb45125971625a9ebdb75cc78e01d5c1fa80c4c6e5203f47bc4fab610d258133611c79565b610cf661215e565b7f55435dd261a4b9b3364963f7738a7a662ad9c84396d64be3365284bb7f0a5041610d588133611c79565b610c5182611f5d565b600080610d6c6123d2565b9150610d76612454565b90509091565b610d84612485565b610d8c612651565b565b610d8c61265c565b6034546040517f35ea6a750000000000000000000000000000000000000000000000000000000081526001600160a01b03909116600482015260009081908190819073057835ad21a177dbdd3090bb1cae03eacf78fc6d906335ea6a75906024016101406040518083038186803b158015610e1057600080fd5b505afa158015610e24573d6000803e3d6000fd5b505050506040513d601f19601f82011682018060405250810190610e4891906158f4565b505050505094509450945050506000610e5f612454565b610e676123d2565b610e6f612a70565b610e799190615bf4565b610e839190615e53565b9050801580610e90575083155b80610f1e5750604860009054906101000a90046001600160a01b03166001600160a01b03166318160ddd6040518163ffffffff1660e01b815260040160206040518083038186803b158015610ee457600080fd5b505afa158015610ef8573d6000803e3d6000fd5b505050506040513d601f19601f82011682018060405250810190610f1c919061562f565b155b15610f2e57600094505050505090565b600080610f39610d61565b915091506000806000610f53670de0b6b3a7640000612aa1565b90506000604860009054906101000a90046001600160a01b03166001600160a01b03166375d264136040518163ffffffff1660e01b815260040160206040518083038186803b158015610fa557600080fd5b505afa158015610fb9573d6000803e3d6000fd5b505050506040513d601f19601f82011682018060405250810190610fdd919061537a565b604854604051631e23703160e31b81526001600160a01b03918216600482015291169063f11b81889060240160606040518083038186803b15801561102157600080fd5b505afa158015611035573d6000803e3d6000fd5b505050506040513d601f19601f8201168201806040525081019061105991906157ed565b505090506000604960009054906101000a90046001600160a01b03166001600160a01b03166375d264136040518163ffffffff1660e01b815260040160206040518083038186803b1580156110ad57600080fd5b505afa1580156110c1573d6000803e3d6000fd5b505050506040513d601f19601f820116820180604052508101906110e5919061537a565b604954604051631e23703160e31b81526001600160a01b03918216600482015291169063f11b81889060240160606040518083038186803b15801561112957600080fd5b505afa15801561113d573d6000803e3d6000fd5b505050506040513d601f19601f8201168201806040525081019061116191906157ed565b50509050600082603c6111749190615ddc565b61117f90603c615ddc565b61118a906018615ddc565b6111969061016d615ddc565b905060006111a583603c615ddc565b6111b090603c615ddc565b6111bb906018615ddc565b6111c79061016d615ddc565b9050604860009054906101000a90046001600160a01b03166001600160a01b03166318160ddd6040518163ffffffff1660e01b815260040160206040518083038186803b15801561121757600080fd5b505afa15801561122b573d6000803e3d6000fd5b505050506040513d601f19601f8201168201806040525081019061124f919061562f565b8561125a848c615ddc565b6112649190615ddc565b61127290633b9aca00615ddc565b61127c9190615c3a565b96508c8561128a838b615ddc565b6112949190615ddc565b6112a290633b9aca00615ddc565b6112ac9190615c3a565b95505050505050633b9aca008584886112c59190615ddc565b83856112d1898d615ddc565b6112db9190615bf4565b6112e59190615bf4565b6112ef9190615e53565b6112f99190615c3a565b6113039190615c3a565b9850505050505050505090565b60008281526001602090815260408083206001600160a01b038516845290915290205460ff165b92915050565b7f55435dd261a4b9b3364963f7738a7a662ad9c84396d64be3365284bb7f0a50416113688133611c79565b508051604780546020840151604085015160609095015161ffff1990921693151561ff0019169390931761010093151593909302929092177fffffffffffffffffffffffffffffffffffffffffffffffffffffffff0000ffff1662010000931515939093027fffffffffffffffffffffffffffffffffffffffffffffffffffffffff00ffffff1692909217630100000091151591909102179055565b7f5916f72c85af4ac6f7e34636ecc97619c4b2085da099a5d28f3e58436cfbe56261142f8133611c79565b610cf67f55435dd261a4b9b3364963f7738a7a662ad9c84396d64be3365284bb7f0a504183611ef2565b7f55435dd261a4b9b3364963f7738a7a662ad9c84396d64be3365284bb7f0a50416114848133611c79565b603f5483108015611498575060008260ff16115b80156114a7575060108260ff16105b6114f35760405162461bcd60e51b815260206004820152600160248201527f38000000000000000000000000000000000000000000000000000000000000006044820152606401610870565b506043929092556044556046805460ff191660ff909216919091179055565b7f5916f72c85af4ac6f7e34636ecc97619c4b2085da099a5d28f3e58436cfbe56261153d8133611c79565b610cf67f55435dd261a4b9b3364963f7738a7a662ad9c84396d64be3365284bb7f0a5041836120f7565b7f55435dd261a4b9b3364963f7738a7a662ad9c84396d64be3365284bb7f0a50416115928133611c79565b6034546001600160a01b03848116911614156115f05760405162461bcd60e51b815260206004820152600260248201527f39330000000000000000000000000000000000000000000000000000000000006044820152606401610870565b606060005b815181101561168b5781818151811061161057611610615f31565b60200260200101516001600160a01b0316856001600160a01b031614156116795760405162461bcd60e51b815260206004820152600260248201527f39330000000000000000000000000000000000000000000000000000000000006044820152606401610870565b8061168381615ead565b9150506115f5565b506040516370a0823160e01b815230600482015261171a9084906001600160a01b038716906370a082319060240160206040518083038186803b1580156116d157600080fd5b505afa1580156116e5573d6000803e3d6000fd5b505050506040513d601f19601f82011682018060405250810190611709919061562f565b6001600160a01b0387169190611e49565b50505050565b6000828152600160208190526040909120015461173d8133611c79565b610c5183836120f7565b7ffc8737ab85eb45125971625a9ebdb75cc78e01d5c1fa80c4c6e5203f47bc4fab6117728133611c79565b61177a612485565b610cf682612b74565b6000806000611790610d61565b909250905061185173d784927ff2f95ba542bfc824c8a8a98f3495f6b5638b599f266117ba612d57565b306040518363ffffffff1660e01b81526004016117d8929190615adb565b60206040518083038186803b1580156117f057600080fd5b505afa158015611804573d6000803e3d6000fd5b505050506040513d601f19601f82011682018060405250810190611828919061562f565b611830612deb565b611838612e25565b6118429190615bf4565b61184c9190615bf4565b612aa1565b818361185b612a70565b6118659190615bf4565b61186f9190615e53565b6118799190615bf4565b9250505090565b61188c85848484612e5f565b60468054600660ff1990911617905560646043556611c37937e080006044556123286045556040805160808101825260018082526020820181905260009282019290925260600152604780547fffffffffffffffffffffffffffffffffffffffffffffffffffffffff00000000166301000101179055603780547fffffffffffffffffffffff0000000000000000000000000000000000000000ff166101006001600160a01b0387160217905561194161265c565b6034546040517fd2493b6c0000000000000000000000000000000000000000000000000000000081526001600160a01b039091166004820152600090819073057835ad21a177dbdd3090bb1cae03eacf78fc6d9063d2493b6c9060240160606040518083038186803b1580156119b657600080fd5b505afa1580156119ca573d6000803e3d6000fd5b505050506040513d601f19601f820116820180604052508101906119ee91906153d0565b604880546001600160a01b038086167fffffffffffffffffffffffff000000000000000000000000000000000000000092831617909255604980548385169216919091179055603454939550909350600092839250611a4d9116611d34565b9092509050611a6366470de4df82000082615e53565b604055611a776611c37937e0800082615e53565b604155611a8b6611c37937e0800083615e53565b603f556000611aad736b175474e89094c44da98b954eedeac495271d0f611d34565b509050611ac16611c37937e0800082615e53565b604255603454611aee906001600160a01b0316737d2768de32b0b80b7a3454c06bdac94a69ddc7a9613397565b611b0c85737d2768de32b0b80b7a3454c06bdac94a69ddc7a9613397565b611b3e736b175474e89094c44da98b954eedeac495271d0f731eb4cf3a948e7d72a198fe073ccb8c7a948cd853613397565b611b70734da27a545c0c5b758a6ba100e3a049001de870f5731111111254fb6c44bac0bed2854e76f90643097d613397565b611ba2737fc66500c84a76ad7e9c93437bfc5ac33e2ddae9731111111254fb6c44bac0bed2854e76f90643097d613397565b6034546001600160a01b0316736b175474e89094c44da98b954eedeac495271d0f14611bfa57611bfa736b175474e89094c44da98b954eedeac495271d0f737d2768de32b0b80b7a3454c06bdac94a69ddc7a9613397565b50505050505050505050565b7f5916f72c85af4ac6f7e34636ecc97619c4b2085da099a5d28f3e58436cfbe562611c318133611c79565b6037805460ff191660011790556040517f17fa25a1c2ac074f71f0cf4f6af525c06fab7d83eff5ffcf6df5277f2919ae2490600090a150565b6001600160a01b03163b151590565b611c838282611310565b610cf657611c9b816001600160a01b031660146133ad565b611ca68360206133ad565b604051602001611cb7929190615a5a565b60408051601f198184030181529082905262461bcd60e51b825261087091600401615b38565b805115611cec57805181602001fd5b60405162461bcd60e51b815260206004820152600360248201527f31313700000000000000000000000000000000000000000000000000000000006044820152606401610870565b6040517f3e1501410000000000000000000000000000000000000000000000000000000081526001600160a01b0382166004820152600090819073057835ad21a177dbdd3090bb1cae03eacf78fc6d90633e150141906024016101406040518083038186803b158015611da657600080fd5b505afa158015611dba573d6000803e3d6000fd5b505050506040513d601f19601f82011682018060405250810190611dde919061584d565b50969950949750611e009650655af3107a40009550889450615ddc9350505050565b9150611e12655af3107a400082615ddc565b9050915091565b600080600080611e27610d61565b91509150611e3e85611e37612a70565b84846135d6565b935093505050915091565b6040516001600160a01b038316602482015260448101829052610c519084907fa9059cbb00000000000000000000000000000000000000000000000000000000906064015b60408051601f198184030181529190526020810180517bffffffffffffffffffffffffffffffffffffffffffffffffffffffff167fffffffff00000000000000000000000000000000000000000000000000000000909316929092179091526136b4565b611efc8282611310565b610cf65760008281526001602081815260408084206001600160a01b0386168086529252808420805460ff19169093179092559051339285917f2f8788117e7eff1d82e926ec794901d17c78024a50270940304540a733656f0d9190a45050565b600081611f6c57506000919050565b6034546040517f69328dec0000000000000000000000000000000000000000000000000000000081526001600160a01b03909116600482015260248101839052306044820152737d2768de32b0b80b7a3454c06bdac94a69ddc7a9906369328dec90606401602060405180830381600087803b158015611feb57600080fd5b505af1158015611fff573d6000803e3d6000fd5b505050506040513d601f19601f82011682018060405250810190612023919061562f565b5090919050565b60008161203957506000919050565b6034546040517f573ade810000000000000000000000000000000000000000000000000000000081526001600160a01b0390911660048201526024810183905260026044820152306064820152737d2768de32b0b80b7a3454c06bdac94a69ddc7a99063573ade8190608401602060405180830381600087803b1580156120bf57600080fd5b505af11580156120d3573d6000803e3d6000fd5b505050506040513d601f19601f82011682018060405250810190611337919061562f565b6121018282611310565b15610cf65760008281526001602090815260408083206001600160a01b0385168085529252808320805460ff1916905551339285917ff6391f5c32d9c69d2a47ea670b442974b53935d1edc7fd64eb21e047a839171b9190a45050565b6000612168612e25565b90506000811561217d5761217a613799565b90505b60008211801561218d5750806001145b1561229c576040517f9a99b4f00000000000000000000000000000000000000000000000000000000081523060048201526000196024820152734da27a545c0c5b758a6ba100e3a049001de870f590639a99b4f090604401600060405180830381600087803b1580156121ff57600080fd5b505af1158015612213573d6000803e3d6000fd5b50506040517f1e9a695000000000000000000000000000000000000000000000000000000000815230600482015260248101859052734da27a545c0c5b758a6ba100e3a049001de870f59250631e9a69509150604401600060405180830381600087803b15801561228357600080fd5b505af1158015612297573d6000803e3d6000fd5b505050505b73d784927ff2f95ba542bfc824c8a8a98f3495f6b5633111e7b36122be612d57565b600019306040518463ffffffff1660e01b81526004016122e093929190615b06565b602060405180830381600087803b1580156122fa57600080fd5b505af115801561230e573d6000803e3d6000fd5b505050506040513d601f19601f82011682018060405250810190612332919061562f565b5061233b612e25565b6047549092506301000000900460ff1680156123575750600082115b8015612361575080155b156123ce57734da27a545c0c5b758a6ba100e3a049001de870f56001600160a01b031663787a08a66040518163ffffffff1660e01b8152600401600060405180830381600087803b1580156123b557600080fd5b505af11580156123c9573d6000803e3d6000fd5b505050505b5090565b6048546040516370a0823160e01b81523060048201526000916001600160a01b0316906370a08231906024015b60206040518083038186803b15801561241757600080fd5b505afa15801561242b573d6000803e3d6000fd5b505050506040513d601f19601f8201168201806040525081019061244f919061562f565b905090565b6049546040516370a0823160e01b81523060048201526000916001600160a01b0316906370a08231906024016123ff565b6000806000603360009054906101000a90046001600160a01b03166001600160a01b031663bf3759b56040518163ffffffff1660e01b815260040160206040518083038186803b1580156124d857600080fd5b505afa1580156124ec573d6000803e3d6000fd5b505050506040513d601f19601f82011682018060405250810190612510919061562f565b60375490915060009060ff161561256d57600061252b61389a565b9050828110156125465761253f8184615e53565b935061255b565b8281111561255b576125588382615e53565b94505b6125658484615e53565b91505061257e565b612576826138ad565b919550935090505b6040805185815260208101859052908101829052606081018390527f4c0f499ffe6befa0ca7c826b0916cf87bea98de658013e76938489368d60d5099060800160405180910390a16033546040517fa1d9bafc0000000000000000000000000000000000000000000000000000000081526004810186905260248101859052604481018390526001600160a01b039091169063a1d9bafc90606401600060405180830381600087803b15801561263357600080fd5b505af1158015612647573d6000803e3d6000fd5b5050505050505050565b610d8c600019612b74565b6034546040517f3e1501410000000000000000000000000000000000000000000000000000000081526001600160a01b03909116600482015260009073057835ad21a177dbdd3090bb1cae03eacf78fc6d90633e150141906024016101406040518083038186803b1580156126d057600080fd5b505afa1580156126e4573d6000803e3d6000fd5b505050506040513d601f19601f82011682018060405250810190612708919061584d565b5050505050945050505050734da27a545c0c5b758a6ba100e3a049001de870f56001600160a01b03166372b49d636040518163ffffffff1660e01b815260040160206040518083038186803b15801561276057600080fd5b505afa158015612774573d6000803e3d6000fd5b505050506040513d601f19601f82011682018060405250810190612798919061562f565b603881905550734da27a545c0c5b758a6ba100e3a049001de870f56001600160a01b031663359c4a966040518163ffffffff1660e01b815260040160206040518083038186803b1580156127eb57600080fd5b505afa1580156127ff573d6000803e3d6000fd5b505050506040513d601f19601f82011682018060405250810190612823919061562f565b60395561283a8169152d02c7e14af6800000615ddc565b603a81905550603760019054906101000a90046001600160a01b03166001600160a01b0316637b832f586040518163ffffffff1660e01b815260040160206040518083038186803b15801561288e57600080fd5b505afa1580156128a2573d6000803e3d6000fd5b505050506040513d601f19601f820116820180604052508101906128c6919061562f565b603b81905550603760019054906101000a90046001600160a01b03166001600160a01b03166365614f816040518163ffffffff1660e01b815260040160206040518083038186803b15801561291a57600080fd5b505afa15801561292e573d6000803e3d6000fd5b505050506040513d601f19601f82011682018060405250810190612952919061562f565b603c81905550603760019054906101000a90046001600160a01b03166001600160a01b031663b25895446040518163ffffffff1660e01b815260040160206040518083038186803b1580156129a657600080fd5b505afa1580156129ba573d6000803e3d6000fd5b505050506040513d601f19601f820116820180604052508101906129de919061562f565b603d81905550603760019054906101000a90046001600160a01b03166001600160a01b031663a15f30ac6040518163ffffffff1660e01b815260040160206040518083038186803b158015612a3257600080fd5b505afa158015612a46573d6000803e3d6000fd5b505050506040513d601f19601f82011682018060405250810190612a6a919061562f565b603e5550565b6034546040516370a0823160e01b81523060048201526000916001600160a01b0316906370a08231906024016123ff565b60008073547a514d5e3769680ce22b2361c10ea13619e8a96001600160a01b031663feaf968c6040518163ffffffff1660e01b815260040160a06040518083038186803b158015612af157600080fd5b505afa158015612b05573d6000803e3d6000fd5b505050506040513d601f19601f82011682018060405250810190612b299190615998565b5050509150506c0c9f2c9cd04674edea400000006045546035548584612b4f9190615ddc565b612b599190615ddc565b612b639190615ddc565b612b6d9190615c3a565b9392505050565b603354604080517fbf3759b500000000000000000000000000000000000000000000000000000000815290516000926001600160a01b03169163bf3759b5916004808301926020929190829003018186803b158015612bd257600080fd5b505afa158015612be6573d6000803e3d6000fd5b505050506040513d601f19601f82011682018060405250810190612c0a919061562f565b90506000612c16612a70565b90508181118015612c315750604354612c2f8383615e53565b115b15612c5457612c48612c438383615e53565b613a4c565b50612c51612a70565b90505b600080612c5f610d61565b915091506000198514612c725784612c74565b805b60475490955060009060ff1615612cac57612ca582612c938587615bf4565b612c9d9190615e53565b848489613b00565b9050612cb1565b506040545b6000612cbd8484613b48565b905084861115612ce7576000612cd38688615e53565b9050612ce0818686613b63565b5050612d4e565b81811015612d1157604454612cfc8284615e53565b1115612d0c57612d0c8484613bc0565b612d4e565b81811115612d4e57604454612d268383615e53565b1115612d4e576000612d41612d3b8587615e53565b84613c72565b9050612647818686613c90565b50505050505050565b6040805160028082526060808301845292602083019080368337505060485482519293506001600160a01b031691839150600090612d9757612d97615f31565b6001600160a01b039283166020918202929092010152604954825191169082906001908110612dc857612dc8615f31565b60200260200101906001600160a01b031690816001600160a01b03168152505090565b6040516370a0823160e01b8152306004820152600090737fc66500c84a76ad7e9c93437bfc5ac33e2ddae9906370a08231906024016123ff565b6040516370a0823160e01b8152306004820152600090734da27a545c0c5b758a6ba100e3a049001de870f5906370a08231906024016123ff565b600054610100900460ff16612e7a5760005460ff1615612e7e565b303b155b612ef05760405162461bcd60e51b815260206004820152602e60248201527f496e697469616c697a61626c653a20636f6e747261637420697320616c72656160448201527f647920696e697469616c697a65640000000000000000000000000000000000006064820152608401610870565b600054610100900460ff16158015612f12576000805461ffff19166101011790555b603380547fffffffffffffffffffffffff0000000000000000000000000000000000000000166001600160a01b038716908117909155604080517ffc0c546a000000000000000000000000000000000000000000000000000000008152905163fc0c546a91600480820192602092909190829003018186803b158015612f9757600080fd5b505afa158015612fab573d6000803e3d6000fd5b505050506040513d601f19601f82011682018060405250810190612fcf919061537a565b603480547fffffffffffffffffffffffff0000000000000000000000000000000000000000166001600160a01b03929092169182179055604080517f313ce567000000000000000000000000000000000000000000000000000000008152905163313ce56791600480820192602092909190829003018186803b15801561305557600080fd5b505afa158015613069573d6000803e3d6000fd5b505050506040513d601f19601f8201168201806040525081019061308d91906159e8565b61309890600a615c91565b6035556001600160a01b038316158015906130bb57506001600160a01b03841615155b80156130d95750826001600160a01b0316846001600160a01b031614155b6131255760405162461bcd60e51b815260206004820152600160248201527f30000000000000000000000000000000000000000000000000000000000000006044820152606401610870565b61314f7f55435dd261a4b9b3364963f7738a7a662ad9c84396d64be3365284bb7f0a504184613dc4565b6131797f55435dd261a4b9b3364963f7738a7a662ad9c84396d64be3365284bb7f0a504185613dc4565b6131a37f5916f72c85af4ac6f7e34636ecc97619c4b2085da099a5d28f3e58436cfbe56286613dc4565b6131cd7f5916f72c85af4ac6f7e34636ecc97619c4b2085da099a5d28f3e58436cfbe56280613dce565b6132177f55435dd261a4b9b3364963f7738a7a662ad9c84396d64be3365284bb7f0a50417f5916f72c85af4ac6f7e34636ecc97619c4b2085da099a5d28f3e58436cfbe562613dce565b60005b82518110156132f45760006001600160a01b031683828151811061324057613240615f31565b60200260200101516001600160a01b0316141561329f5760405162461bcd60e51b815260206004820152600160248201527f30000000000000000000000000000000000000000000000000000000000000006044820152606401610870565b6132e27ffc8737ab85eb45125971625a9ebdb75cc78e01d5c1fa80c4c6e5203f47bc4fab8483815181106132d5576132d5615f31565b6020026020010151613dc4565b806132ec81615ead565b91505061321a565b5061333f7ffc8737ab85eb45125971625a9ebdb75cc78e01d5c1fa80c4c6e5203f47bc4fab7f55435dd261a4b9b3364963f7738a7a662ad9c84396d64be3365284bb7f0a5041613dce565b613352670de0b6b3a76400006064615ddc565b6036556037805460ff1916905560335460345461337e916001600160a01b039182169116600019613e25565b8015613390576000805461ff00191690555b5050505050565b610cf66001600160a01b03831682600019613f18565b606060006133bc836002615ddc565b6133c7906002615bf4565b67ffffffffffffffff8111156133df576133df615f47565b6040519080825280601f01601f191660200182016040528015613409576020820181803683370190505b5090507f30000000000000000000000000000000000000000000000000000000000000008160008151811061344057613440615f31565b60200101907effffffffffffffffffffffffffffffffffffffffffffffffffffffffffffff1916908160001a9053507f7800000000000000000000000000000000000000000000000000000000000000816001815181106134a3576134a3615f31565b60200101907effffffffffffffffffffffffffffffffffffffffffffffffffffffffffffff1916908160001a90535060006134df846002615ddc565b6134ea906001615bf4565b90505b6001811115613587577f303132333435363738396162636465660000000000000000000000000000000085600f166010811061352b5761352b615f31565b1a60f81b82828151811061354157613541615f31565b60200101907effffffffffffffffffffffffffffffffffffffffffffffffffffffffffffff1916908160001a90535060049490941c9361358081615e96565b90506134ed565b508315612b6d5760405162461bcd60e51b815260206004820181905260248201527f537472696e67733a20686578206c656e67746820696e73756666696369656e746044820152606401610870565b600080858511156135ec575084905060006136ab565b60006135f88688615e53565b9050613605818686613b63565b5061360e612a70565b95508587111561363c5785925060006136278489615e53565b90506043548111613636578092505b50613640565b8692505b60475462010000900460ff16156136a95761365b8284615bf4565b87146136a95760405162461bcd60e51b815260206004820152600260248201527f35340000000000000000000000000000000000000000000000000000000000006044820152606401610870565b505b94509492505050565b6000613709826040518060400160405280602081526020017f5361666545524332303a206c6f772d6c6576656c2063616c6c206661696c6564815250856001600160a01b03166140759092919063ffffffff16565b805190915015610c51578080602001905181019061372791906155cd565b610c515760405162461bcd60e51b815260206004820152602a60248201527f5361666545524332303a204552433230206f7065726174696f6e20646964206e60448201527f6f742073756363656564000000000000000000000000000000000000000000006064820152608401610870565b6040517f091030c30000000000000000000000000000000000000000000000000000000081523060048201526000908190734da27a545c0c5b758a6ba100e3a049001de870f59063091030c39060240160206040518083038186803b15801561380157600080fd5b505afa158015613815573d6000803e3d6000fd5b505050506040513d601f19601f82011682018060405250810190613839919061562f565b905060006038548261384b9190615bf4565b90508161385b5760009250505090565b804211801561387657506039546138729082615bf4565b4211155b156138845760019250505090565b804210156138955760029250505090565b505090565b60006138a7600019611e19565b50919050565b6033546040517f39ebf8230000000000000000000000000000000000000000000000000000000081523060048201526000918291829182916001600160a01b03909116906339ebf8239060240160606040518083038186803b15801561391257600080fd5b505afa158015613926573d6000803e3d6000fd5b505050506040513d601f19601f8201168201806040525081019061394a91906156f2565b602001519050600061395a612a70565b9050600080613967610d61565b90925090506000816139798486615bf4565b6139839190615e53565b90508085111561399e576139978186615e53565b96506139ab565b6139a88582615e53565b97505b60006139b7898b615bf4565b905084811115613a1e576139cd818686866135d6565b5094508085106139fd57899650886139e58883615e53565b10156139f8576139f58782615e53565b98505b613a3f565b89851015613a115760009850849650613a3f565b8996506139f58786615e53565b89965088613a2c8883615e53565b1015613a3f57613a3c8782615e53565b98505b5050505050509193909250565b600081613a5b57506000919050565b6034546040517fe8eda9df0000000000000000000000000000000000000000000000000000000081526001600160a01b0390911660048201526024810183905230604482015260006064820152737d2768de32b0b80b7a3454c06bdac94a69ddc7a99063e8eda9df906084015b600060405180830381600087803b158015613ae257600080fd5b505af1158015613af6573d6000803e3d6000fd5b5093949350505050565b600080613b0f8686868661408c565b90506000613b26613b208389615bf4565b83613b48565b60415490915080821115613b38578091505b5060408190559695505050505050565b600082156113375782612b63670de0b6b3a764000084615ddc565b600083613b7257506000612b6d565b6000613b7e8385615e53565b90506000613ba1613b8f8784614498565b613b999084615e53565b604054613c72565b9050613bae818686613c90565b613bb6612a70565b9695505050505050565b600081613bd0613b998286615e53565b613bda9190615e53565b604754909150610100900460ff1615613c2157613bf88184846144a7565b613c029082615e53565b9050604354811115610c5157613c178161453f565b61171a9082615e53565b60005b60465460ff908116908216108015613c3d575060435482115b1561171a57613c4d8285856144a7565b613c579083615e53565b60009450849350915080613c6a81615ec8565b915050613c24565b6000613c8682670de0b6b3a7640000615e53565b612b638385615ddc565b82811115613d58576000613ca48483615e53565b604754909150610100900460ff1615613cce57613cc1818361463d565b613ccb9082615e53565b90505b60415460005b60465460ff908116908216108015613ced575060435483115b15613d4757613cfe82600080614721565b50826000613d0a612a70565b905080821115613d18578091505b6000613d238361202a565b9050613d2f8187615e53565b95505050508080613d3f90615ec8565b915050613cd4565b50613d50610d61565b909450925050505b6040546000613d68838386614781565b905083811115613da6576000613d7e8583615e53565b9050604354811115613da057613d9e612c4382613d99612a70565b614498565b505b50613390565b604354613db38286615e53565b111561339057610879828585614721565b610cf68282611ef2565b60008281526001602081905260409091200154819060405184907fbd79b86ffe0ab8e8776151514217cd7cacd52c909f66475c3af44e129f0b00ff90600090a4600091825260016020819052604090922090910155565b6040517fdd62ed3e0000000000000000000000000000000000000000000000000000000081523060048201526001600160a01b038381166024830152600091839186169063dd62ed3e9060440160206040518083038186803b158015613e8a57600080fd5b505afa158015613e9e573d6000803e3d6000fd5b505050506040513d601f19601f82011682018060405250810190613ec2919061562f565b613ecc9190615bf4565b6040516001600160a01b03851660248201526044810182905290915061171a9085907f095ea7b30000000000000000000000000000000000000000000000000000000090606401611e8e565b801580613fba57506040517fdd62ed3e0000000000000000000000000000000000000000000000000000000081523060048201526001600160a01b03838116602483015284169063dd62ed3e9060440160206040518083038186803b158015613f8057600080fd5b505afa158015613f94573d6000803e3d6000fd5b505050506040513d601f19601f82011682018060405250810190613fb8919061562f565b155b61402c5760405162461bcd60e51b815260206004820152603660248201527f5361666545524332303a20617070726f76652066726f6d206e6f6e2d7a65726f60448201527f20746f206e6f6e2d7a65726f20616c6c6f77616e6365000000000000000000006064820152608401610870565b6040516001600160a01b038316602482015260448101829052610c519084907f095ea7b30000000000000000000000000000000000000000000000000000000090606401611e8e565b606061408484846000856147b4565b949350505050565b6000806035546b033b2e3c9fd0803ce80000006140a99190615c3a565b9050614116604051806101a00160405280600081526020016000815260200160008152602001600081526020016000815260200160008152602001600081526020016000815260200160008152602001600081526020016000815260200160008152602001600081525090565b6034546040517f35ea6a750000000000000000000000000000000000000000000000000000000081526001600160a01b03909116600482015260009081908190819073057835ad21a177dbdd3090bb1cae03eacf78fc6d906335ea6a75906024016101406040518083038186803b15801561419057600080fd5b505afa1580156141a4573d6000803e3d6000fd5b505050506040513d601f19601f820116820180604052508101906141c891906158f4565b5050509650505050935093509350604051806101a00160405280603a54815260200187856141f69190615ddc565b8152602001876142068c86615e53565b6142109190615ddc565b8152602001878c8e86614223898b615bf4565b61422d9190615bf4565b6142379190615bf4565b6142419190615e53565b61424b9190615ddc565b81526020018281526020016000815260200160008152602001878d6142709190615ddc565b815260200161427f888b615ddc565b8152602001603b548152602001603c548152602001603d548152602001603e5481525094505050505060006142bb670de0b6b3a7640000612aa1565b604854604051631e23703160e31b81526001600160a01b03909116600482015290915060009073d784927ff2f95ba542bfc824c8a8a98f3495f6b59063f11b81889060240160606040518083038186803b15801561431857600080fd5b505afa15801561432c573d6000803e3d6000fd5b505050506040513d601f19601f8201168201806040525081019061435091906157ed565b5050604954604051631e23703160e31b81526001600160a01b03909116600482015290915060009073d784927ff2f95ba542bfc824c8a8a98f3495f6b59063f11b81889060240160606040518083038186803b1580156143af57600080fd5b505afa1580156143c3573d6000803e3d6000fd5b505050506040513d601f19601f820116820180604052508101906143e791906157ed565b5050603554909150836143fd8462015180615ddc565b6144099061016d615ddc565b6144139190615ddc565b61442190633b9aca00615ddc565b61442b9190615c3a565b60a0850152603554836144418362015180615ddc565b61444d9061016d615ddc565b6144579190615ddc565b61446590633b9aca00615ddc565b61446f9190615c3a565b60c0850152508391506144839050826148f1565b61448d9190615c3a565b979650505050505050565b60008183106120235781612b6d565b6000821580156144b5575081155b156144c8576144c2610d61565b90935091505b60006144d2612a70565b905060006144eb6144e38387615bf4565b603f546149fa565b90508381116144ff57600092505050612b6d565b6145098482615e53565b905085811015614517578095505b61452082613a4c565b5061452a86614a0f565b5061453486613a4c565b509495945050505050565b600080600061454c610d61565b91509150600061455f82603f5485614781565b9050600083821115614578576145758483615e53565b90505b6034546042546040517fbf5061df00000000000000000000000000000000000000000000000000000000815260006004820152602481018990526001600160a01b03909216604483015260648201526084810182905273169487a55dE79476125A56B07C36cA8dbF37a3739063bf5061df9060a40160206040518083038186803b15801561460557600080fd5b505af4158015614619573d6000803e3d6000fd5b505050506040513d601f19601f82011682018060405250810190613bb6919061562f565b6000604354831161465057506000611337565b8183111561465c578192505b6034546042546040517fbf5061df00000000000000000000000000000000000000000000000000000000815260016004820152602481018690526001600160a01b03909216604483015260648201526000608482015273169487a55dE79476125A56B07C36cA8dbF37a3739063bf5061df9060a40160206040518083038186803b1580156146e957600080fd5b505af41580156146fd573d6000803e3d6000fd5b505050506040513d601f19601f82011682018060405250810190612b6d919061562f565b60008215801561472f575081155b156147425761473c610d61565b90935091505b600061474f838686614781565b9050808411156147795760006147658286615e53565b905061477081611f5d565b92505050612b6d565b509392505050565b600082156147ad578261479c670de0b6b3a764000086615ddc565b6147a69190615c3a565b9050612b6d565b5080612b6d565b60608247101561482c5760405162461bcd60e51b815260206004820152602660248201527f416464726573733a20696e73756666696369656e742062616c616e636520666f60448201527f722063616c6c00000000000000000000000000000000000000000000000000006064820152608401610870565b6001600160a01b0385163b6148835760405162461bcd60e51b815260206004820152601d60248201527f416464726573733a2063616c6c20746f206e6f6e2d636f6e74726163740000006044820152606401610870565b600080866001600160a01b0316858760405161489f9190615a3e565b60006040518083038185875af1925050503d80600081146148dc576040519150601f19603f3d011682016040523d82523d6000602084013e6148e1565b606091505b509150915061448d828286614a8a565b6000806149016000846001614ac3565b50509050600061491f6b033b2e3c9fd0803ce8000000856001614ac3565b50509050818113614934575060009392505050565b60008060008087610100015196505b600a8410801561497657508315806149765750826149696149648983615dfb565b615095565b614974906014615d3c565b135b156149d05761498787896000614ac3565b89955090935091508190506149a86b033b2e3c9fd0803ce800000084615d3c565b6149b29190615c0c565b6149bc9084615dfb565b96506149c9600185615bf4565b9350614943565b60006149de888a6001614ac3565b505090508681136149ee57600097505b50505050505050919050565b6000670de0b6b3a7640000612b638385615ddc565b6034546040517fa415bcad0000000000000000000000000000000000000000000000000000000081526001600160a01b039091166004820152602481018290526002604482015260006064820181905230608483015290737d2768de32b0b80b7a3454c06bdac94a69ddc7a99063a415bcad9060a401613ac8565b60608315614a99575081612b6d565b825115614aa95782518084602001fd5b8160405162461bcd60e51b81526004016108709190615b38565b600080600080600080614ad689896150ad565b925092509250600088606001518a614aee9190615b9c565b8951614b06906b033b2e3c9fd0803ce8000000615dfb565b60e08b0151614b15908d615b9c565b614b1f9190615d3c565b614b299190615c0c565b905060006b033b2e3c9fd0803ce8000000858b604001518d614b4b9190615b9c565b614b559190615d3c565b8b608001518c60200151614b699190615d3c565b614b739190615b9c565b614b7d9190615c0c565b90506b033b2e3c9fd0803ce8000000614b96868d615d3c565b614ba09190615c0c565b60608b0151614baf908d615b9c565b60a08c015160e08d0151614bc3908f615b9c565b614bcd9190615d3c565b614bd79190615c0c565b60408c0151614be6908e615b9c565b60c08d0151614bf5908f615d3c565b614bff9190615c0c565b6b033b2e3c9fd0803ce8000000614c168587615d3c565b614c209190615c0c565b614c2a9190615b9c565b614c349190615b9c565b614c3e9190615dfb565b9750886150875760008a606001518c614c579190615b9c565b8b51614c6f906b033b2e3c9fd0803ce8000000615dfb565b8c60e001518d60600151614c839190615dfb565b614c8d9190615d3c565b614c979190615c0c565b90508a606001518c614ca99190615b9c565b614cbf6b033b2e3c9fd0803ce800000083615d3c565b614cc99190615c0c565b905060006b033b2e3c9fd0803ce8000000868d604001518f614ceb9190615b9c565b614cf59190615d3c565b614d0b6b033b2e3c9fd0803ce80000008a615d3c565b614d159190615b9c565b614d1f9190615c0c565b90506b033b2e3c9fd0803ce8000000614d388583615d3c565b614d428585615d3c565b614d4c9190615b9c565b614d569190615c0c565b985060008c606001518e614d6a9190615b9c565b614d806b033b2e3c9fd0803ce800000085615d3c565b614d8c90600119615d3c565b614d969190615c0c565b9050614da28482615d3c565b82614dae856002615d3c565b614db89190615d3c565b614dc29190615b9c565b9850506b033b2e3c9fd0803ce8000000858d604001518f614de39190615b9c565b614ded9190615d3c565b6b033b2e3c9fd0803ce8000000614e05896002615d3c565b614e0f9190615d3c565b614e199190615b9c565b614e239190615c0c565b90506b033b2e3c9fd0803ce8000000614e3c8583615d3c565b614e46908a615b9c565b614e509190615c0c565b9750505060006b033b2e3c9fd0803ce8000000858d614e6f9190615d3c565b614e856b033b2e3c9fd0803ce800000089615d3c565b614e8f9190615b9c565b614e999190615c0c565b905060008b604001518d614ead9190615b9c565b8c604001518d60c00151614ec19190615d3c565b614ecb9190615c0c565b90508b604001518d614edd9190615b9c565b614ef36b033b2e3c9fd0803ce800000083615d3c565b614efd9190615c0c565b905060008c606001518e614f119190615b9c565b8d60e001518e60600151614f259190615dfb565b8e60a00151614f349190615d3c565b614f3e9190615c0c565b90508c606001518e614f509190615b9c565b614f666b033b2e3c9fd0803ce800000083615d3c565b614f709190615c0c565b905082614f7d8284615b9c565b614f879190615dfb565b614f91908b615b9c565b99506b033b2e3c9fd0803ce8000000868f614fac9190615d3c565b6b033b2e3c9fd0803ce8000000614fc48a6002615d3c565b614fce9190615d3c565b614fd89190615b9c565b614fe29190615c0c565b92508c604001518e614ff49190615b9c565b6b033b2e3c9fd0803ce800000061500d84600119615d3c565b6150179190615d3c565b6150219190615c0c565b91508c606001518e6150339190615b9c565b6b033b2e3c9fd0803ce800000061504c83600119615d3c565b6150569190615d3c565b6150609190615c0c565b90508261506d8284615b9c565b6150779190615dfb565b615081908a615b9c565b98505050505b505050505093509350939050565b6000808212156123ce576150a882615ee8565b611337565b6000806000806150bd86866152aa565b905060008686606001516150d19190615b9c565b905060006150df88886152fc565b9050816150f86b033b2e3c9fd0803ce800000083615d3c565b6151029190615c0c565b9050600061511282600119615d3c565b90508261512b6b033b2e3c9fd0803ce800000083615d3c565b6151359190615c0c565b90508761018001518412156151c2578761018001518489610120015161515b9190615d3c565b6151659190615c0c565b8861016001516151759190615b9c565b96508761018001518289610120015161518e9190615d3c565b6151989190615c0c565b9550876101800151818961012001516151b19190615d3c565b6151bb9190615c0c565b945061529f565b6101808801516151de906b033b2e3c9fd0803ce8000000615dfb565b6101808901516151ee9086615dfb565b8961014001516151fe9190615d3c565b6152089190615c0c565b88610120015189610160015161521e9190615b9c565b6152289190615b9c565b96508761018001516b033b2e3c9fd0803ce80000006152479190615dfb565b828961014001516152589190615d3c565b6152629190615c0c565b95508761018001516b033b2e3c9fd0803ce80000006152819190615dfb565b818961014001516152929190615d3c565b61529c9190615c0c565b94505b505050509250925092565b60008282606001516152bc9190615b9c565b6b033b2e3c9fd0803ce800000084846040015185602001516152de9190615b9c565b6152e89190615b9c565b6152f29190615d3c565b612b6d9190615c0c565b600082826060015161530e9190615b9c565b6b033b2e3c9fd0803ce80000008360400151846020015185606001516153349190615dfb565b6152e89190615dfb565b805169ffffffffffffffffffff8116811461535857600080fd5b919050565b60006020828403121561536f57600080fd5b8135612b6d81615f5d565b60006020828403121561538c57600080fd5b8151612b6d81615f5d565b600080604083850312156153aa57600080fd5b82356153b581615f5d565b915060208301356153c581615f5d565b809150509250929050565b6000806000606084860312156153e557600080fd5b83516153f081615f5d565b602085015190935061540181615f5d565b604085015190925061541281615f5d565b809150509250925092565b60008060008060008060a0878903121561543657600080fd5b863561544181615f5d565b9550602087013561545181615f5d565b94506040870135935060608701359250608087013567ffffffffffffffff8082111561547c57600080fd5b818901915089601f83011261549057600080fd5b81358181111561549f57600080fd5b8a60208285010111156154b157600080fd5b6020830194508093505050509295509295509295565b600080600080600060a086880312156154df57600080fd5b85356154ea81615f5d565b94506020868101356154fb81615f5d565b9450604087013561550b81615f5d565b9350606087013561551b81615f5d565b9250608087013567ffffffffffffffff8082111561553857600080fd5b818901915089601f83011261554c57600080fd5b81358181111561555e5761555e615f47565b8060051b915061556f848301615b6b565b8181528481019084860184860187018e101561558a57600080fd5b600095505b838610156155b957803594506155a485615f5d565b8483526001959095019491860191860161558f565b508096505050505050509295509295909350565b6000602082840312156155df57600080fd5b8151612b6d81615f75565b600080604083850312156155fd57600080fd5b823561560881615f75565b946020939093013593505050565b60006020828403121561562857600080fd5b5035919050565b60006020828403121561564157600080fd5b5051919050565b6000806040838503121561565b57600080fd5b8235915060208301356153c581615f5d565b60006080828403121561567f57600080fd5b6040516080810181811067ffffffffffffffff821117156156a2576156a2615f47565b60405282356156b081615f75565b815260208301356156c081615f75565b602082015260408301356156d381615f75565b604082015260608301356156e681615f75565b60608201529392505050565b60006060828403121561570457600080fd5b6040516060810181811067ffffffffffffffff8211171561572757615727615f47565b80604052508251815260208301516020820152604083015160408201528091505092915050565b6000806040838503121561576157600080fd5b8235915060208084013567ffffffffffffffff8082111561578157600080fd5b818601915086601f83011261579557600080fd5b8135818111156157a7576157a7615f47565b6157b984601f19601f84011601615b6b565b915080825287848285010111156157cf57600080fd5b80848401858401376000848284010152508093505050509250929050565b60008060006060848603121561580257600080fd5b8351925060208401519150604084015190509250925092565b6000806000806080858703121561583157600080fd5b5050823594602084013594506040840135936060013592509050565b6000806000806000806000806000806101408b8d03121561586d57600080fd5b8a51995060208b0151985060408b0151975060608b0151965060808b0151955060a08b015161589b81615f75565b60c08c01519095506158ac81615f75565b60e08c01519094506158bd81615f75565b6101008c01519093506158cf81615f75565b6101208c01519092506158e181615f75565b809150509295989b9194979a5092959850565b6000806000806000806000806000806101408b8d03121561591457600080fd5b8a51995060208b0151985060408b0151975060608b0151965060808b0151955060a08b0151945060c08b0151935060e08b015192506101008b015191506101208b015164ffffffffff811681146158e157600080fd5b60008060006060848603121561597f57600080fd5b8335925060208401359150604084013561541281615f83565b600080600080600060a086880312156159b057600080fd5b6159b98661533e565b94506020860151935060408601519250606086015191506159dc6080870161533e565b90509295509295909350565b6000602082840312156159fa57600080fd5b8151612b6d81615f83565b600081518084526020808501945080840160005b838110156145345781516001600160a01b031687529582019590820190600101615a19565b60008251615a50818460208701615e6a565b9190910192915050565b7f416363657373436f6e74726f6c3a206163636f756e7420000000000000000000815260008351615a92816017850160208801615e6a565b7f206973206d697373696e6720726f6c65200000000000000000000000000000006017918401918201528351615acf816028840160208801615e6a565b01602801949350505050565b604081526000615aee6040830185615a05565b90506001600160a01b03831660208301529392505050565b606081526000615b196060830186615a05565b90508360208301526001600160a01b0383166040830152949350505050565b6020815260008251806020840152615b57816040850160208701615e6a565b601f01601f19169190910160400192915050565b604051601f8201601f1916810167ffffffffffffffff81118282101715615b9457615b94615f47565b604052919050565b6000808212827f7fffffffffffffffffffffffffffffffffffffffffffffffffffffffffffffff03841381151615615bd657615bd6615f05565b82600160ff1b038412811615615bee57615bee615f05565b50500190565b60008219821115615c0757615c07615f05565b500190565b600082615c1b57615c1b615f1b565b6000198314600160ff1b83141615615c3557615c35615f05565b500590565b600082615c4957615c49615f1b565b500490565b600181815b80851115615c89578160001904821115615c6f57615c6f615f05565b80851615615c7c57918102915b93841c9390800290615c53565b509250929050565b6000612b6d60ff841683600082615caa57506001611337565b81615cb757506000611337565b8160018114615ccd5760028114615cd757615cf3565b6001915050611337565b60ff841115615ce857615ce8615f05565b50506001821b611337565b5060208310610133831016604e8410600b8410161715615d16575081810a611337565b615d208383615c4e565b8060001904821115615d3457615d34615f05565b029392505050565b60007f7fffffffffffffffffffffffffffffffffffffffffffffffffffffffffffffff600084136000841385830485118282161615615d7d57615d7d615f05565b600160ff1b6000871286820588128184161615615d9c57615d9c615f05565b60008712925087820587128484161615615db857615db8615f05565b87850587128184161615615dce57615dce615f05565b505050929093029392505050565b6000816000190483118215151615615df657615df6615f05565b500290565b600080831283600160ff1b01831281151615615e1957615e19615f05565b837f7fffffffffffffffffffffffffffffffffffffffffffffffffffffffffffffff018313811615615e4d57615e4d615f05565b50500390565b600082821015615e6557615e65615f05565b500390565b60005b83811015615e85578181015183820152602001615e6d565b8381111561171a5750506000910152565b600081615ea557615ea5615f05565b506000190190565b6000600019821415615ec157615ec1615f05565b5060010190565b600060ff821660ff811415615edf57615edf615f05565b60010192915050565b6000600160ff1b821415615efe57615efe615f05565b5060000390565b634e487b7160e01b600052601160045260246000fd5b634e487b7160e01b600052601260045260246000fd5b634e487b7160e01b600052603260045260246000fd5b634e487b7160e01b600052604160045260246000fd5b6001600160a01b0381168114615f7257600080fd5b50565b8015158114615f7257600080fd5b60ff81168114615f7257600080fdfea264697066735822122077ff7ffe4f2d059fa4fd7bb9459cfa0e12fafa86d59ebcb79bfa6ff774a9449564736f6c63430008070033",
  "deployedBytecode": "0x608060405234801561001057600080fd5b506004361061036d5760003560e01c80634c3f425f116101d3578063abac6e1111610104578063d94fa4af116100a2578063ec342ad01161007c578063ec342ad01461072b578063efbb5cb01461073a578063f8453e7c14610742578063fcf2d0ad1461075557600080fd5b8063d94fa4af146106fc578063dc4c90d314610705578063ddc632621461071857600080fd5b8063b8221bc4116100de578063b8221bc4146106c4578063b8dc491b146106cd578063d0134cb7146106e0578063d547741f146106e957600080fd5b8063abac6e1114610693578063af306e16146106a6578063af648c3d146106b157600080fd5b80638e5b14b011610171578063a34a42231161014b578063a34a42231461065b578063a526d83b1461066e578063a62b75a814610681578063a8f9c0d81461068a57600080fd5b80638e5b14b01461063757806391d1485414610640578063a217fddf1461065357600080fd5b80635e4a1e01116101ad5780635e4a1e01146106135780636314e8841461061c578063659621b51461062557806386d8745b1461062e57600080fd5b80634c3f425f146105f65780635641ec03146105fe5780635a5cd45e1461060b57600080fd5b80632e1a7d4d116102ad578063372500ab1161024b578063418f35cc11610225578063418f35cc146105d45780634322b714146105dc5780634641257d146105e55780634c32e270146105ed57600080fd5b8063372500ab1461059a578063387f504a146105a2578063396794cd146105c157600080fd5b80633042087c116102875780633042087c146104fa578063364bc15a1461050d57806336568abe14610534578063368a9d6d1461054757600080fd5b80632e1a7d4d146104b65780632e4debb3146104de5780632f2ff15d146104e757600080fd5b80631f1fcd511161031a57806323cf978f116102f457806323cf978f1461044557806323e30c8b14610458578063248a9ca31461046b57806324ea54f41461048f57600080fd5b80631f1fcd51146103f9578063205409d31461042457806322f3e2d41461042d57600080fd5b80630c016dc01161034b5780630c016dc0146103b65780630f969b87146103dd5780631d12f28b146103f057600080fd5b806305b4193414610372578063060ca2ba146103875780630b6d1d171461039a575b600080fd5b61038561038036600461574e565b61075d565b005b61038561039536600461581b565b610881565b6103a360355481565b6040519081526020015b60405180910390f35b6103a37f5916f72c85af4ac6f7e34636ecc97619c4b2085da099a5d28f3e58436cfbe56281565b6103856103eb366004615616565b61097f565b6103a360365481565b60345461040c906001600160a01b031681565b6040516001600160a01b0390911681526020016103ad565b6103a360435481565b6104356109e6565b60405190151581526020016103ad565b610385610453366004615616565b6109f7565b6103a361046636600461541d565b610a79565b6103a3610479366004615616565b6000908152600160208190526040909120015490565b6103a37f55435dd261a4b9b3364963f7738a7a662ad9c84396d64be3365284bb7f0a504181565b6104c96104c4366004615616565b610bd1565b604080519283526020830191909152016103ad565b6103a3603e5481565b6103856104f5366004615648565b610c2a565b610385610508366004615616565b610c56565b6103a37ffc8737ab85eb45125971625a9ebdb75cc78e01d5c1fa80c4c6e5203f47bc4fab81565b610385610542366004615648565b610c94565b6047546105709060ff808216916101008104821691620100008204811691630100000090041684565b604080519415158552921515602085015290151591830191909152151560608201526080016103ad565b610385610cfa565b6046546105af9060ff1681565b60405160ff90911681526020016103ad565b6103856105cf366004615616565b610d2d565b6104c9610d61565b6103a3603a5481565b610385610d7c565b6103a360405481565b610385610d8e565b6037546104359060ff1681565b6103a3610d96565b6103a360455481565b6103a360395481565b6103a3603d5481565b6103a360445481565b6103a360415481565b61043561064e366004615648565b611310565b6103a3600081565b61038561066936600461566d565b61133d565b61038561067c36600461535d565b611404565b6103a3603b5481565b6103a3603f5481565b6103856106a136600461596a565b611459565b6103a36301e1855881565b6103856106bf36600461535d565b611512565b6103a360385481565b6103856106db366004615397565b611567565b6103a3603c5481565b6103856106f7366004615648565b611720565b6103a360425481565b60335461040c906001600160a01b031681565b610385610726366004615616565b611747565b6103a3670de0b6b3a764000081565b6103a3611783565b6103856107503660046154c7565b611880565b610385611c06565b7ffc8737ab85eb45125971625a9ebdb75cc78e01d5c1fa80c4c6e5203f47bc4fab6107888133611c79565b600080731111111254fb6c44bac0bed2854e76f90643097d6001600160a01b0316846040516107b79190615a3e565b6000604051808303816000865af19150503d80600081146107f4576040519150601f19603f3d011682016040523d82523d6000602084013e6107f9565b606091505b50915091508161080c5761080c81611cdd565b600081806020019051810190610822919061562f565b9050858110156108795760405162461bcd60e51b815260206004820152600260248201527f313500000000000000000000000000000000000000000000000000000000000060448201526064015b60405180910390fd5b505050505050565b7f55435dd261a4b9b3364963f7738a7a662ad9c84396d64be3365284bb7f0a50416108ac8133611c79565b60345460009081906108c6906001600160a01b0316611d34565b9150915060006108e9736b175474e89094c44da98b954eedeac495271d0f611d34565b50905081881080156108fa57508187105b801561090557508688105b801561091057508286105b801561091b57508085105b6109675760405162461bcd60e51b815260206004820152600160248201527f38000000000000000000000000000000000000000000000000000000000000006044820152606401610870565b505050604094909455604192909255603f5560425550565b7f55435dd261a4b9b3364963f7738a7a662ad9c84396d64be3365284bb7f0a50416109aa8133611c79565b60368290556040518281527fa68ba126373d04c004c5748c300c9fca12bd444b3d4332e261f3bd2bac4a86009060200160405180910390a15050565b6000806109f1611783565b11905090565b7f55435dd261a4b9b3364963f7738a7a662ad9c84396d64be3365284bb7f0a5041610a228133611c79565b6127108210610a735760405162461bcd60e51b815260206004820152600160248201527f34000000000000000000000000000000000000000000000000000000000000006044820152606401610870565b50604555565b600033731eb4cf3a948e7d72a198fe073ccb8c7a948cd853148015610aa657506001600160a01b03871630145b610af25760405162461bcd60e51b815260206004820152600160248201527f31000000000000000000000000000000000000000000000000000000000000006044820152606401610870565b600080610b01848601866155ea565b6034546040517fbf04d6e8000000000000000000000000000000000000000000000000000000008152831515600482015260248101839052604481018b90526001600160a01b039091166064820152919350915073__$769b0789f1f3504b29e5e16055ef62b17c$__9063bf04d6e89060840160206040518083038186803b158015610b8c57600080fd5b505af4158015610ba0573d6000803e3d6000fd5b505050506040513d601f19601f82011682018060405250810190610bc4919061562f565b9998505050505050505050565b6000807f5916f72c85af4ac6f7e34636ecc97619c4b2085da099a5d28f3e58436cfbe562610bff8133611c79565b610c0884611e19565b6034549194509250610c24906001600160a01b03163385611e49565b50915091565b60008281526001602081905260409091200154610c478133611c79565b610c518383611ef2565b505050565b7f55435dd261a4b9b3364963f7738a7a662ad9c84396d64be3365284bb7f0a5041610c818133611c79565b610c8a82611f5d565b50610c518261202a565b6001600160a01b0381163314610cec5760405162461bcd60e51b815260206004820152600260248201527f37310000000000000000000000000000000000000000000000000000000000006044820152606401610870565b610cf682826120f7565b5050565b7ffc8737ab85eb45125971625a9ebdb75cc78e01d5c1fa80c4c6e5203f47bc4fab610d258133611c79565b610cf661215e565b7f55435dd261a4b9b3364963f7738a7a662ad9c84396d64be3365284bb7f0a5041610d588133611c79565b610c5182611f5d565b600080610d6c6123d2565b9150610d76612454565b90509091565b610d84612485565b610d8c612651565b565b610d8c61265c565b6034546040517f35ea6a750000000000000000000000000000000000000000000000000000000081526001600160a01b03909116600482015260009081908190819073057835ad21a177dbdd3090bb1cae03eacf78fc6d906335ea6a75906024016101406040518083038186803b158015610e1057600080fd5b505afa158015610e24573d6000803e3d6000fd5b505050506040513d601f19601f82011682018060405250810190610e4891906158f4565b505050505094509450945050506000610e5f612454565b610e676123d2565b610e6f612a70565b610e799190615bf4565b610e839190615e53565b9050801580610e90575083155b80610f1e5750604860009054906101000a90046001600160a01b03166001600160a01b03166318160ddd6040518163ffffffff1660e01b815260040160206040518083038186803b158015610ee457600080fd5b505afa158015610ef8573d6000803e3d6000fd5b505050506040513d601f19601f82011682018060405250810190610f1c919061562f565b155b15610f2e57600094505050505090565b600080610f39610d61565b915091506000806000610f53670de0b6b3a7640000612aa1565b90506000604860009054906101000a90046001600160a01b03166001600160a01b03166375d264136040518163ffffffff1660e01b815260040160206040518083038186803b158015610fa557600080fd5b505afa158015610fb9573d6000803e3d6000fd5b505050506040513d601f19601f82011682018060405250810190610fdd919061537a565b604854604051631e23703160e31b81526001600160a01b03918216600482015291169063f11b81889060240160606040518083038186803b15801561102157600080fd5b505afa158015611035573d6000803e3d6000fd5b505050506040513d601f19601f8201168201806040525081019061105991906157ed565b505090506000604960009054906101000a90046001600160a01b03166001600160a01b03166375d264136040518163ffffffff1660e01b815260040160206040518083038186803b1580156110ad57600080fd5b505afa1580156110c1573d6000803e3d6000fd5b505050506040513d601f19601f820116820180604052508101906110e5919061537a565b604954604051631e23703160e31b81526001600160a01b03918216600482015291169063f11b81889060240160606040518083038186803b15801561112957600080fd5b505afa15801561113d573d6000803e3d6000fd5b505050506040513d601f19601f8201168201806040525081019061116191906157ed565b50509050600082603c6111749190615ddc565b61117f90603c615ddc565b61118a906018615ddc565b6111969061016d615ddc565b905060006111a583603c615ddc565b6111b090603c615ddc565b6111bb906018615ddc565b6111c79061016d615ddc565b9050604860009054906101000a90046001600160a01b03166001600160a01b03166318160ddd6040518163ffffffff1660e01b815260040160206040518083038186803b15801561121757600080fd5b505afa15801561122b573d6000803e3d6000fd5b505050506040513d601f19601f8201168201806040525081019061124f919061562f565b8561125a848c615ddc565b6112649190615ddc565b61127290633b9aca00615ddc565b61127c9190615c3a565b96508c8561128a838b615ddc565b6112949190615ddc565b6112a290633b9aca00615ddc565b6112ac9190615c3a565b95505050505050633b9aca008584886112c59190615ddc565b83856112d1898d615ddc565b6112db9190615bf4565b6112e59190615bf4565b6112ef9190615e53565b6112f99190615c3a565b6113039190615c3a565b9850505050505050505090565b60008281526001602090815260408083206001600160a01b038516845290915290205460ff165b92915050565b7f55435dd261a4b9b3364963f7738a7a662ad9c84396d64be3365284bb7f0a50416113688133611c79565b508051604780546020840151604085015160609095015161ffff1990921693151561ff0019169390931761010093151593909302929092177fffffffffffffffffffffffffffffffffffffffffffffffffffffffff0000ffff1662010000931515939093027fffffffffffffffffffffffffffffffffffffffffffffffffffffffff00ffffff1692909217630100000091151591909102179055565b7f5916f72c85af4ac6f7e34636ecc97619c4b2085da099a5d28f3e58436cfbe56261142f8133611c79565b610cf67f55435dd261a4b9b3364963f7738a7a662ad9c84396d64be3365284bb7f0a504183611ef2565b7f55435dd261a4b9b3364963f7738a7a662ad9c84396d64be3365284bb7f0a50416114848133611c79565b603f5483108015611498575060008260ff16115b80156114a7575060108260ff16105b6114f35760405162461bcd60e51b815260206004820152600160248201527f38000000000000000000000000000000000000000000000000000000000000006044820152606401610870565b506043929092556044556046805460ff191660ff909216919091179055565b7f5916f72c85af4ac6f7e34636ecc97619c4b2085da099a5d28f3e58436cfbe56261153d8133611c79565b610cf67f55435dd261a4b9b3364963f7738a7a662ad9c84396d64be3365284bb7f0a5041836120f7565b7f55435dd261a4b9b3364963f7738a7a662ad9c84396d64be3365284bb7f0a50416115928133611c79565b6034546001600160a01b03848116911614156115f05760405162461bcd60e51b815260206004820152600260248201527f39330000000000000000000000000000000000000000000000000000000000006044820152606401610870565b606060005b815181101561168b5781818151811061161057611610615f31565b60200260200101516001600160a01b0316856001600160a01b031614156116795760405162461bcd60e51b815260206004820152600260248201527f39330000000000000000000000000000000000000000000000000000000000006044820152606401610870565b8061168381615ead565b9150506115f5565b506040516370a0823160e01b815230600482015261171a9084906001600160a01b038716906370a082319060240160206040518083038186803b1580156116d157600080fd5b505afa1580156116e5573d6000803e3d6000fd5b505050506040513d601f19601f82011682018060405250810190611709919061562f565b6001600160a01b0387169190611e49565b50505050565b6000828152600160208190526040909120015461173d8133611c79565b610c5183836120f7565b7ffc8737ab85eb45125971625a9ebdb75cc78e01d5c1fa80c4c6e5203f47bc4fab6117728133611c79565b61177a612485565b610cf682612b74565b6000806000611790610d61565b909250905061185173d784927ff2f95ba542bfc824c8a8a98f3495f6b5638b599f266117ba612d57565b306040518363ffffffff1660e01b81526004016117d8929190615adb565b60206040518083038186803b1580156117f057600080fd5b505afa158015611804573d6000803e3d6000fd5b505050506040513d601f19601f82011682018060405250810190611828919061562f565b611830612deb565b611838612e25565b6118429190615bf4565b61184c9190615bf4565b612aa1565b818361185b612a70565b6118659190615bf4565b61186f9190615e53565b6118799190615bf4565b9250505090565b61188c85848484612e5f565b60468054600660ff1990911617905560646043556611c37937e080006044556123286045556040805160808101825260018082526020820181905260009282019290925260600152604780547fffffffffffffffffffffffffffffffffffffffffffffffffffffffff00000000166301000101179055603780547fffffffffffffffffffffff0000000000000000000000000000000000000000ff166101006001600160a01b0387160217905561194161265c565b6034546040517fd2493b6c0000000000000000000000000000000000000000000000000000000081526001600160a01b039091166004820152600090819073057835ad21a177dbdd3090bb1cae03eacf78fc6d9063d2493b6c9060240160606040518083038186803b1580156119b657600080fd5b505afa1580156119ca573d6000803e3d6000fd5b505050506040513d601f19601f820116820180604052508101906119ee91906153d0565b604880546001600160a01b038086167fffffffffffffffffffffffff000000000000000000000000000000000000000092831617909255604980548385169216919091179055603454939550909350600092839250611a4d9116611d34565b9092509050611a6366470de4df82000082615e53565b604055611a776611c37937e0800082615e53565b604155611a8b6611c37937e0800083615e53565b603f556000611aad736b175474e89094c44da98b954eedeac495271d0f611d34565b509050611ac16611c37937e0800082615e53565b604255603454611aee906001600160a01b0316737d2768de32b0b80b7a3454c06bdac94a69ddc7a9613397565b611b0c85737d2768de32b0b80b7a3454c06bdac94a69ddc7a9613397565b611b3e736b175474e89094c44da98b954eedeac495271d0f731eb4cf3a948e7d72a198fe073ccb8c7a948cd853613397565b611b70734da27a545c0c5b758a6ba100e3a049001de870f5731111111254fb6c44bac0bed2854e76f90643097d613397565b611ba2737fc66500c84a76ad7e9c93437bfc5ac33e2ddae9731111111254fb6c44bac0bed2854e76f90643097d613397565b6034546001600160a01b0316736b175474e89094c44da98b954eedeac495271d0f14611bfa57611bfa736b175474e89094c44da98b954eedeac495271d0f737d2768de32b0b80b7a3454c06bdac94a69ddc7a9613397565b50505050505050505050565b7f5916f72c85af4ac6f7e34636ecc97619c4b2085da099a5d28f3e58436cfbe562611c318133611c79565b6037805460ff191660011790556040517f17fa25a1c2ac074f71f0cf4f6af525c06fab7d83eff5ffcf6df5277f2919ae2490600090a150565b6001600160a01b03163b151590565b611c838282611310565b610cf657611c9b816001600160a01b031660146133ad565b611ca68360206133ad565b604051602001611cb7929190615a5a565b60408051601f198184030181529082905262461bcd60e51b825261087091600401615b38565b805115611cec57805181602001fd5b60405162461bcd60e51b815260206004820152600360248201527f31313700000000000000000000000000000000000000000000000000000000006044820152606401610870565b6040517f3e1501410000000000000000000000000000000000000000000000000000000081526001600160a01b0382166004820152600090819073057835ad21a177dbdd3090bb1cae03eacf78fc6d90633e150141906024016101406040518083038186803b158015611da657600080fd5b505afa158015611dba573d6000803e3d6000fd5b505050506040513d601f19601f82011682018060405250810190611dde919061584d565b50969950949750611e009650655af3107a40009550889450615ddc9350505050565b9150611e12655af3107a400082615ddc565b9050915091565b600080600080611e27610d61565b91509150611e3e85611e37612a70565b84846135d6565b935093505050915091565b6040516001600160a01b038316602482015260448101829052610c519084907fa9059cbb00000000000000000000000000000000000000000000000000000000906064015b60408051601f198184030181529190526020810180517bffffffffffffffffffffffffffffffffffffffffffffffffffffffff167fffffffff00000000000000000000000000000000000000000000000000000000909316929092179091526136b4565b611efc8282611310565b610cf65760008281526001602081815260408084206001600160a01b0386168086529252808420805460ff19169093179092559051339285917f2f8788117e7eff1d82e926ec794901d17c78024a50270940304540a733656f0d9190a45050565b600081611f6c57506000919050565b6034546040517f69328dec0000000000000000000000000000000000000000000000000000000081526001600160a01b03909116600482015260248101839052306044820152737d2768de32b0b80b7a3454c06bdac94a69ddc7a9906369328dec90606401602060405180830381600087803b158015611feb57600080fd5b505af1158015611fff573d6000803e3d6000fd5b505050506040513d601f19601f82011682018060405250810190612023919061562f565b5090919050565b60008161203957506000919050565b6034546040517f573ade810000000000000000000000000000000000000000000000000000000081526001600160a01b0390911660048201526024810183905260026044820152306064820152737d2768de32b0b80b7a3454c06bdac94a69ddc7a99063573ade8190608401602060405180830381600087803b1580156120bf57600080fd5b505af11580156120d3573d6000803e3d6000fd5b505050506040513d601f19601f82011682018060405250810190611337919061562f565b6121018282611310565b15610cf65760008281526001602090815260408083206001600160a01b0385168085529252808320805460ff1916905551339285917ff6391f5c32d9c69d2a47ea670b442974b53935d1edc7fd64eb21e047a839171b9190a45050565b6000612168612e25565b90506000811561217d5761217a613799565b90505b60008211801561218d5750806001145b1561229c576040517f9a99b4f00000000000000000000000000000000000000000000000000000000081523060048201526000196024820152734da27a545c0c5b758a6ba100e3a049001de870f590639a99b4f090604401600060405180830381600087803b1580156121ff57600080fd5b505af1158015612213573d6000803e3d6000fd5b50506040517f1e9a695000000000000000000000000000000000000000000000000000000000815230600482015260248101859052734da27a545c0c5b758a6ba100e3a049001de870f59250631e9a69509150604401600060405180830381600087803b15801561228357600080fd5b505af1158015612297573d6000803e3d6000fd5b505050505b73d784927ff2f95ba542bfc824c8a8a98f3495f6b5633111e7b36122be612d57565b600019306040518463ffffffff1660e01b81526004016122e093929190615b06565b602060405180830381600087803b1580156122fa57600080fd5b505af115801561230e573d6000803e3d6000fd5b505050506040513d601f19601f82011682018060405250810190612332919061562f565b5061233b612e25565b6047549092506301000000900460ff1680156123575750600082115b8015612361575080155b156123ce57734da27a545c0c5b758a6ba100e3a049001de870f56001600160a01b031663787a08a66040518163ffffffff1660e01b8152600401600060405180830381600087803b1580156123b557600080fd5b505af11580156123c9573d6000803e3d6000fd5b505050505b5090565b6048546040516370a0823160e01b81523060048201526000916001600160a01b0316906370a08231906024015b60206040518083038186803b15801561241757600080fd5b505afa15801561242b573d6000803e3d6000fd5b505050506040513d601f19601f8201168201806040525081019061244f919061562f565b905090565b6049546040516370a0823160e01b81523060048201526000916001600160a01b0316906370a08231906024016123ff565b6000806000603360009054906101000a90046001600160a01b03166001600160a01b031663bf3759b56040518163ffffffff1660e01b815260040160206040518083038186803b1580156124d857600080fd5b505afa1580156124ec573d6000803e3d6000fd5b505050506040513d601f19601f82011682018060405250810190612510919061562f565b60375490915060009060ff161561256d57600061252b61389a565b9050828110156125465761253f8184615e53565b935061255b565b8281111561255b576125588382615e53565b94505b6125658484615e53565b91505061257e565b612576826138ad565b919550935090505b6040805185815260208101859052908101829052606081018390527f4c0f499ffe6befa0ca7c826b0916cf87bea98de658013e76938489368d60d5099060800160405180910390a16033546040517fa1d9bafc0000000000000000000000000000000000000000000000000000000081526004810186905260248101859052604481018390526001600160a01b039091169063a1d9bafc90606401600060405180830381600087803b15801561263357600080fd5b505af1158015612647573d6000803e3d6000fd5b5050505050505050565b610d8c600019612b74565b6034546040517f3e1501410000000000000000000000000000000000000000000000000000000081526001600160a01b03909116600482015260009073057835ad21a177dbdd3090bb1cae03eacf78fc6d90633e150141906024016101406040518083038186803b1580156126d057600080fd5b505afa1580156126e4573d6000803e3d6000fd5b505050506040513d601f19601f82011682018060405250810190612708919061584d565b5050505050945050505050734da27a545c0c5b758a6ba100e3a049001de870f56001600160a01b03166372b49d636040518163ffffffff1660e01b815260040160206040518083038186803b15801561276057600080fd5b505afa158015612774573d6000803e3d6000fd5b505050506040513d601f19601f82011682018060405250810190612798919061562f565b603881905550734da27a545c0c5b758a6ba100e3a049001de870f56001600160a01b031663359c4a966040518163ffffffff1660e01b815260040160206040518083038186803b1580156127eb57600080fd5b505afa1580156127ff573d6000803e3d6000fd5b505050506040513d601f19601f82011682018060405250810190612823919061562f565b60395561283a8169152d02c7e14af6800000615ddc565b603a81905550603760019054906101000a90046001600160a01b03166001600160a01b0316637b832f586040518163ffffffff1660e01b815260040160206040518083038186803b15801561288e57600080fd5b505afa1580156128a2573d6000803e3d6000fd5b505050506040513d601f19601f820116820180604052508101906128c6919061562f565b603b81905550603760019054906101000a90046001600160a01b03166001600160a01b03166365614f816040518163ffffffff1660e01b815260040160206040518083038186803b15801561291a57600080fd5b505afa15801561292e573d6000803e3d6000fd5b505050506040513d601f19601f82011682018060405250810190612952919061562f565b603c81905550603760019054906101000a90046001600160a01b03166001600160a01b031663b25895446040518163ffffffff1660e01b815260040160206040518083038186803b1580156129a657600080fd5b505afa1580156129ba573d6000803e3d6000fd5b505050506040513d601f19601f820116820180604052508101906129de919061562f565b603d81905550603760019054906101000a90046001600160a01b03166001600160a01b031663a15f30ac6040518163ffffffff1660e01b815260040160206040518083038186803b158015612a3257600080fd5b505afa158015612a46573d6000803e3d6000fd5b505050506040513d601f19601f82011682018060405250810190612a6a919061562f565b603e5550565b6034546040516370a0823160e01b81523060048201526000916001600160a01b0316906370a08231906024016123ff565b60008073547a514d5e3769680ce22b2361c10ea13619e8a96001600160a01b031663feaf968c6040518163ffffffff1660e01b815260040160a06040518083038186803b158015612af157600080fd5b505afa158015612b05573d6000803e3d6000fd5b505050506040513d601f19601f82011682018060405250810190612b299190615998565b5050509150506c0c9f2c9cd04674edea400000006045546035548584612b4f9190615ddc565b612b599190615ddc565b612b639190615ddc565b612b6d9190615c3a565b9392505050565b603354604080517fbf3759b500000000000000000000000000000000000000000000000000000000815290516000926001600160a01b03169163bf3759b5916004808301926020929190829003018186803b158015612bd257600080fd5b505afa158015612be6573d6000803e3d6000fd5b505050506040513d601f19601f82011682018060405250810190612c0a919061562f565b90506000612c16612a70565b90508181118015612c315750604354612c2f8383615e53565b115b15612c5457612c48612c438383615e53565b613a4c565b50612c51612a70565b90505b600080612c5f610d61565b915091506000198514612c725784612c74565b805b60475490955060009060ff1615612cac57612ca582612c938587615bf4565b612c9d9190615e53565b848489613b00565b9050612cb1565b506040545b6000612cbd8484613b48565b905084861115612ce7576000612cd38688615e53565b9050612ce0818686613b63565b5050612d4e565b81811015612d1157604454612cfc8284615e53565b1115612d0c57612d0c8484613bc0565b612d4e565b81811115612d4e57604454612d268383615e53565b1115612d4e576000612d41612d3b8587615e53565b84613c72565b9050612647818686613c90565b50505050505050565b6040805160028082526060808301845292602083019080368337505060485482519293506001600160a01b031691839150600090612d9757612d97615f31565b6001600160a01b039283166020918202929092010152604954825191169082906001908110612dc857612dc8615f31565b60200260200101906001600160a01b031690816001600160a01b03168152505090565b6040516370a0823160e01b8152306004820152600090737fc66500c84a76ad7e9c93437bfc5ac33e2ddae9906370a08231906024016123ff565b6040516370a0823160e01b8152306004820152600090734da27a545c0c5b758a6ba100e3a049001de870f5906370a08231906024016123ff565b600054610100900460ff16612e7a5760005460ff1615612e7e565b303b155b612ef05760405162461bcd60e51b815260206004820152602e60248201527f496e697469616c697a61626c653a20636f6e747261637420697320616c72656160448201527f647920696e697469616c697a65640000000000000000000000000000000000006064820152608401610870565b600054610100900460ff16158015612f12576000805461ffff19166101011790555b603380547fffffffffffffffffffffffff0000000000000000000000000000000000000000166001600160a01b038716908117909155604080517ffc0c546a000000000000000000000000000000000000000000000000000000008152905163fc0c546a91600480820192602092909190829003018186803b158015612f9757600080fd5b505afa158015612fab573d6000803e3d6000fd5b505050506040513d601f19601f82011682018060405250810190612fcf919061537a565b603480547fffffffffffffffffffffffff0000000000000000000000000000000000000000166001600160a01b03929092169182179055604080517f313ce567000000000000000000000000000000000000000000000000000000008152905163313ce56791600480820192602092909190829003018186803b15801561305557600080fd5b505afa158015613069573d6000803e3d6000fd5b505050506040513d601f19601f8201168201806040525081019061308d91906159e8565b61309890600a615c91565b6035556001600160a01b038316158015906130bb57506001600160a01b03841615155b80156130d95750826001600160a01b0316846001600160a01b031614155b6131255760405162461bcd60e51b815260206004820152600160248201527f30000000000000000000000000000000000000000000000000000000000000006044820152606401610870565b61314f7f55435dd261a4b9b3364963f7738a7a662ad9c84396d64be3365284bb7f0a504184613dc4565b6131797f55435dd261a4b9b3364963f7738a7a662ad9c84396d64be3365284bb7f0a504185613dc4565b6131a37f5916f72c85af4ac6f7e34636ecc97619c4b2085da099a5d28f3e58436cfbe56286613dc4565b6131cd7f5916f72c85af4ac6f7e34636ecc97619c4b2085da099a5d28f3e58436cfbe56280613dce565b6132177f55435dd261a4b9b3364963f7738a7a662ad9c84396d64be3365284bb7f0a50417f5916f72c85af4ac6f7e34636ecc97619c4b2085da099a5d28f3e58436cfbe562613dce565b60005b82518110156132f45760006001600160a01b031683828151811061324057613240615f31565b60200260200101516001600160a01b0316141561329f5760405162461bcd60e51b815260206004820152600160248201527f30000000000000000000000000000000000000000000000000000000000000006044820152606401610870565b6132e27ffc8737ab85eb45125971625a9ebdb75cc78e01d5c1fa80c4c6e5203f47bc4fab8483815181106132d5576132d5615f31565b6020026020010151613dc4565b806132ec81615ead565b91505061321a565b5061333f7ffc8737ab85eb45125971625a9ebdb75cc78e01d5c1fa80c4c6e5203f47bc4fab7f55435dd261a4b9b3364963f7738a7a662ad9c84396d64be3365284bb7f0a5041613dce565b613352670de0b6b3a76400006064615ddc565b6036556037805460ff1916905560335460345461337e916001600160a01b039182169116600019613e25565b8015613390576000805461ff00191690555b5050505050565b610cf66001600160a01b03831682600019613f18565b606060006133bc836002615ddc565b6133c7906002615bf4565b67ffffffffffffffff8111156133df576133df615f47565b6040519080825280601f01601f191660200182016040528015613409576020820181803683370190505b5090507f30000000000000000000000000000000000000000000000000000000000000008160008151811061344057613440615f31565b60200101907effffffffffffffffffffffffffffffffffffffffffffffffffffffffffffff1916908160001a9053507f7800000000000000000000000000000000000000000000000000000000000000816001815181106134a3576134a3615f31565b60200101907effffffffffffffffffffffffffffffffffffffffffffffffffffffffffffff1916908160001a90535060006134df846002615ddc565b6134ea906001615bf4565b90505b6001811115613587577f303132333435363738396162636465660000000000000000000000000000000085600f166010811061352b5761352b615f31565b1a60f81b82828151811061354157613541615f31565b60200101907effffffffffffffffffffffffffffffffffffffffffffffffffffffffffffff1916908160001a90535060049490941c9361358081615e96565b90506134ed565b508315612b6d5760405162461bcd60e51b815260206004820181905260248201527f537472696e67733a20686578206c656e67746820696e73756666696369656e746044820152606401610870565b600080858511156135ec575084905060006136ab565b60006135f88688615e53565b9050613605818686613b63565b5061360e612a70565b95508587111561363c5785925060006136278489615e53565b90506043548111613636578092505b50613640565b8692505b60475462010000900460ff16156136a95761365b8284615bf4565b87146136a95760405162461bcd60e51b815260206004820152600260248201527f35340000000000000000000000000000000000000000000000000000000000006044820152606401610870565b505b94509492505050565b6000613709826040518060400160405280602081526020017f5361666545524332303a206c6f772d6c6576656c2063616c6c206661696c6564815250856001600160a01b03166140759092919063ffffffff16565b805190915015610c51578080602001905181019061372791906155cd565b610c515760405162461bcd60e51b815260206004820152602a60248201527f5361666545524332303a204552433230206f7065726174696f6e20646964206e60448201527f6f742073756363656564000000000000000000000000000000000000000000006064820152608401610870565b6040517f091030c30000000000000000000000000000000000000000000000000000000081523060048201526000908190734da27a545c0c5b758a6ba100e3a049001de870f59063091030c39060240160206040518083038186803b15801561380157600080fd5b505afa158015613815573d6000803e3d6000fd5b505050506040513d601f19601f82011682018060405250810190613839919061562f565b905060006038548261384b9190615bf4565b90508161385b5760009250505090565b804211801561387657506039546138729082615bf4565b4211155b156138845760019250505090565b804210156138955760029250505090565b505090565b60006138a7600019611e19565b50919050565b6033546040517f39ebf8230000000000000000000000000000000000000000000000000000000081523060048201526000918291829182916001600160a01b03909116906339ebf8239060240160606040518083038186803b15801561391257600080fd5b505afa158015613926573d6000803e3d6000fd5b505050506040513d601f19601f8201168201806040525081019061394a91906156f2565b602001519050600061395a612a70565b9050600080613967610d61565b90925090506000816139798486615bf4565b6139839190615e53565b90508085111561399e576139978186615e53565b96506139ab565b6139a88582615e53565b97505b60006139b7898b615bf4565b905084811115613a1e576139cd818686866135d6565b5094508085106139fd57899650886139e58883615e53565b10156139f8576139f58782615e53565b98505b613a3f565b89851015613a115760009850849650613a3f565b8996506139f58786615e53565b89965088613a2c8883615e53565b1015613a3f57613a3c8782615e53565b98505b5050505050509193909250565b600081613a5b57506000919050565b6034546040517fe8eda9df0000000000000000000000000000000000000000000000000000000081526001600160a01b0390911660048201526024810183905230604482015260006064820152737d2768de32b0b80b7a3454c06bdac94a69ddc7a99063e8eda9df906084015b600060405180830381600087803b158015613ae257600080fd5b505af1158015613af6573d6000803e3d6000fd5b5093949350505050565b600080613b0f8686868661408c565b90506000613b26613b208389615bf4565b83613b48565b60415490915080821115613b38578091505b5060408190559695505050505050565b600082156113375782612b63670de0b6b3a764000084615ddc565b600083613b7257506000612b6d565b6000613b7e8385615e53565b90506000613ba1613b8f8784614498565b613b999084615e53565b604054613c72565b9050613bae818686613c90565b613bb6612a70565b9695505050505050565b600081613bd0613b998286615e53565b613bda9190615e53565b604754909150610100900460ff1615613c2157613bf88184846144a7565b613c029082615e53565b9050604354811115610c5157613c178161453f565b61171a9082615e53565b60005b60465460ff908116908216108015613c3d575060435482115b1561171a57613c4d8285856144a7565b613c579083615e53565b60009450849350915080613c6a81615ec8565b915050613c24565b6000613c8682670de0b6b3a7640000615e53565b612b638385615ddc565b82811115613d58576000613ca48483615e53565b604754909150610100900460ff1615613cce57613cc1818361463d565b613ccb9082615e53565b90505b60415460005b60465460ff908116908216108015613ced575060435483115b15613d4757613cfe82600080614721565b50826000613d0a612a70565b905080821115613d18578091505b6000613d238361202a565b9050613d2f8187615e53565b95505050508080613d3f90615ec8565b915050613cd4565b50613d50610d61565b909450925050505b6040546000613d68838386614781565b905083811115613da6576000613d7e8583615e53565b9050604354811115613da057613d9e612c4382613d99612a70565b614498565b505b50613390565b604354613db38286615e53565b111561339057610879828585614721565b610cf68282611ef2565b60008281526001602081905260409091200154819060405184907fbd79b86ffe0ab8e8776151514217cd7cacd52c909f66475c3af44e129f0b00ff90600090a4600091825260016020819052604090922090910155565b6040517fdd62ed3e0000000000000000000000000000000000000000000000000000000081523060048201526001600160a01b038381166024830152600091839186169063dd62ed3e9060440160206040518083038186803b158015613e8a57600080fd5b505afa158015613e9e573d6000803e3d6000fd5b505050506040513d601f19601f82011682018060405250810190613ec2919061562f565b613ecc9190615bf4565b6040516001600160a01b03851660248201526044810182905290915061171a9085907f095ea7b30000000000000000000000000000000000000000000000000000000090606401611e8e565b801580613fba57506040517fdd62ed3e0000000000000000000000000000000000000000000000000000000081523060048201526001600160a01b03838116602483015284169063dd62ed3e9060440160206040518083038186803b158015613f8057600080fd5b505afa158015613f94573d6000803e3d6000fd5b505050506040513d601f19601f82011682018060405250810190613fb8919061562f565b155b61402c5760405162461bcd60e51b815260206004820152603660248201527f5361666545524332303a20617070726f76652066726f6d206e6f6e2d7a65726f60448201527f20746f206e6f6e2d7a65726f20616c6c6f77616e6365000000000000000000006064820152608401610870565b6040516001600160a01b038316602482015260448101829052610c519084907f095ea7b30000000000000000000000000000000000000000000000000000000090606401611e8e565b606061408484846000856147b4565b949350505050565b6000806035546b033b2e3c9fd0803ce80000006140a99190615c3a565b9050614116604051806101a00160405280600081526020016000815260200160008152602001600081526020016000815260200160008152602001600081526020016000815260200160008152602001600081526020016000815260200160008152602001600081525090565b6034546040517f35ea6a750000000000000000000000000000000000000000000000000000000081526001600160a01b03909116600482015260009081908190819073057835ad21a177dbdd3090bb1cae03eacf78fc6d906335ea6a75906024016101406040518083038186803b15801561419057600080fd5b505afa1580156141a4573d6000803e3d6000fd5b505050506040513d601f19601f820116820180604052508101906141c891906158f4565b5050509650505050935093509350604051806101a00160405280603a54815260200187856141f69190615ddc565b8152602001876142068c86615e53565b6142109190615ddc565b8152602001878c8e86614223898b615bf4565b61422d9190615bf4565b6142379190615bf4565b6142419190615e53565b61424b9190615ddc565b81526020018281526020016000815260200160008152602001878d6142709190615ddc565b815260200161427f888b615ddc565b8152602001603b548152602001603c548152602001603d548152602001603e5481525094505050505060006142bb670de0b6b3a7640000612aa1565b604854604051631e23703160e31b81526001600160a01b03909116600482015290915060009073d784927ff2f95ba542bfc824c8a8a98f3495f6b59063f11b81889060240160606040518083038186803b15801561431857600080fd5b505afa15801561432c573d6000803e3d6000fd5b505050506040513d601f19601f8201168201806040525081019061435091906157ed565b5050604954604051631e23703160e31b81526001600160a01b03909116600482015290915060009073d784927ff2f95ba542bfc824c8a8a98f3495f6b59063f11b81889060240160606040518083038186803b1580156143af57600080fd5b505afa1580156143c3573d6000803e3d6000fd5b505050506040513d601f19601f820116820180604052508101906143e791906157ed565b5050603554909150836143fd8462015180615ddc565b6144099061016d615ddc565b6144139190615ddc565b61442190633b9aca00615ddc565b61442b9190615c3a565b60a0850152603554836144418362015180615ddc565b61444d9061016d615ddc565b6144579190615ddc565b61446590633b9aca00615ddc565b61446f9190615c3a565b60c0850152508391506144839050826148f1565b61448d9190615c3a565b979650505050505050565b60008183106120235781612b6d565b6000821580156144b5575081155b156144c8576144c2610d61565b90935091505b60006144d2612a70565b905060006144eb6144e38387615bf4565b603f546149fa565b90508381116144ff57600092505050612b6d565b6145098482615e53565b905085811015614517578095505b61452082613a4c565b5061452a86614a0f565b5061453486613a4c565b509495945050505050565b600080600061454c610d61565b91509150600061455f82603f5485614781565b9050600083821115614578576145758483615e53565b90505b6034546042546040517fbf5061df00000000000000000000000000000000000000000000000000000000815260006004820152602481018990526001600160a01b03909216604483015260648201526084810182905273__$769b0789f1f3504b29e5e16055ef62b17c$__9063bf5061df9060a40160206040518083038186803b15801561460557600080fd5b505af4158015614619573d6000803e3d6000fd5b505050506040513d601f19601f82011682018060405250810190613bb6919061562f565b6000604354831161465057506000611337565b8183111561465c578192505b6034546042546040517fbf5061df00000000000000000000000000000000000000000000000000000000815260016004820152602481018690526001600160a01b03909216604483015260648201526000608482015273__$769b0789f1f3504b29e5e16055ef62b17c$__9063bf5061df9060a40160206040518083038186803b1580156146e957600080fd5b505af41580156146fd573d6000803e3d6000fd5b505050506040513d601f19601f82011682018060405250810190612b6d919061562f565b60008215801561472f575081155b156147425761473c610d61565b90935091505b600061474f838686614781565b9050808411156147795760006147658286615e53565b905061477081611f5d565b92505050612b6d565b509392505050565b600082156147ad578261479c670de0b6b3a764000086615ddc565b6147a69190615c3a565b9050612b6d565b5080612b6d565b60608247101561482c5760405162461bcd60e51b815260206004820152602660248201527f416464726573733a20696e73756666696369656e742062616c616e636520666f60448201527f722063616c6c00000000000000000000000000000000000000000000000000006064820152608401610870565b6001600160a01b0385163b6148835760405162461bcd60e51b815260206004820152601d60248201527f416464726573733a2063616c6c20746f206e6f6e2d636f6e74726163740000006044820152606401610870565b600080866001600160a01b0316858760405161489f9190615a3e565b60006040518083038185875af1925050503d80600081146148dc576040519150601f19603f3d011682016040523d82523d6000602084013e6148e1565b606091505b509150915061448d828286614a8a565b6000806149016000846001614ac3565b50509050600061491f6b033b2e3c9fd0803ce8000000856001614ac3565b50509050818113614934575060009392505050565b60008060008087610100015196505b600a8410801561497657508315806149765750826149696149648983615dfb565b615095565b614974906014615d3c565b135b156149d05761498787896000614ac3565b89955090935091508190506149a86b033b2e3c9fd0803ce800000084615d3c565b6149b29190615c0c565b6149bc9084615dfb565b96506149c9600185615bf4565b9350614943565b60006149de888a6001614ac3565b505090508681136149ee57600097505b50505050505050919050565b6000670de0b6b3a7640000612b638385615ddc565b6034546040517fa415bcad0000000000000000000000000000000000000000000000000000000081526001600160a01b039091166004820152602481018290526002604482015260006064820181905230608483015290737d2768de32b0b80b7a3454c06bdac94a69ddc7a99063a415bcad9060a401613ac8565b60608315614a99575081612b6d565b825115614aa95782518084602001fd5b8160405162461bcd60e51b81526004016108709190615b38565b600080600080600080614ad689896150ad565b925092509250600088606001518a614aee9190615b9c565b8951614b06906b033b2e3c9fd0803ce8000000615dfb565b60e08b0151614b15908d615b9c565b614b1f9190615d3c565b614b299190615c0c565b905060006b033b2e3c9fd0803ce8000000858b604001518d614b4b9190615b9c565b614b559190615d3c565b8b608001518c60200151614b699190615d3c565b614b739190615b9c565b614b7d9190615c0c565b90506b033b2e3c9fd0803ce8000000614b96868d615d3c565b614ba09190615c0c565b60608b0151614baf908d615b9c565b60a08c015160e08d0151614bc3908f615b9c565b614bcd9190615d3c565b614bd79190615c0c565b60408c0151614be6908e615b9c565b60c08d0151614bf5908f615d3c565b614bff9190615c0c565b6b033b2e3c9fd0803ce8000000614c168587615d3c565b614c209190615c0c565b614c2a9190615b9c565b614c349190615b9c565b614c3e9190615dfb565b9750886150875760008a606001518c614c579190615b9c565b8b51614c6f906b033b2e3c9fd0803ce8000000615dfb565b8c60e001518d60600151614c839190615dfb565b614c8d9190615d3c565b614c979190615c0c565b90508a606001518c614ca99190615b9c565b614cbf6b033b2e3c9fd0803ce800000083615d3c565b614cc99190615c0c565b905060006b033b2e3c9fd0803ce8000000868d604001518f614ceb9190615b9c565b614cf59190615d3c565b614d0b6b033b2e3c9fd0803ce80000008a615d3c565b614d159190615b9c565b614d1f9190615c0c565b90506b033b2e3c9fd0803ce8000000614d388583615d3c565b614d428585615d3c565b614d4c9190615b9c565b614d569190615c0c565b985060008c606001518e614d6a9190615b9c565b614d806b033b2e3c9fd0803ce800000085615d3c565b614d8c90600119615d3c565b614d969190615c0c565b9050614da28482615d3c565b82614dae856002615d3c565b614db89190615d3c565b614dc29190615b9c565b9850506b033b2e3c9fd0803ce8000000858d604001518f614de39190615b9c565b614ded9190615d3c565b6b033b2e3c9fd0803ce8000000614e05896002615d3c565b614e0f9190615d3c565b614e199190615b9c565b614e239190615c0c565b90506b033b2e3c9fd0803ce8000000614e3c8583615d3c565b614e46908a615b9c565b614e509190615c0c565b9750505060006b033b2e3c9fd0803ce8000000858d614e6f9190615d3c565b614e856b033b2e3c9fd0803ce800000089615d3c565b614e8f9190615b9c565b614e999190615c0c565b905060008b604001518d614ead9190615b9c565b8c604001518d60c00151614ec19190615d3c565b614ecb9190615c0c565b90508b604001518d614edd9190615b9c565b614ef36b033b2e3c9fd0803ce800000083615d3c565b614efd9190615c0c565b905060008c606001518e614f119190615b9c565b8d60e001518e60600151614f259190615dfb565b8e60a00151614f349190615d3c565b614f3e9190615c0c565b90508c606001518e614f509190615b9c565b614f666b033b2e3c9fd0803ce800000083615d3c565b614f709190615c0c565b905082614f7d8284615b9c565b614f879190615dfb565b614f91908b615b9c565b99506b033b2e3c9fd0803ce8000000868f614fac9190615d3c565b6b033b2e3c9fd0803ce8000000614fc48a6002615d3c565b614fce9190615d3c565b614fd89190615b9c565b614fe29190615c0c565b92508c604001518e614ff49190615b9c565b6b033b2e3c9fd0803ce800000061500d84600119615d3c565b6150179190615d3c565b6150219190615c0c565b91508c606001518e6150339190615b9c565b6b033b2e3c9fd0803ce800000061504c83600119615d3c565b6150569190615d3c565b6150609190615c0c565b90508261506d8284615b9c565b6150779190615dfb565b615081908a615b9c565b98505050505b505050505093509350939050565b6000808212156123ce576150a882615ee8565b611337565b6000806000806150bd86866152aa565b905060008686606001516150d19190615b9c565b905060006150df88886152fc565b9050816150f86b033b2e3c9fd0803ce800000083615d3c565b6151029190615c0c565b9050600061511282600119615d3c565b90508261512b6b033b2e3c9fd0803ce800000083615d3c565b6151359190615c0c565b90508761018001518412156151c2578761018001518489610120015161515b9190615d3c565b6151659190615c0c565b8861016001516151759190615b9c565b96508761018001518289610120015161518e9190615d3c565b6151989190615c0c565b9550876101800151818961012001516151b19190615d3c565b6151bb9190615c0c565b945061529f565b6101808801516151de906b033b2e3c9fd0803ce8000000615dfb565b6101808901516151ee9086615dfb565b8961014001516151fe9190615d3c565b6152089190615c0c565b88610120015189610160015161521e9190615b9c565b6152289190615b9c565b96508761018001516b033b2e3c9fd0803ce80000006152479190615dfb565b828961014001516152589190615d3c565b6152629190615c0c565b95508761018001516b033b2e3c9fd0803ce80000006152819190615dfb565b818961014001516152929190615d3c565b61529c9190615c0c565b94505b505050509250925092565b60008282606001516152bc9190615b9c565b6b033b2e3c9fd0803ce800000084846040015185602001516152de9190615b9c565b6152e89190615b9c565b6152f29190615d3c565b612b6d9190615c0c565b600082826060015161530e9190615b9c565b6b033b2e3c9fd0803ce80000008360400151846020015185606001516153349190615dfb565b6152e89190615dfb565b805169ffffffffffffffffffff8116811461535857600080fd5b919050565b60006020828403121561536f57600080fd5b8135612b6d81615f5d565b60006020828403121561538c57600080fd5b8151612b6d81615f5d565b600080604083850312156153aa57600080fd5b82356153b581615f5d565b915060208301356153c581615f5d565b809150509250929050565b6000806000606084860312156153e557600080fd5b83516153f081615f5d565b602085015190935061540181615f5d565b604085015190925061541281615f5d565b809150509250925092565b60008060008060008060a0878903121561543657600080fd5b863561544181615f5d565b9550602087013561545181615f5d565b94506040870135935060608701359250608087013567ffffffffffffffff8082111561547c57600080fd5b818901915089601f83011261549057600080fd5b81358181111561549f57600080fd5b8a60208285010111156154b157600080fd5b6020830194508093505050509295509295509295565b600080600080600060a086880312156154df57600080fd5b85356154ea81615f5d565b94506020868101356154fb81615f5d565b9450604087013561550b81615f5d565b9350606087013561551b81615f5d565b9250608087013567ffffffffffffffff8082111561553857600080fd5b818901915089601f83011261554c57600080fd5b81358181111561555e5761555e615f47565b8060051b915061556f848301615b6b565b8181528481019084860184860187018e101561558a57600080fd5b600095505b838610156155b957803594506155a485615f5d565b8483526001959095019491860191860161558f565b508096505050505050509295509295909350565b6000602082840312156155df57600080fd5b8151612b6d81615f75565b600080604083850312156155fd57600080fd5b823561560881615f75565b946020939093013593505050565b60006020828403121561562857600080fd5b5035919050565b60006020828403121561564157600080fd5b5051919050565b6000806040838503121561565b57600080fd5b8235915060208301356153c581615f5d565b60006080828403121561567f57600080fd5b6040516080810181811067ffffffffffffffff821117156156a2576156a2615f47565b60405282356156b081615f75565b815260208301356156c081615f75565b602082015260408301356156d381615f75565b604082015260608301356156e681615f75565b60608201529392505050565b60006060828403121561570457600080fd5b6040516060810181811067ffffffffffffffff8211171561572757615727615f47565b80604052508251815260208301516020820152604083015160408201528091505092915050565b6000806040838503121561576157600080fd5b8235915060208084013567ffffffffffffffff8082111561578157600080fd5b818601915086601f83011261579557600080fd5b8135818111156157a7576157a7615f47565b6157b984601f19601f84011601615b6b565b915080825287848285010111156157cf57600080fd5b80848401858401376000848284010152508093505050509250929050565b60008060006060848603121561580257600080fd5b8351925060208401519150604084015190509250925092565b6000806000806080858703121561583157600080fd5b5050823594602084013594506040840135936060013592509050565b6000806000806000806000806000806101408b8d03121561586d57600080fd5b8a51995060208b0151985060408b0151975060608b0151965060808b0151955060a08b015161589b81615f75565b60c08c01519095506158ac81615f75565b60e08c01519094506158bd81615f75565b6101008c01519093506158cf81615f75565b6101208c01519092506158e181615f75565b809150509295989b9194979a5092959850565b6000806000806000806000806000806101408b8d03121561591457600080fd5b8a51995060208b0151985060408b0151975060608b0151965060808b0151955060a08b0151945060c08b0151935060e08b015192506101008b015191506101208b015164ffffffffff811681146158e157600080fd5b60008060006060848603121561597f57600080fd5b8335925060208401359150604084013561541281615f83565b600080600080600060a086880312156159b057600080fd5b6159b98661533e565b94506020860151935060408601519250606086015191506159dc6080870161533e565b90509295509295909350565b6000602082840312156159fa57600080fd5b8151612b6d81615f83565b600081518084526020808501945080840160005b838110156145345781516001600160a01b031687529582019590820190600101615a19565b60008251615a50818460208701615e6a565b9190910192915050565b7f416363657373436f6e74726f6c3a206163636f756e7420000000000000000000815260008351615a92816017850160208801615e6a565b7f206973206d697373696e6720726f6c65200000000000000000000000000000006017918401918201528351615acf816028840160208801615e6a565b01602801949350505050565b604081526000615aee6040830185615a05565b90506001600160a01b03831660208301529392505050565b606081526000615b196060830186615a05565b90508360208301526001600160a01b0383166040830152949350505050565b6020815260008251806020840152615b57816040850160208701615e6a565b601f01601f19169190910160400192915050565b604051601f8201601f1916810167ffffffffffffffff81118282101715615b9457615b94615f47565b604052919050565b6000808212827f7fffffffffffffffffffffffffffffffffffffffffffffffffffffffffffffff03841381151615615bd657615bd6615f05565b82600160ff1b038412811615615bee57615bee615f05565b50500190565b60008219821115615c0757615c07615f05565b500190565b600082615c1b57615c1b615f1b565b6000198314600160ff1b83141615615c3557615c35615f05565b500590565b600082615c4957615c49615f1b565b500490565b600181815b80851115615c89578160001904821115615c6f57615c6f615f05565b80851615615c7c57918102915b93841c9390800290615c53565b509250929050565b6000612b6d60ff841683600082615caa57506001611337565b81615cb757506000611337565b8160018114615ccd5760028114615cd757615cf3565b6001915050611337565b60ff841115615ce857615ce8615f05565b50506001821b611337565b5060208310610133831016604e8410600b8410161715615d16575081810a611337565b615d208383615c4e565b8060001904821115615d3457615d34615f05565b029392505050565b60007f7fffffffffffffffffffffffffffffffffffffffffffffffffffffffffffffff600084136000841385830485118282161615615d7d57615d7d615f05565b600160ff1b6000871286820588128184161615615d9c57615d9c615f05565b60008712925087820587128484161615615db857615db8615f05565b87850587128184161615615dce57615dce615f05565b505050929093029392505050565b6000816000190483118215151615615df657615df6615f05565b500290565b600080831283600160ff1b01831281151615615e1957615e19615f05565b837f7fffffffffffffffffffffffffffffffffffffffffffffffffffffffffffffff018313811615615e4d57615e4d615f05565b50500390565b600082821015615e6557615e65615f05565b500390565b60005b83811015615e85578181015183820152602001615e6d565b8381111561171a5750506000910152565b600081615ea557615ea5615f05565b506000190190565b6000600019821415615ec157615ec1615f05565b5060010190565b600060ff821660ff811415615edf57615edf615f05565b60010192915050565b6000600160ff1b821415615efe57615efe615f05565b5060000390565b634e487b7160e01b600052601160045260246000fd5b634e487b7160e01b600052601260045260246000fd5b634e487b7160e01b600052603260045260246000fd5b634e487b7160e01b600052604160045260246000fd5b6001600160a01b0381168114615f7257600080fd5b50565b8015158114615f7257600080fd5b60ff81168114615f7257600080fdfea264697066735822122077ff7ffe4f2d059fa4fd7bb9459cfa0e12fafa86d59ebcb79bfa6ff774a9449564736f6c63430008070033",
  "libraries": {
    "FlashMintLib": "0x169487a55dE79476125A56B07C36cA8dbF37a373"
  },
  "devdoc": {
    "author": "Yearn Finance (https://etherscan.io/address/0xd4E94061183b2DBF24473F28A3559cf4dE4459Db#code) but heavily reviewed and modified by Angle Core Team",
    "details": "Angle strategies computes the optimal collateral ratio based on AAVE rewards for deposits and borrows",
    "kind": "dev",
    "methods": {
      "addGuardian(address)": {
        "params": {
          "_guardian": "New guardian address"
        }
      },
      "estimatedTotalAssets()": {
        "details": "It sums the effective deposit amount to the rewards accumulated"
      },
      "getCurrentPosition()": {
        "details": "The actual amount brought is `deposits - borrows`"
      },
      "getRoleAdmin(bytes32)": {
        "details": "Returns the admin role that controls `role`. See {grantRole} and {revokeRole}. To change a role's admin, use {_setRoleAdmin}."
      },
      "grantRole(bytes32,address)": {
        "details": "Grants `role` to `account`. If `account` had not been already granted `role`, emits a {RoleGranted} event. Requirements: - the caller must have ``role``'s admin role."
      },
      "harvest(uint256)": {
        "params": {
          "borrowInit": "Approximate optimal borrows to have faster convergence on the NR method"
        }
      },
      "hasRole(bytes32,address)": {
        "details": "Returns `true` if `account` has been granted `role`."
      },
      "initialize(address,address,address,address,address[])": {
        "params": {
          "_poolManager": "Address of the `PoolManager` lending to this strategy",
          "governor": "Governor address of the protocol",
          "guardian": "Address of the guardian",
          "interestRateStrategyAddress_": "Address of the `InterestRateStrategy` defining borrow rates for the collateral",
          "keepers": "List of the addresses with keeper privilege"
        }
      },
      "isActive()": {
        "returns": {
          "_0": "True if the strategy is actively managing a position."
        }
      },
      "manualDeleverage(uint256)": {
        "params": {
          "amount": "Amount of `want` to withdraw/repay"
        }
      },
      "manualReleaseWant(uint256)": {
        "params": {
          "amount": "Amount of `want` to withdraw"
        }
      },
      "onFlashLoan(address,address,uint256,uint256,bytes)": {
        "details": "If everything went smoothly, will return `keccak256(\"ERC3156FlashBorrower.onFlashLoan\")`"
      },
      "renounceRole(bytes32,address)": {
        "details": "Revokes `role` from the calling account. Roles are often managed via {grantRole} and {revokeRole}: this function's purpose is to provide a mechanism for accounts to lose their privileges if they are compromised (such as when a trusted device is misplaced). If the calling account had been granted `role`, emits a {RoleRevoked} event. Requirements: - the caller must be `account`."
      },
      "revokeGuardian(address)": {
        "params": {
          "guardian": "Old guardian address to revoke"
        }
      },
      "revokeRole(bytes32,address)": {
        "details": "Revokes `role` from `account`. If `account` had been granted `role`, emits a {RoleRevoked} event. Requirements: - the caller must have ``role``'s admin role."
      },
      "sellRewards(uint256,bytes)": {
        "params": {
          "minAmountOut": "Minimum amount of `want` to receive for the swap to happen",
          "payload": "Bytes needed for 1Inch API. Tokens swapped should be: stkAave -> `want` or Aave -> `want`"
        }
      },
      "setAavePoolVariables()": {
        "details": "No access control needed because they fetch the values from Aave directly. If it changes there, it will need to be updated here tooWe expect the values concerned not to be often modified"
      },
      "setDebtThreshold(uint256)": {
        "details": "By default this is 0, meaning any losses would cause a harvest which will subsequently report the loss to the Manager for tracking.",
        "params": {
          "_debtThreshold": "How big of a loss this Strategy may carry without"
        }
      },
      "setEmergencyExit()": {
        "details": "This may only be called by the `PoolManager`, because when calling this the `PoolManager` should at the same time update the debt ratioThis function can only be called once by the `PoolManager` contractSee `poolManager.setEmergencyExit()` and `harvest()` for further details."
      },
      "sweep(address,address)": {
        "details": "Implement `_protectedTokens()` to specify any additional tokens that should be protected from sweeping in addition to `want`.",
        "params": {
          "_token": "The token to transfer out of this `PoolManager`.",
          "to": "Address to send the tokens to."
        }
      },
      "withdraw(uint256)": {
        "details": "This may only be called by the `PoolManager`",
        "params": {
          "_amountNeeded": "How much `want` to withdraw."
        },
        "returns": {
          "_loss": "Any realized losses",
          "amountFreed": "How much `want` withdrawn."
        }
      }
    },
    "title": "AaveFlashloanStrategy",
    "version": 1
  },
  "userdoc": {
    "kind": "user",
    "methods": {
      "GUARDIAN_ROLE()": {
        "notice": "Role for guardians and governors"
      },
      "KEEPER_ROLE()": {
        "notice": "Role for keepers"
      },
      "POOLMANAGER_ROLE()": {
        "notice": "Role for `PoolManager` only"
      },
      "addGuardian(address)": {
        "notice": "Adds a new guardian address"
      },
      "boolParams()": {
        "notice": "Struct with some boolean parameters of the contract These parameters are packed in a struct for efficiency of SLOAD operations"
      },
      "daiBorrowCollatRatio()": {
        "notice": "Parameter used for flash mints"
      },
      "debtThreshold()": {
        "notice": "Use this to adjust the threshold at which running a debt causes a harvest trigger. See `setDebtThreshold()` for more details"
      },
      "discountFactor()": {
        "notice": "Discount factor applied to the StkAAVE price"
      },
      "emergencyExit()": {
        "notice": "See note on `setEmergencyExit()`"
      },
      "estimatedTotalAssets()": {
        "notice": "Estimates the total assets controlled by the strategy"
      },
      "getCurrentPosition()": {
        "notice": "Get the current position of the strategy: that is to say the amount deposited and the amount borrowed on Aave"
      },
      "harvest()": {
        "notice": "Harvests the Strategy, recognizing any profits or losses and adjusting the Strategy's position."
      },
      "harvest(uint256)": {
        "notice": "Harvests the Strategy, recognizing any profits or losses and adjusting the Strategy's position."
      },
      "initialize(address,address,address,address,address[])": {
        "notice": "Constructor of the `Strategy`"
      },
      "isActive()": {
        "notice": "Provides an indication of whether this strategy is currently \"active\" in that it is managing an active position, or will manage a position in the future. This should correlate to `harvest()` activity, so that Harvest events can be tracked externally by indexing agents."
      },
      "manualDeleverage(uint256)": {
        "notice": "Emergency function that we can use to deleverage manually if something is broken"
      },
      "manualReleaseWant(uint256)": {
        "notice": "Emergency function that we can use to deleverage manually if something is broken"
      },
      "maxBorrowCollatRatio()": {
        "notice": "Maximum the Aave protocol will let us borrow"
      },
      "maxCollatRatio()": {
        "notice": "Closest to liquidation we'll risk"
      },
      "maxIterations()": {
        "notice": "Max number of iterations possible for the computation of the optimal lever"
      },
      "minRatio()": {
        "notice": "Minimum gap between the collat ratio and the target collat ratio before rectifying it"
      },
      "minWant()": {
        "notice": "Minimum amount to be moved before a deposit or a borrow"
      },
      "onFlashLoan(address,address,uint256,uint256,bytes)": {
        "notice": "Flashload callback, as defined by EIP-3156We check that the call is coming from the DAI lender and then execute the load logic"
      },
      "poolManager()": {
        "notice": "Reference to the protocol's collateral `PoolManager`"
      },
      "revokeGuardian(address)": {
        "notice": "Revokes the guardian role"
      },
      "sellRewards(uint256,bytes)": {
        "notice": "Swap earned stkAave or Aave for `want` through 1Inch"
      },
      "setAavePoolVariables()": {
        "notice": "Retrieves lending pool variables for `want`. Those variables are mostly used in the function to compute the optimal borrow amount"
      },
      "setBoolParams((bool,bool,bool,bool))": {
        "notice": "Sets all boolean parameters related to cooldown, withdraw check, flash loan and so on"
      },
      "setCollateralTargets(uint256,uint256,uint256,uint256)": {
        "notice": "Sets collateral targets and value for collateral ratio"
      },
      "setDebtThreshold(uint256)": {
        "notice": "Sets how far the Strategy can go into loss without a harvest and report being required."
      },
      "setDiscountFactor(uint256)": {
        "notice": "Sets the discount factor for the StkAAVE price"
      },
      "setEmergencyExit()": {
        "notice": "Activates emergency exit. Once activated, the Strategy will exit its position upon the next harvest, depositing all funds into the Manager as quickly as is reasonable given on-chain conditions."
      },
      "setMinsAndMaxs(uint256,uint256,uint8)": {
        "notice": "Sets `minWant`, `minRatio` and `maxItrations` values"
      },
      "sweep(address,address)": {
        "notice": "Removes tokens from this Strategy that are not the type of tokens managed by this Strategy. This may be used in case of accidentally sending the wrong kind of token to this Strategy. Tokens will be sent to `governance()`. This will fail if an attempt is made to sweep `want`, or any tokens that are protected by this Strategy. This may only be called by governance."
      },
      "targetCollatRatio()": {
        "notice": "LTV the strategy is going to lever up to"
      },
      "want()": {
        "notice": "Reference to the ERC20 farmed by this strategy"
      },
      "wantBase()": {
        "notice": "Base of the ERC20 token farmed by this strategy"
      },
      "withdraw(uint256)": {
        "notice": "Withdraws `_amountNeeded` to `poolManager`."
      }
    },
    "notice": "This strategy is used to optimize lending yield on Aave by taking some form or recursivity that is to say by borrowing to maximize Aave rewards",
    "version": 1
  },
  "storageLayout": {
    "storage": [
      {
        "astId": 52,
        "contract": "contracts/strategies/AaveFlashloanStrategy/AaveFlashloanStrategy.sol:AaveFlashloanStrategy",
        "label": "_initialized",
        "offset": 0,
        "slot": "0",
        "type": "t_bool"
      },
      {
        "astId": 55,
        "contract": "contracts/strategies/AaveFlashloanStrategy/AaveFlashloanStrategy.sol:AaveFlashloanStrategy",
        "label": "_initializing",
        "offset": 1,
        "slot": "0",
        "type": "t_bool"
      },
      {
        "astId": 3409,
        "contract": "contracts/strategies/AaveFlashloanStrategy/AaveFlashloanStrategy.sol:AaveFlashloanStrategy",
        "label": "_roles",
        "offset": 0,
        "slot": "1",
        "type": "t_mapping(t_bytes32,t_struct(RoleData)3404_storage)"
      },
      {
        "astId": 3695,
        "contract": "contracts/strategies/AaveFlashloanStrategy/AaveFlashloanStrategy.sol:AaveFlashloanStrategy",
        "label": "__gap",
        "offset": 0,
        "slot": "2",
        "type": "t_array(t_uint256)49_storage"
      },
      {
        "astId": 12966,
        "contract": "contracts/strategies/AaveFlashloanStrategy/AaveFlashloanStrategy.sol:AaveFlashloanStrategy",
        "label": "poolManager",
        "offset": 0,
        "slot": "51",
        "type": "t_contract(IPoolManager)3973"
      },
      {
        "astId": 12970,
        "contract": "contracts/strategies/AaveFlashloanStrategy/AaveFlashloanStrategy.sol:AaveFlashloanStrategy",
        "label": "want",
        "offset": 0,
        "slot": "52",
        "type": "t_contract(IERC20)2114"
      },
      {
        "astId": 12973,
        "contract": "contracts/strategies/AaveFlashloanStrategy/AaveFlashloanStrategy.sol:AaveFlashloanStrategy",
        "label": "wantBase",
        "offset": 0,
        "slot": "53",
        "type": "t_uint256"
      },
      {
        "astId": 12976,
        "contract": "contracts/strategies/AaveFlashloanStrategy/AaveFlashloanStrategy.sol:AaveFlashloanStrategy",
        "label": "debtThreshold",
        "offset": 0,
        "slot": "54",
        "type": "t_uint256"
      },
      {
        "astId": 12979,
        "contract": "contracts/strategies/AaveFlashloanStrategy/AaveFlashloanStrategy.sol:AaveFlashloanStrategy",
        "label": "emergencyExit",
        "offset": 0,
        "slot": "55",
        "type": "t_bool"
      },
      {
        "astId": 7375,
        "contract": "contracts/strategies/AaveFlashloanStrategy/AaveFlashloanStrategy.sol:AaveFlashloanStrategy",
        "label": "_interestRateStrategyAddress",
        "offset": 1,
        "slot": "55",
        "type": "t_contract(IReserveInterestRateStrategy)11153"
      },
      {
        "astId": 7377,
        "contract": "contracts/strategies/AaveFlashloanStrategy/AaveFlashloanStrategy.sol:AaveFlashloanStrategy",
        "label": "cooldownSeconds",
        "offset": 0,
        "slot": "56",
        "type": "t_uint256"
      },
      {
        "astId": 7379,
        "contract": "contracts/strategies/AaveFlashloanStrategy/AaveFlashloanStrategy.sol:AaveFlashloanStrategy",
        "label": "unstakeWindow",
        "offset": 0,
        "slot": "57",
        "type": "t_uint256"
      },
      {
        "astId": 7381,
        "contract": "contracts/strategies/AaveFlashloanStrategy/AaveFlashloanStrategy.sol:AaveFlashloanStrategy",
        "label": "reserveFactor",
        "offset": 0,
        "slot": "58",
        "type": "t_int256"
      },
      {
        "astId": 7383,
        "contract": "contracts/strategies/AaveFlashloanStrategy/AaveFlashloanStrategy.sol:AaveFlashloanStrategy",
        "label": "slope1",
        "offset": 0,
        "slot": "59",
        "type": "t_int256"
      },
      {
        "astId": 7385,
        "contract": "contracts/strategies/AaveFlashloanStrategy/AaveFlashloanStrategy.sol:AaveFlashloanStrategy",
        "label": "slope2",
        "offset": 0,
        "slot": "60",
        "type": "t_int256"
      },
      {
        "astId": 7387,
        "contract": "contracts/strategies/AaveFlashloanStrategy/AaveFlashloanStrategy.sol:AaveFlashloanStrategy",
        "label": "r0",
        "offset": 0,
        "slot": "61",
        "type": "t_int256"
      },
      {
        "astId": 7389,
        "contract": "contracts/strategies/AaveFlashloanStrategy/AaveFlashloanStrategy.sol:AaveFlashloanStrategy",
        "label": "uOptimal",
        "offset": 0,
        "slot": "62",
        "type": "t_int256"
      },
      {
        "astId": 7392,
        "contract": "contracts/strategies/AaveFlashloanStrategy/AaveFlashloanStrategy.sol:AaveFlashloanStrategy",
        "label": "maxBorrowCollatRatio",
        "offset": 0,
        "slot": "63",
        "type": "t_uint256"
      },
      {
        "astId": 7395,
        "contract": "contracts/strategies/AaveFlashloanStrategy/AaveFlashloanStrategy.sol:AaveFlashloanStrategy",
        "label": "targetCollatRatio",
        "offset": 0,
        "slot": "64",
        "type": "t_uint256"
      },
      {
        "astId": 7398,
        "contract": "contracts/strategies/AaveFlashloanStrategy/AaveFlashloanStrategy.sol:AaveFlashloanStrategy",
        "label": "maxCollatRatio",
        "offset": 0,
        "slot": "65",
        "type": "t_uint256"
      },
      {
        "astId": 7401,
        "contract": "contracts/strategies/AaveFlashloanStrategy/AaveFlashloanStrategy.sol:AaveFlashloanStrategy",
        "label": "daiBorrowCollatRatio",
        "offset": 0,
        "slot": "66",
        "type": "t_uint256"
      },
      {
        "astId": 7404,
        "contract": "contracts/strategies/AaveFlashloanStrategy/AaveFlashloanStrategy.sol:AaveFlashloanStrategy",
        "label": "minWant",
        "offset": 0,
        "slot": "67",
        "type": "t_uint256"
      },
      {
        "astId": 7407,
        "contract": "contracts/strategies/AaveFlashloanStrategy/AaveFlashloanStrategy.sol:AaveFlashloanStrategy",
        "label": "minRatio",
        "offset": 0,
        "slot": "68",
        "type": "t_uint256"
      },
      {
        "astId": 7410,
        "contract": "contracts/strategies/AaveFlashloanStrategy/AaveFlashloanStrategy.sol:AaveFlashloanStrategy",
        "label": "discountFactor",
        "offset": 0,
        "slot": "69",
        "type": "t_uint256"
      },
      {
        "astId": 7413,
        "contract": "contracts/strategies/AaveFlashloanStrategy/AaveFlashloanStrategy.sol:AaveFlashloanStrategy",
        "label": "maxIterations",
        "offset": 0,
        "slot": "70",
        "type": "t_uint8"
      },
      {
        "astId": 7426,
        "contract": "contracts/strategies/AaveFlashloanStrategy/AaveFlashloanStrategy.sol:AaveFlashloanStrategy",
        "label": "boolParams",
        "offset": 0,
        "slot": "71",
        "type": "t_struct(BoolParams)7422_storage"
      },
      {
        "astId": 7429,
        "contract": "contracts/strategies/AaveFlashloanStrategy/AaveFlashloanStrategy.sol:AaveFlashloanStrategy",
        "label": "_aToken",
        "offset": 0,
        "slot": "72",
        "type": "t_contract(IAToken)11070"
      },
      {
        "astId": 7432,
        "contract": "contracts/strategies/AaveFlashloanStrategy/AaveFlashloanStrategy.sol:AaveFlashloanStrategy",
        "label": "_debtToken",
        "offset": 0,
        "slot": "73",
        "type": "t_contract(IVariableDebtToken)10681"
      }
    ],
    "types": {
      "t_address": {
        "encoding": "inplace",
        "label": "address",
        "numberOfBytes": "20"
      },
      "t_array(t_uint256)49_storage": {
        "base": "t_uint256",
        "encoding": "inplace",
        "label": "uint256[49]",
        "numberOfBytes": "1568"
      },
      "t_bool": {
        "encoding": "inplace",
        "label": "bool",
        "numberOfBytes": "1"
      },
      "t_bytes32": {
        "encoding": "inplace",
        "label": "bytes32",
        "numberOfBytes": "32"
      },
      "t_contract(IAToken)11070": {
        "encoding": "inplace",
        "label": "contract IAToken",
        "numberOfBytes": "20"
      },
      "t_contract(IERC20)2114": {
        "encoding": "inplace",
        "label": "contract IERC20",
        "numberOfBytes": "20"
      },
      "t_contract(IPoolManager)3973": {
        "encoding": "inplace",
        "label": "contract IPoolManager",
        "numberOfBytes": "20"
      },
      "t_contract(IReserveInterestRateStrategy)11153": {
        "encoding": "inplace",
        "label": "contract IReserveInterestRateStrategy",
        "numberOfBytes": "20"
      },
      "t_contract(IVariableDebtToken)10681": {
        "encoding": "inplace",
        "label": "contract IVariableDebtToken",
        "numberOfBytes": "20"
      },
      "t_int256": {
        "encoding": "inplace",
        "label": "int256",
        "numberOfBytes": "32"
      },
      "t_mapping(t_address,t_bool)": {
        "encoding": "mapping",
        "key": "t_address",
        "label": "mapping(address => bool)",
        "numberOfBytes": "32",
        "value": "t_bool"
      },
      "t_mapping(t_bytes32,t_struct(RoleData)3404_storage)": {
        "encoding": "mapping",
        "key": "t_bytes32",
        "label": "mapping(bytes32 => struct AccessControlUpgradeable.RoleData)",
        "numberOfBytes": "32",
        "value": "t_struct(RoleData)3404_storage"
      },
      "t_struct(BoolParams)7422_storage": {
        "encoding": "inplace",
        "label": "struct AaveFlashloanStrategy.BoolParams",
        "members": [
          {
            "astId": 7415,
            "contract": "contracts/strategies/AaveFlashloanStrategy/AaveFlashloanStrategy.sol:AaveFlashloanStrategy",
            "label": "automaticallyComputeCollatRatio",
            "offset": 0,
            "slot": "0",
            "type": "t_bool"
          },
          {
            "astId": 7417,
            "contract": "contracts/strategies/AaveFlashloanStrategy/AaveFlashloanStrategy.sol:AaveFlashloanStrategy",
            "label": "isFlashMintActive",
            "offset": 1,
            "slot": "0",
            "type": "t_bool"
          },
          {
            "astId": 7419,
            "contract": "contracts/strategies/AaveFlashloanStrategy/AaveFlashloanStrategy.sol:AaveFlashloanStrategy",
            "label": "withdrawCheck",
            "offset": 2,
            "slot": "0",
            "type": "t_bool"
          },
          {
            "astId": 7421,
            "contract": "contracts/strategies/AaveFlashloanStrategy/AaveFlashloanStrategy.sol:AaveFlashloanStrategy",
            "label": "cooldownStkAave",
            "offset": 3,
            "slot": "0",
            "type": "t_bool"
          }
        ],
        "numberOfBytes": "32"
      },
      "t_struct(RoleData)3404_storage": {
        "encoding": "inplace",
        "label": "struct AccessControlUpgradeable.RoleData",
        "members": [
          {
            "astId": 3401,
            "contract": "contracts/strategies/AaveFlashloanStrategy/AaveFlashloanStrategy.sol:AaveFlashloanStrategy",
            "label": "members",
            "offset": 0,
            "slot": "0",
            "type": "t_mapping(t_address,t_bool)"
          },
          {
            "astId": 3403,
            "contract": "contracts/strategies/AaveFlashloanStrategy/AaveFlashloanStrategy.sol:AaveFlashloanStrategy",
            "label": "adminRole",
            "offset": 0,
            "slot": "1",
            "type": "t_bytes32"
          }
        ],
        "numberOfBytes": "64"
      },
      "t_uint256": {
        "encoding": "inplace",
        "label": "uint256",
        "numberOfBytes": "32"
      },
      "t_uint8": {
        "encoding": "inplace",
        "label": "uint8",
        "numberOfBytes": "1"
      }
    }
  }
}