{
  "address": "0x713513Fd5Abe7401143eae8446491731533b6d05",
  "abi": [
    {
      "inputs": [],
      "name": "ErrorSwap",
      "type": "error"
    },
    {
      "inputs": [],
      "name": "IncompatibleLengths",
      "type": "error"
    },
    {
      "inputs": [],
      "name": "ProtectedToken",
      "type": "error"
    },
    {
      "inputs": [],
      "name": "TooSmallAmount",
      "type": "error"
    },
    {
      "anonymous": false,
      "inputs": [
        {
          "indexed": true,
          "internalType": "bytes32",
          "name": "role",
          "type": "bytes32"
        },
        {
          "indexed": true,
          "internalType": "bytes32",
          "name": "previousAdminRole",
          "type": "bytes32"
        },
        {
          "indexed": true,
          "internalType": "bytes32",
          "name": "newAdminRole",
          "type": "bytes32"
        }
      ],
      "name": "RoleAdminChanged",
      "type": "event"
    },
    {
      "anonymous": false,
      "inputs": [
        {
          "indexed": true,
          "internalType": "bytes32",
          "name": "role",
          "type": "bytes32"
        },
        {
          "indexed": true,
          "internalType": "address",
          "name": "account",
          "type": "address"
        },
        {
          "indexed": true,
          "internalType": "address",
          "name": "sender",
          "type": "address"
        }
      ],
      "name": "RoleGranted",
      "type": "event"
    },
    {
      "anonymous": false,
      "inputs": [
        {
          "indexed": true,
          "internalType": "bytes32",
          "name": "role",
          "type": "bytes32"
        },
        {
          "indexed": true,
          "internalType": "address",
          "name": "account",
          "type": "address"
        },
        {
          "indexed": true,
          "internalType": "address",
          "name": "sender",
          "type": "address"
        }
      ],
      "name": "RoleRevoked",
      "type": "event"
    },
    {
      "inputs": [],
      "name": "DEFAULT_ADMIN_ROLE",
      "outputs": [
        {
          "internalType": "bytes32",
          "name": "",
          "type": "bytes32"
        }
      ],
      "stateMutability": "view",
      "type": "function"
    },
    {
      "inputs": [],
      "name": "GUARDIAN_ROLE",
      "outputs": [
        {
          "internalType": "bytes32",
          "name": "",
          "type": "bytes32"
        }
      ],
      "stateMutability": "view",
      "type": "function"
    },
    {
      "inputs": [],
      "name": "KEEPER_ROLE",
      "outputs": [
        {
          "internalType": "bytes32",
          "name": "",
          "type": "bytes32"
        }
      ],
      "stateMutability": "view",
      "type": "function"
    },
    {
      "inputs": [],
      "name": "STRATEGY_ROLE",
      "outputs": [
        {
          "internalType": "bytes32",
          "name": "",
          "type": "bytes32"
        }
      ],
      "stateMutability": "view",
      "type": "function"
    },
    {
      "inputs": [],
      "name": "apr",
      "outputs": [
        {
          "internalType": "uint256",
          "name": "",
          "type": "uint256"
        }
      ],
      "stateMutability": "view",
      "type": "function"
    },
    {
      "inputs": [
        {
          "internalType": "uint256",
          "name": "amount",
          "type": "uint256"
        }
      ],
      "name": "aprAfterDeposit",
      "outputs": [
        {
          "internalType": "uint256",
          "name": "",
          "type": "uint256"
        }
      ],
      "stateMutability": "view",
      "type": "function"
    },
    {
      "inputs": [
        {
          "internalType": "contract IERC20[]",
          "name": "tokens",
          "type": "address[]"
        },
        {
          "internalType": "address[]",
          "name": "spenders",
          "type": "address[]"
        },
        {
          "internalType": "uint256[]",
          "name": "amounts",
          "type": "uint256[]"
        }
      ],
      "name": "changeAllowance",
      "outputs": [],
      "stateMutability": "nonpayable",
      "type": "function"
    },
    {
      "inputs": [],
      "name": "deposit",
      "outputs": [],
      "stateMutability": "nonpayable",
      "type": "function"
    },
    {
      "inputs": [],
      "name": "eToken",
      "outputs": [
        {
          "internalType": "contract IEulerEToken",
          "name": "",
          "type": "address"
        }
      ],
      "stateMutability": "view",
      "type": "function"
    },
    {
      "inputs": [
        {
          "internalType": "uint256",
          "name": "amount",
          "type": "uint256"
        }
      ],
      "name": "emergencyWithdraw",
      "outputs": [],
      "stateMutability": "nonpayable",
      "type": "function"
    },
    {
      "inputs": [
        {
          "internalType": "bytes32",
          "name": "role",
          "type": "bytes32"
        }
      ],
      "name": "getRoleAdmin",
      "outputs": [
        {
          "internalType": "bytes32",
          "name": "",
          "type": "bytes32"
        }
      ],
      "stateMutability": "view",
      "type": "function"
    },
    {
      "inputs": [
        {
          "internalType": "bytes32",
          "name": "role",
          "type": "bytes32"
        },
        {
          "internalType": "address",
          "name": "account",
          "type": "address"
        }
      ],
      "name": "grantRole",
      "outputs": [],
      "stateMutability": "nonpayable",
      "type": "function"
    },
    {
      "inputs": [],
      "name": "hasAssets",
      "outputs": [
        {
          "internalType": "bool",
          "name": "",
          "type": "bool"
        }
      ],
      "stateMutability": "view",
      "type": "function"
    },
    {
      "inputs": [
        {
          "internalType": "bytes32",
          "name": "role",
          "type": "bytes32"
        },
        {
          "internalType": "address",
          "name": "account",
          "type": "address"
        }
      ],
      "name": "hasRole",
      "outputs": [
        {
          "internalType": "bool",
          "name": "",
          "type": "bool"
        }
      ],
      "stateMutability": "view",
      "type": "function"
    },
    {
      "inputs": [
        {
          "internalType": "address",
          "name": "_strategy",
          "type": "address"
        },
        {
          "internalType": "string",
          "name": "_name",
          "type": "string"
        },
        {
          "internalType": "address[]",
          "name": "governorList",
          "type": "address[]"
        },
        {
          "internalType": "address",
          "name": "guardian",
          "type": "address"
        },
        {
          "internalType": "address[]",
          "name": "keeperList",
          "type": "address[]"
        }
      ],
      "name": "initialize",
      "outputs": [],
      "stateMutability": "nonpayable",
      "type": "function"
    },
    {
      "inputs": [],
      "name": "lenderName",
      "outputs": [
        {
          "internalType": "string",
          "name": "",
          "type": "string"
        }
      ],
      "stateMutability": "view",
      "type": "function"
    },
    {
      "inputs": [],
      "name": "nav",
      "outputs": [
        {
          "internalType": "uint256",
          "name": "",
          "type": "uint256"
        }
      ],
      "stateMutability": "view",
      "type": "function"
    },
    {
      "inputs": [],
      "name": "poolManager",
      "outputs": [
        {
          "internalType": "contract IPoolManager",
          "name": "",
          "type": "address"
        }
      ],
      "stateMutability": "view",
      "type": "function"
    },
    {
      "inputs": [
        {
          "internalType": "bytes32",
          "name": "role",
          "type": "bytes32"
        },
        {
          "internalType": "address",
          "name": "account",
          "type": "address"
        }
      ],
      "name": "renounceRole",
      "outputs": [],
      "stateMutability": "nonpayable",
      "type": "function"
    },
    {
      "inputs": [],
      "name": "reserveFee",
      "outputs": [
        {
          "internalType": "uint32",
          "name": "",
          "type": "uint32"
        }
      ],
      "stateMutability": "view",
      "type": "function"
    },
    {
      "inputs": [
        {
          "internalType": "bytes32",
          "name": "role",
          "type": "bytes32"
        },
        {
          "internalType": "address",
          "name": "account",
          "type": "address"
        }
      ],
      "name": "revokeRole",
      "outputs": [],
      "stateMutability": "nonpayable",
      "type": "function"
    },
    {
      "inputs": [
        {
          "internalType": "uint256",
          "name": "minAmountOut",
          "type": "uint256"
        },
        {
          "internalType": "bytes",
          "name": "payload",
          "type": "bytes"
        }
      ],
      "name": "sellRewards",
      "outputs": [],
      "stateMutability": "nonpayable",
      "type": "function"
    },
    {
      "inputs": [],
      "name": "setEulerPoolVariables",
      "outputs": [],
      "stateMutability": "nonpayable",
      "type": "function"
    },
    {
      "inputs": [],
      "name": "strategy",
      "outputs": [
        {
          "internalType": "address",
          "name": "",
          "type": "address"
        }
      ],
      "stateMutability": "view",
      "type": "function"
    },
    {
      "inputs": [
        {
          "internalType": "address",
          "name": "_token",
          "type": "address"
        },
        {
          "internalType": "address",
          "name": "to",
          "type": "address"
        }
      ],
      "name": "sweep",
      "outputs": [],
      "stateMutability": "nonpayable",
      "type": "function"
    },
    {
      "inputs": [],
      "name": "underlyingBalanceStored",
      "outputs": [
        {
          "internalType": "uint256",
          "name": "",
          "type": "uint256"
        }
      ],
      "stateMutability": "view",
      "type": "function"
    },
    {
      "inputs": [],
      "name": "want",
      "outputs": [
        {
          "internalType": "contract IERC20",
          "name": "",
          "type": "address"
        }
      ],
      "stateMutability": "view",
      "type": "function"
    },
    {
      "inputs": [],
      "name": "wantBase",
      "outputs": [
        {
          "internalType": "uint256",
          "name": "",
          "type": "uint256"
        }
      ],
      "stateMutability": "view",
      "type": "function"
    },
    {
      "inputs": [],
      "name": "weightedApr",
      "outputs": [
        {
          "internalType": "uint256",
          "name": "",
          "type": "uint256"
        }
      ],
      "stateMutability": "view",
      "type": "function"
    },
    {
      "inputs": [
        {
          "internalType": "uint256",
          "name": "amount",
          "type": "uint256"
        }
      ],
      "name": "withdraw",
      "outputs": [
        {
          "internalType": "uint256",
          "name": "",
          "type": "uint256"
        }
      ],
      "stateMutability": "nonpayable",
      "type": "function"
    },
    {
      "inputs": [],
      "name": "withdrawAll",
      "outputs": [
        {
          "internalType": "bool",
          "name": "",
          "type": "bool"
        }
      ],
      "stateMutability": "nonpayable",
      "type": "function"
    }
  ],
  "transactionHash": "0xa52421fd6ecda0a589a1ccfbe75d681d2eb5a75e5741728c283082c2e518fcca",
  "args": [],
  "numDeployments": 1,
  "solcInputHash": "350b139c6e4bf712cdbe394ff46a785c",
  "bytecode": "0x60806040523480156200001157600080fd5b50600054610100900460ff166200002f5760005460ff161562000039565b62000039620000de565b620000a15760405162461bcd60e51b815260206004820152602e60248201527f496e697469616c697a61626c653a20636f6e747261637420697320616c72656160448201526d191e481a5b9a5d1a585b1a5e995960921b606482015260840160405180910390fd5b600054610100900460ff16158015620000c4576000805461ffff19166101011790555b8015620000d7576000805461ff00191690555b506200010b565b6000620000f630620000fc60201b62000edc1760201c565b15905090565b6001600160a01b03163b151590565b6132cf806200011b6000396000f3fe608060405234801561001057600080fd5b50600436106101e45760003560e01c8063580b7c2e1161010f578063a8c62e76116100a2578063c6afba3c11610071578063c6afba3c1461046f578063d0e30db014610477578063d547741f1461047f578063dc4c90d31461049257600080fd5b8063a8c62e761461042e578063b82c4dc114610441578063b8dc491b14610454578063c1590cd71461046757600080fd5b806391d14854116100de57806391d148541461039d578063953d9cf1146103d6578063a217fddf146103e9578063a73e0f3b146103f157600080fd5b8063580b7c2e146103415780635be9b2d314610368578063853828b6146103805780638b2021761461038857600080fd5b806324ea54f411610187578063364bc15a11610156578063364bc15a146102ec57806336568abe146103135780635312ea8e1461032657806357ded9c91461033957600080fd5b806324ea54f4146102975780632e1a7d4d146102be5780632e779525146102d15780632f2ff15d146102d957600080fd5b8063116ac4a3116101c3578063116ac4a31461022d578063149a4ae4146102355780631f1fcd5114610248578063248a9ca31461027357600080fd5b80626ea84c146101e957806305b41934146101fe5780630b6d1d1714610211575b600080fd5b6101fc6101f7366004612c4b565b6104a5565b005b6101fc61020c366004612d0e565b61066d565b61021a60375481565b6040519081526020015b60405180910390f35b61021a610776565b61021a610243366004612d69565b61079b565b60365461025b906001600160a01b031681565b6040516001600160a01b039091168152602001610224565b61021a610281366004612d69565b6000908152600160208190526040909120015490565b61021a7f55435dd261a4b9b3364963f7738a7a662ad9c84396d64be3365284bb7f0a504181565b61021a6102cc366004612d69565b6107ac565b6101fc6107eb565b6101fc6102e7366004612d82565b6107f5565b61021a7ffc8737ab85eb45125971625a9ebdb75cc78e01d5c1fa80c4c6e5203f47bc4fab81565b6101fc610321366004612d82565b610821565b6101fc610334366004612d69565b61088c565b61021a6109be565b61021a7f928286c473ded01ff8bf61a1986f14a0579066072fa8261442d9fea514d93a4c81565b6103706109cd565b6040519015158152602001610224565b6103706109ec565b610390610a3d565b6040516102249190612dde565b6103706103ab366004612d82565b60009182526001602090815260408084206001600160a01b0393909316845291905290205460ff1690565b60675461025b906001600160a01b031681565b61021a600081565b6067546104199074010000000000000000000000000000000000000000900463ffffffff1681565b60405163ffffffff9091168152602001610224565b60355461025b906001600160a01b031681565b6101fc61044f366004612e5d565b610acb565b6101fc610462366004612ef7565b610bd2565b61021a610d12565b61021a610d1c565b6101fc610da2565b6101fc61048d366004612d82565b610eb5565b60345461025b906001600160a01b031681565b6104b28585858585610eeb565b6036546040517f894887490000000000000000000000000000000000000000000000000000000081526001600160a01b039091166004820152733520d5a913427e6f0d6a83e07ccd4a4da316e4d390638948874990602401602060405180830381865afa158015610527573d6000803e3d6000fd5b505050506040513d601f19601f8201168201806040525081019061054b9190612f25565b6067805473ffffffffffffffffffffffffffffffffffffffff19166001600160a01b039283161790556036546040517f1b30058200000000000000000000000000000000000000000000000000000000815291166004820152733520d5a913427e6f0d6a83e07ccd4a4da316e4d390631b30058290602401602060405180830381865afa1580156105e0573d6000803e3d6000fd5b505050506040513d601f19601f820116820180604052508101906106049190612f25565b6066805473ffffffffffffffffffffffffffffffffffffffff19166001600160a01b0392909216919091179055610639611461565b603654610666906001600160a01b03167327182842e098f60e3d576794a5bffb0777e025d3600019611674565b5050505050565b7ffc8737ab85eb45125971625a9ebdb75cc78e01d5c1fa80c4c6e5203f47bc4fab6106988133611809565b600080731111111254fb6c44bac0bed2854e76f90643097d6001600160a01b0316846040516106c79190612f42565b6000604051808303816000865af19150503d8060008114610704576040519150601f19603f3d011682016040523d82523d6000602084013e610709565b606091505b50915091508161071c5761071c81611889565b6000818060200190518101906107329190612f5e565b90508581101561076e576040517f22313ae900000000000000000000000000000000000000000000000000000000815260040160405180910390fd5b505050505050565b6000806107816118ca565b905061078b6118d6565b6107959082612f8d565b91505090565b60006107a682611956565b92915050565b60007f928286c473ded01ff8bf61a1986f14a0579066072fa8261442d9fea514d93a4c6107d98133611809565b6107e283611b7a565b91505b50919050565b6107f3611461565b565b600082815260016020819052604090912001546108128133611809565b61081c8383611efa565b505050565b6001600160a01b038116331461087e5760405162461bcd60e51b815260206004820152600260248201527f373100000000000000000000000000000000000000000000000000000000000060448201526064015b60405180910390fd5b6108888282611f81565b5050565b7f55435dd261a4b9b3364963f7738a7a662ad9c84396d64be3365284bb7f0a50416108b78133611809565b6067546040517f441a3e7000000000000000000000000000000000000000000000000000000000815260006004820152602481018490526001600160a01b039091169063441a3e7090604401600060405180830381600087803b15801561091d57600080fd5b505af1158015610931573d6000803e3d6000fd5b50506034546036546040516370a0823160e01b815230600482015261088894506001600160a01b0392831693509116906370a0823190602401602060405180830381865afa158015610987573d6000803e3d6000fd5b505050506040513d601f19601f820116820180604052508101906109ab9190612f5e565b6036546001600160a01b03169190612004565b60006109c86118ca565b905090565b6000603754600a6109de9190612f8d565b6109e66118d6565b11905090565b60007f928286c473ded01ff8bf61a1986f14a0579066072fa8261442d9fea514d93a4c610a198133611809565b6000610a236118d6565b90506000610a3082611b7a565b91909110159250505b5090565b60338054610a4a90612fac565b80601f0160208091040260200160405190810160405280929190818152602001828054610a7690612fac565b8015610ac35780601f10610a9857610100808354040283529160200191610ac3565b820191906000526020600020905b815481529060010190602001808311610aa657829003601f168201915b505050505081565b7f55435dd261a4b9b3364963f7738a7a662ad9c84396d64be3365284bb7f0a5041610af68133611809565b8584141580610b055750858214155b15610b3c576040517f46282e8d00000000000000000000000000000000000000000000000000000000815260040160405180910390fd5b60005b86811015610bc857610bb6888883818110610b5c57610b5c612fe1565b9050602002016020810190610b719190612ff7565b878784818110610b8357610b83612fe1565b9050602002016020810190610b989190612ff7565b868685818110610baa57610baa612fe1565b9050602002013561204d565b80610bc081613014565b915050610b3f565b5050505050505050565b7f55435dd261a4b9b3364963f7738a7a662ad9c84396d64be3365284bb7f0a5041610bfd8133611809565b6000610c07612116565b905060005b8151811015610c8c57818181518110610c2757610c27612fe1565b60200260200101516001600160a01b0316856001600160a01b03161415610c7a576040517f093e1cdb00000000000000000000000000000000000000000000000000000000815260040160405180910390fd5b80610c8481613014565b915050610c0c565b506040516370a0823160e01b8152306004820152610d0c9084906001600160a01b038716906370a0823190602401602060405180830381865afa158015610cd7573d6000803e3d6000fd5b505050506040513d601f19601f82011682018060405250810190610cfb9190612f5e565b6001600160a01b0387169190612004565b50505050565b60006109c86118d6565b6067546040517f3af9e6690000000000000000000000000000000000000000000000000000000081523060048201526000916001600160a01b031690633af9e66990602401602060405180830381865afa158015610d7e573d6000803e3d6000fd5b505050506040513d601f19601f820116820180604052508101906109c89190612f5e565b7f928286c473ded01ff8bf61a1986f14a0579066072fa8261442d9fea514d93a4c610dcd8133611809565b6036546040516370a0823160e01b81523060048201526000916001600160a01b0316906370a0823190602401602060405180830381865afa158015610e16573d6000803e3d6000fd5b505050506040513d601f19601f82011682018060405250810190610e3a9190612f5e565b6067546040517fe2bbb15800000000000000000000000000000000000000000000000000000000815260006004820152602481018390529192506001600160a01b03169063e2bbb15890604401600060405180830381600087803b158015610ea157600080fd5b505af115801561076e573d6000803e3d6000fd5b60008281526001602081905260409091200154610ed28133611809565b61081c8383611f81565b6001600160a01b03163b151590565b600054610100900460ff16610f065760005460ff1615610f0a565b303b155b610f7c5760405162461bcd60e51b815260206004820152602e60248201527f496e697469616c697a61626c653a20636f6e747261637420697320616c72656160448201527f647920696e697469616c697a65640000000000000000000000000000000000006064820152608401610875565b600054610100900460ff16158015610fbb57600080547fffffffffffffffffffffffffffffffffffffffffffffffffffffffffffff0000166101011790555b6035805473ffffffffffffffffffffffffffffffffffffffff19166001600160a01b038816908117909155604080517fdc4c90d3000000000000000000000000000000000000000000000000000000008152905163dc4c90d3916004808201926020929091908290030181865afa15801561103a573d6000803e3d6000fd5b505050506040513d601f19601f8201168201806040525081019061105e9190612f25565b6034805473ffffffffffffffffffffffffffffffffffffffff19166001600160a01b03929092169182179055604080517ffc0c546a000000000000000000000000000000000000000000000000000000008152905163fc0c546a916004808201926020929091908290030181865afa1580156110de573d6000803e3d6000fd5b505050506040513d601f19601f820116820180604052508101906111029190612f25565b6036805473ffffffffffffffffffffffffffffffffffffffff19166001600160a01b03929092169190911790558451611142906033906020880190612a76565b5060345461117a907f55435dd261a4b9b3364963f7738a7a662ad9c84396d64be3365284bb7f0a5041906001600160a01b03166121a9565b60005b84518110156111db576111c97f55435dd261a4b9b3364963f7738a7a662ad9c84396d64be3365284bb7f0a50418683815181106111bc576111bc612fe1565b60200260200101516121a9565b806111d381613014565b91505061117d565b506112067ffc8737ab85eb45125971625a9ebdb75cc78e01d5c1fa80c4c6e5203f47bc4fab846121a9565b60005b825181101561125a576112487ffc8737ab85eb45125971625a9ebdb75cc78e01d5c1fa80c4c6e5203f47bc4fab8483815181106111bc576111bc612fe1565b8061125281613014565b915050611209565b506112a57ffc8737ab85eb45125971625a9ebdb75cc78e01d5c1fa80c4c6e5203f47bc4fab7f55435dd261a4b9b3364963f7738a7a662ad9c84396d64be3365284bb7f0a50416121b3565b6112cf7f55435dd261a4b9b3364963f7738a7a662ad9c84396d64be3365284bb7f0a5041846121a9565b6112f97f928286c473ded01ff8bf61a1986f14a0579066072fa8261442d9fea514d93a4c876121a9565b6113437f55435dd261a4b9b3364963f7738a7a662ad9c84396d64be3365284bb7f0a50417f928286c473ded01ff8bf61a1986f14a0579066072fa8261442d9fea514d93a4c6121b3565b61138d7f928286c473ded01ff8bf61a1986f14a0579066072fa8261442d9fea514d93a4c7f55435dd261a4b9b3364963f7738a7a662ad9c84396d64be3365284bb7f0a50416121b3565b603660009054906101000a90046001600160a01b03166001600160a01b031663313ce5676040518163ffffffff1660e01b8152600401602060405180830381865afa1580156113e0573d6000803e3d6000fd5b505050506040513d601f19601f82011682018060405250810190611404919061302f565b61140f90600a613136565b60375560365461142b906001600160a01b031687600019611674565b801561076e57600080547fffffffffffffffffffffffffffffffffffffffffffffffffffffffffffff00ff169055505050505050565b6036546040517fb409dd9b0000000000000000000000000000000000000000000000000000000081526001600160a01b039091166004820152600090733520d5a913427e6f0d6a83e07ccd4a4da316e4d39063b409dd9b90602401602060405180830381865afa1580156114d9573d6000803e3d6000fd5b505050506040513d601f19601f820116820180604052508101906114fd9190612f5e565b6040517fcab65f01000000000000000000000000000000000000000000000000000000008152600481018290529091506000907327182842e098f60e3d576794a5bffb0777e025d39063cab65f0190602401602060405180830381865afa15801561156c573d6000803e3d6000fd5b505050506040513d601f19601f820116820180604052508101906115909190612f25565b6065805473ffffffffffffffffffffffffffffffffffffffff19166001600160a01b03838116919091179091556036546040517fb74b1ed500000000000000000000000000000000000000000000000000000000815291166004820152909150733520d5a913427e6f0d6a83e07ccd4a4da316e4d39063b74b1ed590602401602060405180830381865afa15801561162c573d6000803e3d6000fd5b505050506040513d601f19601f820116820180604052508101906116509190613145565b606760146101000a81548163ffffffff021916908363ffffffff1602179055505050565b8015806116ee5750604051636eb1769f60e11b81523060048201526001600160a01b03838116602483015284169063dd62ed3e90604401602060405180830381865afa1580156116c8573d6000803e3d6000fd5b505050506040513d601f19601f820116820180604052508101906116ec9190612f5e565b155b6117605760405162461bcd60e51b815260206004820152603660248201527f5361666545524332303a20617070726f76652066726f6d206e6f6e2d7a65726f60448201527f20746f206e6f6e2d7a65726f20616c6c6f77616e6365000000000000000000006064820152608401610875565b6040516001600160a01b03831660248201526044810182905261081c9084907f095ea7b300000000000000000000000000000000000000000000000000000000906064015b60408051601f198184030181529190526020810180517bffffffffffffffffffffffffffffffffffffffffffffffffffffffff167fffffffff000000000000000000000000000000000000000000000000000000009093169290921790915261220a565b60008281526001602090815260408083206001600160a01b038516845290915290205460ff1661088857611847816001600160a01b031660146122ef565b6118528360206122ef565b60405160200161186392919061316b565b60408051601f198184030181529082905262461bcd60e51b825261087591600401612dde565b80511561189857805181602001fd5b6040517fc76d51a100000000000000000000000000000000000000000000000000000000815260040160405180910390fd5b60006109c86000611956565b60006118e0610d1c565b6036546040516370a0823160e01b81523060048201526001600160a01b03909116906370a0823190602401602060405180830381865afa158015611928573d6000803e3d6000fd5b505050506040513d601f19601f8201168201806040525081019061194c9190612f5e565b6109c891906131ec565b600080606660009054906101000a90046001600160a01b03166001600160a01b03166318160ddd6040518163ffffffff1660e01b8152600401602060405180830381865afa1580156119ac573d6000803e3d6000fd5b505050506040513d601f19601f820116820180604052508101906119d09190612f5e565b9050600083606760009054906101000a90046001600160a01b03166001600160a01b031663fea61faa6040518163ffffffff1660e01b8152600401602060405180830381865afa158015611a28573d6000803e3d6000fd5b505050506040513d601f19601f82011682018060405250810190611a4c9190612f5e565b611a5691906131ec565b905060008115611b66576000670de0b6b3a764000083611a7a63ffffffff83612f8d565b611a849087612f8d565b611a8e9190613204565b611a989190613204565b6065546036546040517fd50c08f80000000000000000000000000000000000000000000000000000000081526001600160a01b03918216600482015263ffffffff8416602482015292935060009291169063d50c08f890604401602060405180830381865afa158015611b0f573d6000803e3d6000fd5b505050506040513d601f19601f82011682018060405250810190611b339190613226565b6bffffffffffffffffffffffff169050611b61818686606760149054906101000a900463ffffffff1661251f565b925050505b611b716000826131ec565b95945050505050565b6067546040517f3af9e66900000000000000000000000000000000000000000000000000000000815230600482015260009182916001600160a01b0390911690633af9e66990602401602060405180830381865afa158015611be0573d6000803e3d6000fd5b505050506040513d601f19601f82011682018060405250810190611c049190612f5e565b6036546040516370a0823160e01b81523060048201529192506000916001600160a01b03909116906370a0823190602401602060405180830381865afa158015611c52573d6000803e3d6000fd5b505050506040513d601f19601f82011682018060405250810190611c769190612f5e565b90506000611c8482846131ec565b905080851115611c92578094505b848210611cbf57603554603654611cb6916001600160a01b03918216911687612004565b50929392505050565b6036546040516370a0823160e01b81527327182842e098f60e3d576794a5bffb0777e025d360048201526000916001600160a01b0316906370a0823190602401602060405180830381865afa158015611d1c573d6000803e3d6000fd5b505050506040513d601f19601f82011682018060405250810190611d409190612f5e565b90506001811115611e64576000611d578488613249565b9050818111611de3576067546040517f441a3e7000000000000000000000000000000000000000000000000000000000815260006004820152602481018390526001600160a01b039091169063441a3e7090604401600060405180830381600087803b158015611dc657600080fd5b505af1158015611dda573d6000803e3d6000fd5b50505050611e62565b6067546040517f441a3e7000000000000000000000000000000000000000000000000000000000815260006004820152602481018490526001600160a01b039091169063441a3e7090604401600060405180830381600087803b158015611e4957600080fd5b505af1158015611e5d573d6000803e3d6000fd5b505050505b505b6036546040516370a0823160e01b81523060048201526001600160a01b03909116906370a0823190602401602060405180830381865afa158015611eac573d6000803e3d6000fd5b505050506040513d601f19601f82011682018060405250810190611ed09190612f5e565b603554603654919450611ef0916001600160a01b03908116911685612004565b5090949350505050565b60008281526001602090815260408083206001600160a01b038516845290915290205460ff166108885760008281526001602081815260408084206001600160a01b0386168086529252808420805460ff19169093179092559051339285917f2f8788117e7eff1d82e926ec794901d17c78024a50270940304540a733656f0d9190a45050565b60008281526001602090815260408083206001600160a01b038516845290915290205460ff16156108885760008281526001602090815260408083206001600160a01b0385168085529252808320805460ff1916905551339285917ff6391f5c32d9c69d2a47ea670b442974b53935d1edc7fd64eb21e047a839171b9190a45050565b6040516001600160a01b03831660248201526044810182905261081c9084907fa9059cbb00000000000000000000000000000000000000000000000000000000906064016117a5565b604051636eb1769f60e11b81523060048201526001600160a01b0383811660248301526000919085169063dd62ed3e90604401602060405180830381865afa15801561209d573d6000803e3d6000fd5b505050506040513d601f19601f820116820180604052508101906120c19190612f5e565b9050818110156120ef576120ea836120d98385613249565b6001600160a01b03871691906125af565b610d0c565b81811115610d0c57610d0c836121058484613249565b6001600160a01b038716919061267a565b60408051600280825260608083018452926000929190602083019080368337505060365482519293506001600160a01b03169183915060009061215b5761215b612fe1565b6001600160a01b03928316602091820292909201015260675482519116908290600190811061218c5761218c612fe1565b6001600160a01b0390921660209283029190910190910152919050565b6108888282611efa565b60008281526001602081905260409091200154819060405184907fbd79b86ffe0ab8e8776151514217cd7cacd52c909f66475c3af44e129f0b00ff90600090a4600091825260016020819052604090922090910155565b600061225f826040518060400160405280602081526020017f5361666545524332303a206c6f772d6c6576656c2063616c6c206661696c6564815250856001600160a01b03166127b39092919063ffffffff16565b80519091501561081c578080602001905181019061227d9190613260565b61081c5760405162461bcd60e51b815260206004820152602a60248201527f5361666545524332303a204552433230206f7065726174696f6e20646964206e60448201527f6f742073756363656564000000000000000000000000000000000000000000006064820152608401610875565b606060006122fe836002612f8d565b6123099060026131ec565b67ffffffffffffffff81111561232157612321612b2e565b6040519080825280601f01601f19166020018201604052801561234b576020820181803683370190505b5090507f30000000000000000000000000000000000000000000000000000000000000008160008151811061238257612382612fe1565b60200101907effffffffffffffffffffffffffffffffffffffffffffffffffffffffffffff1916908160001a9053507f7800000000000000000000000000000000000000000000000000000000000000816001815181106123e5576123e5612fe1565b60200101907effffffffffffffffffffffffffffffffffffffffffffffffffffffffffffff1916908160001a9053506000612421846002612f8d565b61242c9060016131ec565b90505b60018111156124c9577f303132333435363738396162636465660000000000000000000000000000000085600f166010811061246d5761246d612fe1565b1a60f81b82828151811061248357612483612fe1565b60200101907effffffffffffffffffffffffffffffffffffffffffffffffffffffffffffff1916908160001a90535060049490941c936124c281613282565b905061242f565b5083156125185760405162461bcd60e51b815260206004820181905260248201527f537472696e67733a20686578206c656e67746820696e73756666696369656e746044820152606401610875565b9392505050565b6000808361252d8688612f8d565b6125379190613204565b905063ee6b280061254e63ffffffff851682613249565b6125589083612f8d565b6125629190613204565b9050633b9aca006b033b2e3c9fd0803ce8000000612591836301e185586b033b2e3c9fd0803ce80000006127ca565b61259b9190613249565b6125a59190613204565b9695505050505050565b604051636eb1769f60e11b81523060048201526001600160a01b038381166024830152600091839186169063dd62ed3e90604401602060405180830381865afa158015612600573d6000803e3d6000fd5b505050506040513d601f19601f820116820180604052508101906126249190612f5e565b61262e91906131ec565b6040516001600160a01b038516602482015260448101829052909150610d0c9085907f095ea7b300000000000000000000000000000000000000000000000000000000906064016117a5565b604051636eb1769f60e11b81523060048201526001600160a01b0383811660248301526000919085169063dd62ed3e90604401602060405180830381865afa1580156126ca573d6000803e3d6000fd5b505050506040513d601f19601f820116820180604052508101906126ee9190612f5e565b9050818110156127665760405162461bcd60e51b815260206004820152602960248201527f5361666545524332303a2064656372656173656420616c6c6f77616e6365206260448201527f656c6f77207a65726f00000000000000000000000000000000000000000000006064820152608401610875565b6040516001600160a01b038416602482015282820360448201819052906106669086907f095ea7b300000000000000000000000000000000000000000000000000000000906064016117a5565b60606127c284846000856128f5565b949350505050565b60008215806127d7575083155b156127e3575080612518565b60006127f0600284613204565b905060006127ff600186613249565b905060006002861161281257600061281d565b61281d600287613249565b90506000858461282d8a80612f8d565b61283791906131ec565b6128419190613204565b9050600086856128518b85612f8d565b61285b91906131ec565b6128659190613204565b90506000600283612876878c612f8d565b6128809190612f8d565b61288a9190613204565b905060006006838661289c898e612f8d565b6128a69190612f8d565b6128b09190612f8d565b6128ba9190613204565b905080826128c88c8e612f8d565b6128d2908c6131ec565b6128dc91906131ec565b6128e691906131ec565b9b9a5050505050505050505050565b60608247101561296d5760405162461bcd60e51b815260206004820152602660248201527f416464726573733a20696e73756666696369656e742062616c616e636520666f60448201527f722063616c6c00000000000000000000000000000000000000000000000000006064820152608401610875565b6001600160a01b0385163b6129c45760405162461bcd60e51b815260206004820152601d60248201527f416464726573733a2063616c6c20746f206e6f6e2d636f6e74726163740000006044820152606401610875565b600080866001600160a01b031685876040516129e09190612f42565b60006040518083038185875af1925050503d8060008114612a1d576040519150601f19603f3d011682016040523d82523d6000602084013e612a22565b606091505b5091509150612a32828286612a3d565b979650505050505050565b60608315612a4c575081612518565b825115612a5c5782518084602001fd5b8160405162461bcd60e51b81526004016108759190612dde565b828054612a8290612fac565b90600052602060002090601f016020900481019282612aa45760008555612aea565b82601f10612abd57805160ff1916838001178555612aea565b82800160010185558215612aea579182015b82811115612aea578251825591602001919060010190612acf565b50610a399291505b80821115610a395760008155600101612af2565b6001600160a01b0381168114612b1b57600080fd5b50565b8035612b2981612b06565b919050565b634e487b7160e01b600052604160045260246000fd5b604051601f8201601f1916810167ffffffffffffffff81118282101715612b6d57612b6d612b2e565b604052919050565b600067ffffffffffffffff831115612b8f57612b8f612b2e565b612ba26020601f19601f86011601612b44565b9050828152838383011115612bb657600080fd5b828260208301376000602084830101529392505050565b600082601f830112612bde57600080fd5b8135602067ffffffffffffffff821115612bfa57612bfa612b2e565b8160051b612c09828201612b44565b9283528481018201928281019087851115612c2357600080fd5b83870192505b84831015612a32578235612c3c81612b06565b82529183019190830190612c29565b600080600080600060a08688031215612c6357600080fd5b8535612c6e81612b06565b9450602086013567ffffffffffffffff80821115612c8b57600080fd5b818801915088601f830112612c9f57600080fd5b612cae89833560208501612b75565b95506040880135915080821115612cc457600080fd5b612cd089838a01612bcd565b9450612cde60608901612b1e565b93506080880135915080821115612cf457600080fd5b50612d0188828901612bcd565b9150509295509295909350565b60008060408385031215612d2157600080fd5b82359150602083013567ffffffffffffffff811115612d3f57600080fd5b8301601f81018513612d5057600080fd5b612d5f85823560208401612b75565b9150509250929050565b600060208284031215612d7b57600080fd5b5035919050565b60008060408385031215612d9557600080fd5b823591506020830135612da781612b06565b809150509250929050565b60005b83811015612dcd578181015183820152602001612db5565b83811115610d0c5750506000910152565b6020815260008251806020840152612dfd816040850160208701612db2565b601f01601f19169190910160400192915050565b60008083601f840112612e2357600080fd5b50813567ffffffffffffffff811115612e3b57600080fd5b6020830191508360208260051b8501011115612e5657600080fd5b9250929050565b60008060008060008060608789031215612e7657600080fd5b863567ffffffffffffffff80821115612e8e57600080fd5b612e9a8a838b01612e11565b90985096506020890135915080821115612eb357600080fd5b612ebf8a838b01612e11565b90965094506040890135915080821115612ed857600080fd5b50612ee589828a01612e11565b979a9699509497509295939492505050565b60008060408385031215612f0a57600080fd5b8235612f1581612b06565b91506020830135612da781612b06565b600060208284031215612f3757600080fd5b815161251881612b06565b60008251612f54818460208701612db2565b9190910192915050565b600060208284031215612f7057600080fd5b5051919050565b634e487b7160e01b600052601160045260246000fd5b6000816000190483118215151615612fa757612fa7612f77565b500290565b600181811c90821680612fc057607f821691505b602082108114156107e557634e487b7160e01b600052602260045260246000fd5b634e487b7160e01b600052603260045260246000fd5b60006020828403121561300957600080fd5b813561251881612b06565b600060001982141561302857613028612f77565b5060010190565b60006020828403121561304157600080fd5b815160ff8116811461251857600080fd5b600181815b8085111561308d57816000190482111561307357613073612f77565b8085161561308057918102915b93841c9390800290613057565b509250929050565b6000826130a4575060016107a6565b816130b1575060006107a6565b81600181146130c757600281146130d1576130ed565b60019150506107a6565b60ff8411156130e2576130e2612f77565b50506001821b6107a6565b5060208310610133831016604e8410600b8410161715613110575081810a6107a6565b61311a8383613052565b806000190482111561312e5761312e612f77565b029392505050565b600061251860ff841683613095565b60006020828403121561315757600080fd5b815163ffffffff8116811461251857600080fd5b7f416363657373436f6e74726f6c3a206163636f756e74200000000000000000008152600083516131a3816017850160208801612db2565b7f206973206d697373696e6720726f6c652000000000000000000000000000000060179184019182015283516131e0816028840160208801612db2565b01602801949350505050565b600082198211156131ff576131ff612f77565b500190565b60008261322157634e487b7160e01b600052601260045260246000fd5b500490565b60006020828403121561323857600080fd5b815180600b0b811461251857600080fd5b60008282101561325b5761325b612f77565b500390565b60006020828403121561327257600080fd5b8151801515811461251857600080fd5b60008161329157613291612f77565b50600019019056fea2646970667358221220986ac5bcf75c9eb076880e3bcd579939dc603872830d2f251fe6836ad90b455264736f6c634300080c0033",
  "devdoc": {
    "author": "Angle Core Team",
    "kind": "dev",
    "methods": {
      "aprAfterDeposit(uint256)": {
        "params": {
          "amount": "Amount to add to the lending platform, and that we want to take into account in the apr computation"
        }
      },
      "changeAllowance(address[],address[],uint256[])": {
        "params": {
          "amounts": "Approval amounts for each address",
          "spenders": "Addresses to approve",
          "tokens": "Addresses of the tokens for which approvals should be made"
        }
      },
      "emergencyWithdraw(uint256)": {
        "details": "Does not check if any error occurs or if the amount withdrawn is correct",
        "params": {
          "amount": "Amount to withdraw"
        }
      },
      "getRoleAdmin(bytes32)": {
        "details": "Returns the admin role that controls `role`. See {grantRole} and {revokeRole}. To change a role's admin, use {_setRoleAdmin}."
      },
      "grantRole(bytes32,address)": {
        "details": "Grants `role` to `account`. If `account` had not been already granted `role`, emits a {RoleGranted} event. Requirements: - the caller must have ``role``'s admin role."
      },
      "hasAssets()": {
        "details": "We're considering that the strategy has no assets if it has less than 10 of the underlying asset in total to avoid the case where there is dust remaining on the lending market and we cannot withdraw everything"
      },
      "hasRole(bytes32,address)": {
        "details": "Returns `true` if `account` has been granted `role`."
      },
      "initialize(address,string,address[],address,address[])": {
        "params": {
          "_strategy": "Reference to the strategy using this lender",
          "governorList": "List of addresses with governor privilege",
          "guardian": "Address of the guardian",
          "keeperList": "List of addresses with keeper privilege"
        }
      },
      "renounceRole(bytes32,address)": {
        "details": "Revokes `role` from the calling account. Roles are often managed via {grantRole} and {revokeRole}: this function's purpose is to provide a mechanism for accounts to lose their privileges if they are compromised (such as when a trusted device is misplaced). If the calling account had been granted `role`, emits a {RoleRevoked} event. Requirements: - the caller must be `account`."
      },
      "revokeRole(bytes32,address)": {
        "details": "Revokes `role` from `account`. If `account` had been granted `role`, emits a {RoleRevoked} event. Requirements: - the caller must have ``role``'s admin role."
      },
      "sellRewards(uint256,bytes)": {
        "details": "In the case of a contract lending to Aave, tokens swapped should typically be: _stkAave -> `want` or Aave -> `want`",
        "params": {
          "minAmountOut": "Minimum amount of `want` to receive for the swap to happen",
          "payload": "Bytes needed for 1Inch API"
        }
      },
      "setEulerPoolVariables()": {
        "details": "No access control is needed here because values are fetched from Euler directlyWe expect the values concerned not to be often modified"
      },
      "sweep(address,address)": {
        "details": "Implement `_protectedTokens()` to specify any additional tokens that should be protected from sweeping in addition to `want`.",
        "params": {
          "_token": "The token to transfer out of this poolManager.",
          "to": "Address to send the tokens to."
        }
      },
      "withdraw(uint256)": {
        "params": {
          "amount": "The amount the caller wants to withdraw"
        },
        "returns": {
          "_0": "Amount actually withdrawn"
        }
      },
      "withdrawAll()": {
        "returns": {
          "_0": "Whether everything was withdrawn or not"
        }
      }
    },
    "title": "GenericEuler",
    "version": 1
  },
  "userdoc": {
    "kind": "user",
    "methods": {
      "apr()": {
        "notice": "Returns an estimation of the current Annual Percentage Rate on the lender"
      },
      "aprAfterDeposit(uint256)": {
        "notice": "Returns an estimation of the current Annual Percentage Rate after a new deposit of `amount`"
      },
      "changeAllowance(address[],address[],uint256[])": {
        "notice": "Changes allowance of a set of tokens to addresses"
      },
      "deposit()": {
        "notice": "Deposits the current balance of the contract to the lending platform"
      },
      "eToken()": {
        "notice": "Token given to lenders on Euler"
      },
      "emergencyWithdraw(uint256)": {
        "notice": "Withdraws as much as possible in case of emergency and sends it to the `PoolManager`"
      },
      "hasAssets()": {
        "notice": "Check if assets are currently managed by the lender"
      },
      "initialize(address,string,address[],address,address[])": {
        "notice": "Initializer of the `GenericEuler`"
      },
      "lenderName()": {
        "notice": "Name of the lender on which funds are invested"
      },
      "nav()": {
        "notice": "Helper function to get the current total of assets managed by the lender."
      },
      "poolManager()": {
        "notice": "Reference to the protocol's collateral poolManager"
      },
      "reserveFee()": {
        "notice": "Reserve fee on the token on Euler"
      },
      "sellRewards(uint256,bytes)": {
        "notice": "Swap earned _stkAave or Aave for `want` through 1Inch"
      },
      "setEulerPoolVariables()": {
        "notice": "Retrieves Euler variables `reserveFee` and the `irm` - rates curve -  used for the underlying token"
      },
      "strategy()": {
        "notice": "Reference to the `Strategy` contract the lender interacts with"
      },
      "sweep(address,address)": {
        "notice": "Removes tokens from this Strategy that are not the type of tokens managed by this Strategy. This may be used in case of accidentally sending the wrong kind of token to this Strategy. Tokens will be sent to `governance()`. This will fail if an attempt is made to sweep `want`, or any tokens that are protected by this Strategy. This may only be called by governance."
      },
      "underlyingBalanceStored()": {
        "notice": "Returns the current balance invested on the lender and related staking contracts"
      },
      "want()": {
        "notice": "Reference to the token lent"
      },
      "wantBase()": {
        "notice": "Base of the asset handled by the lender"
      },
      "weightedApr()": {
        "notice": "Returns an estimation of the current Annual Percentage Rate weighted by the assets under  management of the lender"
      },
      "withdraw(uint256)": {
        "notice": "Withdraws a given amount from lender"
      },
      "withdrawAll()": {
        "notice": "Withdraws as much as possible from the lending platform"
      }
    },
    "notice": "Simple supplier to Euler markets",
    "version": 1
  },
  "storageLayout": {
    "storage": [
      {
        "astId": 52,
        "contract": "contracts/strategies/OptimizerAPR/genericLender/GenericEuler.sol:GenericEuler",
        "label": "_initialized",
        "offset": 0,
        "slot": "0",
        "type": "t_bool"
      },
      {
        "astId": 55,
        "contract": "contracts/strategies/OptimizerAPR/genericLender/GenericEuler.sol:GenericEuler",
        "label": "_initializing",
        "offset": 1,
        "slot": "0",
        "type": "t_bool"
      },
      {
        "astId": 4126,
        "contract": "contracts/strategies/OptimizerAPR/genericLender/GenericEuler.sol:GenericEuler",
        "label": "_roles",
        "offset": 0,
        "slot": "1",
        "type": "t_mapping(t_bytes32,t_struct(RoleData)4121_storage)"
      },
      {
        "astId": 4412,
        "contract": "contracts/strategies/OptimizerAPR/genericLender/GenericEuler.sol:GenericEuler",
        "label": "__gap",
        "offset": 0,
        "slot": "2",
        "type": "t_array(t_uint256)49_storage"
      },
      {
        "astId": 21326,
        "contract": "contracts/strategies/OptimizerAPR/genericLender/GenericEuler.sol:GenericEuler",
        "label": "lenderName",
        "offset": 0,
        "slot": "51",
        "type": "t_string_storage"
      },
      {
        "astId": 21330,
        "contract": "contracts/strategies/OptimizerAPR/genericLender/GenericEuler.sol:GenericEuler",
        "label": "poolManager",
        "offset": 0,
        "slot": "52",
        "type": "t_contract(IPoolManager)4878"
      },
      {
        "astId": 21334,
        "contract": "contracts/strategies/OptimizerAPR/genericLender/GenericEuler.sol:GenericEuler",
        "label": "strategy",
        "offset": 0,
        "slot": "53",
        "type": "t_address"
      },
      {
        "astId": 21338,
        "contract": "contracts/strategies/OptimizerAPR/genericLender/GenericEuler.sol:GenericEuler",
        "label": "want",
        "offset": 0,
        "slot": "54",
        "type": "t_contract(IERC20)2114"
      },
      {
        "astId": 21341,
        "contract": "contracts/strategies/OptimizerAPR/genericLender/GenericEuler.sol:GenericEuler",
        "label": "wantBase",
        "offset": 0,
        "slot": "55",
        "type": "t_uint256"
      },
      {
        "astId": 21345,
        "contract": "contracts/strategies/OptimizerAPR/genericLender/GenericEuler.sol:GenericEuler",
        "label": "__gapBaseLender",
        "offset": 0,
        "slot": "56",
        "type": "t_array(t_uint256)45_storage"
      },
      {
        "astId": 20704,
        "contract": "contracts/strategies/OptimizerAPR/genericLender/GenericEuler.sol:GenericEuler",
        "label": "irm",
        "offset": 0,
        "slot": "101",
        "type": "t_contract(IBaseIRM)7441"
      },
      {
        "astId": 20708,
        "contract": "contracts/strategies/OptimizerAPR/genericLender/GenericEuler.sol:GenericEuler",
        "label": "dToken",
        "offset": 0,
        "slot": "102",
        "type": "t_contract(IEulerDToken)7431"
      },
      {
        "astId": 20712,
        "contract": "contracts/strategies/OptimizerAPR/genericLender/GenericEuler.sol:GenericEuler",
        "label": "eToken",
        "offset": 0,
        "slot": "103",
        "type": "t_contract(IEulerEToken)7344"
      },
      {
        "astId": 20715,
        "contract": "contracts/strategies/OptimizerAPR/genericLender/GenericEuler.sol:GenericEuler",
        "label": "reserveFee",
        "offset": 20,
        "slot": "103",
        "type": "t_uint32"
      }
    ],
    "types": {
      "t_address": {
        "encoding": "inplace",
        "label": "address",
        "numberOfBytes": "20"
      },
      "t_array(t_uint256)45_storage": {
        "base": "t_uint256",
        "encoding": "inplace",
        "label": "uint256[45]",
        "numberOfBytes": "1440"
      },
      "t_array(t_uint256)49_storage": {
        "base": "t_uint256",
        "encoding": "inplace",
        "label": "uint256[49]",
        "numberOfBytes": "1568"
      },
      "t_bool": {
        "encoding": "inplace",
        "label": "bool",
        "numberOfBytes": "1"
      },
      "t_bytes32": {
        "encoding": "inplace",
        "label": "bytes32",
        "numberOfBytes": "32"
      },
      "t_contract(IBaseIRM)7441": {
        "encoding": "inplace",
        "label": "contract IBaseIRM",
        "numberOfBytes": "20"
      },
      "t_contract(IERC20)2114": {
        "encoding": "inplace",
        "label": "contract IERC20",
        "numberOfBytes": "20"
      },
      "t_contract(IEulerDToken)7431": {
        "encoding": "inplace",
        "label": "contract IEulerDToken",
        "numberOfBytes": "20"
      },
      "t_contract(IEulerEToken)7344": {
        "encoding": "inplace",
        "label": "contract IEulerEToken",
        "numberOfBytes": "20"
      },
      "t_contract(IPoolManager)4878": {
        "encoding": "inplace",
        "label": "contract IPoolManager",
        "numberOfBytes": "20"
      },
      "t_mapping(t_address,t_bool)": {
        "encoding": "mapping",
        "key": "t_address",
        "label": "mapping(address => bool)",
        "numberOfBytes": "32",
        "value": "t_bool"
      },
      "t_mapping(t_bytes32,t_struct(RoleData)4121_storage)": {
        "encoding": "mapping",
        "key": "t_bytes32",
        "label": "mapping(bytes32 => struct AccessControlAngleUpgradeable.RoleData)",
        "numberOfBytes": "32",
        "value": "t_struct(RoleData)4121_storage"
      },
      "t_string_storage": {
        "encoding": "bytes",
        "label": "string",
        "numberOfBytes": "32"
      },
      "t_struct(RoleData)4121_storage": {
        "encoding": "inplace",
        "label": "struct AccessControlAngleUpgradeable.RoleData",
        "members": [
          {
            "astId": 4118,
            "contract": "contracts/strategies/OptimizerAPR/genericLender/GenericEuler.sol:GenericEuler",
            "label": "members",
            "offset": 0,
            "slot": "0",
            "type": "t_mapping(t_address,t_bool)"
          },
          {
            "astId": 4120,
            "contract": "contracts/strategies/OptimizerAPR/genericLender/GenericEuler.sol:GenericEuler",
            "label": "adminRole",
            "offset": 0,
            "slot": "1",
            "type": "t_bytes32"
          }
        ],
        "numberOfBytes": "64"
      },
      "t_uint256": {
        "encoding": "inplace",
        "label": "uint256",
        "numberOfBytes": "32"
      },
      "t_uint32": {
        "encoding": "inplace",
        "label": "uint32",
        "numberOfBytes": "4"
      }
    }
  }
}