{
  "address": "0x5d5d3033aA6538b61E06b586cA5ce9D2687C51EB",
  "abi": [
    {
      "inputs": [],
      "name": "ErrorSwap",
      "type": "error"
    },
    {
      "inputs": [],
      "name": "IncompatibleLengths",
      "type": "error"
    },
    {
      "inputs": [],
      "name": "NoLockedLiquidity",
      "type": "error"
    },
    {
      "inputs": [],
      "name": "PoolNotIncentivized",
      "type": "error"
    },
    {
      "inputs": [],
      "name": "ProtectedToken",
      "type": "error"
    },
    {
      "inputs": [],
      "name": "TooSmallAmount",
      "type": "error"
    },
    {
      "inputs": [],
      "name": "TooSmallStakingPeriod",
      "type": "error"
    },
    {
      "anonymous": false,
      "inputs": [
        {
          "indexed": false,
          "internalType": "bool",
          "name": "_isIncentivised",
          "type": "bool"
        }
      ],
      "name": "IncentivisedUpdated",
      "type": "event"
    },
    {
      "anonymous": false,
      "inputs": [
        {
          "indexed": true,
          "internalType": "bytes32",
          "name": "role",
          "type": "bytes32"
        },
        {
          "indexed": true,
          "internalType": "bytes32",
          "name": "previousAdminRole",
          "type": "bytes32"
        },
        {
          "indexed": true,
          "internalType": "bytes32",
          "name": "newAdminRole",
          "type": "bytes32"
        }
      ],
      "name": "RoleAdminChanged",
      "type": "event"
    },
    {
      "anonymous": false,
      "inputs": [
        {
          "indexed": true,
          "internalType": "bytes32",
          "name": "role",
          "type": "bytes32"
        },
        {
          "indexed": true,
          "internalType": "address",
          "name": "account",
          "type": "address"
        },
        {
          "indexed": true,
          "internalType": "address",
          "name": "sender",
          "type": "address"
        }
      ],
      "name": "RoleGranted",
      "type": "event"
    },
    {
      "anonymous": false,
      "inputs": [
        {
          "indexed": true,
          "internalType": "bytes32",
          "name": "role",
          "type": "bytes32"
        },
        {
          "indexed": true,
          "internalType": "address",
          "name": "account",
          "type": "address"
        },
        {
          "indexed": true,
          "internalType": "address",
          "name": "sender",
          "type": "address"
        }
      ],
      "name": "RoleRevoked",
      "type": "event"
    },
    {
      "inputs": [],
      "name": "DEFAULT_ADMIN_ROLE",
      "outputs": [
        {
          "internalType": "bytes32",
          "name": "",
          "type": "bytes32"
        }
      ],
      "stateMutability": "view",
      "type": "function"
    },
    {
      "inputs": [],
      "name": "GUARDIAN_ROLE",
      "outputs": [
        {
          "internalType": "bytes32",
          "name": "",
          "type": "bytes32"
        }
      ],
      "stateMutability": "view",
      "type": "function"
    },
    {
      "inputs": [],
      "name": "KEEPER_ROLE",
      "outputs": [
        {
          "internalType": "bytes32",
          "name": "",
          "type": "bytes32"
        }
      ],
      "stateMutability": "view",
      "type": "function"
    },
    {
      "inputs": [],
      "name": "STRATEGY_ROLE",
      "outputs": [
        {
          "internalType": "bytes32",
          "name": "",
          "type": "bytes32"
        }
      ],
      "stateMutability": "view",
      "type": "function"
    },
    {
      "inputs": [],
      "name": "apr",
      "outputs": [
        {
          "internalType": "uint256",
          "name": "",
          "type": "uint256"
        }
      ],
      "stateMutability": "view",
      "type": "function"
    },
    {
      "inputs": [
        {
          "internalType": "uint256",
          "name": "extraAmount",
          "type": "uint256"
        }
      ],
      "name": "aprAfterDeposit",
      "outputs": [
        {
          "internalType": "uint256",
          "name": "",
          "type": "uint256"
        }
      ],
      "stateMutability": "view",
      "type": "function"
    },
    {
      "inputs": [
        {
          "internalType": "contract IERC20[]",
          "name": "tokens",
          "type": "address[]"
        },
        {
          "internalType": "address[]",
          "name": "spenders",
          "type": "address[]"
        },
        {
          "internalType": "uint256[]",
          "name": "amounts",
          "type": "uint256[]"
        }
      ],
      "name": "changeAllowance",
      "outputs": [],
      "stateMutability": "nonpayable",
      "type": "function"
    },
    {
      "inputs": [],
      "name": "claimRewards",
      "outputs": [],
      "stateMutability": "nonpayable",
      "type": "function"
    },
    {
      "inputs": [],
      "name": "claimRewardsExternal",
      "outputs": [],
      "stateMutability": "nonpayable",
      "type": "function"
    },
    {
      "inputs": [],
      "name": "cooldown",
      "outputs": [],
      "stateMutability": "nonpayable",
      "type": "function"
    },
    {
      "inputs": [],
      "name": "cooldownSeconds",
      "outputs": [
        {
          "internalType": "uint256",
          "name": "",
          "type": "uint256"
        }
      ],
      "stateMutability": "view",
      "type": "function"
    },
    {
      "inputs": [],
      "name": "cooldownStkAave",
      "outputs": [
        {
          "internalType": "bool",
          "name": "",
          "type": "bool"
        }
      ],
      "stateMutability": "view",
      "type": "function"
    },
    {
      "inputs": [],
      "name": "deposit",
      "outputs": [],
      "stateMutability": "nonpayable",
      "type": "function"
    },
    {
      "inputs": [],
      "name": "earned",
      "outputs": [
        {
          "internalType": "address[]",
          "name": "tokenAddresses",
          "type": "address[]"
        },
        {
          "internalType": "uint256[]",
          "name": "totalEarned",
          "type": "uint256[]"
        }
      ],
      "stateMutability": "view",
      "type": "function"
    },
    {
      "inputs": [
        {
          "internalType": "uint256",
          "name": "amount",
          "type": "uint256"
        }
      ],
      "name": "emergencyWithdraw",
      "outputs": [],
      "stateMutability": "nonpayable",
      "type": "function"
    },
    {
      "inputs": [
        {
          "internalType": "bytes32",
          "name": "role",
          "type": "bytes32"
        }
      ],
      "name": "getRoleAdmin",
      "outputs": [
        {
          "internalType": "bytes32",
          "name": "",
          "type": "bytes32"
        }
      ],
      "stateMutability": "view",
      "type": "function"
    },
    {
      "inputs": [
        {
          "internalType": "bytes32",
          "name": "role",
          "type": "bytes32"
        },
        {
          "internalType": "address",
          "name": "account",
          "type": "address"
        }
      ],
      "name": "grantRole",
      "outputs": [],
      "stateMutability": "nonpayable",
      "type": "function"
    },
    {
      "inputs": [],
      "name": "hasAssets",
      "outputs": [
        {
          "internalType": "bool",
          "name": "",
          "type": "bool"
        }
      ],
      "stateMutability": "view",
      "type": "function"
    },
    {
      "inputs": [
        {
          "internalType": "bytes32",
          "name": "role",
          "type": "bytes32"
        },
        {
          "internalType": "address",
          "name": "account",
          "type": "address"
        }
      ],
      "name": "hasRole",
      "outputs": [
        {
          "internalType": "bool",
          "name": "",
          "type": "bool"
        }
      ],
      "stateMutability": "view",
      "type": "function"
    },
    {
      "inputs": [
        {
          "internalType": "address",
          "name": "_strategy",
          "type": "address"
        },
        {
          "internalType": "string",
          "name": "name",
          "type": "string"
        },
        {
          "internalType": "bool",
          "name": "_isIncentivised",
          "type": "bool"
        },
        {
          "internalType": "address[]",
          "name": "governorList",
          "type": "address[]"
        },
        {
          "internalType": "address",
          "name": "guardian",
          "type": "address"
        },
        {
          "internalType": "address[]",
          "name": "keeperList",
          "type": "address[]"
        },
        {
          "internalType": "uint256",
          "name": "_stakingPeriod",
          "type": "uint256"
        }
      ],
      "name": "initialize",
      "outputs": [],
      "stateMutability": "nonpayable",
      "type": "function"
    },
    {
      "inputs": [
        {
          "internalType": "address",
          "name": "_strategy",
          "type": "address"
        },
        {
          "internalType": "string",
          "name": "name",
          "type": "string"
        },
        {
          "internalType": "bool",
          "name": "_isIncentivised",
          "type": "bool"
        },
        {
          "internalType": "address[]",
          "name": "governorList",
          "type": "address[]"
        },
        {
          "internalType": "address",
          "name": "guardian",
          "type": "address"
        },
        {
          "internalType": "address[]",
          "name": "keeperList",
          "type": "address[]"
        }
      ],
      "name": "initializeAave",
      "outputs": [],
      "stateMutability": "nonpayable",
      "type": "function"
    },
    {
      "inputs": [],
      "name": "isIncentivised",
      "outputs": [
        {
          "internalType": "bool",
          "name": "",
          "type": "bool"
        }
      ],
      "stateMutability": "view",
      "type": "function"
    },
    {
      "inputs": [],
      "name": "kekId",
      "outputs": [
        {
          "internalType": "bytes32",
          "name": "",
          "type": "bytes32"
        }
      ],
      "stateMutability": "view",
      "type": "function"
    },
    {
      "inputs": [],
      "name": "lastAaveReserveNormalizedIncome",
      "outputs": [
        {
          "internalType": "uint256",
          "name": "",
          "type": "uint256"
        }
      ],
      "stateMutability": "view",
      "type": "function"
    },
    {
      "inputs": [],
      "name": "lastCreatedStake",
      "outputs": [
        {
          "internalType": "uint256",
          "name": "",
          "type": "uint256"
        }
      ],
      "stateMutability": "view",
      "type": "function"
    },
    {
      "inputs": [],
      "name": "lenderName",
      "outputs": [
        {
          "internalType": "string",
          "name": "",
          "type": "string"
        }
      ],
      "stateMutability": "view",
      "type": "function"
    },
    {
      "inputs": [],
      "name": "nav",
      "outputs": [
        {
          "internalType": "uint256",
          "name": "",
          "type": "uint256"
        }
      ],
      "stateMutability": "view",
      "type": "function"
    },
    {
      "inputs": [],
      "name": "poolManager",
      "outputs": [
        {
          "internalType": "contract IPoolManager",
          "name": "",
          "type": "address"
        }
      ],
      "stateMutability": "view",
      "type": "function"
    },
    {
      "inputs": [
        {
          "internalType": "bytes32",
          "name": "role",
          "type": "bytes32"
        },
        {
          "internalType": "address",
          "name": "account",
          "type": "address"
        }
      ],
      "name": "renounceRole",
      "outputs": [],
      "stateMutability": "nonpayable",
      "type": "function"
    },
    {
      "inputs": [
        {
          "internalType": "bytes32",
          "name": "role",
          "type": "bytes32"
        },
        {
          "internalType": "address",
          "name": "account",
          "type": "address"
        }
      ],
      "name": "revokeRole",
      "outputs": [],
      "stateMutability": "nonpayable",
      "type": "function"
    },
    {
      "inputs": [
        {
          "internalType": "uint256",
          "name": "minAmountOut",
          "type": "uint256"
        },
        {
          "internalType": "bytes",
          "name": "payload",
          "type": "bytes"
        }
      ],
      "name": "sellRewards",
      "outputs": [],
      "stateMutability": "nonpayable",
      "type": "function"
    },
    {
      "inputs": [],
      "name": "setAavePoolVariables",
      "outputs": [],
      "stateMutability": "nonpayable",
      "type": "function"
    },
    {
      "inputs": [
        {
          "internalType": "uint256",
          "name": "_stakingPeriod",
          "type": "uint256"
        }
      ],
      "name": "setLockTime",
      "outputs": [],
      "stateMutability": "nonpayable",
      "type": "function"
    },
    {
      "inputs": [],
      "name": "stakingPeriod",
      "outputs": [
        {
          "internalType": "uint256",
          "name": "",
          "type": "uint256"
        }
      ],
      "stateMutability": "view",
      "type": "function"
    },
    {
      "inputs": [],
      "name": "strategy",
      "outputs": [
        {
          "internalType": "address",
          "name": "",
          "type": "address"
        }
      ],
      "stateMutability": "view",
      "type": "function"
    },
    {
      "inputs": [
        {
          "internalType": "address",
          "name": "_token",
          "type": "address"
        },
        {
          "internalType": "address",
          "name": "to",
          "type": "address"
        }
      ],
      "name": "sweep",
      "outputs": [],
      "stateMutability": "nonpayable",
      "type": "function"
    },
    {
      "inputs": [],
      "name": "toggleCooldownStkAave",
      "outputs": [],
      "stateMutability": "nonpayable",
      "type": "function"
    },
    {
      "inputs": [],
      "name": "toggleIsIncentivised",
      "outputs": [],
      "stateMutability": "nonpayable",
      "type": "function"
    },
    {
      "inputs": [],
      "name": "underlyingBalanceStored",
      "outputs": [
        {
          "internalType": "uint256",
          "name": "balance",
          "type": "uint256"
        }
      ],
      "stateMutability": "view",
      "type": "function"
    },
    {
      "inputs": [],
      "name": "unstakeWindow",
      "outputs": [
        {
          "internalType": "uint256",
          "name": "",
          "type": "uint256"
        }
      ],
      "stateMutability": "view",
      "type": "function"
    },
    {
      "inputs": [],
      "name": "vault",
      "outputs": [
        {
          "internalType": "contract IStakingProxyERC20",
          "name": "",
          "type": "address"
        }
      ],
      "stateMutability": "view",
      "type": "function"
    },
    {
      "inputs": [],
      "name": "want",
      "outputs": [
        {
          "internalType": "contract IERC20",
          "name": "",
          "type": "address"
        }
      ],
      "stateMutability": "view",
      "type": "function"
    },
    {
      "inputs": [],
      "name": "wantBase",
      "outputs": [
        {
          "internalType": "uint256",
          "name": "",
          "type": "uint256"
        }
      ],
      "stateMutability": "view",
      "type": "function"
    },
    {
      "inputs": [],
      "name": "weightedApr",
      "outputs": [
        {
          "internalType": "uint256",
          "name": "",
          "type": "uint256"
        }
      ],
      "stateMutability": "view",
      "type": "function"
    },
    {
      "inputs": [
        {
          "internalType": "uint256",
          "name": "amount",
          "type": "uint256"
        }
      ],
      "name": "withdraw",
      "outputs": [
        {
          "internalType": "uint256",
          "name": "",
          "type": "uint256"
        }
      ],
      "stateMutability": "nonpayable",
      "type": "function"
    },
    {
      "inputs": [],
      "name": "withdrawAll",
      "outputs": [
        {
          "internalType": "bool",
          "name": "",
          "type": "bool"
        }
      ],
      "stateMutability": "nonpayable",
      "type": "function"
    }
  ],
  "transactionHash": "0x864b10edc19346b5092eb80f61c5d1595f72630757d0356300b65d565948047e",
  "args": [],
  "numDeployments": 1,
  "solcInputHash": "8d619312a26123096a6cb4de4563792c",
  "bytecode": "0x60806040523480156200001157600080fd5b50600054610100900460ff166200002f5760005460ff161562000039565b62000039620000de565b620000a15760405162461bcd60e51b815260206004820152602e60248201527f496e697469616c697a61626c653a20636f6e747261637420697320616c72656160448201526d191e481a5b9a5d1a585b1a5e995960921b606482015260840160405180910390fd5b600054610100900460ff16158015620000c4576000805461ffff19166101011790555b8015620000d7576000805461ff00191690555b506200010b565b6000620000f630620000fc60201b620018a81760201c565b15905090565b6001600160a01b03163b151590565b61524b806200011b6000396000f3fe608060405234801561001057600080fd5b506004361061030a5760003560e01c80636314e8841161019c578063b82c4dc1116100ee578063d0e30db011610097578063dc4c90d311610071578063dc4c90d3146105f3578063fbfa77cf14610606578063fd4649181461061957600080fd5b8063d0e30db0146105c2578063d547741f146105ca578063d6f19262146105dd57600080fd5b8063c14e80f9116100c8578063c14e80f91461059f578063c1590cd7146105b2578063c6afba3c146105ba57600080fd5b8063b82c4dc114610570578063b8dc491b14610583578063c03d5b471461059657600080fd5b8063a217fddf11610150578063ae04d45d1161012a578063ae04d45d1461054c578063b2086e9c1461055f578063b8221bc41461056757600080fd5b8063a217fddf1461051e578063a8c62e7614610526578063a990cd9c1461053957600080fd5b8063853828b611610181578063853828b6146104ee5780638b202176146104f657806391d148541461050b57600080fd5b80636314e884146104dd578063787a08a6146104e657600080fd5b8063364bc15a116102605780634c3f425f1161020957806357ded9c9116101e357806357ded9c9146104a6578063580b7c2e146104ae5780635be9b2d3146104d557600080fd5b80634c3f425f146104825780635219c04e1461048a5780635312ea8e1461049357600080fd5b80633ace00611161023a5780633ace006114610463578063440402611461046c57806345bffdf61461047957600080fd5b8063364bc15a1461042157806336568abe14610448578063372500ab1461045b57600080fd5b806320f98f3f116102c25780632e1a7d4d1161029c5780632e1a7d4d146103d95780632f2ff15d146103ec57806332b79021146103ff57600080fd5b806320f98f3f14610386578063248a9ca31461038e57806324ea54f4146103b257600080fd5b8063116ac4a3116102f3578063116ac4a314610340578063149a4ae4146103485780631f1fcd511461035b57600080fd5b806305b419341461030f5780630b6d1d1714610324575b600080fd5b61032261031d3660046144fe565b610621565b005b61032d60375481565b6040519081526020015b60405180910390f35b61032d61072a565b61032d610356366004614559565b61074f565b60365461036e906001600160a01b031681565b6040516001600160a01b039091168152602001610337565b610322610a76565b61032d61039c366004614559565b6000908152600160208190526040909120015490565b61032d7f55435dd261a4b9b3364963f7738a7a662ad9c84396d64be3365284bb7f0a504181565b61032d6103e7366004614559565b610abf565b6103226103fa366004614597565b610afe565b603a5461041190610100900460ff1681565b6040519015158152602001610337565b61032d7ffc8737ab85eb45125971625a9ebdb75cc78e01d5c1fa80c4c6e5203f47bc4fab81565b610322610456366004614597565b610b2a565b610322610b95565b61032d603f5481565b603a546104119060ff1681565b61032d603c5481565b610322610bc8565b61032d603d5481565b6103226104a1366004614559565b610bd2565b61032d610d38565b61032d7f928286c473ded01ff8bf61a1986f14a0579066072fa8261442d9fea514d93a4c81565b610411610d47565b61032d60395481565b610322610d66565b610411610dfb565b6104fe610e4c565b60405161033791906145f3565b610411610519366004614597565b610eda565b61032d600081565b60355461036e906001600160a01b031681565b6103226105473660046146ec565b610f07565b61032261055a366004614559565b61119d565b61032261127d565b61032d60385481565b61032261057e366004614802565b6112f6565b61032261059136600461489c565b6113fd565b61032d60405481565b6103226105ad3660046148ca565b611537565b61032d6116d6565b61032d6116e0565b6103226116fc565b6103226105d8366004614597565b6117bb565b6105e56117e2565b6040516103379291906149d1565b60345461036e906001600160a01b031681565b603b5461036e906001600160a01b031681565b610322611868565b7ffc8737ab85eb45125971625a9ebdb75cc78e01d5c1fa80c4c6e5203f47bc4fab61064c81336118b7565b600080731111111254fb6c44bac0bed2854e76f90643097d6001600160a01b03168460405161067b9190614a28565b6000604051808303816000865af19150503d80600081146106b8576040519150601f19603f3d011682016040523d82523d6000602084013e6106bd565b606091505b5091509150816106d0576106d08161191b565b6000818060200190518101906106e69190614a44565b905085811015610722576040517f22313ae900000000000000000000000000000000000000000000000000000000815260040160405180910390fd5b505050505050565b60008061073561195c565b905061073f611a60565b6107499082614a73565b91505090565b6036546040517f35ea6a750000000000000000000000000000000000000000000000000000000081526001600160a01b0390911660048201526000908190737d2768de32b0b80b7a3454c06bdac94a69ddc7a9906335ea6a759060240161018060405180830381865afa1580156107ca573d6000803e3d6000fd5b505050506040513d601f19601f820116820180604052508101906107ee9190614b25565b6036546040517f35ea6a750000000000000000000000000000000000000000000000000000000081526001600160a01b03909116600482015290915060009081908190819073057835ad21a177dbdd3090bb1cae03eacf78fc6d906335ea6a759060240161014060405180830381865afa158015610870573d6000803e3d6000fd5b505050506040513d601f19601f820116820180604052508101906108949190614c12565b5050509650505050935093509350600087856108b09190614c8d565b6036546040517f3e1501410000000000000000000000000000000000000000000000000000000081526001600160a01b03909116600482015290915060009073057835ad21a177dbdd3090bb1cae03eacf78fc6d90633e1501419060240161014060405180830381865afa15801561092c573d6000803e3d6000fd5b505050506040513d601f19601f820116820180604052508101906109509190614ca5565b505050506101408d01516036546040517f9584df280000000000000000000000000000000000000000000000000000000081526001600160a01b039182166004820152602481018b9052604481018e9052606481018d9052608481018c905260a4810185905293985060009750169450639584df2893505060c4019050606060405180830381865afa1580156109ea573d6000803e3d6000fd5b505050506040513d601f19601f82011682018060405250810190610a0e9190614d4c565b505090506000610a33868886610a249190614c8d565b610a2e9190614c8d565b611ad6565b90506000610a408c611c88565b90508082610a52633b9aca0086614d7a565b610a5c9190614c8d565b610a669190614c8d565b9c9b505050505050505050505050565b7f55435dd261a4b9b3364963f7738a7a662ad9c84396d64be3365284bb7f0a5041610aa181336118b7565b50603a805461ff001981166101009182900460ff1615909102179055565b60007f928286c473ded01ff8bf61a1986f14a0579066072fa8261442d9fea514d93a4c610aec81336118b7565b610af58361207f565b91505b50919050565b60008281526001602081905260409091200154610b1b81336118b7565b610b258383612405565b505050565b6001600160a01b0381163314610b875760405162461bcd60e51b815260206004820152600260248201527f373100000000000000000000000000000000000000000000000000000000000060448201526064015b60405180910390fd5b610b918282612470565b5050565b7ffc8737ab85eb45125971625a9ebdb75cc78e01d5c1fa80c4c6e5203f47bc4fab610bc081336118b7565b610b916124d7565b610bd06127a4565b565b7f55435dd261a4b9b3364963f7738a7a662ad9c84396d64be3365284bb7f0a5041610bfd81336118b7565b610c0682612963565b506036546040517f69328dec0000000000000000000000000000000000000000000000000000000081526001600160a01b03909116600482015260248101839052306044820152737d2768de32b0b80b7a3454c06bdac94a69ddc7a9906369328dec906064016020604051808303816000875af1158015610c8b573d6000803e3d6000fd5b505050506040513d601f19601f82011682018060405250810190610caf9190614a44565b506034546036546040516370a0823160e01b8152306004820152610b91926001600160a01b039081169216906370a0823190602401602060405180830381865afa158015610d01573d6000803e3d6000fd5b505050506040513d601f19601f82011682018060405250810190610d259190614a44565b6036546001600160a01b03169190612cce565b6000610d4261195c565b905090565b6000603754600a610d589190614a73565b610d60611a60565b11905090565b7ffc8737ab85eb45125971625a9ebdb75cc78e01d5c1fa80c4c6e5203f47bc4fab610d9181336118b7565b734da27a545c0c5b758a6ba100e3a049001de870f56001600160a01b031663787a08a66040518163ffffffff1660e01b8152600401600060405180830381600087803b158015610de057600080fd5b505af1158015610df4573d6000803e3d6000fd5b5050505050565b60007f928286c473ded01ff8bf61a1986f14a0579066072fa8261442d9fea514d93a4c610e2881336118b7565b6000610e32611a60565b90506000610e3f8261207f565b91909110159250505b5090565b60338054610e5990614d9c565b80601f0160208091040260200160405190810160405280929190818152602001828054610e8590614d9c565b8015610ed25780601f10610ea757610100808354040283529160200191610ed2565b820191906000526020600020905b815481529060010190602001808311610eb557829003601f168201915b505050505081565b60008281526001602090815260408083206001600160a01b038516845290915290205460ff165b92915050565b610f15878787878787611537565b7302577b426f223a6b4f2351315a19ecd6f357d65c6001600160a01b0316636e27cef96040518163ffffffff1660e01b8152600401602060405180830381865afa158015610f67573d6000803e3d6000fd5b505050506040513d601f19601f82011682018060405250810190610f8b9190614a44565b811015610fc4576040517ff20a824000000000000000000000000000000000000000000000000000000000815260040160405180910390fd5b6040818155603654905163d15e005360e01b81526001600160a01b039091166004820152737d2768de32b0b80b7a3454c06bdac94a69ddc7a99063d15e005390602401602060405180830381865afa158015611024573d6000803e3d6000fd5b505050506040513d601f19601f820116820180604052508101906110489190614a44565b603d556040517f9abbdf4b00000000000000000000000000000000000000000000000000000000815260026004820152739ca3ec5f627ad5d92498fd1b006b35577760ba9a90639abbdf4b90602401600060405180830381600087803b1580156110b157600080fd5b505af11580156110c5573d6000803e3d6000fd5b50506040517fbfff576f000000000000000000000000000000000000000000000000000000008152600260048201523060248201527341a5881c17185383e19df6fa4ec158a6f4851a69925063bfff576f9150604401602060405180830381865afa158015611138573d6000803e3d6000fd5b505050506040513d601f19601f8201168201806040525081019061115c9190614dd1565b603b80547fffffffffffffffffffffffff0000000000000000000000000000000000000000166001600160a01b039290921691909117905550505050505050565b7f55435dd261a4b9b3364963f7738a7a662ad9c84396d64be3365284bb7f0a50416111c881336118b7565b7302577b426f223a6b4f2351315a19ecd6f357d65c6001600160a01b0316636e27cef96040518163ffffffff1660e01b8152600401602060405180830381865afa15801561121a573d6000803e3d6000fd5b505050506040513d601f19601f8201168201806040525081019061123e9190614a44565b821015611277576040517ff20a824000000000000000000000000000000000000000000000000000000000815260040160405180910390fd5b50604055565b603b546040517fa4698feb000000000000000000000000000000000000000000000000000000008152600160048201526001600160a01b039091169063a4698feb90602401600060405180830381600087803b1580156112dc57600080fd5b505af11580156112f0573d6000803e3d6000fd5b50505050565b7f55435dd261a4b9b3364963f7738a7a662ad9c84396d64be3365284bb7f0a504161132181336118b7565b85841415806113305750858214155b15611367576040517f46282e8d00000000000000000000000000000000000000000000000000000000815260040160405180910390fd5b60005b868110156113f3576113e188888381811061138757611387614dee565b905060200201602081019061139c9190614e04565b8787848181106113ae576113ae614dee565b90506020020160208101906113c39190614e04565b8686858181106113d5576113d5614dee565b90506020020135612d77565b806113eb81614e21565b91505061136a565b5050505050505050565b7f55435dd261a4b9b3364963f7738a7a662ad9c84396d64be3365284bb7f0a504161142881336118b7565b6000611432612e40565b905060005b81518110156114b75781818151811061145257611452614dee565b60200260200101516001600160a01b0316856001600160a01b031614156114a5576040517f093e1cdb00000000000000000000000000000000000000000000000000000000815260040160405180910390fd5b806114af81614e21565b915050611437565b506040516370a0823160e01b81523060048201526112f09084906001600160a01b038716906370a0823190602401602060405180830381865afa158015611502573d6000803e3d6000fd5b505050506040513d601f19601f820116820180604052508101906115269190614a44565b6001600160a01b0387169190612cce565b6115448686858585612edb565b61154c6127a4565b8380156115ec5750603a54604080517f75d2641300000000000000000000000000000000000000000000000000000000815290516000926201000090046001600160a01b0316916375d264139160048083019260209291908290030181865afa1580156115bd573d6000803e3d6000fd5b505050506040513d601f19601f820116820180604052508101906115e19190614dd1565b6001600160a01b0316145b15611623576040517f5e7bb0f900000000000000000000000000000000000000000000000000000000815260040160405180910390fd5b603a805460ff19861515610100021661ffff1990911617600117905560365461166c906001600160a01b0316737d2768de32b0b80b7a3454c06bdac94a69ddc7a9600019613438565b6116a1734da27a545c0c5b758a6ba100e3a049001de870f5731111111254fb6c44bac0bed2854e76f90643097d600019613438565b610722737fc66500c84a76ad7e9c93437bfc5ac33e2ddae9731111111254fb6c44bac0bed2854e76f90643097d600019613438565b6000610d42611a60565b60006116ea61356d565b6116f261360f565b610d429190614c8d565b7f928286c473ded01ff8bf61a1986f14a0579066072fa8261442d9fea514d93a4c61172781336118b7565b6036546040516370a0823160e01b81523060048201526000916001600160a01b0316906370a0823190602401602060405180830381865afa158015611770573d6000803e3d6000fd5b505050506040513d601f19601f820116820180604052508101906117949190614a44565b90508061179f575050565b6117a881613683565b610b256117b361360f565b6137cd565b50565b600082815260016020819052604090912001546117d881336118b7565b610b258383612470565b606080603b60009054906101000a90046001600160a01b03166001600160a01b031663d6f192626040518163ffffffff1660e01b8152600401600060405180830381865afa158015611838573d6000803e3d6000fd5b505050506040513d6000823e601f3d908101601f191682016040526118609190810190614e97565b915091509091565b7f55435dd261a4b9b3364963f7738a7a662ad9c84396d64be3365284bb7f0a504161189381336118b7565b50603a805460ff19811660ff90911615179055565b6001600160a01b03163b151590565b6118c18282610eda565b610b91576118d9816001600160a01b03166014613a3b565b6118e4836020613a3b565b6040516020016118f5929190614f52565b60408051601f198184030181529082905262461bcd60e51b8252610b7e916004016145f3565b80511561192a57805181602001fd5b6040517fc76d51a100000000000000000000000000000000000000000000000000000000815260040160405180910390fd5b6036546040517f35ea6a750000000000000000000000000000000000000000000000000000000081526001600160a01b039091166004820152600090819081908190819073057835ad21a177dbdd3090bb1cae03eacf78fc6d906335ea6a759060240161014060405180830381865afa1580156119dd573d6000803e3d6000fd5b505050506040513d601f19601f82011682018060405250810190611a019190614c12565b50505050505093509350935093506000611a21838587610a249190614c8d565b90506000611a2f6000611c88565b90508082611a41633b9aca0086614d7a565b611a4b9190614c8d565b611a559190614c8d565b965050505050505090565b6000611a6a6116e0565b6036546040516370a0823160e01b81523060048201526001600160a01b03909116906370a0823190602401602060405180830381865afa158015611ab2573d6000803e3d6000fd5b505050506040513d601f19601f820116820180604052508101906116f29190614a44565b603a54600090610100900460ff168015611b64575073d784927ff2f95ba542bfc824c8a8a98f3495f6b56001600160a01b031663cc69afec6040518163ffffffff1660e01b8152600401602060405180830381865afa158015611b3d573d6000803e3d6000fd5b505050506040513d601f19601f82011682018060405250810190611b619190614a44565b42105b8015611b705750600082115b15611c8057603a546040517f1652e7b7000000000000000000000000000000000000000000000000000000008152620100009091046001600160a01b0316600482015260009073d784927ff2f95ba542bfc824c8a8a98f3495f6b590631652e7b790602401606060405180830381865afa158015611bf2573d6000803e3d6000fd5b505050506040513d601f19601f82011682018060405250810190611c169190614d4c565b509150508015611c7e576000611c2b82613c6b565b9050600084611c3e6301e1338084614a73565b611c5090670de0b6b3a7640000614a73565b611c5a9190614d7a565b9050612710611c6b8261251c614a73565b611c759190614d7a565b95945050505050565b505b506000919050565b603b546040517f8bad86a70000000000000000000000000000000000000000000000000000000081526001600160a01b0390911660048201526000908190819081907302577b426f223a6b4f2351315a19ecd6f357d65c90638bad86a790602401606060405180830381865afa158015611d06573d6000803e3d6000fd5b505050506040513d601f19601f82011682018060405250810190611d2a9190614d4c565b9250925092506000603e546000148015611d42575085155b15611d535750600095945050505050565b603e54611e2457506040805490517f0d7bac4f0000000000000000000000000000000000000000000000000000000081528691670de0b6b3a76400009185917302577b426f223a6b4f2351315a19ecd6f357d65c91630d7bac4f91611dbe9160040190815260200190565b602060405180830381865afa158015611ddb573d6000803e3d6000fd5b505050506040513d601f19601f82011682018060405250810190611dff9190614a44565b611e099190614c8d565b611e139083614a73565b611e1d9190614d7a565b9150611e54565b85611e2d61356d565b611e379190614c8d565b603e54909150611e478383614a73565b611e519190614d7a565b91505b600084837302577b426f223a6b4f2351315a19ecd6f357d65c6001600160a01b03166364f2c0606040518163ffffffff1660e01b8152600401602060405180830381865afa158015611eaa573d6000803e3d6000fd5b505050506040513d601f19601f82011682018060405250810190611ece9190614a44565b611ed89190614c8d565b611ee29190614fd3565b9050600073c9acb83ada68413a6aa57007bc720ee2e2b3c46d6001600160a01b03166313114a9d6040518163ffffffff1660e01b8152600401602060405180830381865afa158015611f38573d6000803e3d6000fd5b505050506040513d601f19601f82011682018060405250810190611f5c9190614a44565b90506000620186a083611f6f8483614fd3565b6040517ff2caeb1e000000000000000000000000000000000000000000000000000000008152600060048201527302577b426f223a6b4f2351315a19ecd6f357d65c9063f2caeb1e90602401602060405180830381865afa158015611fd8573d6000803e3d6000fd5b505050506040513d601f19601f82011682018060405250810190611ffc9190614a44565b6120069089614a73565b6120109190614a73565b61201a9190614d7a565b6120249190614d7a565b90508361271061204061203b6301e1338085614a73565b613d19565b61204c9061251c614a73565b61205e90670de0b6b3a7640000614a73565b6120689190614d7a565b6120729190614d7a565b9998505050505050505050565b60008061208a61356d565b9050600061209661360f565b6036546040516370a0823160e01b81523060048201529192506000916001600160a01b03909116906370a0823190602401602060405180830381865afa1580156120e4573d6000803e3d6000fd5b505050506040513d601f19601f820116820180604052508101906121089190614a44565b90506000816121178486614c8d565b6121219190614c8d565b90508086111561212f578095505b85821061215d57603554603654612153916001600160a01b03918216911688612cce565b5093949350505050565b603654603a546040516370a0823160e01b8152620100009091046001600160a01b03908116600483015260009216906370a0823190602401602060405180830381865afa1580156121b2573d6000803e3d6000fd5b505050506040513d601f19601f820116820180604052508101906121d69190614a44565b9050600181111561236e5760006121ed8489614fd3565b90508181116122b357600061220182612963565b6036546040517f69328dec0000000000000000000000000000000000000000000000000000000081526001600160a01b03909116600482015260248101829052306044820152909150737d2768de32b0b80b7a3454c06bdac94a69ddc7a9906369328dec906064016020604051808303816000875af1158015612288573d6000803e3d6000fd5b505050506040513d601f19601f820116820180604052508101906122ac9190614a44565b505061236c565b60006122be83612963565b6036546040517f69328dec0000000000000000000000000000000000000000000000000000000081526001600160a01b03909116600482015260248101829052306044820152909150737d2768de32b0b80b7a3454c06bdac94a69ddc7a9906369328dec906064016020604051808303816000875af1158015612345573d6000803e3d6000fd5b505050506040513d601f19601f820116820180604052508101906123699190614a44565b50505b505b6036546040516370a0823160e01b81523060048201526001600160a01b03909116906370a0823190602401602060405180830381865afa1580156123b6573d6000803e3d6000fd5b505050506040513d601f19601f820116820180604052508101906123da9190614a44565b6035546036549194506123fa916001600160a01b03908116911685612cce565b509095945050505050565b61240f8282610eda565b610b915760008281526001602081815260408084206001600160a01b0386168086529252808420805460ff19169093179092559051339285917f2f8788117e7eff1d82e926ec794901d17c78024a50270940304540a733656f0d9190a45050565b61247a8282610eda565b15610b915760008281526001602090815260408083206001600160a01b0385168085529252808320805460ff1916905551339285917ff6391f5c32d9c69d2a47ea670b442974b53935d1edc7fd64eb21e047a839171b9190a45050565b60006124e1613da9565b90506000811180156124fa57506124f6613de3565b6001145b15612609576040517f9a99b4f00000000000000000000000000000000000000000000000000000000081523060048201526000196024820152734da27a545c0c5b758a6ba100e3a049001de870f590639a99b4f090604401600060405180830381600087803b15801561256c57600080fd5b505af1158015612580573d6000803e3d6000fd5b50506040517f1e9a695000000000000000000000000000000000000000000000000000000000815230600482015260248101849052734da27a545c0c5b758a6ba100e3a049001de870f59250631e9a69509150604401600060405180830381600087803b1580156125f057600080fd5b505af1158015612604573d6000803e3d6000fd5b505050505b60408051600180825281830190925260009160208083019080368337019050509050603a60029054906101000a90046001600160a01b03168160008151811061265457612654614dee565b6001600160a01b03909216602092830291909101909101526040517f3111e7b300000000000000000000000000000000000000000000000000000000815273d784927ff2f95ba542bfc824c8a8a98f3495f6b590633111e7b3906126c2908490600019903090600401614fea565b6020604051808303816000875af11580156126e1573d6000803e3d6000fd5b505050506040513d601f19601f820116820180604052508101906127059190614a44565b5061270e613da9565b603a5490925060ff1680156127235750600082115b80156127345750612732613de3565b155b15610e4857734da27a545c0c5b758a6ba100e3a049001de870f56001600160a01b031663787a08a66040518163ffffffff1660e01b8152600401600060405180830381600087803b15801561278857600080fd5b505af115801561279c573d6000803e3d6000fd5b505050505090565b6036546040517fd2493b6c0000000000000000000000000000000000000000000000000000000081526001600160a01b03909116600482015260009073057835ad21a177dbdd3090bb1cae03eacf78fc6d9063d2493b6c90602401606060405180830381865afa15801561281c573d6000803e3d6000fd5b505050506040513d601f19601f82011682018060405250810190612840919061501c565b5050905080603a60026101000a8154816001600160a01b0302191690836001600160a01b03160217905550734da27a545c0c5b758a6ba100e3a049001de870f56001600160a01b03166372b49d636040518163ffffffff1660e01b8152600401602060405180830381865afa1580156128bd573d6000803e3d6000fd5b505050506040513d601f19601f820116820180604052508101906128e19190614a44565b603881905550734da27a545c0c5b758a6ba100e3a049001de870f56001600160a01b031663359c4a966040518163ffffffff1660e01b8152600401602060405180830381865afa158015612939573d6000803e3d6000fd5b505050506040513d601f19601f8201168201806040525081019061295d9190614a44565b60395550565b603c5460009061297557506000919050565b60365460405163d15e005360e01b81526001600160a01b039091166004820152600090737d2768de32b0b80b7a3454c06bdac94a69ddc7a99063d15e005390602401602060405180830381865afa1580156129d4573d6000803e3d6000fd5b505050506040513d601f19601f820116820180604052508101906129f89190614a44565b603d819055603b54603c546040517f51e3fc1700000000000000000000000000000000000000000000000000000000815260048101919091529192506001600160a01b0316906351e3fc1790602401600060405180830381600087803b158015612a6157600080fd5b505af1158015612a75573d6000803e3d6000fd5b5050603a546040516370a0823160e01b8152306004820152620100009091046001600160a01b031692506370a082319150602401602060405180830381865afa158015612ac6573d6000803e3d6000fd5b505050506040513d601f19601f82011682018060405250810190612aea9190614a44565b915081612b00683635c9adc5dea0000085614c8d565b1015612cb95742603f556000612b168484614fd3565b9050612b228183613ed5565b603e819055603a54603b54919250612b4d916001600160a01b03620100009092048216911683612d77565b603b5460405160609190911b7fffffffffffffffffffffffffffffffffffffffff000000000000000000000000166020820152426034820152605481018290526000607482015260940160408051808303601f190181528282528051602090910120603c55603b5490547f17b18c890000000000000000000000000000000000000000000000000000000083526004830184905260248301526001600160a01b0316906317b18c8990604401600060405180830381600087803b158015612c1357600080fd5b505af1158015612c27573d6000803e3d6000fd5b5050603a546040516370a0823160e01b815230600482015260009350620100009091046001600160a01b031691506370a0823190602401602060405180830381865afa158015612c7b573d6000803e3d6000fd5b505050506040513d601f19601f82011682018060405250810190612c9f9190614a44565b9050808511612cae5784612cb0565b805b93505050610af8565b6000603e819055603f819055603c5550919050565b6040516001600160a01b038316602482015260448101829052610b259084907fa9059cbb00000000000000000000000000000000000000000000000000000000906064015b60408051601f198184030181529190526020810180517bffffffffffffffffffffffffffffffffffffffffffffffffffffffff167fffffffff0000000000000000000000000000000000000000000000000000000090931692909217909152613f47565b604051636eb1769f60e11b81523060048201526001600160a01b0383811660248301526000919085169063dd62ed3e90604401602060405180830381865afa158015612dc7573d6000803e3d6000fd5b505050506040513d601f19601f82011682018060405250810190612deb9190614a44565b905081811015612e1957612e1483612e038385614fd3565b6001600160a01b038716919061402c565b6112f0565b818111156112f0576112f083612e2f8484614fd3565b6001600160a01b03871691906140f7565b60408051600280825260608083018452926000929190602083019080368337505060365482519293506001600160a01b031691839150600090612e8557612e85614dee565b6001600160a01b039283166020918202929092010152603a548251620100009091049091169082906001908110612ebe57612ebe614dee565b6001600160a01b0390921660209283029190910190910152919050565b600054610100900460ff16612ef65760005460ff1615612efa565b303b155b612f6c5760405162461bcd60e51b815260206004820152602e60248201527f496e697469616c697a61626c653a20636f6e747261637420697320616c72656160448201527f647920696e697469616c697a65640000000000000000000000000000000000006064820152608401610b7e565b600054610100900460ff16158015612f8e576000805461ffff19166101011790555b603580547fffffffffffffffffffffffff0000000000000000000000000000000000000000166001600160a01b038816908117909155604080517fdc4c90d3000000000000000000000000000000000000000000000000000000008152905163dc4c90d3916004808201926020929091908290030181865afa158015613018573d6000803e3d6000fd5b505050506040513d601f19601f8201168201806040525081019061303c9190614dd1565b603480547fffffffffffffffffffffffff0000000000000000000000000000000000000000166001600160a01b03929092169182179055604080517ffc0c546a000000000000000000000000000000000000000000000000000000008152905163fc0c546a916004808201926020929091908290030181865afa1580156130c7573d6000803e3d6000fd5b505050506040513d601f19601f820116820180604052508101906130eb9190614dd1565b603680547fffffffffffffffffffffffff0000000000000000000000000000000000000000166001600160a01b039290921691909117905584516131369060339060208801906143a5565b5060345461316e907f55435dd261a4b9b3364963f7738a7a662ad9c84396d64be3365284bb7f0a5041906001600160a01b0316614230565b60005b84518110156131cf576131bd7f55435dd261a4b9b3364963f7738a7a662ad9c84396d64be3365284bb7f0a50418683815181106131b0576131b0614dee565b6020026020010151614230565b806131c781614e21565b915050613171565b506131fa7ffc8737ab85eb45125971625a9ebdb75cc78e01d5c1fa80c4c6e5203f47bc4fab84614230565b60005b825181101561324e5761323c7ffc8737ab85eb45125971625a9ebdb75cc78e01d5c1fa80c4c6e5203f47bc4fab8483815181106131b0576131b0614dee565b8061324681614e21565b9150506131fd565b506132997ffc8737ab85eb45125971625a9ebdb75cc78e01d5c1fa80c4c6e5203f47bc4fab7f55435dd261a4b9b3364963f7738a7a662ad9c84396d64be3365284bb7f0a504161423a565b6132c37f55435dd261a4b9b3364963f7738a7a662ad9c84396d64be3365284bb7f0a504184614230565b6132ed7f928286c473ded01ff8bf61a1986f14a0579066072fa8261442d9fea514d93a4c87614230565b6133377f55435dd261a4b9b3364963f7738a7a662ad9c84396d64be3365284bb7f0a50417f928286c473ded01ff8bf61a1986f14a0579066072fa8261442d9fea514d93a4c61423a565b6133817f928286c473ded01ff8bf61a1986f14a0579066072fa8261442d9fea514d93a4c7f55435dd261a4b9b3364963f7738a7a662ad9c84396d64be3365284bb7f0a504161423a565b603660009054906101000a90046001600160a01b03166001600160a01b031663313ce5676040518163ffffffff1660e01b8152600401602060405180830381865afa1580156133d4573d6000803e3d6000fd5b505050506040513d601f19601f820116820180604052508101906133f89190615069565b61340390600a615168565b60375560365461341f906001600160a01b031687600019613438565b8015610722576000805461ff0019169055505050505050565b8015806134b25750604051636eb1769f60e11b81523060048201526001600160a01b03838116602483015284169063dd62ed3e90604401602060405180830381865afa15801561348c573d6000803e3d6000fd5b505050506040513d601f19601f820116820180604052508101906134b09190614a44565b155b6135245760405162461bcd60e51b815260206004820152603660248201527f5361666545524332303a20617070726f76652066726f6d206e6f6e2d7a65726f60448201527f20746f206e6f6e2d7a65726f20616c6c6f77616e6365000000000000000000006064820152608401610b7e565b6040516001600160a01b038316602482015260448101829052610b259084907f095ea7b30000000000000000000000000000000000000000000000000000000090606401612d13565b60365460405163d15e005360e01b81526001600160a01b0390911660048201526000908190737d2768de32b0b80b7a3454c06bdac94a69ddc7a99063d15e005390602401602060405180830381865afa1580156135ce573d6000803e3d6000fd5b505050506040513d601f19601f820116820180604052508101906135f29190614a44565b9050603d5481603e546136059190614a73565b6107499190614d7a565b603a546040516370a0823160e01b81523060048201526000916201000090046001600160a01b0316906370a08231906024015b602060405180830381865afa15801561365f573d6000803e3d6000fd5b505050506040513d601f19601f82011682018060405250810190610d429190614a44565b603654604051636eb1769f60e11b8152306004820152737d2768de32b0b80b7a3454c06bdac94a69ddc7a9602482018190529183916001600160a01b039091169063dd62ed3e90604401602060405180830381865afa1580156136ea573d6000803e3d6000fd5b505050506040513d601f19601f8201168201806040525081019061370e9190614a44565b10156137455760365461372c906001600160a01b0316826000613438565b603654613745906001600160a01b031682600019613438565b6036546040517fe8eda9df0000000000000000000000000000000000000000000000000000000081526001600160a01b03918216600482015260248101849052306044820152600060648201529082169063e8eda9df90608401600060405180830381600087803b1580156137b957600080fd5b505af1158015610722573d6000803e3d6000fd5b603d5460365460405163d15e005360e01b81526001600160a01b039091166004820152600091908290737d2768de32b0b80b7a3454c06bdac94a69ddc7a99063d15e005390602401602060405180830381865afa158015613832573d6000803e3d6000fd5b505050506040513d601f19601f820116820180604052508101906138569190614a44565b603d81905590506138678482613ed5565b603a54603b5491955061388d916001600160a01b03620100009092048216911686612d77565b603c5461398457603e84905542603f819055603b5460405160609190911b7fffffffffffffffffffffffffffffffffffffffff0000000000000000000000001660208201526034810191909152605481018590526000607482015260940160408051808303601f190181528282528051602090910120603c55603b5490547f17b18c890000000000000000000000000000000000000000000000000000000083526004830187905260248301526001600160a01b0316906317b18c8990604401600060405180830381600087803b15801561396757600080fd5b505af115801561397b573d6000803e3d6000fd5b50505050613a33565b838282603e546139949190614a73565b61399e9190614d7a565b6139a89190614c8d565b603e55603b54603c546040517fb85efd060000000000000000000000000000000000000000000000000000000081526001600160a01b039092169163b85efd0691613a00918890600401918252602082015260400190565b600060405180830381600087803b158015613a1a57600080fd5b505af1158015613a2e573d6000803e3d6000fd5b505050505b509192915050565b60606000613a4a836002614a73565b613a55906002614c8d565b67ffffffffffffffff811115613a6d57613a6d614435565b6040519080825280601f01601f191660200182016040528015613a97576020820181803683370190505b5090507f300000000000000000000000000000000000000000000000000000000000000081600081518110613ace57613ace614dee565b60200101907effffffffffffffffffffffffffffffffffffffffffffffffffffffffffffff1916908160001a9053507f780000000000000000000000000000000000000000000000000000000000000081600181518110613b3157613b31614dee565b60200101907effffffffffffffffffffffffffffffffffffffffffffffffffffffffffffff1916908160001a9053506000613b6d846002614a73565b613b78906001614c8d565b90505b6001811115613c15577f303132333435363738396162636465660000000000000000000000000000000085600f1660108110613bb957613bb9614dee565b1a60f81b828281518110613bcf57613bcf614dee565b60200101907effffffffffffffffffffffffffffffffffffffffffffffffffffffffffffff1916908160001a90535060049490941c93613c0e81615177565b9050613b7b565b508315613c645760405162461bcd60e51b815260206004820181905260248201527f537472696e67733a20686578206c656e67746820696e73756666696369656e746044820152606401610b7e565b9392505050565b60008073547a514d5e3769680ce22b2361c10ea13619e8a96001600160a01b031663feaf968c6040518163ffffffff1660e01b815260040160a060405180830381865afa158015613cc0573d6000803e3d6000fd5b505050506040513d601f19601f82011682018060405250810190613ce491906151a8565b5050509150506a52b7d2dcc80cd2e40000006037548483613d059190614a73565b613d0f9190614a73565b610af59190614d7a565b600080736ebc52c8c1089be9eb3945c4350b68b8e4c2233f6001600160a01b031663feaf968c6040518163ffffffff1660e01b815260040160a060405180830381865afa158015613d6e573d6000803e3d6000fd5b505050506040513d601f19601f82011682018060405250810190613d9291906151a8565b5050509150506305f5e1008382613d0f9190614a73565b6040516370a0823160e01b8152306004820152600090734da27a545c0c5b758a6ba100e3a049001de870f5906370a0823190602401613642565b6040517f091030c30000000000000000000000000000000000000000000000000000000081523060048201526000908190734da27a545c0c5b758a6ba100e3a049001de870f59063091030c390602401602060405180830381865afa158015613e50573d6000803e3d6000fd5b505050506040513d601f19601f82011682018060405250810190613e749190614a44565b9050600060385482613e869190614c8d565b905081613e965760009250505090565b8042118015613eb15750603954613ead9082614c8d565b4211155b15613ebf5760019250505090565b80421015613ed05760029250505090565b505090565b600080613ee3600284614d7a565b90508281613efd6b033b2e3c9fd0803ce800000087614a73565b613f079190614c8d565b613f119190614d7a565b91506b033b2e3c9fd0803ce800000081613f2b8585614a73565b613f359190614fd3565b613f3f9190614d7a565b949350505050565b6000613f9c826040518060400160405280602081526020017f5361666545524332303a206c6f772d6c6576656c2063616c6c206661696c6564815250856001600160a01b03166142919092919063ffffffff16565b805190915015610b255780806020019051810190613fba91906151f8565b610b255760405162461bcd60e51b815260206004820152602a60248201527f5361666545524332303a204552433230206f7065726174696f6e20646964206e60448201527f6f742073756363656564000000000000000000000000000000000000000000006064820152608401610b7e565b604051636eb1769f60e11b81523060048201526001600160a01b038381166024830152600091839186169063dd62ed3e90604401602060405180830381865afa15801561407d573d6000803e3d6000fd5b505050506040513d601f19601f820116820180604052508101906140a19190614a44565b6140ab9190614c8d565b6040516001600160a01b0385166024820152604481018290529091506112f09085907f095ea7b30000000000000000000000000000000000000000000000000000000090606401612d13565b604051636eb1769f60e11b81523060048201526001600160a01b0383811660248301526000919085169063dd62ed3e90604401602060405180830381865afa158015614147573d6000803e3d6000fd5b505050506040513d601f19601f8201168201806040525081019061416b9190614a44565b9050818110156141e35760405162461bcd60e51b815260206004820152602960248201527f5361666545524332303a2064656372656173656420616c6c6f77616e6365206260448201527f656c6f77207a65726f00000000000000000000000000000000000000000000006064820152608401610b7e565b6040516001600160a01b03841660248201528282036044820181905290610df49086907f095ea7b30000000000000000000000000000000000000000000000000000000090606401612d13565b610b918282612405565b60008281526001602081905260409091200154819060405184907fbd79b86ffe0ab8e8776151514217cd7cacd52c909f66475c3af44e129f0b00ff90600090a4600091825260016020819052604090922090910155565b6060613f3f8484600085856001600160a01b0385163b6142f35760405162461bcd60e51b815260206004820152601d60248201527f416464726573733a2063616c6c20746f206e6f6e2d636f6e74726163740000006044820152606401610b7e565b600080866001600160a01b0316858760405161430f9190614a28565b60006040518083038185875af1925050503d806000811461434c576040519150601f19603f3d011682016040523d82523d6000602084013e614351565b606091505b509150915061436182828661436c565b979650505050505050565b6060831561437b575081613c64565b82511561438b5782518084602001fd5b8160405162461bcd60e51b8152600401610b7e91906145f3565b8280546143b190614d9c565b90600052602060002090601f0160209004810192826143d35760008555614419565b82601f106143ec57805160ff1916838001178555614419565b82800160010185558215614419579182015b828111156144195782518255916020019190600101906143fe565b50610e489291505b80821115610e485760008155600101614421565b634e487b7160e01b600052604160045260246000fd5b604051610180810167ffffffffffffffff8111828210171561446f5761446f614435565b60405290565b604051601f8201601f1916810167ffffffffffffffff8111828210171561449e5761449e614435565b604052919050565b600067ffffffffffffffff8311156144c0576144c0614435565b6144d36020601f19601f86011601614475565b90508281528383830111156144e757600080fd5b828260208301376000602084830101529392505050565b6000806040838503121561451157600080fd5b82359150602083013567ffffffffffffffff81111561452f57600080fd5b8301601f8101851361454057600080fd5b61454f858235602084016144a6565b9150509250929050565b60006020828403121561456b57600080fd5b5035919050565b6001600160a01b03811681146117b857600080fd5b803561459281614572565b919050565b600080604083850312156145aa57600080fd5b8235915060208301356145bc81614572565b809150509250929050565b60005b838110156145e25781810151838201526020016145ca565b838111156112f05750506000910152565b60208152600082518060208401526146128160408501602087016145c7565b601f01601f19169190910160400192915050565b600082601f83011261463757600080fd5b613c64838335602085016144a6565b80151581146117b857600080fd5b600067ffffffffffffffff82111561466e5761466e614435565b5060051b60200190565b600082601f83011261468957600080fd5b8135602061469e61469983614654565b614475565b82815260059290921b840181019181810190868411156146bd57600080fd5b8286015b848110156146e15780356146d481614572565b83529183019183016146c1565b509695505050505050565b600080600080600080600060e0888a03121561470757600080fd5b873561471281614572565b9650602088013567ffffffffffffffff8082111561472f57600080fd5b61473b8b838c01614626565b975060408a0135915061474d82614646565b9095506060890135908082111561476357600080fd5b61476f8b838c01614678565b955061477d60808b01614587565b945060a08a013591508082111561479357600080fd5b506147a08a828b01614678565b92505060c0880135905092959891949750929550565b60008083601f8401126147c857600080fd5b50813567ffffffffffffffff8111156147e057600080fd5b6020830191508360208260051b85010111156147fb57600080fd5b9250929050565b6000806000806000806060878903121561481b57600080fd5b863567ffffffffffffffff8082111561483357600080fd5b61483f8a838b016147b6565b9098509650602089013591508082111561485857600080fd5b6148648a838b016147b6565b9096509450604089013591508082111561487d57600080fd5b5061488a89828a016147b6565b979a9699509497509295939492505050565b600080604083850312156148af57600080fd5b82356148ba81614572565b915060208301356145bc81614572565b60008060008060008060c087890312156148e357600080fd5b86356148ee81614572565b9550602087013567ffffffffffffffff8082111561490b57600080fd5b6149178a838b01614626565b96506040890135915061492982614646565b9094506060880135908082111561493f57600080fd5b61494b8a838b01614678565b94506080890135915061495d82614572565b90925060a0880135908082111561497357600080fd5b5061498089828a01614678565b9150509295509295509295565b600081518084526020808501945080840160005b838110156149c65781516001600160a01b0316875295820195908201906001016149a1565b509495945050505050565b6040815260006149e4604083018561498d565b82810360208481019190915284518083528582019282019060005b81811015614a1b578451835293830193918301916001016149ff565b5090979650505050505050565b60008251614a3a8184602087016145c7565b9190910192915050565b600060208284031215614a5657600080fd5b5051919050565b634e487b7160e01b600052601160045260246000fd5b6000816000190483118215151615614a8d57614a8d614a5d565b500290565b600060208284031215614aa457600080fd5b6040516020810181811067ffffffffffffffff82111715614ac757614ac7614435565b6040529151825250919050565b80516fffffffffffffffffffffffffffffffff8116811461459257600080fd5b805164ffffffffff8116811461459257600080fd5b805161459281614572565b805160ff8116811461459257600080fd5b60006101808284031215614b3857600080fd5b614b4061444b565b614b4a8484614a92565b8152614b5860208401614ad4565b6020820152614b6960408401614ad4565b6040820152614b7a60608401614ad4565b6060820152614b8b60808401614ad4565b6080820152614b9c60a08401614ad4565b60a0820152614bad60c08401614af4565b60c0820152614bbe60e08401614b09565b60e0820152610100614bd1818501614b09565b90820152610120614be3848201614b09565b90820152610140614bf5848201614b09565b90820152610160614c07848201614b14565b908201529392505050565b6000806000806000806000806000806101408b8d031215614c3257600080fd5b8a51995060208b0151985060408b0151975060608b0151965060808b0151955060a08b0151945060c08b0151935060e08b015192506101008b01519150614c7c6101208c01614af4565b90509295989b9194979a5092959850565b60008219821115614ca057614ca0614a5d565b500190565b6000806000806000806000806000806101408b8d031215614cc557600080fd5b8a51995060208b0151985060408b0151975060608b0151965060808b0151955060a08b0151614cf381614646565b60c08c0151909550614d0481614646565b60e08c0151909450614d1581614646565b6101008c0151909350614d2781614646565b6101208c0151909250614d3981614646565b809150509295989b9194979a5092959850565b600080600060608486031215614d6157600080fd5b8351925060208401519150604084015190509250925092565b600082614d9757634e487b7160e01b600052601260045260246000fd5b500490565b600181811c90821680614db057607f821691505b60208210811415610af857634e487b7160e01b600052602260045260246000fd5b600060208284031215614de357600080fd5b8151613c6481614572565b634e487b7160e01b600052603260045260246000fd5b600060208284031215614e1657600080fd5b8135613c6481614572565b6000600019821415614e3557614e35614a5d565b5060010190565b600082601f830112614e4d57600080fd5b81516020614e5d61469983614654565b82815260059290921b84018101918181019086841115614e7c57600080fd5b8286015b848110156146e15780518352918301918301614e80565b60008060408385031215614eaa57600080fd5b825167ffffffffffffffff80821115614ec257600080fd5b818501915085601f830112614ed657600080fd5b81516020614ee661469983614654565b82815260059290921b84018101918181019089841115614f0557600080fd5b948201945b83861015614f2c578551614f1d81614572565b82529482019490820190614f0a565b91880151919650909350505080821115614f4557600080fd5b5061454f85828601614e3c565b7f416363657373436f6e74726f6c3a206163636f756e7420000000000000000000815260008351614f8a8160178501602088016145c7565b7f206973206d697373696e6720726f6c65200000000000000000000000000000006017918401918201528351614fc78160288401602088016145c7565b01602801949350505050565b600082821015614fe557614fe5614a5d565b500390565b606081526000614ffd606083018661498d565b90508360208301526001600160a01b0383166040830152949350505050565b60008060006060848603121561503157600080fd5b835161503c81614572565b602085015190935061504d81614572565b604085015190925061505e81614572565b809150509250925092565b60006020828403121561507b57600080fd5b613c6482614b14565b600181815b808511156150bf5781600019048211156150a5576150a5614a5d565b808516156150b257918102915b93841c9390800290615089565b509250929050565b6000826150d657506001610f01565b816150e357506000610f01565b81600181146150f957600281146151035761511f565b6001915050610f01565b60ff84111561511457615114614a5d565b50506001821b610f01565b5060208310610133831016604e8410600b8410161715615142575081810a610f01565b61514c8383615084565b806000190482111561516057615160614a5d565b029392505050565b6000613c6460ff8416836150c7565b60008161518657615186614a5d565b506000190190565b805169ffffffffffffffffffff8116811461459257600080fd5b600080600080600060a086880312156151c057600080fd5b6151c98661518e565b94506020860151935060408601519250606086015191506151ec6080870161518e565b90509295509295909350565b60006020828403121561520a57600080fd5b8151613c648161464656fea264697066735822122049ddf87ee49136b5af3d798202da5f43531086671ef489939af8b1455b877f2e64736f6c634300080c0033",
  "devdoc": {
    "author": "Angle Core Team",
    "kind": "dev",
    "methods": {
      "aprAfterDeposit(uint256)": {
        "params": {
          "extraAmount": "The amount to add to the lending platform"
        }
      },
      "changeAllowance(address[],address[],uint256[])": {
        "params": {
          "amounts": "Approval amounts for each address",
          "spenders": "Addresses to approve",
          "tokens": "Addresses of the tokens for which approvals should be made"
        }
      },
      "claimRewards()": {
        "details": "stkAAVE require a \"cooldown\" period of 10 days before being claimed"
      },
      "emergencyWithdraw(uint256)": {
        "details": "Does not check if any error occurs or if the amount withdrawn is correct",
        "params": {
          "amount": "Amount to withdraw"
        }
      },
      "getRoleAdmin(bytes32)": {
        "details": "Returns the admin role that controls `role`. See {grantRole} and {revokeRole}. To change a role's admin, use {_setRoleAdmin}."
      },
      "grantRole(bytes32,address)": {
        "details": "Grants `role` to `account`. If `account` had not been already granted `role`, emits a {RoleGranted} event. Requirements: - the caller must have ``role``'s admin role."
      },
      "hasAssets()": {
        "details": "We're considering that the strategy has no assets if it has less than 10 of the underlying asset in total to avoid the case where there is dust remaining on the lending market we cannot withdraw everything"
      },
      "hasRole(bytes32,address)": {
        "details": "Returns `true` if `account` has been granted `role`."
      },
      "initialize(address,string,bool,address[],address,address[],uint256)": {
        "details": "This function also initialized some FRAX related parameters like the staking period",
        "params": {
          "_stakingPeriod": "Amount of time aFRAX must remain staked"
        }
      },
      "initializeAave(address,string,bool,address[],address,address[])": {
        "params": {
          "_isIncentivised": "Whether the corresponding token is incentivized on Aave or not",
          "_strategy": "Reference to the strategy using this lender",
          "governorList": "List of addresses with governor privilege",
          "guardian": "Address of the guardian",
          "keeperList": "List of addresses with keeper privilege",
          "name": "Name of the lender"
        }
      },
      "renounceRole(bytes32,address)": {
        "details": "Revokes `role` from the calling account. Roles are often managed via {grantRole} and {revokeRole}: this function's purpose is to provide a mechanism for accounts to lose their privileges if they are compromised (such as when a trusted device is misplaced). If the calling account had been granted `role`, emits a {RoleRevoked} event. Requirements: - the caller must be `account`."
      },
      "revokeRole(bytes32,address)": {
        "details": "Revokes `role` from `account`. If `account` had been granted `role`, emits a {RoleRevoked} event. Requirements: - the caller must have ``role``'s admin role."
      },
      "sellRewards(uint256,bytes)": {
        "details": "In the case of a contract lending to Aave, tokens swapped should typically be: _stkAave -> `want` or Aave -> `want`",
        "params": {
          "minAmountOut": "Minimum amount of `want` to receive for the swap to happen",
          "payload": "Bytes needed for 1Inch API"
        }
      },
      "setAavePoolVariables()": {
        "details": "No access control is needed here because values are fetched from Aave directlyWe expect the values concerned not to be often modified"
      },
      "sweep(address,address)": {
        "details": "Implement `_protectedTokens()` to specify any additional tokens that should be protected from sweeping in addition to `want`.",
        "params": {
          "_token": "The token to transfer out of this poolManager.",
          "to": "Address to send the tokens to."
        }
      },
      "withdraw(uint256)": {
        "params": {
          "amount": "Amount to withdraw"
        },
        "returns": {
          "_0": "Amount actually withdrawn"
        }
      }
    },
    "title": "GenericAaveFraxConvexStaker",
    "version": 1
  },
  "userdoc": {
    "kind": "user",
    "methods": {
      "apr()": {
        "notice": "Returns an estimation of the current Annual Percentage Rate"
      },
      "aprAfterDeposit(uint256)": {
        "notice": "Returns an estimation of the current Annual Percentage Rate after a new deposit"
      },
      "changeAllowance(address[],address[],uint256[])": {
        "notice": "Changes allowance of a set of tokens to addresses"
      },
      "claimRewards()": {
        "notice": "Claim earned stkAAVE"
      },
      "claimRewardsExternal()": {
        "notice": "Permisionless function to claim rewards, reward tokens are directly sent to the contract and keeper/governance can handle them via a `sweep` or a `sellRewards` call"
      },
      "cooldown()": {
        "notice": "Triggers the cooldown on Aave for this contract"
      },
      "deposit()": {
        "notice": "Deposits the current balance to the lending platform"
      },
      "earned()": {
        "notice": "Can be called before `claimRewardsExternal` to check the available rewards to be claimed"
      },
      "emergencyWithdraw(uint256)": {
        "notice": "Withdraws as much as possible in case of emergency and sends it to the `PoolManager`"
      },
      "hasAssets()": {
        "notice": "Check if assets are currently managed by the lender"
      },
      "initialize(address,string,bool,address[],address,address[],uint256)": {
        "notice": "Wrapper built on top of the `initializeAave` method to initialize the contract"
      },
      "initializeAave(address,string,bool,address[],address,address[])": {
        "notice": "Initializer of the `GenericAave`"
      },
      "kekId()": {
        "notice": "Hash representing the position on Frax staker"
      },
      "lastAaveReserveNormalizedIncome()": {
        "notice": "Used to track the current liquidity (staked + interests) from Aave"
      },
      "lastCreatedStake()": {
        "notice": "Last time a staker has been created"
      },
      "nav()": {
        "notice": "Helper function to get the current total of assets managed by the lender."
      },
      "poolManager()": {
        "notice": "Reference to the protocol's collateral poolManager"
      },
      "sellRewards(uint256,bytes)": {
        "notice": "Swap earned _stkAave or Aave for `want` through 1Inch"
      },
      "setAavePoolVariables()": {
        "notice": "Retrieves lending pool variables like the `COOLDOWN_SECONDS` or the `UNSTAKE_WINDOW` on Aave"
      },
      "setLockTime(uint256)": {
        "notice": "Updates the staking period on the aFRAX staking contract"
      },
      "stakingPeriod()": {
        "notice": "Staking duration"
      },
      "strategy()": {
        "notice": "Reference to the `Strategy`"
      },
      "sweep(address,address)": {
        "notice": "Removes tokens from this Strategy that are not the type of tokens managed by this Strategy. This may be used in case of accidentally sending the wrong kind of token to this Strategy. Tokens will be sent to `governance()`. This will fail if an attempt is made to sweep `want`, or any tokens that are protected by this Strategy. This may only be called by governance."
      },
      "toggleCooldownStkAave()": {
        "notice": "Toggle cooldownStkAave state, which allow or not to call the coolDown stkAave each time rewards are claimed"
      },
      "toggleIsIncentivised()": {
        "notice": "Toggle isIncentivised state, to let know the lender if it should harvest aave rewards"
      },
      "underlyingBalanceStored()": {
        "notice": "Returns the current balance of aTokens"
      },
      "want()": {
        "notice": "Reference to the token lent"
      },
      "wantBase()": {
        "notice": "Base of the asset handled by the lender"
      },
      "weightedApr()": {
        "notice": "Returns an estimation of the current Annual Percentage Rate weighted by a factor"
      },
      "withdraw(uint256)": {
        "notice": "Withdraws a given amount from lender"
      },
      "withdrawAll()": {
        "notice": "Withdraws as much as possible"
      }
    },
    "notice": "`GenericAaveUpgradeable` implementation for FRAX where aFRAX obtained from Aave are staked on a Convex contract to earn FXS incentives with max boost",
    "version": 1
  },
  "storageLayout": {
    "storage": [
      {
        "astId": 52,
        "contract": "contracts/strategies/OptimizerAPR/genericLender/GenericAaveFraxConvexStaker.sol:GenericAaveFraxConvexStaker",
        "label": "_initialized",
        "offset": 0,
        "slot": "0",
        "type": "t_bool"
      },
      {
        "astId": 55,
        "contract": "contracts/strategies/OptimizerAPR/genericLender/GenericAaveFraxConvexStaker.sol:GenericAaveFraxConvexStaker",
        "label": "_initializing",
        "offset": 1,
        "slot": "0",
        "type": "t_bool"
      },
      {
        "astId": 3409,
        "contract": "contracts/strategies/OptimizerAPR/genericLender/GenericAaveFraxConvexStaker.sol:GenericAaveFraxConvexStaker",
        "label": "_roles",
        "offset": 0,
        "slot": "1",
        "type": "t_mapping(t_bytes32,t_struct(RoleData)3404_storage)"
      },
      {
        "astId": 3695,
        "contract": "contracts/strategies/OptimizerAPR/genericLender/GenericAaveFraxConvexStaker.sol:GenericAaveFraxConvexStaker",
        "label": "__gap",
        "offset": 0,
        "slot": "2",
        "type": "t_array(t_uint256)49_storage"
      },
      {
        "astId": 20388,
        "contract": "contracts/strategies/OptimizerAPR/genericLender/GenericAaveFraxConvexStaker.sol:GenericAaveFraxConvexStaker",
        "label": "lenderName",
        "offset": 0,
        "slot": "51",
        "type": "t_string_storage"
      },
      {
        "astId": 20392,
        "contract": "contracts/strategies/OptimizerAPR/genericLender/GenericAaveFraxConvexStaker.sol:GenericAaveFraxConvexStaker",
        "label": "poolManager",
        "offset": 0,
        "slot": "52",
        "type": "t_contract(IPoolManager)4044"
      },
      {
        "astId": 20396,
        "contract": "contracts/strategies/OptimizerAPR/genericLender/GenericAaveFraxConvexStaker.sol:GenericAaveFraxConvexStaker",
        "label": "strategy",
        "offset": 0,
        "slot": "53",
        "type": "t_address"
      },
      {
        "astId": 20400,
        "contract": "contracts/strategies/OptimizerAPR/genericLender/GenericAaveFraxConvexStaker.sol:GenericAaveFraxConvexStaker",
        "label": "want",
        "offset": 0,
        "slot": "54",
        "type": "t_contract(IERC20)2114"
      },
      {
        "astId": 20403,
        "contract": "contracts/strategies/OptimizerAPR/genericLender/GenericAaveFraxConvexStaker.sol:GenericAaveFraxConvexStaker",
        "label": "wantBase",
        "offset": 0,
        "slot": "55",
        "type": "t_uint256"
      },
      {
        "astId": 18546,
        "contract": "contracts/strategies/OptimizerAPR/genericLender/GenericAaveFraxConvexStaker.sol:GenericAaveFraxConvexStaker",
        "label": "cooldownSeconds",
        "offset": 0,
        "slot": "56",
        "type": "t_uint256"
      },
      {
        "astId": 18548,
        "contract": "contracts/strategies/OptimizerAPR/genericLender/GenericAaveFraxConvexStaker.sol:GenericAaveFraxConvexStaker",
        "label": "unstakeWindow",
        "offset": 0,
        "slot": "57",
        "type": "t_uint256"
      },
      {
        "astId": 18550,
        "contract": "contracts/strategies/OptimizerAPR/genericLender/GenericAaveFraxConvexStaker.sol:GenericAaveFraxConvexStaker",
        "label": "cooldownStkAave",
        "offset": 0,
        "slot": "58",
        "type": "t_bool"
      },
      {
        "astId": 18552,
        "contract": "contracts/strategies/OptimizerAPR/genericLender/GenericAaveFraxConvexStaker.sol:GenericAaveFraxConvexStaker",
        "label": "isIncentivised",
        "offset": 1,
        "slot": "58",
        "type": "t_bool"
      },
      {
        "astId": 18555,
        "contract": "contracts/strategies/OptimizerAPR/genericLender/GenericAaveFraxConvexStaker.sol:GenericAaveFraxConvexStaker",
        "label": "_aToken",
        "offset": 2,
        "slot": "58",
        "type": "t_contract(IAToken)4669"
      },
      {
        "astId": 17260,
        "contract": "contracts/strategies/OptimizerAPR/genericLender/GenericAaveFraxConvexStaker.sol:GenericAaveFraxConvexStaker",
        "label": "vault",
        "offset": 0,
        "slot": "59",
        "type": "t_contract(IStakingProxyERC20)5546"
      },
      {
        "astId": 17263,
        "contract": "contracts/strategies/OptimizerAPR/genericLender/GenericAaveFraxConvexStaker.sol:GenericAaveFraxConvexStaker",
        "label": "kekId",
        "offset": 0,
        "slot": "60",
        "type": "t_bytes32"
      },
      {
        "astId": 17266,
        "contract": "contracts/strategies/OptimizerAPR/genericLender/GenericAaveFraxConvexStaker.sol:GenericAaveFraxConvexStaker",
        "label": "lastAaveReserveNormalizedIncome",
        "offset": 0,
        "slot": "61",
        "type": "t_uint256"
      },
      {
        "astId": 17269,
        "contract": "contracts/strategies/OptimizerAPR/genericLender/GenericAaveFraxConvexStaker.sol:GenericAaveFraxConvexStaker",
        "label": "lastLiquidity",
        "offset": 0,
        "slot": "62",
        "type": "t_uint256"
      },
      {
        "astId": 17272,
        "contract": "contracts/strategies/OptimizerAPR/genericLender/GenericAaveFraxConvexStaker.sol:GenericAaveFraxConvexStaker",
        "label": "lastCreatedStake",
        "offset": 0,
        "slot": "63",
        "type": "t_uint256"
      },
      {
        "astId": 17281,
        "contract": "contracts/strategies/OptimizerAPR/genericLender/GenericAaveFraxConvexStaker.sol:GenericAaveFraxConvexStaker",
        "label": "stakingPeriod",
        "offset": 0,
        "slot": "64",
        "type": "t_uint256"
      }
    ],
    "types": {
      "t_address": {
        "encoding": "inplace",
        "label": "address",
        "numberOfBytes": "20"
      },
      "t_array(t_uint256)49_storage": {
        "base": "t_uint256",
        "encoding": "inplace",
        "label": "uint256[49]",
        "numberOfBytes": "1568"
      },
      "t_bool": {
        "encoding": "inplace",
        "label": "bool",
        "numberOfBytes": "1"
      },
      "t_bytes32": {
        "encoding": "inplace",
        "label": "bytes32",
        "numberOfBytes": "32"
      },
      "t_contract(IAToken)4669": {
        "encoding": "inplace",
        "label": "contract IAToken",
        "numberOfBytes": "20"
      },
      "t_contract(IERC20)2114": {
        "encoding": "inplace",
        "label": "contract IERC20",
        "numberOfBytes": "20"
      },
      "t_contract(IPoolManager)4044": {
        "encoding": "inplace",
        "label": "contract IPoolManager",
        "numberOfBytes": "20"
      },
      "t_contract(IStakingProxyERC20)5546": {
        "encoding": "inplace",
        "label": "contract IStakingProxyERC20",
        "numberOfBytes": "20"
      },
      "t_mapping(t_address,t_bool)": {
        "encoding": "mapping",
        "key": "t_address",
        "label": "mapping(address => bool)",
        "numberOfBytes": "32",
        "value": "t_bool"
      },
      "t_mapping(t_bytes32,t_struct(RoleData)3404_storage)": {
        "encoding": "mapping",
        "key": "t_bytes32",
        "label": "mapping(bytes32 => struct AccessControlUpgradeable.RoleData)",
        "numberOfBytes": "32",
        "value": "t_struct(RoleData)3404_storage"
      },
      "t_string_storage": {
        "encoding": "bytes",
        "label": "string",
        "numberOfBytes": "32"
      },
      "t_struct(RoleData)3404_storage": {
        "encoding": "inplace",
        "label": "struct AccessControlUpgradeable.RoleData",
        "members": [
          {
            "astId": 3401,
            "contract": "contracts/strategies/OptimizerAPR/genericLender/GenericAaveFraxConvexStaker.sol:GenericAaveFraxConvexStaker",
            "label": "members",
            "offset": 0,
            "slot": "0",
            "type": "t_mapping(t_address,t_bool)"
          },
          {
            "astId": 3403,
            "contract": "contracts/strategies/OptimizerAPR/genericLender/GenericAaveFraxConvexStaker.sol:GenericAaveFraxConvexStaker",
            "label": "adminRole",
            "offset": 0,
            "slot": "1",
            "type": "t_bytes32"
          }
        ],
        "numberOfBytes": "64"
      },
      "t_uint256": {
        "encoding": "inplace",
        "label": "uint256",
        "numberOfBytes": "32"
      }
    }
  }
}