{
  "address": "0xF0AbdA585f9E03aF064c9EA22126Cf98066E1c3F",
  "abi": [
    {
      "inputs": [],
      "name": "ErrorSwap",
      "type": "error"
    },
    {
      "inputs": [],
      "name": "IncompatibleLengths",
      "type": "error"
    },
    {
      "inputs": [],
      "name": "PoolNotIncentivized",
      "type": "error"
    },
    {
      "inputs": [],
      "name": "ProtectedToken",
      "type": "error"
    },
    {
      "inputs": [],
      "name": "TooSmallAmount",
      "type": "error"
    },
    {
      "anonymous": false,
      "inputs": [
        {
          "indexed": false,
          "internalType": "bool",
          "name": "_isIncentivised",
          "type": "bool"
        }
      ],
      "name": "IncentivisedUpdated",
      "type": "event"
    },
    {
      "anonymous": false,
      "inputs": [
        {
          "indexed": true,
          "internalType": "bytes32",
          "name": "role",
          "type": "bytes32"
        },
        {
          "indexed": true,
          "internalType": "bytes32",
          "name": "previousAdminRole",
          "type": "bytes32"
        },
        {
          "indexed": true,
          "internalType": "bytes32",
          "name": "newAdminRole",
          "type": "bytes32"
        }
      ],
      "name": "RoleAdminChanged",
      "type": "event"
    },
    {
      "anonymous": false,
      "inputs": [
        {
          "indexed": true,
          "internalType": "bytes32",
          "name": "role",
          "type": "bytes32"
        },
        {
          "indexed": true,
          "internalType": "address",
          "name": "account",
          "type": "address"
        },
        {
          "indexed": true,
          "internalType": "address",
          "name": "sender",
          "type": "address"
        }
      ],
      "name": "RoleGranted",
      "type": "event"
    },
    {
      "anonymous": false,
      "inputs": [
        {
          "indexed": true,
          "internalType": "bytes32",
          "name": "role",
          "type": "bytes32"
        },
        {
          "indexed": true,
          "internalType": "address",
          "name": "account",
          "type": "address"
        },
        {
          "indexed": true,
          "internalType": "address",
          "name": "sender",
          "type": "address"
        }
      ],
      "name": "RoleRevoked",
      "type": "event"
    },
    {
      "inputs": [],
      "name": "DEFAULT_ADMIN_ROLE",
      "outputs": [
        {
          "internalType": "bytes32",
          "name": "",
          "type": "bytes32"
        }
      ],
      "stateMutability": "view",
      "type": "function"
    },
    {
      "inputs": [],
      "name": "GUARDIAN_ROLE",
      "outputs": [
        {
          "internalType": "bytes32",
          "name": "",
          "type": "bytes32"
        }
      ],
      "stateMutability": "view",
      "type": "function"
    },
    {
      "inputs": [],
      "name": "KEEPER_ROLE",
      "outputs": [
        {
          "internalType": "bytes32",
          "name": "",
          "type": "bytes32"
        }
      ],
      "stateMutability": "view",
      "type": "function"
    },
    {
      "inputs": [],
      "name": "STRATEGY_ROLE",
      "outputs": [
        {
          "internalType": "bytes32",
          "name": "",
          "type": "bytes32"
        }
      ],
      "stateMutability": "view",
      "type": "function"
    },
    {
      "inputs": [],
      "name": "apr",
      "outputs": [
        {
          "internalType": "uint256",
          "name": "",
          "type": "uint256"
        }
      ],
      "stateMutability": "view",
      "type": "function"
    },
    {
      "inputs": [
        {
          "internalType": "uint256",
          "name": "extraAmount",
          "type": "uint256"
        }
      ],
      "name": "aprAfterDeposit",
      "outputs": [
        {
          "internalType": "uint256",
          "name": "",
          "type": "uint256"
        }
      ],
      "stateMutability": "view",
      "type": "function"
    },
    {
      "inputs": [
        {
          "internalType": "contract IERC20[]",
          "name": "tokens",
          "type": "address[]"
        },
        {
          "internalType": "address[]",
          "name": "spenders",
          "type": "address[]"
        },
        {
          "internalType": "uint256[]",
          "name": "amounts",
          "type": "uint256[]"
        }
      ],
      "name": "changeAllowance",
      "outputs": [],
      "stateMutability": "nonpayable",
      "type": "function"
    },
    {
      "inputs": [],
      "name": "claimRewards",
      "outputs": [],
      "stateMutability": "nonpayable",
      "type": "function"
    },
    {
      "inputs": [],
      "name": "cooldown",
      "outputs": [],
      "stateMutability": "nonpayable",
      "type": "function"
    },
    {
      "inputs": [],
      "name": "cooldownSeconds",
      "outputs": [
        {
          "internalType": "uint256",
          "name": "",
          "type": "uint256"
        }
      ],
      "stateMutability": "view",
      "type": "function"
    },
    {
      "inputs": [],
      "name": "cooldownStkAave",
      "outputs": [
        {
          "internalType": "bool",
          "name": "",
          "type": "bool"
        }
      ],
      "stateMutability": "view",
      "type": "function"
    },
    {
      "inputs": [],
      "name": "deposit",
      "outputs": [],
      "stateMutability": "nonpayable",
      "type": "function"
    },
    {
      "inputs": [
        {
          "internalType": "uint256",
          "name": "amount",
          "type": "uint256"
        }
      ],
      "name": "emergencyWithdraw",
      "outputs": [],
      "stateMutability": "nonpayable",
      "type": "function"
    },
    {
      "inputs": [
        {
          "internalType": "bytes32",
          "name": "role",
          "type": "bytes32"
        }
      ],
      "name": "getRoleAdmin",
      "outputs": [
        {
          "internalType": "bytes32",
          "name": "",
          "type": "bytes32"
        }
      ],
      "stateMutability": "view",
      "type": "function"
    },
    {
      "inputs": [
        {
          "internalType": "bytes32",
          "name": "role",
          "type": "bytes32"
        },
        {
          "internalType": "address",
          "name": "account",
          "type": "address"
        }
      ],
      "name": "grantRole",
      "outputs": [],
      "stateMutability": "nonpayable",
      "type": "function"
    },
    {
      "inputs": [],
      "name": "hasAssets",
      "outputs": [
        {
          "internalType": "bool",
          "name": "",
          "type": "bool"
        }
      ],
      "stateMutability": "view",
      "type": "function"
    },
    {
      "inputs": [
        {
          "internalType": "bytes32",
          "name": "role",
          "type": "bytes32"
        },
        {
          "internalType": "address",
          "name": "account",
          "type": "address"
        }
      ],
      "name": "hasRole",
      "outputs": [
        {
          "internalType": "bool",
          "name": "",
          "type": "bool"
        }
      ],
      "stateMutability": "view",
      "type": "function"
    },
    {
      "inputs": [
        {
          "internalType": "address",
          "name": "_strategy",
          "type": "address"
        },
        {
          "internalType": "string",
          "name": "name",
          "type": "string"
        },
        {
          "internalType": "bool",
          "name": "_isIncentivised",
          "type": "bool"
        },
        {
          "internalType": "address[]",
          "name": "governorList",
          "type": "address[]"
        },
        {
          "internalType": "address",
          "name": "guardian",
          "type": "address"
        },
        {
          "internalType": "address[]",
          "name": "keeperList",
          "type": "address[]"
        }
      ],
      "name": "initialize",
      "outputs": [],
      "stateMutability": "nonpayable",
      "type": "function"
    },
    {
      "inputs": [
        {
          "internalType": "address",
          "name": "_strategy",
          "type": "address"
        },
        {
          "internalType": "string",
          "name": "name",
          "type": "string"
        },
        {
          "internalType": "bool",
          "name": "_isIncentivised",
          "type": "bool"
        },
        {
          "internalType": "address[]",
          "name": "governorList",
          "type": "address[]"
        },
        {
          "internalType": "address",
          "name": "guardian",
          "type": "address"
        },
        {
          "internalType": "address[]",
          "name": "keeperList",
          "type": "address[]"
        }
      ],
      "name": "initializeAave",
      "outputs": [],
      "stateMutability": "nonpayable",
      "type": "function"
    },
    {
      "inputs": [],
      "name": "isIncentivised",
      "outputs": [
        {
          "internalType": "bool",
          "name": "",
          "type": "bool"
        }
      ],
      "stateMutability": "view",
      "type": "function"
    },
    {
      "inputs": [],
      "name": "lenderName",
      "outputs": [
        {
          "internalType": "string",
          "name": "",
          "type": "string"
        }
      ],
      "stateMutability": "view",
      "type": "function"
    },
    {
      "inputs": [],
      "name": "nav",
      "outputs": [
        {
          "internalType": "uint256",
          "name": "",
          "type": "uint256"
        }
      ],
      "stateMutability": "view",
      "type": "function"
    },
    {
      "inputs": [],
      "name": "poolManager",
      "outputs": [
        {
          "internalType": "contract IPoolManager",
          "name": "",
          "type": "address"
        }
      ],
      "stateMutability": "view",
      "type": "function"
    },
    {
      "inputs": [
        {
          "internalType": "bytes32",
          "name": "role",
          "type": "bytes32"
        },
        {
          "internalType": "address",
          "name": "account",
          "type": "address"
        }
      ],
      "name": "renounceRole",
      "outputs": [],
      "stateMutability": "nonpayable",
      "type": "function"
    },
    {
      "inputs": [
        {
          "internalType": "bytes32",
          "name": "role",
          "type": "bytes32"
        },
        {
          "internalType": "address",
          "name": "account",
          "type": "address"
        }
      ],
      "name": "revokeRole",
      "outputs": [],
      "stateMutability": "nonpayable",
      "type": "function"
    },
    {
      "inputs": [
        {
          "internalType": "uint256",
          "name": "minAmountOut",
          "type": "uint256"
        },
        {
          "internalType": "bytes",
          "name": "payload",
          "type": "bytes"
        }
      ],
      "name": "sellRewards",
      "outputs": [],
      "stateMutability": "nonpayable",
      "type": "function"
    },
    {
      "inputs": [],
      "name": "setAavePoolVariables",
      "outputs": [],
      "stateMutability": "nonpayable",
      "type": "function"
    },
    {
      "inputs": [],
      "name": "strategy",
      "outputs": [
        {
          "internalType": "address",
          "name": "",
          "type": "address"
        }
      ],
      "stateMutability": "view",
      "type": "function"
    },
    {
      "inputs": [
        {
          "internalType": "address",
          "name": "_token",
          "type": "address"
        },
        {
          "internalType": "address",
          "name": "to",
          "type": "address"
        }
      ],
      "name": "sweep",
      "outputs": [],
      "stateMutability": "nonpayable",
      "type": "function"
    },
    {
      "inputs": [],
      "name": "toggleCooldownStkAave",
      "outputs": [],
      "stateMutability": "nonpayable",
      "type": "function"
    },
    {
      "inputs": [],
      "name": "toggleIsIncentivised",
      "outputs": [],
      "stateMutability": "nonpayable",
      "type": "function"
    },
    {
      "inputs": [],
      "name": "underlyingBalanceStored",
      "outputs": [
        {
          "internalType": "uint256",
          "name": "balance",
          "type": "uint256"
        }
      ],
      "stateMutability": "view",
      "type": "function"
    },
    {
      "inputs": [],
      "name": "unstakeWindow",
      "outputs": [
        {
          "internalType": "uint256",
          "name": "",
          "type": "uint256"
        }
      ],
      "stateMutability": "view",
      "type": "function"
    },
    {
      "inputs": [],
      "name": "want",
      "outputs": [
        {
          "internalType": "contract IERC20",
          "name": "",
          "type": "address"
        }
      ],
      "stateMutability": "view",
      "type": "function"
    },
    {
      "inputs": [],
      "name": "wantBase",
      "outputs": [
        {
          "internalType": "uint256",
          "name": "",
          "type": "uint256"
        }
      ],
      "stateMutability": "view",
      "type": "function"
    },
    {
      "inputs": [],
      "name": "weightedApr",
      "outputs": [
        {
          "internalType": "uint256",
          "name": "",
          "type": "uint256"
        }
      ],
      "stateMutability": "view",
      "type": "function"
    },
    {
      "inputs": [
        {
          "internalType": "uint256",
          "name": "amount",
          "type": "uint256"
        }
      ],
      "name": "withdraw",
      "outputs": [
        {
          "internalType": "uint256",
          "name": "",
          "type": "uint256"
        }
      ],
      "stateMutability": "nonpayable",
      "type": "function"
    },
    {
      "inputs": [],
      "name": "withdrawAll",
      "outputs": [
        {
          "internalType": "bool",
          "name": "",
          "type": "bool"
        }
      ],
      "stateMutability": "nonpayable",
      "type": "function"
    }
  ],
  "transactionHash": "0x7f01e40bde3824c574e1e095325242f5fd94a0e38f3c7643ae1664e445d5c3c9",
  "args": [],
  "numDeployments": 1,
  "solcInputHash": "ca650e45c91489812b6b51e1d5513906",
  "bytecode": "0x60806040523480156200001157600080fd5b50600054610100900460ff166200002f5760005460ff161562000039565b62000039620000de565b620000a15760405162461bcd60e51b815260206004820152602e60248201527f496e697469616c697a61626c653a20636f6e747261637420697320616c72656160448201526d191e481a5b9a5d1a585b1a5e995960921b606482015260840160405180910390fd5b600054610100900460ff16158015620000c4576000805461ffff19166101011790555b8015620000d7576000805461ff00191690555b506200010b565b6000620000f630620000fc60201b6200134c1760201c565b15905090565b6001600160a01b03163b151590565b613f70806200011b6000396000f3fe608060405234801561001057600080fd5b50600436106102925760003560e01c8063580b7c2e11610160578063b8221bc4116100d8578063c6afba3c1161008c578063d547741f11610071578063d547741f14610513578063dc4c90d314610526578063fd4649181461053957600080fd5b8063c6afba3c14610503578063d0e30db01461050b57600080fd5b8063b8dc491b116100bd578063b8dc491b146104d5578063c14e80f9146104e8578063c1590cd7146104fb57600080fd5b8063b8221bc4146104b9578063b82c4dc1146104c257600080fd5b8063853828b61161012f57806391d148541161011457806391d148541461048b578063a217fddf1461049e578063a8c62e76146104a657600080fd5b8063853828b61461046e5780638b2021761461047657600080fd5b8063580b7c2e1461042e5780635be9b2d3146104555780636314e8841461045d578063787a08a61461046657600080fd5b80632f2ff15d1161020e57806344040261116101c25780634c3f425f116101a75780634c3f425f1461040b5780635312ea8e1461041357806357ded9c91461042657600080fd5b806344040261146103eb5780634798329c146103f857600080fd5b8063364bc15a116101f3578063364bc15a146103a957806336568abe146103d0578063372500ab146103e357600080fd5b80632f2ff15d1461037457806332b790211461038757600080fd5b80631f1fcd5111610265578063248a9ca31161024a578063248a9ca31461031657806324ea54f41461033a5780632e1a7d4d1461036157600080fd5b80631f1fcd51146102e357806320f98f3f1461030e57600080fd5b806305b41934146102975780630b6d1d17146102ac578063116ac4a3146102c8578063149a4ae4146102d0575b600080fd5b6102aa6102a536600461348c565b610541565b005b6102b560375481565b6040519081526020015b60405180910390f35b6102b561064a565b6102b56102de3660046134e7565b61066f565b6036546102f6906001600160a01b031681565b6040516001600160a01b0390911681526020016102bf565b6102aa61098b565b6102b56103243660046134e7565b6000908152600160208190526040909120015490565b6102b57f55435dd261a4b9b3364963f7738a7a662ad9c84396d64be3365284bb7f0a504181565b6102b561036f3660046134e7565b6109d4565b6102aa610382366004613525565b610a13565b60675461039990610100900460ff1681565b60405190151581526020016102bf565b6102b57ffc8737ab85eb45125971625a9ebdb75cc78e01d5c1fa80c4c6e5203f47bc4fab81565b6102aa6103de366004613525565b610a3f565b6102aa610aaa565b6067546103999060ff1681565b6102aa6104063660046135ec565b610add565b6102aa610aeb565b6102aa6104213660046134e7565b610af5565b6102b5610c51565b6102b57f928286c473ded01ff8bf61a1986f14a0579066072fa8261442d9fea514d93a4c81565b610399610c60565b6102b560665481565b6102aa610c7f565b610399610d14565b61047e610d65565b6040516102bf91906136ea565b610399610499366004613525565b610df3565b6102b5600081565b6035546102f6906001600160a01b031681565b6102b560655481565b6102aa6104d0366004613769565b610e20565b6102aa6104e3366004613803565b610f27565b6102aa6104f63660046135ec565b611067565b6102b5611206565b6102b5611210565b6102aa611225565b6102aa610521366004613525565b6112e5565b6034546102f6906001600160a01b031681565b6102aa61130c565b7ffc8737ab85eb45125971625a9ebdb75cc78e01d5c1fa80c4c6e5203f47bc4fab61056c813361135b565b600080731111111254fb6c44bac0bed2854e76f90643097d6001600160a01b03168460405161059b9190613831565b6000604051808303816000865af19150503d80600081146105d8576040519150601f19603f3d011682016040523d82523d6000602084013e6105dd565b606091505b5091509150816105f0576105f0816113bf565b600081806020019051810190610606919061384d565b905085811015610642576040517f22313ae900000000000000000000000000000000000000000000000000000000815260040160405180910390fd5b505050505050565b600080610655611400565b905061065f6114f8565b610669908261387c565b91505090565b6036546040517f35ea6a750000000000000000000000000000000000000000000000000000000081526001600160a01b0390911660048201526000908190737d2768de32b0b80b7a3454c06bdac94a69ddc7a9906335ea6a759060240161018060405180830381865afa1580156106ea573d6000803e3d6000fd5b505050506040513d601f19601f8201168201806040525081019061070e919061392e565b6036546040517f35ea6a750000000000000000000000000000000000000000000000000000000081526001600160a01b03909116600482015290915060009081908190819073057835ad21a177dbdd3090bb1cae03eacf78fc6d906335ea6a759060240161014060405180830381865afa158015610790573d6000803e3d6000fd5b505050506040513d601f19601f820116820180604052508101906107b49190613a1b565b5050509650505050935093509350600087856107d09190613a96565b6036546040517f3e1501410000000000000000000000000000000000000000000000000000000081526001600160a01b03909116600482015290915060009073057835ad21a177dbdd3090bb1cae03eacf78fc6d90633e1501419060240161014060405180830381865afa15801561084c573d6000803e3d6000fd5b505050506040513d601f19601f820116820180604052508101906108709190613aae565b505050506101408d01516036546040517f9584df280000000000000000000000000000000000000000000000000000000081526001600160a01b039182166004820152602481018b9052604481018e9052606481018d9052608481018c905260a4810185905293985060009750169450639584df2893505060c4019050606060405180830381865afa15801561090a573d6000803e3d6000fd5b505050506040513d601f19601f8201168201806040525081019061092e9190613b55565b5050905060006109538688866109449190613a96565b61094e9190613a96565b61156e565b905060008082610967633b9aca0086613b83565b6109719190613a96565b61097b9190613a96565b9c9b505050505050505050505050565b7f55435dd261a4b9b3364963f7738a7a662ad9c84396d64be3365284bb7f0a50416109b6813361135b565b506067805461ff001981166101009182900460ff1615909102179055565b60007f928286c473ded01ff8bf61a1986f14a0579066072fa8261442d9fea514d93a4c610a01813361135b565b610a0a83611720565b91505b50919050565b60008281526001602081905260409091200154610a30813361135b565b610a3a8383611a8c565b505050565b6001600160a01b0381163314610a9c5760405162461bcd60e51b815260206004820152600260248201527f373100000000000000000000000000000000000000000000000000000000000060448201526064015b60405180910390fd5b610aa68282611af7565b5050565b7ffc8737ab85eb45125971625a9ebdb75cc78e01d5c1fa80c4c6e5203f47bc4fab610ad5813361135b565b610aa6611b5e565b610642868686868686611067565b610af3611e2b565b565b7f55435dd261a4b9b3364963f7738a7a662ad9c84396d64be3365284bb7f0a5041610b20813361135b565b6036546040517f69328dec0000000000000000000000000000000000000000000000000000000081526001600160a01b03909116600482015260248101839052306044820152737d2768de32b0b80b7a3454c06bdac94a69ddc7a9906369328dec906064016020604051808303816000875af1158015610ba4573d6000803e3d6000fd5b505050506040513d601f19601f82011682018060405250810190610bc8919061384d565b506034546036546040516370a0823160e01b8152306004820152610aa6926001600160a01b039081169216906370a0823190602401602060405180830381865afa158015610c1a573d6000803e3d6000fd5b505050506040513d601f19601f82011682018060405250810190610c3e919061384d565b6036546001600160a01b03169190611fea565b6000610c5b611400565b905090565b6000603754600a610c71919061387c565b610c796114f8565b11905090565b7ffc8737ab85eb45125971625a9ebdb75cc78e01d5c1fa80c4c6e5203f47bc4fab610caa813361135b565b734da27a545c0c5b758a6ba100e3a049001de870f56001600160a01b031663787a08a66040518163ffffffff1660e01b8152600401600060405180830381600087803b158015610cf957600080fd5b505af1158015610d0d573d6000803e3d6000fd5b5050505050565b60007f928286c473ded01ff8bf61a1986f14a0579066072fa8261442d9fea514d93a4c610d41813361135b565b6000610d4b6114f8565b90506000610d5882611720565b91909110159250505b5090565b60338054610d7290613ba5565b80601f0160208091040260200160405190810160405280929190818152602001828054610d9e90613ba5565b8015610deb5780601f10610dc057610100808354040283529160200191610deb565b820191906000526020600020905b815481529060010190602001808311610dce57829003601f168201915b505050505081565b60008281526001602090815260408083206001600160a01b038516845290915290205460ff165b92915050565b7f55435dd261a4b9b3364963f7738a7a662ad9c84396d64be3365284bb7f0a5041610e4b813361135b565b8584141580610e5a5750858214155b15610e91576040517f46282e8d00000000000000000000000000000000000000000000000000000000815260040160405180910390fd5b60005b86811015610f1d57610f0b888883818110610eb157610eb1613bda565b9050602002016020810190610ec69190613bf0565b878784818110610ed857610ed8613bda565b9050602002016020810190610eed9190613bf0565b868685818110610eff57610eff613bda565b90506020020135612093565b80610f1581613c0d565b915050610e94565b5050505050505050565b7f55435dd261a4b9b3364963f7738a7a662ad9c84396d64be3365284bb7f0a5041610f52813361135b565b6000610f5c61215c565b905060005b8151811015610fe157818181518110610f7c57610f7c613bda565b60200260200101516001600160a01b0316856001600160a01b03161415610fcf576040517f093e1cdb00000000000000000000000000000000000000000000000000000000815260040160405180910390fd5b80610fd981613c0d565b915050610f61565b506040516370a0823160e01b81523060048201526110619084906001600160a01b038716906370a0823190602401602060405180830381865afa15801561102c573d6000803e3d6000fd5b505050506040513d601f19601f82011682018060405250810190611050919061384d565b6001600160a01b0387169190611fea565b50505050565b61107486868585856121f7565b61107c611e2b565b83801561111c5750606754604080517f75d2641300000000000000000000000000000000000000000000000000000000815290516000926201000090046001600160a01b0316916375d264139160048083019260209291908290030181865afa1580156110ed573d6000803e3d6000fd5b505050506040513d601f19601f820116820180604052508101906111119190613c28565b6001600160a01b0316145b15611153576040517f5e7bb0f900000000000000000000000000000000000000000000000000000000815260040160405180910390fd5b6067805460ff19861515610100021661ffff1990911617600117905560365461119c906001600160a01b0316737d2768de32b0b80b7a3454c06bdac94a69ddc7a9600019612754565b6111d1734da27a545c0c5b758a6ba100e3a049001de870f5731111111254fb6c44bac0bed2854e76f90643097d600019612754565b610642737fc66500c84a76ad7e9c93437bfc5ac33e2ddae9731111111254fb6c44bac0bed2854e76f90643097d600019612754565b6000610c5b6114f8565b60008061121b612889565b610c5b9190613a96565b7f928286c473ded01ff8bf61a1986f14a0579066072fa8261442d9fea514d93a4c611250813361135b565b6036546040516370a0823160e01b81523060048201526000916001600160a01b0316906370a0823190602401602060405180830381865afa158015611299573d6000803e3d6000fd5b505050506040513d601f19601f820116820180604052508101906112bd919061384d565b9050806112c8575050565b6112d1816128fd565b610a3a6112dc612889565b50600090565b50565b60008281526001602081905260409091200154611302813361135b565b610a3a8383611af7565b7f55435dd261a4b9b3364963f7738a7a662ad9c84396d64be3365284bb7f0a5041611337813361135b565b506067805460ff19811660ff90911615179055565b6001600160a01b03163b151590565b6113658282610df3565b610aa65761137d816001600160a01b03166014612a47565b611388836020612a47565b604051602001611399929190613c45565b60408051601f198184030181529082905262461bcd60e51b8252610a93916004016136ea565b8051156113ce57805181602001fd5b6040517fc76d51a100000000000000000000000000000000000000000000000000000000815260040160405180910390fd5b6036546040517f35ea6a750000000000000000000000000000000000000000000000000000000081526001600160a01b039091166004820152600090819081908190819073057835ad21a177dbdd3090bb1cae03eacf78fc6d906335ea6a759060240161014060405180830381865afa158015611481573d6000803e3d6000fd5b505050506040513d601f19601f820116820180604052508101906114a59190613a1b565b505050505050935093509350935060006114c58385876109449190613a96565b9050600080826114d9633b9aca0086613b83565b6114e39190613a96565b6114ed9190613a96565b965050505050505090565b6000611502611210565b6036546040516370a0823160e01b81523060048201526001600160a01b03909116906370a0823190602401602060405180830381865afa15801561154a573d6000803e3d6000fd5b505050506040513d601f19601f8201168201806040525081019061121b919061384d565b606754600090610100900460ff1680156115fc575073d784927ff2f95ba542bfc824c8a8a98f3495f6b56001600160a01b031663cc69afec6040518163ffffffff1660e01b8152600401602060405180830381865afa1580156115d5573d6000803e3d6000fd5b505050506040513d601f19601f820116820180604052508101906115f9919061384d565b42105b80156116085750600082115b15611718576067546040517f1652e7b7000000000000000000000000000000000000000000000000000000008152620100009091046001600160a01b0316600482015260009073d784927ff2f95ba542bfc824c8a8a98f3495f6b590631652e7b790602401606060405180830381865afa15801561168a573d6000803e3d6000fd5b505050506040513d601f19601f820116820180604052508101906116ae9190613b55565b5091505080156117165760006116c382612c77565b90506000846116d66301e133808461387c565b6116e890670de0b6b3a764000061387c565b6116f29190613b83565b90506127106117038261251c61387c565b61170d9190613b83565b95945050505050565b505b506000919050565b600080600061172d612889565b6036546040516370a0823160e01b81523060048201529192506000916001600160a01b03909116906370a0823190602401602060405180830381865afa15801561177b573d6000803e3d6000fd5b505050506040513d601f19601f8201168201806040525081019061179f919061384d565b90506000816117ae8486613a96565b6117b89190613a96565b9050808611156117c6578095505b8582106117f4576035546036546117ea916001600160a01b03918216911688611fea565b5093949350505050565b6036546067546040516370a0823160e01b8152620100009091046001600160a01b03908116600483015260009216906370a0823190602401602060405180830381865afa158015611849573d6000803e3d6000fd5b505050506040513d601f19601f8201168201806040525081019061186d919061384d565b905060018111156119f55760006118848489613cc6565b9050818111611942576000816036546040517f69328dec0000000000000000000000000000000000000000000000000000000081526001600160a01b03909116600482015260248101829052306044820152909150737d2768de32b0b80b7a3454c06bdac94a69ddc7a9906369328dec906064016020604051808303816000875af1158015611917573d6000803e3d6000fd5b505050506040513d601f19601f8201168201806040525081019061193b919061384d565b50506119f3565b6000826036546040517f69328dec0000000000000000000000000000000000000000000000000000000081526001600160a01b03909116600482015260248101829052306044820152909150737d2768de32b0b80b7a3454c06bdac94a69ddc7a9906369328dec906064016020604051808303816000875af11580156119cc573d6000803e3d6000fd5b505050506040513d601f19601f820116820180604052508101906119f0919061384d565b50505b505b6036546040516370a0823160e01b81523060048201526001600160a01b03909116906370a0823190602401602060405180830381865afa158015611a3d573d6000803e3d6000fd5b505050506040513d601f19601f82011682018060405250810190611a61919061384d565b603554603654919450611a81916001600160a01b03908116911685611fea565b509095945050505050565b611a968282610df3565b610aa65760008281526001602081815260408084206001600160a01b0386168086529252808420805460ff19169093179092559051339285917f2f8788117e7eff1d82e926ec794901d17c78024a50270940304540a733656f0d9190a45050565b611b018282610df3565b15610aa65760008281526001602090815260408083206001600160a01b0385168085529252808320805460ff1916905551339285917ff6391f5c32d9c69d2a47ea670b442974b53935d1edc7fd64eb21e047a839171b9190a45050565b6000611b68612d25565b9050600081118015611b815750611b7d612d5f565b6001145b15611c90576040517f9a99b4f00000000000000000000000000000000000000000000000000000000081523060048201526000196024820152734da27a545c0c5b758a6ba100e3a049001de870f590639a99b4f090604401600060405180830381600087803b158015611bf357600080fd5b505af1158015611c07573d6000803e3d6000fd5b50506040517f1e9a695000000000000000000000000000000000000000000000000000000000815230600482015260248101849052734da27a545c0c5b758a6ba100e3a049001de870f59250631e9a69509150604401600060405180830381600087803b158015611c7757600080fd5b505af1158015611c8b573d6000803e3d6000fd5b505050505b60408051600180825281830190925260009160208083019080368337019050509050606760029054906101000a90046001600160a01b031681600081518110611cdb57611cdb613bda565b6001600160a01b03909216602092830291909101909101526040517f3111e7b300000000000000000000000000000000000000000000000000000000815273d784927ff2f95ba542bfc824c8a8a98f3495f6b590633111e7b390611d49908490600019903090600401613cdd565b6020604051808303816000875af1158015611d68573d6000803e3d6000fd5b505050506040513d601f19601f82011682018060405250810190611d8c919061384d565b50611d95612d25565b60675490925060ff168015611daa5750600082115b8015611dbb5750611db9612d5f565b155b15610d6157734da27a545c0c5b758a6ba100e3a049001de870f56001600160a01b031663787a08a66040518163ffffffff1660e01b8152600401600060405180830381600087803b158015611e0f57600080fd5b505af1158015611e23573d6000803e3d6000fd5b505050505090565b6036546040517fd2493b6c0000000000000000000000000000000000000000000000000000000081526001600160a01b03909116600482015260009073057835ad21a177dbdd3090bb1cae03eacf78fc6d9063d2493b6c90602401606060405180830381865afa158015611ea3573d6000803e3d6000fd5b505050506040513d601f19601f82011682018060405250810190611ec79190613d41565b5050905080606760026101000a8154816001600160a01b0302191690836001600160a01b03160217905550734da27a545c0c5b758a6ba100e3a049001de870f56001600160a01b03166372b49d636040518163ffffffff1660e01b8152600401602060405180830381865afa158015611f44573d6000803e3d6000fd5b505050506040513d601f19601f82011682018060405250810190611f68919061384d565b606581905550734da27a545c0c5b758a6ba100e3a049001de870f56001600160a01b031663359c4a966040518163ffffffff1660e01b8152600401602060405180830381865afa158015611fc0573d6000803e3d6000fd5b505050506040513d601f19601f82011682018060405250810190611fe4919061384d565b60665550565b6040516001600160a01b038316602482015260448101829052610a3a9084907fa9059cbb00000000000000000000000000000000000000000000000000000000906064015b60408051601f198184030181529190526020810180517bffffffffffffffffffffffffffffffffffffffffffffffffffffffff167fffffffff0000000000000000000000000000000000000000000000000000000090931692909217909152612e51565b604051636eb1769f60e11b81523060048201526001600160a01b0383811660248301526000919085169063dd62ed3e90604401602060405180830381865afa1580156120e3573d6000803e3d6000fd5b505050506040513d601f19601f82011682018060405250810190612107919061384d565b905081811015612135576121308361211f8385613cc6565b6001600160a01b0387169190612f36565b611061565b81811115611061576110618361214b8484613cc6565b6001600160a01b0387169190613001565b60408051600280825260608083018452926000929190602083019080368337505060365482519293506001600160a01b0316918391506000906121a1576121a1613bda565b6001600160a01b03928316602091820292909201015260675482516201000090910490911690829060019081106121da576121da613bda565b6001600160a01b0390921660209283029190910190910152919050565b600054610100900460ff166122125760005460ff1615612216565b303b155b6122885760405162461bcd60e51b815260206004820152602e60248201527f496e697469616c697a61626c653a20636f6e747261637420697320616c72656160448201527f647920696e697469616c697a65640000000000000000000000000000000000006064820152608401610a93565b600054610100900460ff161580156122aa576000805461ffff19166101011790555b603580547fffffffffffffffffffffffff0000000000000000000000000000000000000000166001600160a01b038816908117909155604080517fdc4c90d3000000000000000000000000000000000000000000000000000000008152905163dc4c90d3916004808201926020929091908290030181865afa158015612334573d6000803e3d6000fd5b505050506040513d601f19601f820116820180604052508101906123589190613c28565b603480547fffffffffffffffffffffffff0000000000000000000000000000000000000000166001600160a01b03929092169182179055604080517ffc0c546a000000000000000000000000000000000000000000000000000000008152905163fc0c546a916004808201926020929091908290030181865afa1580156123e3573d6000803e3d6000fd5b505050506040513d601f19601f820116820180604052508101906124079190613c28565b603680547fffffffffffffffffffffffff0000000000000000000000000000000000000000166001600160a01b03929092169190911790558451612452906033906020880190613333565b5060345461248a907f55435dd261a4b9b3364963f7738a7a662ad9c84396d64be3365284bb7f0a5041906001600160a01b031661313a565b60005b84518110156124eb576124d97f55435dd261a4b9b3364963f7738a7a662ad9c84396d64be3365284bb7f0a50418683815181106124cc576124cc613bda565b602002602001015161313a565b806124e381613c0d565b91505061248d565b506125167ffc8737ab85eb45125971625a9ebdb75cc78e01d5c1fa80c4c6e5203f47bc4fab8461313a565b60005b825181101561256a576125587ffc8737ab85eb45125971625a9ebdb75cc78e01d5c1fa80c4c6e5203f47bc4fab8483815181106124cc576124cc613bda565b8061256281613c0d565b915050612519565b506125b57ffc8737ab85eb45125971625a9ebdb75cc78e01d5c1fa80c4c6e5203f47bc4fab7f55435dd261a4b9b3364963f7738a7a662ad9c84396d64be3365284bb7f0a5041613144565b6125df7f55435dd261a4b9b3364963f7738a7a662ad9c84396d64be3365284bb7f0a50418461313a565b6126097f928286c473ded01ff8bf61a1986f14a0579066072fa8261442d9fea514d93a4c8761313a565b6126537f55435dd261a4b9b3364963f7738a7a662ad9c84396d64be3365284bb7f0a50417f928286c473ded01ff8bf61a1986f14a0579066072fa8261442d9fea514d93a4c613144565b61269d7f928286c473ded01ff8bf61a1986f14a0579066072fa8261442d9fea514d93a4c7f55435dd261a4b9b3364963f7738a7a662ad9c84396d64be3365284bb7f0a5041613144565b603660009054906101000a90046001600160a01b03166001600160a01b031663313ce5676040518163ffffffff1660e01b8152600401602060405180830381865afa1580156126f0573d6000803e3d6000fd5b505050506040513d601f19601f820116820180604052508101906127149190613d8e565b61271f90600a613e8d565b60375560365461273b906001600160a01b031687600019612754565b8015610642576000805461ff0019169055505050505050565b8015806127ce5750604051636eb1769f60e11b81523060048201526001600160a01b03838116602483015284169063dd62ed3e90604401602060405180830381865afa1580156127a8573d6000803e3d6000fd5b505050506040513d601f19601f820116820180604052508101906127cc919061384d565b155b6128405760405162461bcd60e51b815260206004820152603660248201527f5361666545524332303a20617070726f76652066726f6d206e6f6e2d7a65726f60448201527f20746f206e6f6e2d7a65726f20616c6c6f77616e6365000000000000000000006064820152608401610a93565b6040516001600160a01b038316602482015260448101829052610a3a9084907f095ea7b3000000000000000000000000000000000000000000000000000000009060640161202f565b6067546040516370a0823160e01b81523060048201526000916201000090046001600160a01b0316906370a08231906024015b602060405180830381865afa1580156128d9573d6000803e3d6000fd5b505050506040513d601f19601f82011682018060405250810190610c5b919061384d565b603654604051636eb1769f60e11b8152306004820152737d2768de32b0b80b7a3454c06bdac94a69ddc7a9602482018190529183916001600160a01b039091169063dd62ed3e90604401602060405180830381865afa158015612964573d6000803e3d6000fd5b505050506040513d601f19601f82011682018060405250810190612988919061384d565b10156129bf576036546129a6906001600160a01b0316826000612754565b6036546129bf906001600160a01b031682600019612754565b6036546040517fe8eda9df0000000000000000000000000000000000000000000000000000000081526001600160a01b03918216600482015260248101849052306044820152600060648201529082169063e8eda9df90608401600060405180830381600087803b158015612a3357600080fd5b505af1158015610642573d6000803e3d6000fd5b60606000612a5683600261387c565b612a61906002613a96565b67ffffffffffffffff811115612a7957612a796133c3565b6040519080825280601f01601f191660200182016040528015612aa3576020820181803683370190505b5090507f300000000000000000000000000000000000000000000000000000000000000081600081518110612ada57612ada613bda565b60200101907effffffffffffffffffffffffffffffffffffffffffffffffffffffffffffff1916908160001a9053507f780000000000000000000000000000000000000000000000000000000000000081600181518110612b3d57612b3d613bda565b60200101907effffffffffffffffffffffffffffffffffffffffffffffffffffffffffffff1916908160001a9053506000612b7984600261387c565b612b84906001613a96565b90505b6001811115612c21577f303132333435363738396162636465660000000000000000000000000000000085600f1660108110612bc557612bc5613bda565b1a60f81b828281518110612bdb57612bdb613bda565b60200101907effffffffffffffffffffffffffffffffffffffffffffffffffffffffffffff1916908160001a90535060049490941c93612c1a81613e9c565b9050612b87565b508315612c705760405162461bcd60e51b815260206004820181905260248201527f537472696e67733a20686578206c656e67746820696e73756666696369656e746044820152606401610a93565b9392505050565b60008073547a514d5e3769680ce22b2361c10ea13619e8a96001600160a01b031663feaf968c6040518163ffffffff1660e01b815260040160a060405180830381865afa158015612ccc573d6000803e3d6000fd5b505050506040513d601f19601f82011682018060405250810190612cf09190613ecd565b5050509150506a52b7d2dcc80cd2e40000006037548483612d11919061387c565b612d1b919061387c565b610a0a9190613b83565b6040516370a0823160e01b8152306004820152600090734da27a545c0c5b758a6ba100e3a049001de870f5906370a08231906024016128bc565b6040517f091030c30000000000000000000000000000000000000000000000000000000081523060048201526000908190734da27a545c0c5b758a6ba100e3a049001de870f59063091030c390602401602060405180830381865afa158015612dcc573d6000803e3d6000fd5b505050506040513d601f19601f82011682018060405250810190612df0919061384d565b9050600060655482612e029190613a96565b905081612e125760009250505090565b8042118015612e2d5750606654612e299082613a96565b4211155b15612e3b5760019250505090565b80421015612e4c5760029250505090565b505090565b6000612ea6826040518060400160405280602081526020017f5361666545524332303a206c6f772d6c6576656c2063616c6c206661696c6564815250856001600160a01b031661319b9092919063ffffffff16565b805190915015610a3a5780806020019051810190612ec49190613f1d565b610a3a5760405162461bcd60e51b815260206004820152602a60248201527f5361666545524332303a204552433230206f7065726174696f6e20646964206e60448201527f6f742073756363656564000000000000000000000000000000000000000000006064820152608401610a93565b604051636eb1769f60e11b81523060048201526001600160a01b038381166024830152600091839186169063dd62ed3e90604401602060405180830381865afa158015612f87573d6000803e3d6000fd5b505050506040513d601f19601f82011682018060405250810190612fab919061384d565b612fb59190613a96565b6040516001600160a01b0385166024820152604481018290529091506110619085907f095ea7b3000000000000000000000000000000000000000000000000000000009060640161202f565b604051636eb1769f60e11b81523060048201526001600160a01b0383811660248301526000919085169063dd62ed3e90604401602060405180830381865afa158015613051573d6000803e3d6000fd5b505050506040513d601f19601f82011682018060405250810190613075919061384d565b9050818110156130ed5760405162461bcd60e51b815260206004820152602960248201527f5361666545524332303a2064656372656173656420616c6c6f77616e6365206260448201527f656c6f77207a65726f00000000000000000000000000000000000000000000006064820152608401610a93565b6040516001600160a01b03841660248201528282036044820181905290610d0d9086907f095ea7b3000000000000000000000000000000000000000000000000000000009060640161202f565b610aa68282611a8c565b60008281526001602081905260409091200154819060405184907fbd79b86ffe0ab8e8776151514217cd7cacd52c909f66475c3af44e129f0b00ff90600090a4600091825260016020819052604090922090910155565b60606131aa84846000856131b2565b949350505050565b60608247101561322a5760405162461bcd60e51b815260206004820152602660248201527f416464726573733a20696e73756666696369656e742062616c616e636520666f60448201527f722063616c6c00000000000000000000000000000000000000000000000000006064820152608401610a93565b6001600160a01b0385163b6132815760405162461bcd60e51b815260206004820152601d60248201527f416464726573733a2063616c6c20746f206e6f6e2d636f6e74726163740000006044820152606401610a93565b600080866001600160a01b0316858760405161329d9190613831565b60006040518083038185875af1925050503d80600081146132da576040519150601f19603f3d011682016040523d82523d6000602084013e6132df565b606091505b50915091506132ef8282866132fa565b979650505050505050565b60608315613309575081612c70565b8251156133195782518084602001fd5b8160405162461bcd60e51b8152600401610a9391906136ea565b82805461333f90613ba5565b90600052602060002090601f01602090048101928261336157600085556133a7565b82601f1061337a57805160ff19168380011785556133a7565b828001600101855582156133a7579182015b828111156133a757825182559160200191906001019061338c565b50610d619291505b80821115610d6157600081556001016133af565b634e487b7160e01b600052604160045260246000fd5b604051610180810167ffffffffffffffff811182821017156133fd576133fd6133c3565b60405290565b604051601f8201601f1916810167ffffffffffffffff8111828210171561342c5761342c6133c3565b604052919050565b600067ffffffffffffffff83111561344e5761344e6133c3565b6134616020601f19601f86011601613403565b905082815283838301111561347557600080fd5b828260208301376000602084830101529392505050565b6000806040838503121561349f57600080fd5b82359150602083013567ffffffffffffffff8111156134bd57600080fd5b8301601f810185136134ce57600080fd5b6134dd85823560208401613434565b9150509250929050565b6000602082840312156134f957600080fd5b5035919050565b6001600160a01b03811681146112e257600080fd5b803561352081613500565b919050565b6000806040838503121561353857600080fd5b82359150602083013561354a81613500565b809150509250929050565b80151581146112e257600080fd5b803561352081613555565b600082601f83011261357f57600080fd5b8135602067ffffffffffffffff82111561359b5761359b6133c3565b8160051b6135aa828201613403565b92835284810182019282810190878511156135c457600080fd5b83870192505b848310156132ef5782356135dd81613500565b825291830191908301906135ca565b60008060008060008060c0878903121561360557600080fd5b863561361081613500565b9550602087013567ffffffffffffffff8082111561362d57600080fd5b818901915089601f83011261364157600080fd5b6136508a833560208501613434565b965061365e60408a01613563565b9550606089013591508082111561367457600080fd5b6136808a838b0161356e565b945061368e60808a01613515565b935060a08901359150808211156136a457600080fd5b506136b189828a0161356e565b9150509295509295509295565b60005b838110156136d95781810151838201526020016136c1565b838111156110615750506000910152565b60208152600082518060208401526137098160408501602087016136be565b601f01601f19169190910160400192915050565b60008083601f84011261372f57600080fd5b50813567ffffffffffffffff81111561374757600080fd5b6020830191508360208260051b850101111561376257600080fd5b9250929050565b6000806000806000806060878903121561378257600080fd5b863567ffffffffffffffff8082111561379a57600080fd5b6137a68a838b0161371d565b909850965060208901359150808211156137bf57600080fd5b6137cb8a838b0161371d565b909650945060408901359150808211156137e457600080fd5b506137f189828a0161371d565b979a9699509497509295939492505050565b6000806040838503121561381657600080fd5b823561382181613500565b9150602083013561354a81613500565b600082516138438184602087016136be565b9190910192915050565b60006020828403121561385f57600080fd5b5051919050565b634e487b7160e01b600052601160045260246000fd5b600081600019048311821515161561389657613896613866565b500290565b6000602082840312156138ad57600080fd5b6040516020810181811067ffffffffffffffff821117156138d0576138d06133c3565b6040529151825250919050565b80516fffffffffffffffffffffffffffffffff8116811461352057600080fd5b805164ffffffffff8116811461352057600080fd5b805161352081613500565b805160ff8116811461352057600080fd5b6000610180828403121561394157600080fd5b6139496133d9565b613953848461389b565b8152613961602084016138dd565b6020820152613972604084016138dd565b6040820152613983606084016138dd565b6060820152613994608084016138dd565b60808201526139a560a084016138dd565b60a08201526139b660c084016138fd565b60c08201526139c760e08401613912565b60e08201526101006139da818501613912565b908201526101206139ec848201613912565b908201526101406139fe848201613912565b90820152610160613a1084820161391d565b908201529392505050565b6000806000806000806000806000806101408b8d031215613a3b57600080fd5b8a51995060208b0151985060408b0151975060608b0151965060808b0151955060a08b0151945060c08b0151935060e08b015192506101008b01519150613a856101208c016138fd565b90509295989b9194979a5092959850565b60008219821115613aa957613aa9613866565b500190565b6000806000806000806000806000806101408b8d031215613ace57600080fd5b8a51995060208b0151985060408b0151975060608b0151965060808b0151955060a08b0151613afc81613555565b60c08c0151909550613b0d81613555565b60e08c0151909450613b1e81613555565b6101008c0151909350613b3081613555565b6101208c0151909250613b4281613555565b809150509295989b9194979a5092959850565b600080600060608486031215613b6a57600080fd5b8351925060208401519150604084015190509250925092565b600082613ba057634e487b7160e01b600052601260045260246000fd5b500490565b600181811c90821680613bb957607f821691505b60208210811415610a0d57634e487b7160e01b600052602260045260246000fd5b634e487b7160e01b600052603260045260246000fd5b600060208284031215613c0257600080fd5b8135612c7081613500565b6000600019821415613c2157613c21613866565b5060010190565b600060208284031215613c3a57600080fd5b8151612c7081613500565b7f416363657373436f6e74726f6c3a206163636f756e7420000000000000000000815260008351613c7d8160178501602088016136be565b7f206973206d697373696e6720726f6c65200000000000000000000000000000006017918401918201528351613cba8160288401602088016136be565b01602801949350505050565b600082821015613cd857613cd8613866565b500390565b606080825284519082018190526000906020906080840190828801845b82811015613d1f5781516001600160a01b031684529284019290840190600101613cfa565b50505090830194909452506001600160a01b0391909116604090910152919050565b600080600060608486031215613d5657600080fd5b8351613d6181613500565b6020850151909350613d7281613500565b6040850151909250613d8381613500565b809150509250925092565b600060208284031215613da057600080fd5b612c708261391d565b600181815b80851115613de4578160001904821115613dca57613dca613866565b80851615613dd757918102915b93841c9390800290613dae565b509250929050565b600082613dfb57506001610e1a565b81613e0857506000610e1a565b8160018114613e1e5760028114613e2857613e44565b6001915050610e1a565b60ff841115613e3957613e39613866565b50506001821b610e1a565b5060208310610133831016604e8410600b8410161715613e67575081810a610e1a565b613e718383613da9565b8060001904821115613e8557613e85613866565b029392505050565b6000612c7060ff841683613dec565b600081613eab57613eab613866565b506000190190565b805169ffffffffffffffffffff8116811461352057600080fd5b600080600080600060a08688031215613ee557600080fd5b613eee86613eb3565b9450602086015193506040860151925060608601519150613f1160808701613eb3565b90509295509295909350565b600060208284031215613f2f57600080fd5b8151612c708161355556fea2646970667358221220d41c7cec04ef17634c6f0b8da5cb0ba6c8b53c712d54f05666171839c6eca25564736f6c634300080c0033",
  "devdoc": {
    "author": "Angle Core Team",
    "details": "In this implementation, we just have to override the base functions with constant amounts as nothing is staked in an external contract",
    "kind": "dev",
    "methods": {
      "aprAfterDeposit(uint256)": {
        "params": {
          "extraAmount": "The amount to add to the lending platform"
        }
      },
      "changeAllowance(address[],address[],uint256[])": {
        "params": {
          "amounts": "Approval amounts for each address",
          "spenders": "Addresses to approve",
          "tokens": "Addresses of the tokens for which approvals should be made"
        }
      },
      "claimRewards()": {
        "details": "stkAAVE require a \"cooldown\" period of 10 days before being claimed"
      },
      "emergencyWithdraw(uint256)": {
        "details": "Does not check if any error occurs or if the amount withdrawn is correct",
        "params": {
          "amount": "Amount to withdraw"
        }
      },
      "getRoleAdmin(bytes32)": {
        "details": "Returns the admin role that controls `role`. See {grantRole} and {revokeRole}. To change a role's admin, use {_setRoleAdmin}."
      },
      "grantRole(bytes32,address)": {
        "details": "Grants `role` to `account`. If `account` had not been already granted `role`, emits a {RoleGranted} event. Requirements: - the caller must have ``role``'s admin role."
      },
      "hasAssets()": {
        "details": "We're considering that the strategy has no assets if it has less than 10 of the underlying asset in total to avoid the case where there is dust remaining on the lending market we cannot withdraw everything"
      },
      "hasRole(bytes32,address)": {
        "details": "Returns `true` if `account` has been granted `role`."
      },
      "initializeAave(address,string,bool,address[],address,address[])": {
        "params": {
          "_isIncentivised": "Whether the corresponding token is incentivized on Aave or not",
          "_strategy": "Reference to the strategy using this lender",
          "governorList": "List of addresses with governor privilege",
          "guardian": "Address of the guardian",
          "keeperList": "List of addresses with keeper privilege",
          "name": "Name of the lender"
        }
      },
      "renounceRole(bytes32,address)": {
        "details": "Revokes `role` from the calling account. Roles are often managed via {grantRole} and {revokeRole}: this function's purpose is to provide a mechanism for accounts to lose their privileges if they are compromised (such as when a trusted device is misplaced). If the calling account had been granted `role`, emits a {RoleRevoked} event. Requirements: - the caller must be `account`."
      },
      "revokeRole(bytes32,address)": {
        "details": "Revokes `role` from `account`. If `account` had been granted `role`, emits a {RoleRevoked} event. Requirements: - the caller must have ``role``'s admin role."
      },
      "sellRewards(uint256,bytes)": {
        "details": "In the case of a contract lending to Aave, tokens swapped should typically be: _stkAave -> `want` or Aave -> `want`",
        "params": {
          "minAmountOut": "Minimum amount of `want` to receive for the swap to happen",
          "payload": "Bytes needed for 1Inch API"
        }
      },
      "setAavePoolVariables()": {
        "details": "No access control is needed here because values are fetched from Aave directlyWe expect the values concerned not to be often modified"
      },
      "sweep(address,address)": {
        "details": "Implement `_protectedTokens()` to specify any additional tokens that should be protected from sweeping in addition to `want`.",
        "params": {
          "_token": "The token to transfer out of this poolManager.",
          "to": "Address to send the tokens to."
        }
      },
      "withdraw(uint256)": {
        "params": {
          "amount": "Amount to withdraw"
        },
        "returns": {
          "_0": "Amount actually withdrawn"
        }
      }
    },
    "title": "GenericAaveNoStaker",
    "version": 1
  },
  "userdoc": {
    "kind": "user",
    "methods": {
      "apr()": {
        "notice": "Returns an estimation of the current Annual Percentage Rate"
      },
      "aprAfterDeposit(uint256)": {
        "notice": "Returns an estimation of the current Annual Percentage Rate after a new deposit"
      },
      "changeAllowance(address[],address[],uint256[])": {
        "notice": "Changes allowance of a set of tokens to addresses"
      },
      "claimRewards()": {
        "notice": "Claim earned stkAAVE"
      },
      "cooldown()": {
        "notice": "Triggers the cooldown on Aave for this contract"
      },
      "deposit()": {
        "notice": "Deposits the current balance to the lending platform"
      },
      "emergencyWithdraw(uint256)": {
        "notice": "Withdraws as much as possible in case of emergency and sends it to the `PoolManager`"
      },
      "hasAssets()": {
        "notice": "Check if assets are currently managed by the lender"
      },
      "initialize(address,string,bool,address[],address,address[])": {
        "notice": "Wrapper on top of the `initializeAave` method"
      },
      "initializeAave(address,string,bool,address[],address,address[])": {
        "notice": "Initializer of the `GenericAave`"
      },
      "nav()": {
        "notice": "Helper function to get the current total of assets managed by the lender."
      },
      "poolManager()": {
        "notice": "Reference to the protocol's collateral poolManager"
      },
      "sellRewards(uint256,bytes)": {
        "notice": "Swap earned _stkAave or Aave for `want` through 1Inch"
      },
      "setAavePoolVariables()": {
        "notice": "Retrieves lending pool variables like the `COOLDOWN_SECONDS` or the `UNSTAKE_WINDOW` on Aave"
      },
      "strategy()": {
        "notice": "Reference to the `Strategy`"
      },
      "sweep(address,address)": {
        "notice": "Removes tokens from this Strategy that are not the type of tokens managed by this Strategy. This may be used in case of accidentally sending the wrong kind of token to this Strategy. Tokens will be sent to `governance()`. This will fail if an attempt is made to sweep `want`, or any tokens that are protected by this Strategy. This may only be called by governance."
      },
      "toggleCooldownStkAave()": {
        "notice": "Toggle cooldownStkAave state, which allow or not to call the coolDown stkAave each time rewards are claimed"
      },
      "toggleIsIncentivised()": {
        "notice": "Toggle isIncentivised state, to let know the lender if it should harvest aave rewards"
      },
      "underlyingBalanceStored()": {
        "notice": "Returns the current balance of aTokens"
      },
      "want()": {
        "notice": "Reference to the token lent"
      },
      "wantBase()": {
        "notice": "Base of the asset handled by the lender"
      },
      "weightedApr()": {
        "notice": "Returns an estimation of the current Annual Percentage Rate weighted by a factor"
      },
      "withdraw(uint256)": {
        "notice": "Withdraws a given amount from lender"
      },
      "withdrawAll()": {
        "notice": "Withdraws as much as possible"
      }
    },
    "notice": "Only deposit onto Aave lendingPool with no staking",
    "version": 1
  },
  "storageLayout": {
    "storage": [
      {
        "astId": 52,
        "contract": "contracts/strategies/OptimizerAPR/genericLender/GenericAaveNoStaker.sol:GenericAaveNoStaker",
        "label": "_initialized",
        "offset": 0,
        "slot": "0",
        "type": "t_bool"
      },
      {
        "astId": 55,
        "contract": "contracts/strategies/OptimizerAPR/genericLender/GenericAaveNoStaker.sol:GenericAaveNoStaker",
        "label": "_initializing",
        "offset": 1,
        "slot": "0",
        "type": "t_bool"
      },
      {
        "astId": 4126,
        "contract": "contracts/strategies/OptimizerAPR/genericLender/GenericAaveNoStaker.sol:GenericAaveNoStaker",
        "label": "_roles",
        "offset": 0,
        "slot": "1",
        "type": "t_mapping(t_bytes32,t_struct(RoleData)4121_storage)"
      },
      {
        "astId": 4412,
        "contract": "contracts/strategies/OptimizerAPR/genericLender/GenericAaveNoStaker.sol:GenericAaveNoStaker",
        "label": "__gap",
        "offset": 0,
        "slot": "2",
        "type": "t_array(t_uint256)49_storage"
      },
      {
        "astId": 19996,
        "contract": "contracts/strategies/OptimizerAPR/genericLender/GenericAaveNoStaker.sol:GenericAaveNoStaker",
        "label": "lenderName",
        "offset": 0,
        "slot": "51",
        "type": "t_string_storage"
      },
      {
        "astId": 20000,
        "contract": "contracts/strategies/OptimizerAPR/genericLender/GenericAaveNoStaker.sol:GenericAaveNoStaker",
        "label": "poolManager",
        "offset": 0,
        "slot": "52",
        "type": "t_contract(IPoolManager)4761"
      },
      {
        "astId": 20004,
        "contract": "contracts/strategies/OptimizerAPR/genericLender/GenericAaveNoStaker.sol:GenericAaveNoStaker",
        "label": "strategy",
        "offset": 0,
        "slot": "53",
        "type": "t_address"
      },
      {
        "astId": 20008,
        "contract": "contracts/strategies/OptimizerAPR/genericLender/GenericAaveNoStaker.sol:GenericAaveNoStaker",
        "label": "want",
        "offset": 0,
        "slot": "54",
        "type": "t_contract(IERC20)2114"
      },
      {
        "astId": 20011,
        "contract": "contracts/strategies/OptimizerAPR/genericLender/GenericAaveNoStaker.sol:GenericAaveNoStaker",
        "label": "wantBase",
        "offset": 0,
        "slot": "55",
        "type": "t_uint256"
      },
      {
        "astId": 20015,
        "contract": "contracts/strategies/OptimizerAPR/genericLender/GenericAaveNoStaker.sol:GenericAaveNoStaker",
        "label": "__gapBaseLender",
        "offset": 0,
        "slot": "56",
        "type": "t_array(t_uint256)45_storage"
      },
      {
        "astId": 18132,
        "contract": "contracts/strategies/OptimizerAPR/genericLender/GenericAaveNoStaker.sol:GenericAaveNoStaker",
        "label": "cooldownSeconds",
        "offset": 0,
        "slot": "101",
        "type": "t_uint256"
      },
      {
        "astId": 18134,
        "contract": "contracts/strategies/OptimizerAPR/genericLender/GenericAaveNoStaker.sol:GenericAaveNoStaker",
        "label": "unstakeWindow",
        "offset": 0,
        "slot": "102",
        "type": "t_uint256"
      },
      {
        "astId": 18136,
        "contract": "contracts/strategies/OptimizerAPR/genericLender/GenericAaveNoStaker.sol:GenericAaveNoStaker",
        "label": "cooldownStkAave",
        "offset": 0,
        "slot": "103",
        "type": "t_bool"
      },
      {
        "astId": 18138,
        "contract": "contracts/strategies/OptimizerAPR/genericLender/GenericAaveNoStaker.sol:GenericAaveNoStaker",
        "label": "isIncentivised",
        "offset": 1,
        "slot": "103",
        "type": "t_bool"
      },
      {
        "astId": 18141,
        "contract": "contracts/strategies/OptimizerAPR/genericLender/GenericAaveNoStaker.sol:GenericAaveNoStaker",
        "label": "_aToken",
        "offset": 2,
        "slot": "103",
        "type": "t_contract(IAToken)5386"
      },
      {
        "astId": 18145,
        "contract": "contracts/strategies/OptimizerAPR/genericLender/GenericAaveNoStaker.sol:GenericAaveNoStaker",
        "label": "__gapAaveLender",
        "offset": 0,
        "slot": "104",
        "type": "t_array(t_uint256)47_storage"
      }
    ],
    "types": {
      "t_address": {
        "encoding": "inplace",
        "label": "address",
        "numberOfBytes": "20"
      },
      "t_array(t_uint256)45_storage": {
        "base": "t_uint256",
        "encoding": "inplace",
        "label": "uint256[45]",
        "numberOfBytes": "1440"
      },
      "t_array(t_uint256)47_storage": {
        "base": "t_uint256",
        "encoding": "inplace",
        "label": "uint256[47]",
        "numberOfBytes": "1504"
      },
      "t_array(t_uint256)49_storage": {
        "base": "t_uint256",
        "encoding": "inplace",
        "label": "uint256[49]",
        "numberOfBytes": "1568"
      },
      "t_bool": {
        "encoding": "inplace",
        "label": "bool",
        "numberOfBytes": "1"
      },
      "t_bytes32": {
        "encoding": "inplace",
        "label": "bytes32",
        "numberOfBytes": "32"
      },
      "t_contract(IAToken)5386": {
        "encoding": "inplace",
        "label": "contract IAToken",
        "numberOfBytes": "20"
      },
      "t_contract(IERC20)2114": {
        "encoding": "inplace",
        "label": "contract IERC20",
        "numberOfBytes": "20"
      },
      "t_contract(IPoolManager)4761": {
        "encoding": "inplace",
        "label": "contract IPoolManager",
        "numberOfBytes": "20"
      },
      "t_mapping(t_address,t_bool)": {
        "encoding": "mapping",
        "key": "t_address",
        "label": "mapping(address => bool)",
        "numberOfBytes": "32",
        "value": "t_bool"
      },
      "t_mapping(t_bytes32,t_struct(RoleData)4121_storage)": {
        "encoding": "mapping",
        "key": "t_bytes32",
        "label": "mapping(bytes32 => struct AccessControlAngleUpgradeable.RoleData)",
        "numberOfBytes": "32",
        "value": "t_struct(RoleData)4121_storage"
      },
      "t_string_storage": {
        "encoding": "bytes",
        "label": "string",
        "numberOfBytes": "32"
      },
      "t_struct(RoleData)4121_storage": {
        "encoding": "inplace",
        "label": "struct AccessControlAngleUpgradeable.RoleData",
        "members": [
          {
            "astId": 4118,
            "contract": "contracts/strategies/OptimizerAPR/genericLender/GenericAaveNoStaker.sol:GenericAaveNoStaker",
            "label": "members",
            "offset": 0,
            "slot": "0",
            "type": "t_mapping(t_address,t_bool)"
          },
          {
            "astId": 4120,
            "contract": "contracts/strategies/OptimizerAPR/genericLender/GenericAaveNoStaker.sol:GenericAaveNoStaker",
            "label": "adminRole",
            "offset": 0,
            "slot": "1",
            "type": "t_bytes32"
          }
        ],
        "numberOfBytes": "64"
      },
      "t_uint256": {
        "encoding": "inplace",
        "label": "uint256",
        "numberOfBytes": "32"
      }
    }
  }
}