{
  "address": "0x0b997ae973cC65fE5A66653dca7a518929d0245b",
  "abi": [
    {
      "inputs": [],
      "name": "ErrorSwap",
      "type": "error"
    },
    {
      "inputs": [],
      "name": "FailedToMint",
      "type": "error"
    },
    {
      "inputs": [],
      "name": "FailedToRecoverETH",
      "type": "error"
    },
    {
      "inputs": [],
      "name": "FailedToRedeem",
      "type": "error"
    },
    {
      "inputs": [],
      "name": "IncompatibleLengths",
      "type": "error"
    },
    {
      "inputs": [],
      "name": "InvalidOracleValue",
      "type": "error"
    },
    {
      "inputs": [],
      "name": "ProtectedToken",
      "type": "error"
    },
    {
      "inputs": [],
      "name": "TooSmallAmount",
      "type": "error"
    },
    {
      "inputs": [],
      "name": "WrongCToken",
      "type": "error"
    },
    {
      "anonymous": false,
      "inputs": [
        {
          "indexed": true,
          "internalType": "bytes32",
          "name": "role",
          "type": "bytes32"
        },
        {
          "indexed": true,
          "internalType": "bytes32",
          "name": "previousAdminRole",
          "type": "bytes32"
        },
        {
          "indexed": true,
          "internalType": "bytes32",
          "name": "newAdminRole",
          "type": "bytes32"
        }
      ],
      "name": "RoleAdminChanged",
      "type": "event"
    },
    {
      "anonymous": false,
      "inputs": [
        {
          "indexed": true,
          "internalType": "bytes32",
          "name": "role",
          "type": "bytes32"
        },
        {
          "indexed": true,
          "internalType": "address",
          "name": "account",
          "type": "address"
        },
        {
          "indexed": true,
          "internalType": "address",
          "name": "sender",
          "type": "address"
        }
      ],
      "name": "RoleGranted",
      "type": "event"
    },
    {
      "anonymous": false,
      "inputs": [
        {
          "indexed": true,
          "internalType": "bytes32",
          "name": "role",
          "type": "bytes32"
        },
        {
          "indexed": true,
          "internalType": "address",
          "name": "account",
          "type": "address"
        },
        {
          "indexed": true,
          "internalType": "address",
          "name": "sender",
          "type": "address"
        }
      ],
      "name": "RoleRevoked",
      "type": "event"
    },
    {
      "inputs": [],
      "name": "BLOCKS_PER_YEAR",
      "outputs": [
        {
          "internalType": "uint256",
          "name": "",
          "type": "uint256"
        }
      ],
      "stateMutability": "view",
      "type": "function"
    },
    {
      "inputs": [],
      "name": "DEFAULT_ADMIN_ROLE",
      "outputs": [
        {
          "internalType": "bytes32",
          "name": "",
          "type": "bytes32"
        }
      ],
      "stateMutability": "view",
      "type": "function"
    },
    {
      "inputs": [],
      "name": "GUARDIAN_ROLE",
      "outputs": [
        {
          "internalType": "bytes32",
          "name": "",
          "type": "bytes32"
        }
      ],
      "stateMutability": "view",
      "type": "function"
    },
    {
      "inputs": [],
      "name": "KEEPER_ROLE",
      "outputs": [
        {
          "internalType": "bytes32",
          "name": "",
          "type": "bytes32"
        }
      ],
      "stateMutability": "view",
      "type": "function"
    },
    {
      "inputs": [],
      "name": "STRATEGY_ROLE",
      "outputs": [
        {
          "internalType": "bytes32",
          "name": "",
          "type": "bytes32"
        }
      ],
      "stateMutability": "view",
      "type": "function"
    },
    {
      "inputs": [],
      "name": "apr",
      "outputs": [
        {
          "internalType": "uint256",
          "name": "",
          "type": "uint256"
        }
      ],
      "stateMutability": "view",
      "type": "function"
    },
    {
      "inputs": [
        {
          "internalType": "uint256",
          "name": "amount",
          "type": "uint256"
        }
      ],
      "name": "aprAfterDeposit",
      "outputs": [
        {
          "internalType": "uint256",
          "name": "",
          "type": "uint256"
        }
      ],
      "stateMutability": "view",
      "type": "function"
    },
    {
      "inputs": [],
      "name": "cToken",
      "outputs": [
        {
          "internalType": "contract CErc20I",
          "name": "",
          "type": "address"
        }
      ],
      "stateMutability": "view",
      "type": "function"
    },
    {
      "inputs": [
        {
          "internalType": "contract IERC20[]",
          "name": "tokens",
          "type": "address[]"
        },
        {
          "internalType": "address[]",
          "name": "spenders",
          "type": "address[]"
        },
        {
          "internalType": "uint256[]",
          "name": "amounts",
          "type": "uint256[]"
        }
      ],
      "name": "changeAllowance",
      "outputs": [],
      "stateMutability": "nonpayable",
      "type": "function"
    },
    {
      "inputs": [],
      "name": "comp",
      "outputs": [
        {
          "internalType": "address",
          "name": "",
          "type": "address"
        }
      ],
      "stateMutability": "view",
      "type": "function"
    },
    {
      "inputs": [],
      "name": "comptroller",
      "outputs": [
        {
          "internalType": "contract IComptroller",
          "name": "",
          "type": "address"
        }
      ],
      "stateMutability": "view",
      "type": "function"
    },
    {
      "inputs": [],
      "name": "deposit",
      "outputs": [],
      "stateMutability": "nonpayable",
      "type": "function"
    },
    {
      "inputs": [
        {
          "internalType": "uint256",
          "name": "amount",
          "type": "uint256"
        }
      ],
      "name": "emergencyWithdraw",
      "outputs": [],
      "stateMutability": "nonpayable",
      "type": "function"
    },
    {
      "inputs": [
        {
          "internalType": "bytes32",
          "name": "role",
          "type": "bytes32"
        }
      ],
      "name": "getRoleAdmin",
      "outputs": [
        {
          "internalType": "bytes32",
          "name": "",
          "type": "bytes32"
        }
      ],
      "stateMutability": "view",
      "type": "function"
    },
    {
      "inputs": [
        {
          "internalType": "bytes32",
          "name": "role",
          "type": "bytes32"
        },
        {
          "internalType": "address",
          "name": "account",
          "type": "address"
        }
      ],
      "name": "grantRole",
      "outputs": [],
      "stateMutability": "nonpayable",
      "type": "function"
    },
    {
      "inputs": [],
      "name": "hasAssets",
      "outputs": [
        {
          "internalType": "bool",
          "name": "",
          "type": "bool"
        }
      ],
      "stateMutability": "view",
      "type": "function"
    },
    {
      "inputs": [
        {
          "internalType": "bytes32",
          "name": "role",
          "type": "bytes32"
        },
        {
          "internalType": "address",
          "name": "account",
          "type": "address"
        }
      ],
      "name": "hasRole",
      "outputs": [
        {
          "internalType": "bool",
          "name": "",
          "type": "bool"
        }
      ],
      "stateMutability": "view",
      "type": "function"
    },
    {
      "inputs": [
        {
          "internalType": "address",
          "name": "_strategy",
          "type": "address"
        },
        {
          "internalType": "string",
          "name": "_name",
          "type": "string"
        },
        {
          "internalType": "address",
          "name": "_cToken",
          "type": "address"
        },
        {
          "internalType": "address[]",
          "name": "governorList",
          "type": "address[]"
        },
        {
          "internalType": "address",
          "name": "guardian",
          "type": "address"
        },
        {
          "internalType": "address[]",
          "name": "keeperList",
          "type": "address[]"
        }
      ],
      "name": "initialize",
      "outputs": [],
      "stateMutability": "nonpayable",
      "type": "function"
    },
    {
      "inputs": [],
      "name": "lenderName",
      "outputs": [
        {
          "internalType": "string",
          "name": "",
          "type": "string"
        }
      ],
      "stateMutability": "view",
      "type": "function"
    },
    {
      "inputs": [],
      "name": "nav",
      "outputs": [
        {
          "internalType": "uint256",
          "name": "",
          "type": "uint256"
        }
      ],
      "stateMutability": "view",
      "type": "function"
    },
    {
      "inputs": [],
      "name": "oracle",
      "outputs": [
        {
          "internalType": "contract AggregatorV3Interface",
          "name": "",
          "type": "address"
        }
      ],
      "stateMutability": "view",
      "type": "function"
    },
    {
      "inputs": [],
      "name": "poolManager",
      "outputs": [
        {
          "internalType": "contract IPoolManager",
          "name": "",
          "type": "address"
        }
      ],
      "stateMutability": "view",
      "type": "function"
    },
    {
      "inputs": [
        {
          "internalType": "address",
          "name": "to",
          "type": "address"
        },
        {
          "internalType": "uint256",
          "name": "amount",
          "type": "uint256"
        }
      ],
      "name": "recoverETH",
      "outputs": [],
      "stateMutability": "nonpayable",
      "type": "function"
    },
    {
      "inputs": [
        {
          "internalType": "bytes32",
          "name": "role",
          "type": "bytes32"
        },
        {
          "internalType": "address",
          "name": "account",
          "type": "address"
        }
      ],
      "name": "renounceRole",
      "outputs": [],
      "stateMutability": "nonpayable",
      "type": "function"
    },
    {
      "inputs": [
        {
          "internalType": "bytes32",
          "name": "role",
          "type": "bytes32"
        },
        {
          "internalType": "address",
          "name": "account",
          "type": "address"
        }
      ],
      "name": "revokeRole",
      "outputs": [],
      "stateMutability": "nonpayable",
      "type": "function"
    },
    {
      "inputs": [
        {
          "internalType": "uint256",
          "name": "minAmountOut",
          "type": "uint256"
        },
        {
          "internalType": "bytes",
          "name": "payload",
          "type": "bytes"
        }
      ],
      "name": "sellRewards",
      "outputs": [],
      "stateMutability": "nonpayable",
      "type": "function"
    },
    {
      "inputs": [
        {
          "internalType": "uint256",
          "name": "dust_",
          "type": "uint256"
        }
      ],
      "name": "setDust",
      "outputs": [],
      "stateMutability": "nonpayable",
      "type": "function"
    },
    {
      "inputs": [],
      "name": "strategy",
      "outputs": [
        {
          "internalType": "address",
          "name": "",
          "type": "address"
        }
      ],
      "stateMutability": "view",
      "type": "function"
    },
    {
      "inputs": [
        {
          "internalType": "address",
          "name": "_token",
          "type": "address"
        },
        {
          "internalType": "address",
          "name": "to",
          "type": "address"
        }
      ],
      "name": "sweep",
      "outputs": [],
      "stateMutability": "nonpayable",
      "type": "function"
    },
    {
      "inputs": [],
      "name": "underlyingBalanceStored",
      "outputs": [
        {
          "internalType": "uint256",
          "name": "balance",
          "type": "uint256"
        }
      ],
      "stateMutability": "view",
      "type": "function"
    },
    {
      "inputs": [],
      "name": "want",
      "outputs": [
        {
          "internalType": "contract IERC20",
          "name": "",
          "type": "address"
        }
      ],
      "stateMutability": "view",
      "type": "function"
    },
    {
      "inputs": [],
      "name": "wantBase",
      "outputs": [
        {
          "internalType": "uint256",
          "name": "",
          "type": "uint256"
        }
      ],
      "stateMutability": "view",
      "type": "function"
    },
    {
      "inputs": [],
      "name": "weightedApr",
      "outputs": [
        {
          "internalType": "uint256",
          "name": "",
          "type": "uint256"
        }
      ],
      "stateMutability": "view",
      "type": "function"
    },
    {
      "inputs": [
        {
          "internalType": "uint256",
          "name": "amount",
          "type": "uint256"
        }
      ],
      "name": "withdraw",
      "outputs": [
        {
          "internalType": "uint256",
          "name": "",
          "type": "uint256"
        }
      ],
      "stateMutability": "nonpayable",
      "type": "function"
    },
    {
      "inputs": [],
      "name": "withdrawAll",
      "outputs": [
        {
          "internalType": "bool",
          "name": "",
          "type": "bool"
        }
      ],
      "stateMutability": "nonpayable",
      "type": "function"
    },
    {
      "stateMutability": "payable",
      "type": "receive"
    }
  ],
  "transactionHash": "0x0f5db1d5a59f8fa28f691af9572a55e93c7f814fda150b1fb3f81787e44dea93",
  "args": [],
  "numDeployments": 1,
  "solcInputHash": "ca650e45c91489812b6b51e1d5513906",
  "bytecode": "0x60806040523480156200001157600080fd5b50600054610100900460ff166200002f5760005460ff161562000039565b62000039620000de565b620000a15760405162461bcd60e51b815260206004820152602e60248201527f496e697469616c697a61626c653a20636f6e747261637420697320616c72656160448201526d191e481a5b9a5d1a585b1a5e995960921b606482015260840160405180910390fd5b600054610100900460ff16158015620000c4576000805461ffff19166101011790555b8015620000d7576000805461ff00191690555b506200010b565b6000620000f630620000fc60201b620015881760201c565b15905090565b6001600160a01b03163b151590565b6139f0806200011b6000396000f3fe6080604052600436106102385760003560e01c80635be9b2d311610138578063a8c62e76116100b0578063c6afba3c1161007f578063d37db1d211610064578063d37db1d214610686578063d547741f1461069d578063dc4c90d3146106bd57600080fd5b8063c6afba3c1461065c578063d0e30db01461067157600080fd5b8063a8c62e76146105e7578063b82c4dc114610607578063b8dc491b14610627578063c1590cd71461064757600080fd5b8063853828b6116101075780638b202176116100ec5780638b2021761461059057806391d14854146105b2578063a217fddf146105d257600080fd5b8063853828b61461055b578063864d705e1461057057600080fd5b80635be9b2d3146104c65780635fe3b567146104eb57806369e527da146105135780637dc0d1d01461053357600080fd5b80632e1a7d4d116101cb5780633e0c06291161019a5780635312ea8e1161017f5780635312ea8e1461045d57806357ded9c91461047d578063580b7c2e1461049257600080fd5b80633e0c06291461041d578063437552c01461043d57600080fd5b80632e1a7d4d146103895780632f2ff15d146103a9578063364bc15a146103c957806336568abe146103fd57600080fd5b8063149a4ae411610207578063149a4ae4146102e45780631f1fcd5114610304578063248a9ca31461032457806324ea54f41461035557600080fd5b806305b41934146102445780630b6d1d1714610266578063109d0af81461028f578063116ac4a3146102cf57600080fd5b3661023f57005b600080fd5b34801561025057600080fd5b5061026461025f3660046131c9565b6106dd565b005b34801561027257600080fd5b5061027c60375481565b6040519081526020015b60405180910390f35b34801561029b57600080fd5b506102b773c00e94cb662c3520282e6f5717214004a7f2688881565b6040516001600160a01b039091168152602001610286565b3480156102db57600080fd5b5061027c6107e6565b3480156102f057600080fd5b5061027c6102ff366004613224565b61080b565b34801561031057600080fd5b506036546102b7906001600160a01b031681565b34801561033057600080fd5b5061027c61033f366004613224565b6000908152600160208190526040909120015490565b34801561036157600080fd5b5061027c7f55435dd261a4b9b3364963f7738a7a662ad9c84396d64be3365284bb7f0a504181565b34801561039557600080fd5b5061027c6103a4366004613224565b610b43565b3480156103b557600080fd5b506102646103c4366004613265565b610b82565b3480156103d557600080fd5b5061027c7ffc8737ab85eb45125971625a9ebdb75cc78e01d5c1fa80c4c6e5203f47bc4fab81565b34801561040957600080fd5b50610264610418366004613265565b610bae565b34801561042957600080fd5b50610264610438366004613295565b610c19565b34801561044957600080fd5b50610264610458366004613224565b610c9f565b34801561046957600080fd5b50610264610478366004613224565b610cd0565b34801561048957600080fd5b5061027c610e0c565b34801561049e57600080fd5b5061027c7f928286c473ded01ff8bf61a1986f14a0579066072fa8261442d9fea514d93a4c81565b3480156104d257600080fd5b506104db610e1b565b6040519015158152602001610286565b3480156104f757600080fd5b506102b7733d9819210a31b4961b30ef54be2aed79b9c9cd3b81565b34801561051f57600080fd5b506065546102b7906001600160a01b031681565b34801561053f57600080fd5b506102b773dbd020caef83efd542f4de03e3cf0c28a4428bd581565b34801561056757600080fd5b506104db610e3a565b34801561057c57600080fd5b5061026461058b36600461333f565b610e8b565b34801561059c57600080fd5b506105a5610fdc565b604051610286919061343d565b3480156105be57600080fd5b506104db6105cd366004613265565b61106a565b3480156105de57600080fd5b5061027c600081565b3480156105f357600080fd5b506035546102b7906001600160a01b031681565b34801561061357600080fd5b506102646106223660046134bc565b611097565b34801561063357600080fd5b50610264610642366004613556565b61119e565b34801561065357600080fd5b5061027c6112de565b34801561066857600080fd5b5061027c6112e8565b34801561067d57600080fd5b5061026461140a565b34801561069257600080fd5b5061027c6223dbb081565b3480156106a957600080fd5b506102646106b8366004613265565b611561565b3480156106c957600080fd5b506034546102b7906001600160a01b031681565b7ffc8737ab85eb45125971625a9ebdb75cc78e01d5c1fa80c4c6e5203f47bc4fab6107088133611597565b600080731111111254fb6c44bac0bed2854e76f90643097d6001600160a01b0316846040516107379190613584565b6000604051808303816000865af19150503d8060008114610774576040519150601f19603f3d011682016040523d82523d6000602084013e610779565b606091505b50915091508161078c5761078c816115fb565b6000818060200190518101906107a291906135a0565b9050858110156107de576040517f22313ae900000000000000000000000000000000000000000000000000000000815260040160405180910390fd5b505050505050565b6000806107f161163c565b90506107fb6116e5565b61080590826135cf565b91505090565b6036546065546040516370a0823160e01b81526001600160a01b039182166004820152600092839216906370a0823190602401602060405180830381865afa15801561085b573d6000803e3d6000fd5b505050506040513d601f19601f8201168201806040525081019061087f91906135a0565b90506000606560009054906101000a90046001600160a01b03166001600160a01b03166347bd37186040518163ffffffff1660e01b8152600401602060405180830381865afa1580156108d6573d6000803e3d6000fd5b505050506040513d601f19601f820116820180604052508101906108fa91906135a0565b90506000606560009054906101000a90046001600160a01b03166001600160a01b0316638f840ddd6040518163ffffffff1660e01b8152600401602060405180830381865afa158015610951573d6000803e3d6000fd5b505050506040513d601f19601f8201168201806040525081019061097591906135a0565b90506000606560009054906101000a90046001600160a01b03166001600160a01b031663173b99046040518163ffffffff1660e01b8152600401602060405180830381865afa1580156109cc573d6000803e3d6000fd5b505050506040513d601f19601f820116820180604052508101906109f091906135a0565b90506000606560009054906101000a90046001600160a01b03166001600160a01b031663f3fdb15a6040518163ffffffff1660e01b8152600401602060405180830381865afa158015610a47573d6000803e3d6000fd5b505050506040513d601f19601f82011682018060405250810190610a6b91906135ee565b905060006001600160a01b03821663b8168816610a888a8961360b565b6040517fffffffff0000000000000000000000000000000000000000000000000000000060e084901b1681526004810191909152602481018890526044810187905260648101869052608401602060405180830381865afa158015610af1573d6000803e3d6000fd5b505050506040513d601f19601f82011682018060405250810190610b1591906135a0565b9050610b208861175b565b610b2d6223dbb0836135cf565b610b37919061360b565b98975050505050505050565b60007f928286c473ded01ff8bf61a1986f14a0579066072fa8261442d9fea514d93a4c610b708133611597565b610b798361198a565b91505b50919050565b60008281526001602081905260409091200154610b9f8133611597565b610ba98383611eb5565b505050565b6001600160a01b0381163314610c0b5760405162461bcd60e51b815260206004820152600260248201527f373100000000000000000000000000000000000000000000000000000000000060448201526064015b60405180910390fd5b610c158282611f20565b5050565b7f55435dd261a4b9b3364963f7738a7a662ad9c84396d64be3365284bb7f0a5041610c448133611597565b6040516001600160a01b0384169083156108fc029084906000818181858888f19350505050610ba9576040517f72de321200000000000000000000000000000000000000000000000000000000815260040160405180910390fd5b7f55435dd261a4b9b3364963f7738a7a662ad9c84396d64be3365284bb7f0a5041610cca8133611597565b50606655565b7f55435dd261a4b9b3364963f7738a7a662ad9c84396d64be3365284bb7f0a5041610cfb8133611597565b6065546040517f852a12e3000000000000000000000000000000000000000000000000000000008152600481018490526001600160a01b039091169063852a12e3906024016020604051808303816000875af1158015610d5f573d6000803e3d6000fd5b505050506040513d601f19601f82011682018060405250810190610d8391906135a0565b506034546036546040516370a0823160e01b8152306004820152610c15926001600160a01b039081169216906370a0823190602401602060405180830381865afa158015610dd5573d6000803e3d6000fd5b505050506040513d601f19601f82011682018060405250810190610df991906135a0565b6036546001600160a01b03169190611f87565b6000610e1661163c565b905090565b6000603754600a610e2c91906135cf565b610e346116e5565b11905090565b60007f928286c473ded01ff8bf61a1986f14a0579066072fa8261442d9fea514d93a4c610e678133611597565b6000610e716116e5565b90506000610e7e8261198a565b91909110159250505b5090565b610e988686858585612030565b606580547fffffffffffffffffffffffff0000000000000000000000000000000000000000166001600160a01b03868116918217909255603654604080517f6f307dc300000000000000000000000000000000000000000000000000000000815290519190931692636f307dc39160048083019260209291908290030181865afa158015610f2a573d6000803e3d6000fd5b505050506040513d601f19601f82011682018060405250810190610f4e91906135ee565b6001600160a01b031614610f8e576040517f0766ebc200000000000000000000000000000000000000000000000000000000815260040160405180910390fd5b603654610fa7906001600160a01b0316856000196125c7565b6107de73c00e94cb662c3520282e6f5717214004a7f26888731111111254fb6c44bac0bed2854e76f90643097d6000196125c7565b60338054610fe990613623565b80601f016020809104026020016040519081016040528092919081815260200182805461101590613623565b80156110625780601f1061103757610100808354040283529160200191611062565b820191906000526020600020905b81548152906001019060200180831161104557829003601f168201915b505050505081565b60008281526001602090815260408083206001600160a01b038516845290915290205460ff165b92915050565b7f55435dd261a4b9b3364963f7738a7a662ad9c84396d64be3365284bb7f0a50416110c28133611597565b85841415806110d15750858214155b15611108576040517f46282e8d00000000000000000000000000000000000000000000000000000000815260040160405180910390fd5b60005b868110156111945761118288888381811061112857611128613658565b905060200201602081019061113d919061366e565b87878481811061114f5761114f613658565b9050602002016020810190611164919061366e565b86868581811061117657611176613658565b905060200201356126fc565b8061118c8161368b565b91505061110b565b5050505050505050565b7f55435dd261a4b9b3364963f7738a7a662ad9c84396d64be3365284bb7f0a50416111c98133611597565b60006111d36127c5565b905060005b8151811015611258578181815181106111f3576111f3613658565b60200260200101516001600160a01b0316856001600160a01b03161415611246576040517f093e1cdb00000000000000000000000000000000000000000000000000000000815260040160405180910390fd5b806112508161368b565b9150506111d8565b506040516370a0823160e01b81523060048201526112d89084906001600160a01b038716906370a0823190602401602060405180830381865afa1580156112a3573d6000803e3d6000fd5b505050506040513d601f19601f820116820180604052508101906112c791906135a0565b6001600160a01b0387169190611f87565b50505050565b6000610e166116e5565b6065546040516370a0823160e01b815230600482015260009182916001600160a01b03909116906370a0823190602401602060405180830381865afa158015611335573d6000803e3d6000fd5b505050506040513d601f19601f8201168201806040525081019061135991906135a0565b90508061136857600091505090565b606554604080517f182df0f50000000000000000000000000000000000000000000000000000000081529051670de0b6b3a7640000926001600160a01b03169163182df0f59160048083019260209291908290030181865afa1580156113d2573d6000803e3d6000fd5b505050506040513d601f19601f820116820180604052508101906113f691906135a0565b61140090836135cf565b61080591906136a6565b7f928286c473ded01ff8bf61a1986f14a0579066072fa8261442d9fea514d93a4c6114358133611597565b6036546040516370a0823160e01b81523060048201526000916001600160a01b0316906370a0823190602401602060405180830381865afa15801561147e573d6000803e3d6000fd5b505050506040513d601f19601f820116820180604052508101906114a291906135a0565b6065546040517fa0712d68000000000000000000000000000000000000000000000000000000008152600481018390529192506001600160a01b03169063a0712d68906024016020604051808303816000875af1158015611507573d6000803e3d6000fd5b505050506040513d601f19601f8201168201806040525081019061152b91906135a0565b15610c15576040517e48195d00000000000000000000000000000000000000000000000000000000815260040160405180910390fd5b6000828152600160208190526040909120015461157e8133611597565b610ba98383611f20565b6001600160a01b03163b151590565b6115a1828261106a565b610c15576115b9816001600160a01b03166014612858565b6115c4836020612858565b6040516020016115d59291906136c8565b60408051601f198184030181529082905262461bcd60e51b8252610c029160040161343d565b80511561160a57805181602001fd5b6040517fc76d51a100000000000000000000000000000000000000000000000000000000815260040160405180910390fd5b6000611648600061175b565b606554604080517fae9d70b000000000000000000000000000000000000000000000000000000000815290516223dbb0926001600160a01b03169163ae9d70b09160048083019260209291908290030181865afa1580156116ad573d6000803e3d6000fd5b505050506040513d601f19601f820116820180604052508101906116d191906135a0565b6116db91906135cf565b610e16919061360b565b60006116ef6112e8565b6036546040516370a0823160e01b81523060048201526001600160a01b03909116906370a0823190602401602060405180830381865afa158015611737573d6000803e3d6000fd5b505050506040513d601f19601f820116820180604052508101906116db91906135a0565b6065546040517f6aa875b50000000000000000000000000000000000000000000000000000000081526001600160a01b0390911660048201526000908190733d9819210a31b4961b30ef54be2aed79b9c9cd3b90636aa875b590602401602060405180830381865afa1580156117d5573d6000803e3d6000fd5b505050506040513d601f19601f820116820180604052508101906117f991906135a0565b9050600083670de0b6b3a7640000606560009054906101000a90046001600160a01b03166001600160a01b031663182df0f56040518163ffffffff1660e01b8152600401602060405180830381865afa15801561185a573d6000803e3d6000fd5b505050506040513d601f19601f8201168201806040525081019061187e91906135a0565b606560009054906101000a90046001600160a01b03166001600160a01b03166318160ddd6040518163ffffffff1660e01b8152600401602060405180830381865afa1580156118d1573d6000803e3d6000fd5b505050506040513d601f19601f820116820180604052508101906118f591906135a0565b6118ff91906135cf565b61190991906136a6565b611913919061360b565b905061191e82612a88565b915060008161193b576119346223dbb0846135cf565b9050611968565b816119496223dbb0856135cf565b61195b90670de0b6b3a76400006135cf565b61196591906136a6565b90505b6127106119778261251c6135cf565b61198191906136a6565b95945050505050565b6065546040517f3af9e66900000000000000000000000000000000000000000000000000000000815230600482015260009182916001600160a01b0390911690633af9e669906024016020604051808303816000875af11580156119f2573d6000803e3d6000fd5b505050506040513d601f19601f82011682018060405250810190611a1691906135a0565b6036546040516370a0823160e01b81523060048201529192506000916001600160a01b03909116906370a0823190602401602060405180830381865afa158015611a64573d6000803e3d6000fd5b505050506040513d601f19601f82011682018060405250810190611a8891906135a0565b90506000611a96828461360b565b905080851115611aa4578094505b848210611ad157603554603654611ac8916001600160a01b03918216911687611f87565b50929392505050565b6036546065546040516370a0823160e01b81526001600160a01b03918216600482015260009291909116906370a0823190602401602060405180830381865afa158015611b22573d6000803e3d6000fd5b505050506040513d601f19601f82011682018060405250810190611b4691906135a0565b90506001811115611cf4576000611b5d8488613749565b90506066548110611cf257818111611c33576065546040517f852a12e3000000000000000000000000000000000000000000000000000000008152600481018390526001600160a01b039091169063852a12e3906024016020604051808303816000875af1158015611bd3573d6000803e3d6000fd5b505050506040513d601f19601f82011682018060405250810190611bf791906135a0565b15611c2e576040517f3c9bb3ca00000000000000000000000000000000000000000000000000000000815260040160405180910390fd5b611cf2565b6065546040517f852a12e3000000000000000000000000000000000000000000000000000000008152600481018490526001600160a01b039091169063852a12e3906024016020604051808303816000875af1158015611c97573d6000803e3d6000fd5b505050506040513d601f19601f82011682018060405250810190611cbb91906135a0565b15611cf2576040517f3c9bb3ca00000000000000000000000000000000000000000000000000000000815260040160405180910390fd5b505b6040805160018082528183019092526000916020808301908036833750506040805160018082528183019092529293506000929150602080830190803683370190505090503082600081518110611d4d57611d4d613658565b6001600160a01b03928316602091820292909201015260655482519116908290600090611d7c57611d7c613658565b6001600160a01b03909216602092830291909101909101526040517f6810dfa6000000000000000000000000000000000000000000000000000000008152733d9819210a31b4961b30ef54be2aed79b9c9cd3b90636810dfa690611deb90859085906001908190600401613760565b600060405180830381600087803b158015611e0557600080fd5b505af1158015611e19573d6000803e3d6000fd5b50506036546040516370a0823160e01b81523060048201526001600160a01b0390911692506370a082319150602401602060405180830381865afa158015611e65573d6000803e3d6000fd5b505050506040513d601f19601f82011682018060405250810190611e8991906135a0565b603554603654919650611ea9916001600160a01b03908116911687611f87565b50929695505050505050565b611ebf828261106a565b610c155760008281526001602081815260408084206001600160a01b0386168086529252808420805460ff19169093179092559051339285917f2f8788117e7eff1d82e926ec794901d17c78024a50270940304540a733656f0d9190a45050565b611f2a828261106a565b15610c155760008281526001602090815260408083206001600160a01b0385168085529252808320805460ff1916905551339285917ff6391f5c32d9c69d2a47ea670b442974b53935d1edc7fd64eb21e047a839171b9190a45050565b6040516001600160a01b038316602482015260448101829052610ba99084907fa9059cbb00000000000000000000000000000000000000000000000000000000906064015b60408051601f198184030181529190526020810180517bffffffffffffffffffffffffffffffffffffffffffffffffffffffff167fffffffff0000000000000000000000000000000000000000000000000000000090931692909217909152612bb1565b600054610100900460ff1661204b5760005460ff161561204f565b303b155b6120c15760405162461bcd60e51b815260206004820152602e60248201527f496e697469616c697a61626c653a20636f6e747261637420697320616c72656160448201527f647920696e697469616c697a65640000000000000000000000000000000000006064820152608401610c02565b600054610100900460ff1615801561210057600080547fffffffffffffffffffffffffffffffffffffffffffffffffffffffffffff0000166101011790555b603580547fffffffffffffffffffffffff0000000000000000000000000000000000000000166001600160a01b038816908117909155604080517fdc4c90d3000000000000000000000000000000000000000000000000000000008152905163dc4c90d3916004808201926020929091908290030181865afa15801561218a573d6000803e3d6000fd5b505050506040513d601f19601f820116820180604052508101906121ae91906135ee565b603480547fffffffffffffffffffffffff0000000000000000000000000000000000000000166001600160a01b03929092169182179055604080517ffc0c546a000000000000000000000000000000000000000000000000000000008152905163fc0c546a916004808201926020929091908290030181865afa158015612239573d6000803e3d6000fd5b505050506040513d601f19601f8201168201806040525081019061225d91906135ee565b603680547fffffffffffffffffffffffff0000000000000000000000000000000000000000166001600160a01b039290921691909117905584516122a890603390602088019061309a565b506034546122e0907f55435dd261a4b9b3364963f7738a7a662ad9c84396d64be3365284bb7f0a5041906001600160a01b0316612c96565b60005b84518110156123415761232f7f55435dd261a4b9b3364963f7738a7a662ad9c84396d64be3365284bb7f0a504186838151811061232257612322613658565b6020026020010151612c96565b806123398161368b565b9150506122e3565b5061236c7ffc8737ab85eb45125971625a9ebdb75cc78e01d5c1fa80c4c6e5203f47bc4fab84612c96565b60005b82518110156123c0576123ae7ffc8737ab85eb45125971625a9ebdb75cc78e01d5c1fa80c4c6e5203f47bc4fab84838151811061232257612322613658565b806123b88161368b565b91505061236f565b5061240b7ffc8737ab85eb45125971625a9ebdb75cc78e01d5c1fa80c4c6e5203f47bc4fab7f55435dd261a4b9b3364963f7738a7a662ad9c84396d64be3365284bb7f0a5041612ca0565b6124357f55435dd261a4b9b3364963f7738a7a662ad9c84396d64be3365284bb7f0a504184612c96565b61245f7f928286c473ded01ff8bf61a1986f14a0579066072fa8261442d9fea514d93a4c87612c96565b6124a97f55435dd261a4b9b3364963f7738a7a662ad9c84396d64be3365284bb7f0a50417f928286c473ded01ff8bf61a1986f14a0579066072fa8261442d9fea514d93a4c612ca0565b6124f37f928286c473ded01ff8bf61a1986f14a0579066072fa8261442d9fea514d93a4c7f55435dd261a4b9b3364963f7738a7a662ad9c84396d64be3365284bb7f0a5041612ca0565b603660009054906101000a90046001600160a01b03166001600160a01b031663313ce5676040518163ffffffff1660e01b8152600401602060405180830381865afa158015612546573d6000803e3d6000fd5b505050506040513d601f19601f8201168201806040525081019061256a9190613801565b61257590600a613908565b603755603654612591906001600160a01b0316876000196125c7565b80156107de57600080547fffffffffffffffffffffffffffffffffffffffffffffffffffffffffffff00ff169055505050505050565b8015806126415750604051636eb1769f60e11b81523060048201526001600160a01b03838116602483015284169063dd62ed3e90604401602060405180830381865afa15801561261b573d6000803e3d6000fd5b505050506040513d601f19601f8201168201806040525081019061263f91906135a0565b155b6126b35760405162461bcd60e51b815260206004820152603660248201527f5361666545524332303a20617070726f76652066726f6d206e6f6e2d7a65726f60448201527f20746f206e6f6e2d7a65726f20616c6c6f77616e6365000000000000000000006064820152608401610c02565b6040516001600160a01b038316602482015260448101829052610ba99084907f095ea7b30000000000000000000000000000000000000000000000000000000090606401611fcc565b604051636eb1769f60e11b81523060048201526001600160a01b0383811660248301526000919085169063dd62ed3e90604401602060405180830381865afa15801561274c573d6000803e3d6000fd5b505050506040513d601f19601f8201168201806040525081019061277091906135a0565b90508181101561279e57612799836127888385613749565b6001600160a01b0387169190612cf7565b6112d8565b818111156112d8576112d8836127b48484613749565b6001600160a01b0387169190612dc2565b60408051600280825260608083018452926000929190602083019080368337505060365482519293506001600160a01b03169183915060009061280a5761280a613658565b6001600160a01b03928316602091820292909201015260655482519116908290600190811061283b5761283b613658565b6001600160a01b0390921660209283029190910190910152919050565b606060006128678360026135cf565b61287290600261360b565b67ffffffffffffffff81111561288a5761288a61312a565b6040519080825280601f01601f1916602001820160405280156128b4576020820181803683370190505b5090507f3000000000000000000000000000000000000000000000000000000000000000816000815181106128eb576128eb613658565b60200101907effffffffffffffffffffffffffffffffffffffffffffffffffffffffffffff1916908160001a9053507f78000000000000000000000000000000000000000000000000000000000000008160018151811061294e5761294e613658565b60200101907effffffffffffffffffffffffffffffffffffffffffffffffffffffffffffff1916908160001a905350600061298a8460026135cf565b61299590600161360b565b90505b6001811115612a32577f303132333435363738396162636465660000000000000000000000000000000085600f16601081106129d6576129d6613658565b1a60f81b8282815181106129ec576129ec613658565b60200101907effffffffffffffffffffffffffffffffffffffffffffffffffffffffffffff1916908160001a90535060049490941c93612a2b81613917565b9050612998565b508315612a815760405162461bcd60e51b815260206004820181905260248201527f537472696e67733a20686578206c656e67746820696e73756666696369656e746044820152606401610c02565b9392505050565b600081612a9757506000919050565b600080600073dbd020caef83efd542f4de03e3cf0c28a4428bd56001600160a01b031663feaf968c6040518163ffffffff1660e01b815260040160a060405180830381865afa158015612aee573d6000803e3d6000fd5b505050506040513d601f19601f82011682018060405250810190612b129190613948565b94505050925092508160001480612b4057508069ffffffffffffffffffff168369ffffffffffffffffffff16115b15612b77576040517f4e596b3100000000000000000000000000000000000000000000000000000000815260040160405180910390fd5b60375482906a52b7d2dcc80cd2e400000090612b9383896135cf565b612b9d91906135cf565b612ba791906136a6565b9695505050505050565b6000612c06826040518060400160405280602081526020017f5361666545524332303a206c6f772d6c6576656c2063616c6c206661696c6564815250856001600160a01b0316612f029092919063ffffffff16565b805190915015610ba95780806020019051810190612c249190613998565b610ba95760405162461bcd60e51b815260206004820152602a60248201527f5361666545524332303a204552433230206f7065726174696f6e20646964206e60448201527f6f742073756363656564000000000000000000000000000000000000000000006064820152608401610c02565b610c158282611eb5565b60008281526001602081905260409091200154819060405184907fbd79b86ffe0ab8e8776151514217cd7cacd52c909f66475c3af44e129f0b00ff90600090a4600091825260016020819052604090922090910155565b604051636eb1769f60e11b81523060048201526001600160a01b038381166024830152600091839186169063dd62ed3e90604401602060405180830381865afa158015612d48573d6000803e3d6000fd5b505050506040513d601f19601f82011682018060405250810190612d6c91906135a0565b612d76919061360b565b6040516001600160a01b0385166024820152604481018290529091506112d89085907f095ea7b30000000000000000000000000000000000000000000000000000000090606401611fcc565b604051636eb1769f60e11b81523060048201526001600160a01b0383811660248301526000919085169063dd62ed3e90604401602060405180830381865afa158015612e12573d6000803e3d6000fd5b505050506040513d601f19601f82011682018060405250810190612e3691906135a0565b905081811015612eae5760405162461bcd60e51b815260206004820152602960248201527f5361666545524332303a2064656372656173656420616c6c6f77616e6365206260448201527f656c6f77207a65726f00000000000000000000000000000000000000000000006064820152608401610c02565b6040516001600160a01b03841660248201528282036044820181905290612efb9086907f095ea7b30000000000000000000000000000000000000000000000000000000090606401611fcc565b5050505050565b6060612f118484600085612f19565b949350505050565b606082471015612f915760405162461bcd60e51b815260206004820152602660248201527f416464726573733a20696e73756666696369656e742062616c616e636520666f60448201527f722063616c6c00000000000000000000000000000000000000000000000000006064820152608401610c02565b6001600160a01b0385163b612fe85760405162461bcd60e51b815260206004820152601d60248201527f416464726573733a2063616c6c20746f206e6f6e2d636f6e74726163740000006044820152606401610c02565b600080866001600160a01b031685876040516130049190613584565b60006040518083038185875af1925050503d8060008114613041576040519150601f19603f3d011682016040523d82523d6000602084013e613046565b606091505b5091509150613056828286613061565b979650505050505050565b60608315613070575081612a81565b8251156130805782518084602001fd5b8160405162461bcd60e51b8152600401610c02919061343d565b8280546130a690613623565b90600052602060002090601f0160209004810192826130c8576000855561310e565b82601f106130e157805160ff191683800117855561310e565b8280016001018555821561310e579182015b8281111561310e5782518255916020019190600101906130f3565b50610e879291505b80821115610e875760008155600101613116565b634e487b7160e01b600052604160045260246000fd5b604051601f8201601f1916810167ffffffffffffffff811182821017156131695761316961312a565b604052919050565b600067ffffffffffffffff83111561318b5761318b61312a565b61319e6020601f19601f86011601613140565b90508281528383830111156131b257600080fd5b828260208301376000602084830101529392505050565b600080604083850312156131dc57600080fd5b82359150602083013567ffffffffffffffff8111156131fa57600080fd5b8301601f8101851361320b57600080fd5b61321a85823560208401613171565b9150509250929050565b60006020828403121561323657600080fd5b5035919050565b6001600160a01b038116811461325257600080fd5b50565b80356132608161323d565b919050565b6000806040838503121561327857600080fd5b82359150602083013561328a8161323d565b809150509250929050565b600080604083850312156132a857600080fd5b82356132b38161323d565b946020939093013593505050565b600082601f8301126132d257600080fd5b8135602067ffffffffffffffff8211156132ee576132ee61312a565b8160051b6132fd828201613140565b928352848101820192828101908785111561331757600080fd5b83870192505b848310156130565782356133308161323d565b8252918301919083019061331d565b60008060008060008060c0878903121561335857600080fd5b86356133638161323d565b9550602087013567ffffffffffffffff8082111561338057600080fd5b818901915089601f83011261339457600080fd5b6133a38a833560208501613171565b96506133b160408a01613255565b955060608901359150808211156133c757600080fd5b6133d38a838b016132c1565b94506133e160808a01613255565b935060a08901359150808211156133f757600080fd5b5061340489828a016132c1565b9150509295509295509295565b60005b8381101561342c578181015183820152602001613414565b838111156112d85750506000910152565b602081526000825180602084015261345c816040850160208701613411565b601f01601f19169190910160400192915050565b60008083601f84011261348257600080fd5b50813567ffffffffffffffff81111561349a57600080fd5b6020830191508360208260051b85010111156134b557600080fd5b9250929050565b600080600080600080606087890312156134d557600080fd5b863567ffffffffffffffff808211156134ed57600080fd5b6134f98a838b01613470565b9098509650602089013591508082111561351257600080fd5b61351e8a838b01613470565b9096509450604089013591508082111561353757600080fd5b5061354489828a01613470565b979a9699509497509295939492505050565b6000806040838503121561356957600080fd5b82356135748161323d565b9150602083013561328a8161323d565b60008251613596818460208701613411565b9190910192915050565b6000602082840312156135b257600080fd5b5051919050565b634e487b7160e01b600052601160045260246000fd5b60008160001904831182151516156135e9576135e96135b9565b500290565b60006020828403121561360057600080fd5b8151612a818161323d565b6000821982111561361e5761361e6135b9565b500190565b600181811c9082168061363757607f821691505b60208210811415610b7c57634e487b7160e01b600052602260045260246000fd5b634e487b7160e01b600052603260045260246000fd5b60006020828403121561368057600080fd5b8135612a818161323d565b600060001982141561369f5761369f6135b9565b5060010190565b6000826136c357634e487b7160e01b600052601260045260246000fd5b500490565b7f416363657373436f6e74726f6c3a206163636f756e7420000000000000000000815260008351613700816017850160208801613411565b7f206973206d697373696e6720726f6c6520000000000000000000000000000000601791840191820152835161373d816028840160208801613411565b01602801949350505050565b60008282101561375b5761375b6135b9565b500390565b6080808252855190820181905260009060209060a0840190828901845b828110156137a25781516001600160a01b03168452928401929084019060010161377d565b5050508381038285015286518082528783019183019060005b818110156137e05783516001600160a01b0316835292840192918401916001016137bb565b5050861515604086015292506137f4915050565b8215156060830152611981565b60006020828403121561381357600080fd5b815160ff81168114612a8157600080fd5b600181815b8085111561385f578160001904821115613845576138456135b9565b8085161561385257918102915b93841c9390800290613829565b509250929050565b60008261387657506001611091565b8161388357506000611091565b816001811461389957600281146138a3576138bf565b6001915050611091565b60ff8411156138b4576138b46135b9565b50506001821b611091565b5060208310610133831016604e8410600b84101617156138e2575081810a611091565b6138ec8383613824565b8060001904821115613900576139006135b9565b029392505050565b6000612a8160ff841683613867565b600081613926576139266135b9565b506000190190565b805169ffffffffffffffffffff8116811461326057600080fd5b600080600080600060a0868803121561396057600080fd5b6139698661392e565b945060208601519350604086015192506060860151915061398c6080870161392e565b90509295509295909350565b6000602082840312156139aa57600080fd5b81518015158114612a8157600080fdfea2646970667358221220e7d2dc2aa499bed01b21f0e2eeff964d04bca1903c71c8fad68fddff9b808fd864736f6c634300080c0033",
  "devdoc": {
    "author": "Forked from here: https://github.com/Grandthrax/yearnV2-generic-lender-strat/blob/master/contracts/GenericLender/GenericCompound.sol",
    "kind": "dev",
    "methods": {
      "aprAfterDeposit(uint256)": {
        "params": {
          "amount": "Amount to add to the lending platform, and that we want to take into account in the apr computation"
        }
      },
      "changeAllowance(address[],address[],uint256[])": {
        "params": {
          "amounts": "Approval amounts for each address",
          "spenders": "Addresses to approve",
          "tokens": "Addresses of the tokens for which approvals should be made"
        }
      },
      "emergencyWithdraw(uint256)": {
        "details": "Does not check if any error occurs or if the amount withdrawn is correct",
        "params": {
          "amount": "Amount to withdraw"
        }
      },
      "getRoleAdmin(bytes32)": {
        "details": "Returns the admin role that controls `role`. See {grantRole} and {revokeRole}. To change a role's admin, use {_setRoleAdmin}."
      },
      "grantRole(bytes32,address)": {
        "details": "Grants `role` to `account`. If `account` had not been already granted `role`, emits a {RoleGranted} event. Requirements: - the caller must have ``role``'s admin role."
      },
      "hasAssets()": {
        "details": "We're considering that the strategy has no assets if it has less than 10 of the underlying asset in total to avoid the case where there is dust remaining on the lending market we cannot withdraw everything"
      },
      "hasRole(bytes32,address)": {
        "details": "Returns `true` if `account` has been granted `role`."
      },
      "initialize(address,string,address,address[],address,address[])": {
        "params": {
          "_cToken": "Address of the cToken",
          "_strategy": "Reference to the strategy using this lender",
          "governorList": "List of addresses with governor privilege",
          "guardian": "Address of the guardian",
          "keeperList": "List of addresses with keeper privilege"
        }
      },
      "recoverETH(address,uint256)": {
        "params": {
          "amount": "Amount to be recovered"
        }
      },
      "renounceRole(bytes32,address)": {
        "details": "Revokes `role` from the calling account. Roles are often managed via {grantRole} and {revokeRole}: this function's purpose is to provide a mechanism for accounts to lose their privileges if they are compromised (such as when a trusted device is misplaced). If the calling account had been granted `role`, emits a {RoleRevoked} event. Requirements: - the caller must be `account`."
      },
      "revokeRole(bytes32,address)": {
        "details": "Revokes `role` from `account`. If `account` had been granted `role`, emits a {RoleRevoked} event. Requirements: - the caller must have ``role``'s admin role."
      },
      "sellRewards(uint256,bytes)": {
        "details": "In the case of a contract lending to Aave, tokens swapped should typically be: _stkAave -> `want` or Aave -> `want`",
        "params": {
          "minAmountOut": "Minimum amount of `want` to receive for the swap to happen",
          "payload": "Bytes needed for 1Inch API"
        }
      },
      "setDust(uint256)": {
        "details": "Set in a function because contract was already initalized",
        "params": {
          "dust_": "Amount under which the contract do not try to redeem from Compouns"
        }
      },
      "sweep(address,address)": {
        "details": "Implement `_protectedTokens()` to specify any additional tokens that should be protected from sweeping in addition to `want`.",
        "params": {
          "_token": "The token to transfer out of this poolManager.",
          "to": "Address to send the tokens to."
        }
      },
      "withdraw(uint256)": {
        "params": {
          "amount": "The amount the caller wants to withdraw"
        },
        "returns": {
          "_0": "Amount actually withdrawn"
        }
      },
      "withdrawAll()": {
        "returns": {
          "_0": "Whether everything was withdrawn or not"
        }
      }
    },
    "title": "GenericCompoundV3",
    "version": 1
  },
  "userdoc": {
    "kind": "user",
    "methods": {
      "apr()": {
        "notice": "Returns an estimation of the current Annual Percentage Rate"
      },
      "aprAfterDeposit(uint256)": {
        "notice": "Returns an estimation of the current Annual Percentage Rate after a new deposit of `amount`"
      },
      "changeAllowance(address[],address[],uint256[])": {
        "notice": "Changes allowance of a set of tokens to addresses"
      },
      "deposit()": {
        "notice": "Deposits the current balance of the contract to the lending platform"
      },
      "emergencyWithdraw(uint256)": {
        "notice": "Withdraws as much as possible in case of emergency and sends it to the `PoolManager`"
      },
      "hasAssets()": {
        "notice": "Check if assets are currently managed by the lender"
      },
      "initialize(address,string,address,address[],address,address[])": {
        "notice": "Initializer of the `GenericCompound`"
      },
      "nav()": {
        "notice": "Helper function to get the current total of assets managed by the lender."
      },
      "poolManager()": {
        "notice": "Reference to the protocol's collateral poolManager"
      },
      "recoverETH(address,uint256)": {
        "notice": "Recovers ETH from the contract"
      },
      "sellRewards(uint256,bytes)": {
        "notice": "Swap earned _stkAave or Aave for `want` through 1Inch"
      },
      "setDust(uint256)": {
        "notice": "Allow to modify the dust amount"
      },
      "strategy()": {
        "notice": "Reference to the `Strategy`"
      },
      "sweep(address,address)": {
        "notice": "Removes tokens from this Strategy that are not the type of tokens managed by this Strategy. This may be used in case of accidentally sending the wrong kind of token to this Strategy. Tokens will be sent to `governance()`. This will fail if an attempt is made to sweep `want`, or any tokens that are protected by this Strategy. This may only be called by governance."
      },
      "underlyingBalanceStored()": {
        "notice": "Helper function the current balance of cTokens"
      },
      "want()": {
        "notice": "Reference to the token lent"
      },
      "wantBase()": {
        "notice": "Base of the asset handled by the lender"
      },
      "weightedApr()": {
        "notice": "Returns an estimation of the current Annual Percentage Rate weighted by a factor"
      },
      "withdraw(uint256)": {
        "notice": "Withdraws a given amount from lender"
      },
      "withdrawAll()": {
        "notice": "Withdraws as much as possible from the lending platform"
      }
    },
    "version": 1
  },
  "storageLayout": {
    "storage": [
      {
        "astId": 52,
        "contract": "contracts/strategies/OptimizerAPR/genericLender/GenericCompoundUpgradeable.sol:GenericCompoundUpgradeable",
        "label": "_initialized",
        "offset": 0,
        "slot": "0",
        "type": "t_bool"
      },
      {
        "astId": 55,
        "contract": "contracts/strategies/OptimizerAPR/genericLender/GenericCompoundUpgradeable.sol:GenericCompoundUpgradeable",
        "label": "_initializing",
        "offset": 1,
        "slot": "0",
        "type": "t_bool"
      },
      {
        "astId": 4126,
        "contract": "contracts/strategies/OptimizerAPR/genericLender/GenericCompoundUpgradeable.sol:GenericCompoundUpgradeable",
        "label": "_roles",
        "offset": 0,
        "slot": "1",
        "type": "t_mapping(t_bytes32,t_struct(RoleData)4121_storage)"
      },
      {
        "astId": 4412,
        "contract": "contracts/strategies/OptimizerAPR/genericLender/GenericCompoundUpgradeable.sol:GenericCompoundUpgradeable",
        "label": "__gap",
        "offset": 0,
        "slot": "2",
        "type": "t_array(t_uint256)49_storage"
      },
      {
        "astId": 19996,
        "contract": "contracts/strategies/OptimizerAPR/genericLender/GenericCompoundUpgradeable.sol:GenericCompoundUpgradeable",
        "label": "lenderName",
        "offset": 0,
        "slot": "51",
        "type": "t_string_storage"
      },
      {
        "astId": 20000,
        "contract": "contracts/strategies/OptimizerAPR/genericLender/GenericCompoundUpgradeable.sol:GenericCompoundUpgradeable",
        "label": "poolManager",
        "offset": 0,
        "slot": "52",
        "type": "t_contract(IPoolManager)4761"
      },
      {
        "astId": 20004,
        "contract": "contracts/strategies/OptimizerAPR/genericLender/GenericCompoundUpgradeable.sol:GenericCompoundUpgradeable",
        "label": "strategy",
        "offset": 0,
        "slot": "53",
        "type": "t_address"
      },
      {
        "astId": 20008,
        "contract": "contracts/strategies/OptimizerAPR/genericLender/GenericCompoundUpgradeable.sol:GenericCompoundUpgradeable",
        "label": "want",
        "offset": 0,
        "slot": "54",
        "type": "t_contract(IERC20)2114"
      },
      {
        "astId": 20011,
        "contract": "contracts/strategies/OptimizerAPR/genericLender/GenericCompoundUpgradeable.sol:GenericCompoundUpgradeable",
        "label": "wantBase",
        "offset": 0,
        "slot": "55",
        "type": "t_uint256"
      },
      {
        "astId": 20015,
        "contract": "contracts/strategies/OptimizerAPR/genericLender/GenericCompoundUpgradeable.sol:GenericCompoundUpgradeable",
        "label": "__gapBaseLender",
        "offset": 0,
        "slot": "56",
        "type": "t_array(t_uint256)45_storage"
      },
      {
        "astId": 19256,
        "contract": "contracts/strategies/OptimizerAPR/genericLender/GenericCompoundUpgradeable.sol:GenericCompoundUpgradeable",
        "label": "cToken",
        "offset": 0,
        "slot": "101",
        "type": "t_contract(CErc20I)6064"
      },
      {
        "astId": 19258,
        "contract": "contracts/strategies/OptimizerAPR/genericLender/GenericCompoundUpgradeable.sol:GenericCompoundUpgradeable",
        "label": "dust",
        "offset": 0,
        "slot": "102",
        "type": "t_uint256"
      }
    ],
    "types": {
      "t_address": {
        "encoding": "inplace",
        "label": "address",
        "numberOfBytes": "20"
      },
      "t_array(t_uint256)45_storage": {
        "base": "t_uint256",
        "encoding": "inplace",
        "label": "uint256[45]",
        "numberOfBytes": "1440"
      },
      "t_array(t_uint256)49_storage": {
        "base": "t_uint256",
        "encoding": "inplace",
        "label": "uint256[49]",
        "numberOfBytes": "1568"
      },
      "t_bool": {
        "encoding": "inplace",
        "label": "bool",
        "numberOfBytes": "1"
      },
      "t_bytes32": {
        "encoding": "inplace",
        "label": "bytes32",
        "numberOfBytes": "32"
      },
      "t_contract(CErc20I)6064": {
        "encoding": "inplace",
        "label": "contract CErc20I",
        "numberOfBytes": "20"
      },
      "t_contract(IERC20)2114": {
        "encoding": "inplace",
        "label": "contract IERC20",
        "numberOfBytes": "20"
      },
      "t_contract(IPoolManager)4761": {
        "encoding": "inplace",
        "label": "contract IPoolManager",
        "numberOfBytes": "20"
      },
      "t_mapping(t_address,t_bool)": {
        "encoding": "mapping",
        "key": "t_address",
        "label": "mapping(address => bool)",
        "numberOfBytes": "32",
        "value": "t_bool"
      },
      "t_mapping(t_bytes32,t_struct(RoleData)4121_storage)": {
        "encoding": "mapping",
        "key": "t_bytes32",
        "label": "mapping(bytes32 => struct AccessControlAngleUpgradeable.RoleData)",
        "numberOfBytes": "32",
        "value": "t_struct(RoleData)4121_storage"
      },
      "t_string_storage": {
        "encoding": "bytes",
        "label": "string",
        "numberOfBytes": "32"
      },
      "t_struct(RoleData)4121_storage": {
        "encoding": "inplace",
        "label": "struct AccessControlAngleUpgradeable.RoleData",
        "members": [
          {
            "astId": 4118,
            "contract": "contracts/strategies/OptimizerAPR/genericLender/GenericCompoundUpgradeable.sol:GenericCompoundUpgradeable",
            "label": "members",
            "offset": 0,
            "slot": "0",
            "type": "t_mapping(t_address,t_bool)"
          },
          {
            "astId": 4120,
            "contract": "contracts/strategies/OptimizerAPR/genericLender/GenericCompoundUpgradeable.sol:GenericCompoundUpgradeable",
            "label": "adminRole",
            "offset": 0,
            "slot": "1",
            "type": "t_bytes32"
          }
        ],
        "numberOfBytes": "64"
      },
      "t_uint256": {
        "encoding": "inplace",
        "label": "uint256",
        "numberOfBytes": "32"
      }
    }
  }
}