{
  "address": "0x3899D92041401eB127886689924d637Fc28a5B6F",
  "abi": [
    {
      "anonymous": false,
      "inputs": [],
      "name": "EmergencyExitActivated",
      "type": "event"
    },
    {
      "anonymous": false,
      "inputs": [
        {
          "indexed": false,
          "internalType": "uint256",
          "name": "profit",
          "type": "uint256"
        },
        {
          "indexed": false,
          "internalType": "uint256",
          "name": "loss",
          "type": "uint256"
        },
        {
          "indexed": false,
          "internalType": "uint256",
          "name": "debtPayment",
          "type": "uint256"
        },
        {
          "indexed": false,
          "internalType": "uint256",
          "name": "debtOutstanding",
          "type": "uint256"
        }
      ],
      "name": "Harvested",
      "type": "event"
    },
    {
      "anonymous": false,
      "inputs": [
        {
          "indexed": true,
          "internalType": "bytes32",
          "name": "role",
          "type": "bytes32"
        },
        {
          "indexed": true,
          "internalType": "bytes32",
          "name": "previousAdminRole",
          "type": "bytes32"
        },
        {
          "indexed": true,
          "internalType": "bytes32",
          "name": "newAdminRole",
          "type": "bytes32"
        }
      ],
      "name": "RoleAdminChanged",
      "type": "event"
    },
    {
      "anonymous": false,
      "inputs": [
        {
          "indexed": true,
          "internalType": "bytes32",
          "name": "role",
          "type": "bytes32"
        },
        {
          "indexed": true,
          "internalType": "address",
          "name": "account",
          "type": "address"
        },
        {
          "indexed": true,
          "internalType": "address",
          "name": "sender",
          "type": "address"
        }
      ],
      "name": "RoleGranted",
      "type": "event"
    },
    {
      "anonymous": false,
      "inputs": [
        {
          "indexed": true,
          "internalType": "bytes32",
          "name": "role",
          "type": "bytes32"
        },
        {
          "indexed": true,
          "internalType": "address",
          "name": "account",
          "type": "address"
        },
        {
          "indexed": true,
          "internalType": "address",
          "name": "sender",
          "type": "address"
        }
      ],
      "name": "RoleRevoked",
      "type": "event"
    },
    {
      "anonymous": false,
      "inputs": [
        {
          "indexed": false,
          "internalType": "uint256",
          "name": "debtThreshold",
          "type": "uint256"
        }
      ],
      "name": "UpdatedDebtThreshold",
      "type": "event"
    },
    {
      "anonymous": false,
      "inputs": [
        {
          "indexed": false,
          "internalType": "bool",
          "name": "activated",
          "type": "bool"
        }
      ],
      "name": "UpdatedIsRewardActivated",
      "type": "event"
    },
    {
      "anonymous": false,
      "inputs": [
        {
          "indexed": false,
          "internalType": "uint256",
          "name": "delay",
          "type": "uint256"
        }
      ],
      "name": "UpdatedMaxReportDelayed",
      "type": "event"
    },
    {
      "anonymous": false,
      "inputs": [
        {
          "indexed": false,
          "internalType": "uint256",
          "name": "delay",
          "type": "uint256"
        }
      ],
      "name": "UpdatedMinReportDelayed",
      "type": "event"
    },
    {
      "anonymous": false,
      "inputs": [
        {
          "indexed": false,
          "internalType": "uint256",
          "name": "_rewardAmount",
          "type": "uint256"
        },
        {
          "indexed": false,
          "internalType": "uint256",
          "name": "_minimumAmountMoved",
          "type": "uint256"
        }
      ],
      "name": "UpdatedRewardAmountAndMinimumAmountMoved",
      "type": "event"
    },
    {
      "anonymous": false,
      "inputs": [
        {
          "indexed": false,
          "internalType": "address",
          "name": "rewards",
          "type": "address"
        }
      ],
      "name": "UpdatedRewards",
      "type": "event"
    },
    {
      "inputs": [],
      "name": "BASE",
      "outputs": [
        {
          "internalType": "uint256",
          "name": "",
          "type": "uint256"
        }
      ],
      "stateMutability": "view",
      "type": "function"
    },
    {
      "inputs": [],
      "name": "DEFAULT_ADMIN_ROLE",
      "outputs": [
        {
          "internalType": "bytes32",
          "name": "",
          "type": "bytes32"
        }
      ],
      "stateMutability": "view",
      "type": "function"
    },
    {
      "inputs": [],
      "name": "DENOMINATOR",
      "outputs": [
        {
          "internalType": "uint256",
          "name": "",
          "type": "uint256"
        }
      ],
      "stateMutability": "view",
      "type": "function"
    },
    {
      "inputs": [],
      "name": "GUARDIAN_ROLE",
      "outputs": [
        {
          "internalType": "bytes32",
          "name": "",
          "type": "bytes32"
        }
      ],
      "stateMutability": "view",
      "type": "function"
    },
    {
      "inputs": [],
      "name": "KEEPER_ROLE",
      "outputs": [
        {
          "internalType": "bytes32",
          "name": "",
          "type": "bytes32"
        }
      ],
      "stateMutability": "view",
      "type": "function"
    },
    {
      "inputs": [],
      "name": "POOLMANAGER_ROLE",
      "outputs": [
        {
          "internalType": "bytes32",
          "name": "",
          "type": "bytes32"
        }
      ],
      "stateMutability": "view",
      "type": "function"
    },
    {
      "inputs": [],
      "name": "SECONDSPERYEAR",
      "outputs": [
        {
          "internalType": "uint256",
          "name": "",
          "type": "uint256"
        }
      ],
      "stateMutability": "view",
      "type": "function"
    },
    {
      "inputs": [
        {
          "internalType": "address",
          "name": "_guardian",
          "type": "address"
        }
      ],
      "name": "addGuardian",
      "outputs": [],
      "stateMutability": "nonpayable",
      "type": "function"
    },
    {
      "inputs": [],
      "name": "apr",
      "outputs": [
        {
          "internalType": "uint256",
          "name": "",
          "type": "uint256"
        }
      ],
      "stateMutability": "view",
      "type": "function"
    },
    {
      "inputs": [],
      "name": "debtThreshold",
      "outputs": [
        {
          "internalType": "uint256",
          "name": "",
          "type": "uint256"
        }
      ],
      "stateMutability": "view",
      "type": "function"
    },
    {
      "inputs": [],
      "name": "emergencyExit",
      "outputs": [
        {
          "internalType": "bool",
          "name": "",
          "type": "bool"
        }
      ],
      "stateMutability": "view",
      "type": "function"
    },
    {
      "inputs": [],
      "name": "estimatedAPR",
      "outputs": [
        {
          "internalType": "uint256",
          "name": "",
          "type": "uint256"
        }
      ],
      "stateMutability": "view",
      "type": "function"
    },
    {
      "inputs": [],
      "name": "estimatedTotalAssets",
      "outputs": [
        {
          "internalType": "uint256",
          "name": "",
          "type": "uint256"
        }
      ],
      "stateMutability": "view",
      "type": "function"
    },
    {
      "inputs": [
        {
          "internalType": "bytes32",
          "name": "role",
          "type": "bytes32"
        }
      ],
      "name": "getRoleAdmin",
      "outputs": [
        {
          "internalType": "bytes32",
          "name": "",
          "type": "bytes32"
        }
      ],
      "stateMutability": "view",
      "type": "function"
    },
    {
      "inputs": [
        {
          "internalType": "bytes32",
          "name": "role",
          "type": "bytes32"
        },
        {
          "internalType": "address",
          "name": "account",
          "type": "address"
        }
      ],
      "name": "grantRole",
      "outputs": [],
      "stateMutability": "nonpayable",
      "type": "function"
    },
    {
      "inputs": [],
      "name": "harvest",
      "outputs": [],
      "stateMutability": "nonpayable",
      "type": "function"
    },
    {
      "inputs": [
        {
          "internalType": "uint256",
          "name": "borrowInit",
          "type": "uint256"
        }
      ],
      "name": "harvest",
      "outputs": [],
      "stateMutability": "nonpayable",
      "type": "function"
    },
    {
      "inputs": [
        {
          "internalType": "bytes32",
          "name": "role",
          "type": "bytes32"
        },
        {
          "internalType": "address",
          "name": "account",
          "type": "address"
        }
      ],
      "name": "hasRole",
      "outputs": [
        {
          "internalType": "bool",
          "name": "",
          "type": "bool"
        }
      ],
      "stateMutability": "view",
      "type": "function"
    },
    {
      "inputs": [
        {
          "internalType": "address",
          "name": "_poolManager",
          "type": "address"
        },
        {
          "internalType": "address",
          "name": "governor",
          "type": "address"
        },
        {
          "internalType": "address",
          "name": "guardian",
          "type": "address"
        },
        {
          "internalType": "address[]",
          "name": "keepers",
          "type": "address[]"
        },
        {
          "internalType": "address",
          "name": "_stableSwapSTETH",
          "type": "address"
        },
        {
          "internalType": "address",
          "name": "_weth",
          "type": "address"
        },
        {
          "internalType": "contract ISteth",
          "name": "_stETH",
          "type": "address"
        },
        {
          "internalType": "uint256",
          "name": "_apr",
          "type": "uint256"
        }
      ],
      "name": "initialize",
      "outputs": [],
      "stateMutability": "nonpayable",
      "type": "function"
    },
    {
      "inputs": [
        {
          "internalType": "uint256",
          "name": "_amount",
          "type": "uint256"
        }
      ],
      "name": "invest",
      "outputs": [],
      "stateMutability": "nonpayable",
      "type": "function"
    },
    {
      "inputs": [],
      "name": "isActive",
      "outputs": [
        {
          "internalType": "bool",
          "name": "",
          "type": "bool"
        }
      ],
      "stateMutability": "view",
      "type": "function"
    },
    {
      "inputs": [],
      "name": "maxSingleTrade",
      "outputs": [
        {
          "internalType": "uint256",
          "name": "",
          "type": "uint256"
        }
      ],
      "stateMutability": "view",
      "type": "function"
    },
    {
      "inputs": [],
      "name": "poolManager",
      "outputs": [
        {
          "internalType": "contract IPoolManager",
          "name": "",
          "type": "address"
        }
      ],
      "stateMutability": "view",
      "type": "function"
    },
    {
      "inputs": [
        {
          "internalType": "bytes32",
          "name": "role",
          "type": "bytes32"
        },
        {
          "internalType": "address",
          "name": "account",
          "type": "address"
        }
      ],
      "name": "renounceRole",
      "outputs": [],
      "stateMutability": "nonpayable",
      "type": "function"
    },
    {
      "inputs": [],
      "name": "rescueStuckEth",
      "outputs": [],
      "stateMutability": "nonpayable",
      "type": "function"
    },
    {
      "inputs": [
        {
          "internalType": "address",
          "name": "guardian",
          "type": "address"
        }
      ],
      "name": "revokeGuardian",
      "outputs": [],
      "stateMutability": "nonpayable",
      "type": "function"
    },
    {
      "inputs": [
        {
          "internalType": "bytes32",
          "name": "role",
          "type": "bytes32"
        },
        {
          "internalType": "address",
          "name": "account",
          "type": "address"
        }
      ],
      "name": "revokeRole",
      "outputs": [],
      "stateMutability": "nonpayable",
      "type": "function"
    },
    {
      "inputs": [
        {
          "internalType": "uint256",
          "name": "_apr",
          "type": "uint256"
        }
      ],
      "name": "setApr",
      "outputs": [],
      "stateMutability": "nonpayable",
      "type": "function"
    },
    {
      "inputs": [
        {
          "internalType": "uint256",
          "name": "_debtThreshold",
          "type": "uint256"
        }
      ],
      "name": "setDebtThreshold",
      "outputs": [],
      "stateMutability": "nonpayable",
      "type": "function"
    },
    {
      "inputs": [],
      "name": "setEmergencyExit",
      "outputs": [],
      "stateMutability": "nonpayable",
      "type": "function"
    },
    {
      "inputs": [],
      "name": "slippageProtectionOut",
      "outputs": [
        {
          "internalType": "uint256",
          "name": "",
          "type": "uint256"
        }
      ],
      "stateMutability": "view",
      "type": "function"
    },
    {
      "inputs": [],
      "name": "stETH",
      "outputs": [
        {
          "internalType": "contract ISteth",
          "name": "",
          "type": "address"
        }
      ],
      "stateMutability": "view",
      "type": "function"
    },
    {
      "inputs": [],
      "name": "stableSwapSTETH",
      "outputs": [
        {
          "internalType": "contract IStableSwapPool",
          "name": "",
          "type": "address"
        }
      ],
      "stateMutability": "view",
      "type": "function"
    },
    {
      "inputs": [],
      "name": "stethBalance",
      "outputs": [
        {
          "internalType": "uint256",
          "name": "",
          "type": "uint256"
        }
      ],
      "stateMutability": "view",
      "type": "function"
    },
    {
      "inputs": [
        {
          "internalType": "address",
          "name": "_token",
          "type": "address"
        },
        {
          "internalType": "address",
          "name": "to",
          "type": "address"
        }
      ],
      "name": "sweep",
      "outputs": [],
      "stateMutability": "nonpayable",
      "type": "function"
    },
    {
      "inputs": [
        {
          "internalType": "uint256",
          "name": "_maxSingleTrade",
          "type": "uint256"
        }
      ],
      "name": "updateMaxSingleTrade",
      "outputs": [],
      "stateMutability": "nonpayable",
      "type": "function"
    },
    {
      "inputs": [
        {
          "internalType": "address",
          "name": "newReferral",
          "type": "address"
        }
      ],
      "name": "updateReferral",
      "outputs": [],
      "stateMutability": "nonpayable",
      "type": "function"
    },
    {
      "inputs": [
        {
          "internalType": "uint256",
          "name": "_slippageProtectionOut",
          "type": "uint256"
        }
      ],
      "name": "updateSlippageProtectionOut",
      "outputs": [],
      "stateMutability": "nonpayable",
      "type": "function"
    },
    {
      "inputs": [],
      "name": "want",
      "outputs": [
        {
          "internalType": "contract IERC20",
          "name": "",
          "type": "address"
        }
      ],
      "stateMutability": "view",
      "type": "function"
    },
    {
      "inputs": [],
      "name": "wantBalance",
      "outputs": [
        {
          "internalType": "uint256",
          "name": "",
          "type": "uint256"
        }
      ],
      "stateMutability": "view",
      "type": "function"
    },
    {
      "inputs": [],
      "name": "wantBase",
      "outputs": [
        {
          "internalType": "uint256",
          "name": "",
          "type": "uint256"
        }
      ],
      "stateMutability": "view",
      "type": "function"
    },
    {
      "inputs": [],
      "name": "weth",
      "outputs": [
        {
          "internalType": "contract IWETH9",
          "name": "",
          "type": "address"
        }
      ],
      "stateMutability": "view",
      "type": "function"
    },
    {
      "inputs": [
        {
          "internalType": "uint256",
          "name": "_amountNeeded",
          "type": "uint256"
        }
      ],
      "name": "withdraw",
      "outputs": [
        {
          "internalType": "uint256",
          "name": "amountFreed",
          "type": "uint256"
        },
        {
          "internalType": "uint256",
          "name": "_loss",
          "type": "uint256"
        }
      ],
      "stateMutability": "nonpayable",
      "type": "function"
    },
    {
      "stateMutability": "payable",
      "type": "receive"
    }
  ],
  "transactionHash": "0x21828bc23452127a76f3b8a4af9413494b823769d9b05c4a90f9e1111c8bd61b",
  "args": [],
  "numDeployments": 1,
  "solcInputHash": "9094c892ceec1568a20f6e248d614272",
  "bytecode": "0x6080604052603c80546001600160a01b03191673dc4e6dfe07efca50a197df15d9200883ef4eb1c81790553480156200003757600080fd5b50600054610100900460ff16620000555760005460ff16156200005f565b6200005f62000104565b620000c75760405162461bcd60e51b815260206004820152602e60248201527f496e697469616c697a61626c653a20636f6e747261637420697320616c72656160448201526d191e481a5b9a5d1a585b1a5e995960921b606482015260840160405180910390fd5b600054610100900460ff16158015620000ea576000805461ffff19166101011790555b8015620000fd576000805461ff00191690555b5062000131565b60006200011c306200012260201b6200115c1760201c565b15905090565b6001600160a01b03163b151590565b612c1680620001416000396000f3fe6080604052600436106102e05760003560e01c806357ded9c911610184578063b8dc491b116100d6578063dc4c90d31161008a578063ec342ad011610064578063ec342ad0146107f4578063efbb5cb014610810578063fcf2d0ad1461082557600080fd5b8063dc4c90d314610794578063ddc63262146107b4578063df426a5f146107d457600080fd5b8063c1fe3e48116100bb578063c1fe3e481461073e578063c90b65de1461075e578063d547741f1461077457600080fd5b8063b8dc491b14610708578063c1a1bb771461072857600080fd5b8063918f867411610138578063a526d83b11610112578063a526d83b146106b0578063af306e16146106d0578063af648c3d146106e857600080fd5b8063918f86741461066557806391d148541461067b578063a217fddf1461069b57600080fd5b80635a5cd45e116101695780635a5cd45e1461061b578063773f400e146106305780637b6466b21461065057600080fd5b806357ded9c9146105e557806359cee29c146105fb57600080fd5b80632e1a7d4d1161023d5780633aa06443116101f15780634641257d116101cb5780634641257d14610596578063510feb6e146105ab5780635641ec03146105cb57600080fd5b80633aa06443146105415780633b611e00146105615780633fc8cef31461057657600080fd5b806335f8e9a31161022257806335f8e9a3146104cd578063364bc15a146104ed57806336568abe1461052157600080fd5b80632e1a7d4d146104785780632f2ff15d146104ad57600080fd5b80631f1fcd5111610294578063248a9ca311610279578063248a9ca3146103f357806324ea54f4146104245780632afcf4801461045857600080fd5b80631f1fcd511461039657806322f3e2d4146103ce57600080fd5b80630f969b87116102c55780630f969b8714610349578063126f5c5e1461036b5780631d12f28b1461038057600080fd5b80630b6d1d17146102ec5780630c016dc01461031557600080fd5b366102e757005b600080fd5b3480156102f857600080fd5b5061030260355481565b6040519081526020015b60405180910390f35b34801561032157600080fd5b506103027f5916f72c85af4ac6f7e34636ecc97619c4b2085da099a5d28f3e58436cfbe56281565b34801561035557600080fd5b50610369610364366004612624565b61083a565b005b34801561037757600080fd5b506103026108a1565b34801561038c57600080fd5b5061030260365481565b3480156103a257600080fd5b506034546103b6906001600160a01b031681565b6040516001600160a01b03909116815260200161030c565b3480156103da57600080fd5b506103e361092d565b604051901515815260200161030c565b3480156103ff57600080fd5b5061030261040e366004612624565b6000908152600160208190526040909120015490565b34801561043057600080fd5b506103027f55435dd261a4b9b3364963f7738a7a662ad9c84396d64be3365284bb7f0a504181565b34801561046457600080fd5b50610369610473366004612624565b61093e565b34801561048457600080fd5b50610498610493366004612624565b61099c565b6040805192835260208301919091520161030c565b3480156104b957600080fd5b506103696104c8366004612662565b6109f5565b3480156104d957600080fd5b506103696104e83660046126d9565b610a21565b3480156104f957600080fd5b506103027ffc8737ab85eb45125971625a9ebdb75cc78e01d5c1fa80c4c6e5203f47bc4fab81565b34801561052d57600080fd5b5061036961053c366004612662565b610b89565b34801561054d57600080fd5b5061036961055c366004612624565b610bef565b34801561056d57600080fd5b50610369610c20565b34801561058257600080fd5b50603a546103b6906001600160a01b031681565b3480156105a257600080fd5b50610369610cb7565b3480156105b757600080fd5b506103696105c6366004612624565b610cc9565b3480156105d757600080fd5b506037546103e39060ff1681565b3480156105f157600080fd5b5061030260385481565b34801561060757600080fd5b50610369610616366004612624565b610cfa565b34801561062757600080fd5b50603854610302565b34801561063c57600080fd5b5061036961064b366004612801565b610d2b565b34801561065c57600080fd5b50610302610d91565b34801561067157600080fd5b5061030261271081565b34801561068757600080fd5b506103e3610696366004612662565b610ddb565b3480156106a757600080fd5b50610302600081565b3480156106bc57600080fd5b506103696106cb366004612801565b610e08565b3480156106dc57600080fd5b506103026301e1855881565b3480156106f457600080fd5b50610369610703366004612801565b610e5d565b34801561071457600080fd5b5061036961072336600461281e565b610eb2565b34801561073457600080fd5b50610302603d5481565b34801561074a57600080fd5b50603b546103b6906001600160a01b031681565b34801561076a57600080fd5b50610302603e5481565b34801561078057600080fd5b5061036961078f366004612662565b611079565b3480156107a057600080fd5b506033546103b6906001600160a01b031681565b3480156107c057600080fd5b506103696107cf366004612624565b6110a0565b3480156107e057600080fd5b506039546103b6906001600160a01b031681565b34801561080057600080fd5b50610302670de0b6b3a764000081565b34801561081c57600080fd5b506103026110dc565b34801561083157600080fd5b506103696110f8565b7f55435dd261a4b9b3364963f7738a7a662ad9c84396d64be3365284bb7f0a5041610865813361116b565b60368290556040518281527fa68ba126373d04c004c5748c300c9fca12bd444b3d4332e261f3bd2bac4a86009060200160405180910390a15050565b603b546040517f70a082310000000000000000000000000000000000000000000000000000000081523060048201526000916001600160a01b0316906370a08231906024015b602060405180830381865afa158015610904573d6000803e3d6000fd5b505050506040513d601f19601f82011682018060405250810190610928919061284c565b905090565b6000806109386110dc565b11905090565b7f55435dd261a4b9b3364963f7738a7a662ad9c84396d64be3365284bb7f0a5041610969813361116b565b81610972610d91565b101561097d57600080fd5b600061098b603d54846111cf565b9050610996816111e7565b50505050565b6000807f5916f72c85af4ac6f7e34636ecc97619c4b2085da099a5d28f3e58436cfbe5626109ca813361116b565b6109d384611448565b60345491945092506109ef906001600160a01b031633856114a4565b50915091565b60008281526001602081905260409091200154610a12813361116b565b610a1c838361154d565b505050565b610a2d888888886115b8565b6034546001600160a01b03848116911614610a8f5760405162461bcd60e51b815260206004820152600260248201527f323000000000000000000000000000000000000000000000000000000000000060448201526064015b60405180910390fd5b603980547fffffffffffffffffffffffff00000000000000000000000000000000000000009081166001600160a01b03878116918217909355603a80548316878516179055603b805490921692851692831790915560388390556040517f095ea7b30000000000000000000000000000000000000000000000000000000081526004810191909152600019602482015263095ea7b3906044016020604051808303816000875af1158015610b47573d6000803e3d6000fd5b505050506040513d601f19601f82011682018060405250810190610b6b9190612865565b505069021e19e0c9bab2400000603d555050601e603e555050505050565b6001600160a01b0381163314610be15760405162461bcd60e51b815260206004820152600260248201527f37310000000000000000000000000000000000000000000000000000000000006044820152606401610a86565b610beb8282611b0c565b5050565b7f55435dd261a4b9b3364963f7738a7a662ad9c84396d64be3365284bb7f0a5041610c1a813361116b565b50603d55565b7f55435dd261a4b9b3364963f7738a7a662ad9c84396d64be3365284bb7f0a5041610c4b813361116b565b603a60009054906101000a90046001600160a01b03166001600160a01b031663d0e30db0476040518263ffffffff1660e01b81526004016000604051808303818588803b158015610c9b57600080fd5b505af1158015610caf573d6000803e3d6000fd5b505050505050565b610cbf611b73565b610cc7611d30565b565b7f55435dd261a4b9b3364963f7738a7a662ad9c84396d64be3365284bb7f0a5041610cf4813361116b565b50603e55565b7f55435dd261a4b9b3364963f7738a7a662ad9c84396d64be3365284bb7f0a5041610d25813361116b565b50603855565b7f55435dd261a4b9b3364963f7738a7a662ad9c84396d64be3365284bb7f0a5041610d56813361116b565b50603c80547fffffffffffffffffffffffff0000000000000000000000000000000000000000166001600160a01b0392909216919091179055565b6034546040517f70a082310000000000000000000000000000000000000000000000000000000081523060048201526000916001600160a01b0316906370a08231906024016108e7565b60008281526001602090815260408083206001600160a01b038516845290915290205460ff165b92915050565b7f5916f72c85af4ac6f7e34636ecc97619c4b2085da099a5d28f3e58436cfbe562610e33813361116b565b610beb7f55435dd261a4b9b3364963f7738a7a662ad9c84396d64be3365284bb7f0a50418361154d565b7f5916f72c85af4ac6f7e34636ecc97619c4b2085da099a5d28f3e58436cfbe562610e88813361116b565b610beb7f55435dd261a4b9b3364963f7738a7a662ad9c84396d64be3365284bb7f0a504183611b0c565b7f55435dd261a4b9b3364963f7738a7a662ad9c84396d64be3365284bb7f0a5041610edd813361116b565b6034546001600160a01b0384811691161415610f3b5760405162461bcd60e51b815260206004820152600260248201527f39330000000000000000000000000000000000000000000000000000000000006044820152606401610a86565b6000610f45611d5e565b905060005b8151811015610fe057818181518110610f6557610f65612887565b60200260200101516001600160a01b0316856001600160a01b03161415610fce5760405162461bcd60e51b815260206004820152600260248201527f39330000000000000000000000000000000000000000000000000000000000006044820152606401610a86565b80610fd8816128b3565b915050610f4a565b506040517f70a082310000000000000000000000000000000000000000000000000000000081523060048201526109969084906001600160a01b038716906370a0823190602401602060405180830381865afa158015611044573d6000803e3d6000fd5b505050506040513d601f19601f82011682018060405250810190611068919061284c565b6001600160a01b03871691906114a4565b60008281526001602081905260409091200154611096813361116b565b610a1c8383611b0c565b7ffc8737ab85eb45125971625a9ebdb75cc78e01d5c1fa80c4c6e5203f47bc4fab6110cb813361116b565b6110d3611b73565b610beb82611dc1565b60006110e6610d91565b6110ee6108a1565b61092891906128ce565b7f5916f72c85af4ac6f7e34636ecc97619c4b2085da099a5d28f3e58436cfbe562611123813361116b565b6037805460ff191660011790556040517f17fa25a1c2ac074f71f0cf4f6af525c06fab7d83eff5ffcf6df5277f2919ae2490600090a150565b6001600160a01b03163b151590565b6111758282610ddb565b610beb5761118d816001600160a01b03166014611dc9565b611198836020611dc9565b6040516020016111a9929190612912565b60408051601f198184030181529082905262461bcd60e51b8252610a8691600401612993565b60008183106111de57816111e0565b825b9392505050565b6000806111f26108a1565b603a546040517f2e1a7d4d000000000000000000000000000000000000000000000000000000008152600481018690529192506001600160a01b031690632e1a7d4d90602401600060405180830381600087803b15801561125257600080fd5b505af1158015611266573d6000803e3d6000fd5b50506039546040517f5e0d443f000000000000000000000000000000000000000000000000000000008152600060048201819052600160248301526044820188905293506001600160a01b039091169150635e0d443f90606401602060405180830381865afa1580156112dd573d6000803e3d6000fd5b505050506040513d601f19601f82011682018060405250810190611301919061284c565b90508381101561139e57603b54603c546040517fa1903eab0000000000000000000000000000000000000000000000000000000081526001600160a01b03918216600482015291169063a1903eab90869060240160206040518083038185885af1158015611373573d6000803e3d6000fd5b50505050506040513d601f19601f82011682018060405250810190611398919061284c565b5061142d565b6039546040517f3df02124000000000000000000000000000000000000000000000000000000008152600060048201526001602482015260448101869052606481018690526001600160a01b0390911690633df021249086906084016000604051808303818588803b15801561141357600080fd5b505af1158015611427573d6000803e3d6000fd5b50505050505b816114366108a1565b61144091906129c6565b949350505050565b6000806000611455610d91565b90508381101561149257600061146b82866129c6565b9050600061147882611ff2565b90508181101561148f5761148c81836129c6565b93505b50505b61149c82856129c6565b925050915091565b6040516001600160a01b038316602482015260448101829052610a1c9084907fa9059cbb00000000000000000000000000000000000000000000000000000000906064015b60408051601f198184030181529190526020810180517bffffffffffffffffffffffffffffffffffffffffffffffffffffffff167fffffffff0000000000000000000000000000000000000000000000000000000090931692909217909152612127565b6115578282610ddb565b610beb5760008281526001602081815260408084206001600160a01b0386168086529252808420805460ff19169093179092559051339285917f2f8788117e7eff1d82e926ec794901d17c78024a50270940304540a733656f0d9190a45050565b600054610100900460ff166115d35760005460ff16156115d7565b303b155b6116495760405162461bcd60e51b815260206004820152602e60248201527f496e697469616c697a61626c653a20636f6e747261637420697320616c72656160448201527f647920696e697469616c697a65640000000000000000000000000000000000006064820152608401610a86565b600054610100900460ff1615801561168857600080547fffffffffffffffffffffffffffffffffffffffffffffffffffffffffffff0000166101011790555b603380547fffffffffffffffffffffffff0000000000000000000000000000000000000000166001600160a01b038716908117909155604080517ffc0c546a000000000000000000000000000000000000000000000000000000008152905163fc0c546a916004808201926020929091908290030181865afa158015611712573d6000803e3d6000fd5b505050506040513d601f19601f8201168201806040525081019061173691906129dd565b603480547fffffffffffffffffffffffff0000000000000000000000000000000000000000166001600160a01b03929092169182179055604080517f313ce567000000000000000000000000000000000000000000000000000000008152905163313ce567916004808201926020929091908290030181865afa1580156117c1573d6000803e3d6000fd5b505050506040513d601f19601f820116820180604052508101906117e591906129fa565b6117f090600a612b01565b6035556001600160a01b0383161580159061181357506001600160a01b03841615155b80156118315750826001600160a01b0316846001600160a01b031614155b61187d5760405162461bcd60e51b815260206004820152600160248201527f30000000000000000000000000000000000000000000000000000000000000006044820152606401610a86565b6118a77f55435dd261a4b9b3364963f7738a7a662ad9c84396d64be3365284bb7f0a50418461220c565b6118d17f55435dd261a4b9b3364963f7738a7a662ad9c84396d64be3365284bb7f0a50418561220c565b6118fb7f5916f72c85af4ac6f7e34636ecc97619c4b2085da099a5d28f3e58436cfbe5628661220c565b6119257f5916f72c85af4ac6f7e34636ecc97619c4b2085da099a5d28f3e58436cfbe56280612216565b61196f7f55435dd261a4b9b3364963f7738a7a662ad9c84396d64be3365284bb7f0a50417f5916f72c85af4ac6f7e34636ecc97619c4b2085da099a5d28f3e58436cfbe562612216565b60005b8251811015611a4c5760006001600160a01b031683828151811061199857611998612887565b60200260200101516001600160a01b031614156119f75760405162461bcd60e51b815260206004820152600160248201527f30000000000000000000000000000000000000000000000000000000000000006044820152606401610a86565b611a3a7ffc8737ab85eb45125971625a9ebdb75cc78e01d5c1fa80c4c6e5203f47bc4fab848381518110611a2d57611a2d612887565b602002602001015161220c565b80611a44816128b3565b915050611972565b50611a977ffc8737ab85eb45125971625a9ebdb75cc78e01d5c1fa80c4c6e5203f47bc4fab7f55435dd261a4b9b3364963f7738a7a662ad9c84396d64be3365284bb7f0a5041612216565b611aaa670de0b6b3a76400006064612b10565b6036556037805460ff19169055603354603454611ad6916001600160a01b03918216911660001961226d565b8015611b0557600080547fffffffffffffffffffffffffffffffffffffffffffffffffffffffffffff00ff1690555b5050505050565b611b168282610ddb565b15610beb5760008281526001602090815260408083206001600160a01b0385168085529252808320805460ff1916905551339285917ff6391f5c32d9c69d2a47ea670b442974b53935d1edc7fd64eb21e047a839171b9190a45050565b6000806000603360009054906101000a90046001600160a01b03166001600160a01b031663bf3759b56040518163ffffffff1660e01b8152600401602060405180830381865afa158015611bcb573d6000803e3d6000fd5b505050506040513d601f19601f82011682018060405250810190611bef919061284c565b60375490915060009060ff1615611c4c576000611c0a612351565b905082811015611c2557611c1e81846129c6565b9350611c3a565b82811115611c3a57611c3783826129c6565b94505b611c4484846129c6565b915050611c5d565b611c558261236c565b919550935090505b6040805185815260208101859052908101829052606081018390527f4c0f499ffe6befa0ca7c826b0916cf87bea98de658013e76938489368d60d5099060800160405180910390a16033546040517fa1d9bafc0000000000000000000000000000000000000000000000000000000081526004810186905260248101859052604481018390526001600160a01b039091169063a1d9bafc90606401600060405180830381600087803b158015611d1257600080fd5b505af1158015611d26573d6000803e3d6000fd5b5050505050505050565b6000611d3a610d91565b90508015611d5b576000611d50603d54836111cf565b9050610a1c816111e7565b50565b60408051600180825281830190925260609160009190602080830190803683375050603b5482519293506001600160a01b031691839150600090611da457611da4612887565b6001600160a01b0390921660209283029190910190910152919050565b611d5b611d30565b60606000611dd8836002612b10565b611de39060026128ce565b67ffffffffffffffff811115611dfb57611dfb612692565b6040519080825280601f01601f191660200182016040528015611e25576020820181803683370190505b5090507f300000000000000000000000000000000000000000000000000000000000000081600081518110611e5c57611e5c612887565b60200101907effffffffffffffffffffffffffffffffffffffffffffffffffffffffffffff1916908160001a9053507f780000000000000000000000000000000000000000000000000000000000000081600181518110611ebf57611ebf612887565b60200101907effffffffffffffffffffffffffffffffffffffffffffffffffffffffffffff1916908160001a9053506000611efb846002612b10565b611f069060016128ce565b90505b6001811115611fa3577f303132333435363738396162636465660000000000000000000000000000000085600f1660108110611f4757611f47612887565b1a60f81b828281518110611f5d57611f5d612887565b60200101907effffffffffffffffffffffffffffffffffffffffffffffffffffffffffffff1916908160001a90535060049490941c93611f9c81612b2f565b9050611f09565b5083156111e05760405162461bcd60e51b815260206004820181905260248201527f537472696e67733a20686578206c656e67746820696e73756666696369656e746044820152606401610a86565b600080611ffd610d91565b90506000612710603e5461271061201491906129c6565b61201e9086612b10565b6120289190612b46565b6039546040517f3df02124000000000000000000000000000000000000000000000000000000008152600160048201526000602482015260448101879052606481018390529192506001600160a01b031690633df0212490608401600060405180830381600087803b15801561209d57600080fd5b505af11580156120b1573d6000803e3d6000fd5b50505050603a60009054906101000a90046001600160a01b03166001600160a01b031663d0e30db0476040518263ffffffff1660e01b81526004016000604051808303818588803b15801561210557600080fd5b505af1158015612119573d6000803e3d6000fd5b505050505081611436610d91565b600061217c826040518060400160405280602081526020017f5361666545524332303a206c6f772d6c6576656c2063616c6c206661696c6564815250856001600160a01b03166125109092919063ffffffff16565b805190915015610a1c578080602001905181019061219a9190612865565b610a1c5760405162461bcd60e51b815260206004820152602a60248201527f5361666545524332303a204552433230206f7065726174696f6e20646964206e60448201527f6f742073756363656564000000000000000000000000000000000000000000006064820152608401610a86565b610beb828261154d565b60008281526001602081905260409091200154819060405184907fbd79b86ffe0ab8e8776151514217cd7cacd52c909f66475c3af44e129f0b00ff90600090a4600091825260016020819052604090922090910155565b6040517fdd62ed3e0000000000000000000000000000000000000000000000000000000081523060048201526001600160a01b038381166024830152600091839186169063dd62ed3e90604401602060405180830381865afa1580156122d7573d6000803e3d6000fd5b505050506040513d601f19601f820116820180604052508101906122fb919061284c565b61230591906128ce565b6040516001600160a01b0385166024820152604481018290529091506109969085907f095ea7b300000000000000000000000000000000000000000000000000000000906064016114e9565b600061236361235e6108a1565b611ff2565b50610928610d91565b60008060008061237a610d91565b905060006123866108a1565b9050600061239482846128ce565b6033546040517f39ebf8230000000000000000000000000000000000000000000000000000000081523060048201529192506000916001600160a01b03909116906339ebf82390602401606060405180830381865afa1580156123fb573d6000803e3d6000fd5b505050506040513d601f19601f8201168201806040525081019061241f9190612b68565b6020015190508082106124f85761243681836129c6565b9650600061244489896128ce565b90508481111561248e576000612467603d54878461246291906129c6565b6111cf565b9050600061247482611ff2565b90508181101561248b5761248881836129c6565b98505b50505b612496610d91565b94508688106124b4576124a987896129c6565b9750600096506124c5565b600097506124c288886129c6565b96505b878510156124d5578497506124f2565b808510156124ee576124e788866129c6565b95506124f2565b8895505b50612505565b61250282826129c6565b95505b505050509193909250565b60606114408484600085856001600160a01b0385163b6125725760405162461bcd60e51b815260206004820152601d60248201527f416464726573733a2063616c6c20746f206e6f6e2d636f6e74726163740000006044820152606401610a86565b600080866001600160a01b0316858760405161258e9190612bc4565b60006040518083038185875af1925050503d80600081146125cb576040519150601f19603f3d011682016040523d82523d6000602084013e6125d0565b606091505b50915091506125e08282866125eb565b979650505050505050565b606083156125fa5750816111e0565b82511561260a5782518084602001fd5b8160405162461bcd60e51b8152600401610a869190612993565b60006020828403121561263657600080fd5b5035919050565b6001600160a01b0381168114611d5b57600080fd5b803561265d8161263d565b919050565b6000806040838503121561267557600080fd5b8235915060208301356126878161263d565b809150509250929050565b634e487b7160e01b600052604160045260246000fd5b604051601f8201601f1916810167ffffffffffffffff811182821017156126d1576126d1612692565b604052919050565b600080600080600080600080610100898b0312156126f657600080fd5b88356127018161263d565b97506020898101356127128161263d565b975060408a01356127228161263d565b965060608a013567ffffffffffffffff8082111561273f57600080fd5b818c0191508c601f83011261275357600080fd5b81358181111561276557612765612692565b8060051b91506127768483016126a8565b818152918301840191848101908f84111561279057600080fd5b938501935b838510156127ba57843592506127aa8361263d565b8282529385019390850190612795565b809a505050505050506127cf60808a01612652565b93506127dd60a08a01612652565b92506127eb60c08a01612652565b915060e089013590509295985092959890939650565b60006020828403121561281357600080fd5b81356111e08161263d565b6000806040838503121561283157600080fd5b823561283c8161263d565b915060208301356126878161263d565b60006020828403121561285e57600080fd5b5051919050565b60006020828403121561287757600080fd5b815180151581146111e057600080fd5b634e487b7160e01b600052603260045260246000fd5b634e487b7160e01b600052601160045260246000fd5b60006000198214156128c7576128c761289d565b5060010190565b600082198211156128e1576128e161289d565b500190565b60005b838110156129015781810151838201526020016128e9565b838111156109965750506000910152565b7f416363657373436f6e74726f6c3a206163636f756e742000000000000000000081526000835161294a8160178501602088016128e6565b7f206973206d697373696e6720726f6c652000000000000000000000000000000060179184019182015283516129878160288401602088016128e6565b01602801949350505050565b60208152600082518060208401526129b28160408501602087016128e6565b601f01601f19169190910160400192915050565b6000828210156129d8576129d861289d565b500390565b6000602082840312156129ef57600080fd5b81516111e08161263d565b600060208284031215612a0c57600080fd5b815160ff811681146111e057600080fd5b600181815b80851115612a58578160001904821115612a3e57612a3e61289d565b80851615612a4b57918102915b93841c9390800290612a22565b509250929050565b600082612a6f57506001610e02565b81612a7c57506000610e02565b8160018114612a925760028114612a9c57612ab8565b6001915050610e02565b60ff841115612aad57612aad61289d565b50506001821b610e02565b5060208310610133831016604e8410600b8410161715612adb575081810a610e02565b612ae58383612a1d565b8060001904821115612af957612af961289d565b029392505050565b60006111e060ff841683612a60565b6000816000190483118215151615612b2a57612b2a61289d565b500290565b600081612b3e57612b3e61289d565b506000190190565b600082612b6357634e487b7160e01b600052601260045260246000fd5b500490565b600060608284031215612b7a57600080fd5b6040516060810181811067ffffffffffffffff82111715612b9d57612b9d612692565b80604052508251815260208301516020820152604083015160408201528091505092915050565b60008251612bd68184602087016128e6565b919091019291505056fea2646970667358221220948a6925be32fe23fce020c4b248f512e5b83131b5b62797e43a54ed8c9d762464736f6c634300080c0033",
  "devdoc": {
    "author": "Forked from https://github.com/Grandthrax/yearn-steth-acc/blob/master/contracts/Strategy.sol",
    "kind": "dev",
    "methods": {
      "addGuardian(address)": {
        "details": "This internal function has to be put in this file because `AccessControl` is not defined in `PoolManagerInternal`",
        "params": {
          "_guardian": "New guardian address"
        }
      },
      "estimatedTotalAssets()": {
        "details": "We are purposely treating stETH and ETH as being equivalent. This is for a few reasons. The main one is that we do not have a good way to value stETH at any current time without creating exploit routes. Currently you can mint eth for steth but can't burn steth for eth so need to sell. Once eth 2.0 is merged you will be able to burn 1-1 as well. The main downside here is that we will noramlly overvalue our position as we expect stETH to trade slightly below peg. That means we will earn profit on deposits and take losses on withdrawals. This may sound scary but it is the equivalent of using virtualprice in a curve lp. As we have seen from many exploits, virtual pricing is safer than touch pricing."
      },
      "getRoleAdmin(bytes32)": {
        "details": "Returns the admin role that controls `role`. See {grantRole} and {revokeRole}. To change a role's admin, use {_setRoleAdmin}."
      },
      "grantRole(bytes32,address)": {
        "details": "Grants `role` to `account`. If `account` had not been already granted `role`, emits a {RoleGranted} event. Requirements: - the caller must have ``role``'s admin role."
      },
      "harvest(uint256)": {
        "params": {
          "borrowInit": "Approximate optimal borrows to have faster convergence on the NR method"
        }
      },
      "hasRole(bytes32,address)": {
        "details": "Returns `true` if `account` has been granted `role`."
      },
      "initialize(address,address,address,address[],address,address,address,uint256)": {
        "params": {
          "_apr": "Estimated apr on staked ETH",
          "_poolManager": "Address of the `PoolManager` lending to this strategy",
          "_stETH": "Address of the stETH token",
          "_stableSwapSTETH": "Address of the stETH/ETH Curve pool",
          "_weth": "Address of wETH",
          "governor": "Address of the governance multisig with governor privilege",
          "guardian": "Address of the guardian",
          "keepers": "List of addresses of keepers"
        }
      },
      "invest(uint256)": {
        "details": "This function allows to override the behavior that could be obtained through `harvest` calls",
        "params": {
          "_amount": "Amount to invest"
        }
      },
      "isActive()": {
        "returns": {
          "_0": "True if the strategy is actively managing a position."
        }
      },
      "renounceRole(bytes32,address)": {
        "details": "Revokes `role` from the calling account. Roles are often managed via {grantRole} and {revokeRole}: this function's purpose is to provide a mechanism for accounts to lose their privileges if they are compromised (such as when a trusted device is misplaced). If the calling account had been granted `role`, emits a {RoleRevoked} event. Requirements: - the caller must be `account`."
      },
      "rescueStuckEth()": {
        "details": "This strategy should never have stuck eth, but let it just in case"
      },
      "revokeGuardian(address)": {
        "params": {
          "guardian": "Old guardian address to revoke"
        }
      },
      "revokeRole(bytes32,address)": {
        "details": "Revokes `role` from `account`. If `account` had been granted `role`, emits a {RoleRevoked} event. Requirements: - the caller must have ``role``'s admin role."
      },
      "setApr(uint256)": {
        "params": {
          "_apr": "New strategy APR"
        }
      },
      "setDebtThreshold(uint256)": {
        "details": "By default this is 0, meaning any losses would cause a harvest which will subsequently report the loss to the Manager for tracking.",
        "params": {
          "_debtThreshold": "How big of a loss this Strategy may carry without"
        }
      },
      "setEmergencyExit()": {
        "details": "This may only be called by the `PoolManager`, because when calling this the `PoolManager` should at the same time update the debt ratioThis function can only be called once by the `PoolManager` contractSee `poolManager.setEmergencyExit()` and `harvest()` for further details."
      },
      "sweep(address,address)": {
        "details": "Implement `_protectedTokens()` to specify any additional tokens that should be protected from sweeping in addition to `want`.",
        "params": {
          "_token": "The token to transfer out of this `PoolManager`.",
          "to": "Address to send the tokens to."
        }
      },
      "updateMaxSingleTrade(uint256)": {
        "params": {
          "_maxSingleTrade": "New `maxSingleTrade` value"
        }
      },
      "updateReferral(address)": {
        "params": {
          "newReferral": "Address of the new referral"
        }
      },
      "updateSlippageProtectionOut(uint256)": {
        "params": {
          "_slippageProtectionOut": "New slippage protection parameter"
        }
      },
      "withdraw(uint256)": {
        "details": "This may only be called by the `PoolManager`",
        "params": {
          "_amountNeeded": "How much `want` to withdraw."
        },
        "returns": {
          "_loss": "Any realized losses",
          "amountFreed": "How much `want` withdrawn."
        }
      }
    },
    "title": "StrategyStETHAcc",
    "version": 1
  },
  "userdoc": {
    "kind": "user",
    "methods": {
      "DENOMINATOR()": {
        "notice": "Parameter used for slippage protection"
      },
      "GUARDIAN_ROLE()": {
        "notice": "Role for guardians and governors"
      },
      "KEEPER_ROLE()": {
        "notice": "Role for keepers"
      },
      "POOLMANAGER_ROLE()": {
        "notice": "Role for `PoolManager` only"
      },
      "addGuardian(address)": {
        "notice": "Adds a new guardian address and echoes the change to the contracts that interact with this collateral `PoolManager`"
      },
      "apr()": {
        "notice": "Current `apr` of the strategy: this apr needs to be manually filled by the strategist and updated when Lido's APR changes. It is put like that as there is no easy way to compute Lido's APR on-chainBase used is `BASE_PARAMS`"
      },
      "debtThreshold()": {
        "notice": "Use this to adjust the threshold at which running a debt causes a harvest trigger. See `setDebtThreshold()` for more details"
      },
      "emergencyExit()": {
        "notice": "See note on `setEmergencyExit()`"
      },
      "estimatedAPR()": {
        "notice": "The ETH APR of owning stETH"
      },
      "estimatedTotalAssets()": {
        "notice": "View function to check the total assets managed by the strategy"
      },
      "harvest()": {
        "notice": "Harvests the Strategy, recognizing any profits or losses and adjusting the Strategy's position."
      },
      "harvest(uint256)": {
        "notice": "Harvests the Strategy, recognizing any profits or losses and adjusting the Strategy's position."
      },
      "initialize(address,address,address,address[],address,address,address,uint256)": {
        "notice": "Constructor of the `Strategy`"
      },
      "invest(uint256)": {
        "notice": "Invests `_amount` in stETH"
      },
      "isActive()": {
        "notice": "Provides an indication of whether this strategy is currently \"active\" in that it is managing an active position, or will manage a position in the future. This should correlate to `harvest()` activity, so that Harvest events can be tracked externally by indexing agents."
      },
      "maxSingleTrade()": {
        "notice": "Maximum trade size within the strategy"
      },
      "poolManager()": {
        "notice": "Reference to the protocol's collateral `PoolManager`"
      },
      "rescueStuckEth()": {
        "notice": "Rescues stuck ETH from the strategy"
      },
      "revokeGuardian(address)": {
        "notice": "Revokes the guardian role and propagates the change to other contracts"
      },
      "setApr(uint256)": {
        "notice": "Changes the estimated APR of the strategy"
      },
      "setDebtThreshold(uint256)": {
        "notice": "Sets how far the Strategy can go into loss without a harvest and report being required."
      },
      "setEmergencyExit()": {
        "notice": "Activates emergency exit. Once activated, the Strategy will exit its position upon the next harvest, depositing all funds into the Manager as quickly as is reasonable given on-chain conditions."
      },
      "slippageProtectionOut()": {
        "notice": "Slippage parameter for the swaps on Curve: out of `DENOMINATOR`"
      },
      "stETH()": {
        "notice": "Reference to the stETH token"
      },
      "stableSwapSTETH()": {
        "notice": "Reference to the Curve ETH/stETH"
      },
      "stethBalance()": {
        "notice": "Returns the stETH balance of the strategy"
      },
      "sweep(address,address)": {
        "notice": "Removes tokens from this Strategy that are not the type of tokens managed by this Strategy. This may be used in case of accidentally sending the wrong kind of token to this Strategy. Tokens will be sent to `governance()`. This will fail if an attempt is made to sweep `want`, or any tokens that are protected by this Strategy. This may only be called by governance."
      },
      "updateMaxSingleTrade(uint256)": {
        "notice": "Updates the size of a trade in the strategy"
      },
      "updateReferral(address)": {
        "notice": "Updates the referral code for Lido"
      },
      "updateSlippageProtectionOut(uint256)": {
        "notice": "Updates the maximum slippage protection parameter"
      },
      "want()": {
        "notice": "Reference to the ERC20 farmed by this strategy"
      },
      "wantBalance()": {
        "notice": "Returns the wETH balance of the strategy"
      },
      "wantBase()": {
        "notice": "Base of the ERC20 token farmed by this strategy"
      },
      "weth()": {
        "notice": "Reference to wETH, it should normally be equal to `want`"
      },
      "withdraw(uint256)": {
        "notice": "Withdraws `_amountNeeded` to `poolManager`."
      }
    },
    "notice": "A strategy designed to getting yield on wETH by putting ETH in Lido or Curve for stETH and exiting for wETH",
    "version": 1
  },
  "storageLayout": {
    "storage": [
      {
        "astId": 52,
        "contract": "contracts/strategies/StETHStrategy/StETHStrategy.sol:StETHStrategy",
        "label": "_initialized",
        "offset": 0,
        "slot": "0",
        "type": "t_bool"
      },
      {
        "astId": 55,
        "contract": "contracts/strategies/StETHStrategy/StETHStrategy.sol:StETHStrategy",
        "label": "_initializing",
        "offset": 1,
        "slot": "0",
        "type": "t_bool"
      },
      {
        "astId": 3409,
        "contract": "contracts/strategies/StETHStrategy/StETHStrategy.sol:StETHStrategy",
        "label": "_roles",
        "offset": 0,
        "slot": "1",
        "type": "t_mapping(t_bytes32,t_struct(RoleData)3404_storage)"
      },
      {
        "astId": 3695,
        "contract": "contracts/strategies/StETHStrategy/StETHStrategy.sol:StETHStrategy",
        "label": "__gap",
        "offset": 0,
        "slot": "2",
        "type": "t_array(t_uint256)49_storage"
      },
      {
        "astId": 14870,
        "contract": "contracts/strategies/StETHStrategy/StETHStrategy.sol:StETHStrategy",
        "label": "poolManager",
        "offset": 0,
        "slot": "51",
        "type": "t_contract(IPoolManager)3973"
      },
      {
        "astId": 14874,
        "contract": "contracts/strategies/StETHStrategy/StETHStrategy.sol:StETHStrategy",
        "label": "want",
        "offset": 0,
        "slot": "52",
        "type": "t_contract(IERC20)2114"
      },
      {
        "astId": 14877,
        "contract": "contracts/strategies/StETHStrategy/StETHStrategy.sol:StETHStrategy",
        "label": "wantBase",
        "offset": 0,
        "slot": "53",
        "type": "t_uint256"
      },
      {
        "astId": 14880,
        "contract": "contracts/strategies/StETHStrategy/StETHStrategy.sol:StETHStrategy",
        "label": "debtThreshold",
        "offset": 0,
        "slot": "54",
        "type": "t_uint256"
      },
      {
        "astId": 14883,
        "contract": "contracts/strategies/StETHStrategy/StETHStrategy.sol:StETHStrategy",
        "label": "emergencyExit",
        "offset": 0,
        "slot": "55",
        "type": "t_bool"
      },
      {
        "astId": 15386,
        "contract": "contracts/strategies/StETHStrategy/StETHStrategy.sol:StETHStrategy",
        "label": "apr",
        "offset": 0,
        "slot": "56",
        "type": "t_uint256"
      },
      {
        "astId": 15390,
        "contract": "contracts/strategies/StETHStrategy/StETHStrategy.sol:StETHStrategy",
        "label": "stableSwapSTETH",
        "offset": 0,
        "slot": "57",
        "type": "t_contract(IStableSwapPool)5747"
      },
      {
        "astId": 15394,
        "contract": "contracts/strategies/StETHStrategy/StETHStrategy.sol:StETHStrategy",
        "label": "weth",
        "offset": 0,
        "slot": "58",
        "type": "t_contract(IWETH9)4054"
      },
      {
        "astId": 15398,
        "contract": "contracts/strategies/StETHStrategy/StETHStrategy.sol:StETHStrategy",
        "label": "stETH",
        "offset": 0,
        "slot": "59",
        "type": "t_contract(ISteth)5768"
      },
      {
        "astId": 15401,
        "contract": "contracts/strategies/StETHStrategy/StETHStrategy.sol:StETHStrategy",
        "label": "_referral",
        "offset": 0,
        "slot": "60",
        "type": "t_address"
      },
      {
        "astId": 15404,
        "contract": "contracts/strategies/StETHStrategy/StETHStrategy.sol:StETHStrategy",
        "label": "maxSingleTrade",
        "offset": 0,
        "slot": "61",
        "type": "t_uint256"
      },
      {
        "astId": 15411,
        "contract": "contracts/strategies/StETHStrategy/StETHStrategy.sol:StETHStrategy",
        "label": "slippageProtectionOut",
        "offset": 0,
        "slot": "62",
        "type": "t_uint256"
      }
    ],
    "types": {
      "t_address": {
        "encoding": "inplace",
        "label": "address",
        "numberOfBytes": "20"
      },
      "t_array(t_uint256)49_storage": {
        "base": "t_uint256",
        "encoding": "inplace",
        "label": "uint256[49]",
        "numberOfBytes": "1568"
      },
      "t_bool": {
        "encoding": "inplace",
        "label": "bool",
        "numberOfBytes": "1"
      },
      "t_bytes32": {
        "encoding": "inplace",
        "label": "bytes32",
        "numberOfBytes": "32"
      },
      "t_contract(IERC20)2114": {
        "encoding": "inplace",
        "label": "contract IERC20",
        "numberOfBytes": "20"
      },
      "t_contract(IPoolManager)3973": {
        "encoding": "inplace",
        "label": "contract IPoolManager",
        "numberOfBytes": "20"
      },
      "t_contract(IStableSwapPool)5747": {
        "encoding": "inplace",
        "label": "contract IStableSwapPool",
        "numberOfBytes": "20"
      },
      "t_contract(ISteth)5768": {
        "encoding": "inplace",
        "label": "contract ISteth",
        "numberOfBytes": "20"
      },
      "t_contract(IWETH9)4054": {
        "encoding": "inplace",
        "label": "contract IWETH9",
        "numberOfBytes": "20"
      },
      "t_mapping(t_address,t_bool)": {
        "encoding": "mapping",
        "key": "t_address",
        "label": "mapping(address => bool)",
        "numberOfBytes": "32",
        "value": "t_bool"
      },
      "t_mapping(t_bytes32,t_struct(RoleData)3404_storage)": {
        "encoding": "mapping",
        "key": "t_bytes32",
        "label": "mapping(bytes32 => struct AccessControlUpgradeable.RoleData)",
        "numberOfBytes": "32",
        "value": "t_struct(RoleData)3404_storage"
      },
      "t_struct(RoleData)3404_storage": {
        "encoding": "inplace",
        "label": "struct AccessControlUpgradeable.RoleData",
        "members": [
          {
            "astId": 3401,
            "contract": "contracts/strategies/StETHStrategy/StETHStrategy.sol:StETHStrategy",
            "label": "members",
            "offset": 0,
            "slot": "0",
            "type": "t_mapping(t_address,t_bool)"
          },
          {
            "astId": 3403,
            "contract": "contracts/strategies/StETHStrategy/StETHStrategy.sol:StETHStrategy",
            "label": "adminRole",
            "offset": 0,
            "slot": "1",
            "type": "t_bytes32"
          }
        ],
        "numberOfBytes": "64"
      },
      "t_uint256": {
        "encoding": "inplace",
        "label": "uint256",
        "numberOfBytes": "32"
      }
    }
  }
}